{
  "contractName": "CrowdFunding",
  "abi": [
    {
      "anonymous": false,
      "inputs": [
        {
          "indexed": false,
          "internalType": "address",
          "name": "sender",
          "type": "address"
        },
        {
          "indexed": false,
          "internalType": "address",
          "name": "ownableAddress",
          "type": "address"
        }
      ],
      "name": "OwnableAddressSet",
      "type": "event"
    },
    {
      "anonymous": false,
      "inputs": [
        {
          "indexed": true,
          "internalType": "uint256",
          "name": "campaignId",
          "type": "uint256"
        }
      ],
      "name": "approved",
      "type": "event"
    },
    {
      "anonymous": false,
      "inputs": [
        {
          "indexed": true,
          "internalType": "uint256",
          "name": "campaignId",
          "type": "uint256"
        },
        {
          "indexed": false,
          "internalType": "bytes32",
          "name": "_companyName",
          "type": "bytes32"
        },
        {
          "indexed": false,
          "internalType": "bytes32",
          "name": "_title",
          "type": "bytes32"
        },
        {
          "indexed": false,
          "internalType": "bytes32",
          "name": "_description",
          "type": "bytes32"
        },
        {
          "indexed": true,
          "internalType": "uint256",
          "name": "_pricePerToken",
          "type": "uint256"
        },
        {
          "indexed": false,
          "internalType": "string",
          "name": "_tokenName",
          "type": "string"
        },
        {
          "indexed": true,
          "internalType": "uint256",
          "name": "deadLine",
          "type": "uint256"
        },
        {
          "indexed": false,
          "internalType": "uint256",
          "name": "_target",
          "type": "uint256"
        },
        {
          "indexed": false,
          "internalType": "string",
          "name": "_tokenSymbol",
          "type": "string"
        },
        {
          "indexed": false,
          "internalType": "uint256",
          "name": "_totalSupply",
          "type": "uint256"
        }
      ],
      "name": "campaignCreated",
      "type": "event"
    },
    {
      "anonymous": false,
      "inputs": [
        {
          "indexed": true,
          "internalType": "uint256",
          "name": "campaignId",
          "type": "uint256"
        },
        {
          "indexed": true,
          "internalType": "uint256",
          "name": "contribution",
          "type": "uint256"
        },
        {
          "indexed": true,
          "internalType": "address",
          "name": "contributer",
          "type": "address"
        }
      ],
      "name": "contribution",
      "type": "event"
    },
    {
      "anonymous": false,
      "inputs": [
        {
          "indexed": true,
          "internalType": "uint256",
          "name": "campaignId",
          "type": "uint256"
        },
        {
          "indexed": true,
          "internalType": "uint256",
          "name": "contribution",
          "type": "uint256"
        },
        {
          "indexed": true,
          "internalType": "address",
          "name": "contributer",
          "type": "address"
        }
      ],
      "name": "refunded",
      "type": "event"
    },
    {
      "anonymous": false,
      "inputs": [
        {
          "indexed": true,
          "internalType": "uint256",
          "name": "campaignId",
          "type": "uint256"
        }
      ],
      "name": "rejected",
      "type": "event"
    },
    {
      "inputs": [],
      "name": "_ownableContract",
      "outputs": [
        {
          "internalType": "contract OwnableContract",
          "name": "",
          "type": "address"
        }
      ],
      "stateMutability": "view",
      "type": "function",
      "constant": true
    },
    {
      "inputs": [],
      "name": "campaignCount",
      "outputs": [
        {
          "internalType": "uint256",
          "name": "",
          "type": "uint256"
        }
      ],
      "stateMutability": "view",
      "type": "function",
      "constant": true
    },
    {
      "inputs": [
        {
          "internalType": "uint256",
          "name": "campaignId",
          "type": "uint256"
        },
        {
          "internalType": "uint256",
          "name": "tokens",
          "type": "uint256"
        }
      ],
      "name": "contribute",
      "outputs": [
        {
          "internalType": "bool",
          "name": "",
          "type": "bool"
        }
      ],
      "stateMutability": "payable",
      "type": "function",
      "payable": true
    },
    {
      "inputs": [],
      "name": "isOwnableSet",
      "outputs": [
        {
          "internalType": "bool",
          "name": "",
          "type": "bool"
        }
      ],
      "stateMutability": "view",
      "type": "function",
      "constant": true
    },
    {
      "inputs": [],
      "name": "ownable",
      "outputs": [
        {
          "internalType": "contract OwnableContract",
          "name": "",
          "type": "address"
        }
      ],
      "stateMutability": "view",
      "type": "function",
      "constant": true
    },
    {
      "inputs": [
        {
          "internalType": "uint256",
          "name": "",
          "type": "uint256"
        },
        {
          "internalType": "address",
          "name": "",
          "type": "address"
        }
      ],
      "name": "receipts",
      "outputs": [
        {
          "internalType": "address",
          "name": "contributer",
          "type": "address"
        },
        {
          "internalType": "uint256",
          "name": "campaignId",
          "type": "uint256"
        },
        {
          "internalType": "uint256",
          "name": "tokens",
          "type": "uint256"
        },
        {
          "internalType": "uint256",
          "name": "receivedEth",
          "type": "uint256"
        }
      ],
      "stateMutability": "view",
      "type": "function",
      "constant": true
    },
    {
      "inputs": [
        {
          "internalType": "uint256",
          "name": "campaignId",
          "type": "uint256"
        },
        {
          "internalType": "uint256",
          "name": "_amount",
          "type": "uint256"
        }
      ],
      "name": "refund",
      "outputs": [
        {
          "internalType": "bool",
          "name": "",
          "type": "bool"
        }
      ],
      "stateMutability": "payable",
      "type": "function",
      "payable": true
    },
    {
      "inputs": [
        {
          "internalType": "address",
          "name": "_ownable",
          "type": "address"
        }
      ],
      "name": "setOwnable",
      "outputs": [
        {
          "internalType": "bool",
          "name": "",
          "type": "bool"
        }
      ],
      "stateMutability": "nonpayable",
      "type": "function"
    },
    {
      "inputs": [
        {
          "internalType": "bytes32",
          "name": "_companyName",
          "type": "bytes32"
        },
        {
          "internalType": "bytes32",
          "name": "_title",
          "type": "bytes32"
        },
        {
          "internalType": "bytes32",
          "name": "_description",
          "type": "bytes32"
        },
        {
          "internalType": "uint256",
          "name": "_pricePerToken",
          "type": "uint256"
        },
        {
          "internalType": "string",
          "name": "_tokenName",
          "type": "string"
        },
        {
          "internalType": "uint256",
          "name": "deadLine",
          "type": "uint256"
        },
        {
          "internalType": "uint256",
          "name": "_target",
          "type": "uint256"
        },
        {
          "internalType": "string",
          "name": "_tokenSymbol",
          "type": "string"
        },
        {
          "internalType": "uint256",
          "name": "_totalSupply",
          "type": "uint256"
        }
      ],
      "name": "createCampaign",
      "outputs": [],
      "stateMutability": "nonpayable",
      "type": "function"
    },
    {
      "inputs": [
        {
          "internalType": "uint256",
          "name": "campaignId",
          "type": "uint256"
        }
      ],
      "name": "approveCampaign",
      "outputs": [
        {
          "internalType": "enum StateVariables.campainStatus",
          "name": "",
          "type": "uint8"
        }
      ],
      "stateMutability": "nonpayable",
      "type": "function"
    },
    {
      "inputs": [
        {
          "internalType": "uint256",
          "name": "campaignId",
          "type": "uint256"
        }
      ],
      "name": "rejectCampaign",
      "outputs": [
        {
          "internalType": "enum StateVariables.campainStatus",
          "name": "",
          "type": "uint8"
        }
      ],
      "stateMutability": "nonpayable",
      "type": "function"
    },
    {
      "inputs": [
        {
          "internalType": "uint256",
          "name": "campaignId",
          "type": "uint256"
        }
      ],
      "name": "withDraw",
      "outputs": [
        {
          "internalType": "bool",
          "name": "",
          "type": "bool"
        }
      ],
      "stateMutability": "nonpayable",
      "type": "function"
    },
    {
      "inputs": [
        {
          "internalType": "address",
          "name": "_contractAddress",
          "type": "address"
        }
      ],
      "name": "getCompany",
      "outputs": [
        {
          "components": [
            {
              "internalType": "bytes32",
              "name": "companyName",
              "type": "bytes32"
            },
            {
              "internalType": "string",
              "name": "tokenSymbol",
              "type": "string"
            },
            {
              "internalType": "string",
              "name": "tokenName",
              "type": "string"
            },
            {
              "internalType": "address",
              "name": "contractAddress",
              "type": "address"
            },
            {
              "internalType": "uint256",
              "name": "totalSupply",
              "type": "uint256"
            }
          ],
          "internalType": "struct StateVariables.Company",
          "name": "",
          "type": "tuple"
        }
      ],
      "stateMutability": "view",
      "type": "function",
      "constant": true
    },
    {
      "inputs": [
        {
          "internalType": "uint256",
          "name": "campaignId",
          "type": "uint256"
        }
      ],
      "name": "getCampaign",
      "outputs": [
        {
          "components": [
            {
              "internalType": "address",
              "name": "contractAddress",
              "type": "address"
            },
            {
              "internalType": "bytes32",
              "name": "companyName",
              "type": "bytes32"
            },
            {
              "internalType": "string",
              "name": "tokenName",
              "type": "string"
            },
            {
              "internalType": "string",
              "name": "tokenSymbol",
              "type": "string"
            },
            {
              "internalType": "uint256",
              "name": "campaignId",
              "type": "uint256"
            },
            {
              "internalType": "address",
              "name": "creator",
              "type": "address"
            },
            {
              "internalType": "bytes32",
              "name": "campaignTitle",
              "type": "bytes32"
            },
            {
              "internalType": "bytes32",
              "name": "campaignDescription",
              "type": "bytes32"
            },
            {
              "internalType": "uint256",
              "name": "pricePerToken",
              "type": "uint256"
            },
            {
              "internalType": "uint256",
              "name": "target",
              "type": "uint256"
            },
            {
              "internalType": "uint256",
              "name": "contribution",
              "type": "uint256"
            },
            {
              "internalType": "uint256",
              "name": "heldBalance",
              "type": "uint256"
            },
            {
              "internalType": "uint256",
              "name": "startDate",
              "type": "uint256"
            },
            {
              "internalType": "uint256",
              "name": "endDate",
              "type": "uint256"
            },
            {
              "internalType": "enum StateVariables.campainStatus",
              "name": "status",
              "type": "uint8"
            },
            {
              "internalType": "bool",
              "name": "withdrawalStatus",
              "type": "bool"
            }
          ],
          "internalType": "struct StateVariables.Campaign",
          "name": "",
          "type": "tuple"
        }
      ],
      "stateMutability": "view",
      "type": "function",
      "constant": true
    },
    {
      "inputs": [
        {
          "internalType": "address",
          "name": "_address",
          "type": "address"
        }
      ],
      "name": "getBalance",
      "outputs": [
        {
          "internalType": "uint256",
          "name": "",
          "type": "uint256"
        }
      ],
      "stateMutability": "view",
      "type": "function",
      "constant": true
    },
    {
      "inputs": [
        {
          "internalType": "uint256",
          "name": "campaignId",
          "type": "uint256"
        }
      ],
      "name": "companyDetailsByCampaignId",
      "outputs": [
        {
          "internalType": "address",
          "name": "",
          "type": "address"
        },
        {
          "internalType": "string",
          "name": "",
          "type": "string"
        },
        {
          "internalType": "string",
          "name": "",
          "type": "string"
        },
        {
          "internalType": "uint256",
          "name": "",
          "type": "uint256"
        },
        {
          "internalType": "bool",
          "name": "",
          "type": "bool"
        }
      ],
      "stateMutability": "view",
      "type": "function",
      "constant": true
    }
  ],
  "bytecode": "0x608060405234801561001057600080fd5b50615ece806100206000396000f3fe60806040526004361062000127576000357c01000000000000000000000000000000000000000000000000000000009004806381fa758411620000b4578063c75bc794116200007e578063c75bc79414620003f3578063db8adee5146200043b578063ee4e1b531462000469578063f8b2cb4f14620004ad5762000127565b806381fa758414620003195780638c5909171462000349578063b38854be146200037f578063c4618d1814620003af5762000127565b80635598f8cc11620000f65780635598f8cc146200022b5780635af36e3e146200026f57806362bc56e614620002a55780637274e30d14620002e95762000127565b8063034d09da146200012c57806314174f3314620001705780634178b24914620001b457806350d63b9914620001fb575b600080fd5b3480156200013957600080fd5b50620001586004803603810190620001529190620028b3565b620004f1565b60405162000167919062002965565b60405180910390f35b3480156200017d57600080fd5b506200019c6004803603810190620001969190620028b3565b62000831565b604051620001ab91906200299f565b60405180910390f35b348015620001c157600080fd5b50620001e06004803603810190620001da919062002a21565b62000a04565b604051620001f2949392919062002a8a565b60405180910390f35b3480156200020857600080fd5b506200021362000a61565b60405162000222919062002b42565b60405180910390f35b3480156200023857600080fd5b50620002576004803603810190620002519190620028b3565b62000a87565b60405162000266919062002dd7565b60405180910390f35b6200028d600480360381019062000287919062002dfb565b62000dae565b6040516200029c91906200299f565b60405180910390f35b348015620002b257600080fd5b50620002d16004803603810190620002cb919062002e42565b62001267565b604051620002e0919062002efb565b60405180910390f35b348015620002f657600080fd5b506200030162001460565b60405162000310919062002f1f565b60405180910390f35b3480156200032657600080fd5b506200033162001466565b6040516200034091906200299f565b60405180910390f35b62000367600480360381019062000361919062002dfb565b62001479565b6040516200037691906200299f565b60405180910390f35b3480156200038c57600080fd5b506200039762001a3c565b604051620003a6919062002b42565b60405180910390f35b348015620003bc57600080fd5b50620003db6004803603810190620003d5919062002e42565b62001a62565b604051620003ea91906200299f565b60405180910390f35b3480156200040057600080fd5b506200041f6004803603810190620004199190620028b3565b62001d1a565b6040516200043295949392919062002f8e565b60405180910390f35b3480156200044857600080fd5b506200046760048036038101906200046191906200317b565b62001e07565b005b3480156200047657600080fd5b506200049560048036038101906200048f9190620028b3565b6200241a565b604051620004a4919062002965565b60405180910390f35b348015620004ba57600080fd5b50620004d96004803603810190620004d3919062002e42565b620026fc565b604051620004e8919062002f1f565b60405180910390f35b6000818060015410158015620005075750600081115b62000549576040517f08c379a00000000000000000000000000000000000000000000000000000000081526004016200054090620032e8565b60405180910390fd5b824260026000838152602001908152602001600020600d01541015620005a6576040517f08c379a00000000000000000000000000000000000000000000000000000000081526004016200059d906200335a565b60405180910390fd5b8360006002811115620005be57620005bd620028e5565b5b60026000838152602001908152602001600020600e0160009054906101000a900460ff166002811115620005f757620005f6620028e5565b5b036200063a576040517f08c379a00000000000000000000000000000000000000000000000000000000081526004016200063190620033cc565b60405180910390fd5b60016002811115620006515762000650620028e5565b5b60026000838152602001908152602001600020600e0160009054906101000a900460ff1660028111156200068a5762000689620028e5565b5b03620006cd576040517f08c379a0000000000000000000000000000000000000000000000000000000008152600401620006c4906200343e565b60405180910390fd5b600660009054906101000a900473ffffffffffffffffffffffffffffffffffffffff1673ffffffffffffffffffffffffffffffffffffffff16639026dee8336040518263ffffffff167c010000000000000000000000000000000000000000000000000000000002815260040162000746919062003460565b602060405180830381865afa15801562000764573d6000803e3d6000fd5b505050506040513d601f19601f820116820180604052508101906200078a9190620034ae565b6200079457600080fd5b600160026000878152602001908152602001600020600e0160006101000a81548160ff02191690836002811115620007d157620007d0620028e5565b5b0217905550847f8c9878cc57a61b734d09368704b49894d5fb6b8f68f9cb352054ebe5b15a49e860405160405180910390a260026000868152602001908152602001600020600e0160009054906101000a900460ff169350505050919050565b6000818060015410158015620008475750600081115b62000889576040517f08c379a00000000000000000000000000000000000000000000000000000000081526004016200088090620032e8565b60405180910390fd5b600060026000858152602001908152602001600020905080600d0154421015620008ea576040517f08c379a0000000000000000000000000000000000000000000000000000000008152600401620008e19062003530565b60405180910390fd5b3373ffffffffffffffffffffffffffffffffffffffff168160050160009054906101000a900473ffffffffffffffffffffffffffffffffffffffff1673ffffffffffffffffffffffffffffffffffffffff16146200097f576040517f08c379a00000000000000000000000000000000000000000000000000000000081526004016200097690620035a2565b60405180910390fd5b3373ffffffffffffffffffffffffffffffffffffffff166108fc826008015483600a0154620009af9190620035f3565b9081150290604051600060405180830381858888f19350505050158015620009db573d6000803e3d6000fd5b50600181600e0160016101000a81548160ff021916908315150217905550600192505050919050565b6004602052816000526040600020602052806000526040600020600091509150508060000160009054906101000a900473ffffffffffffffffffffffffffffffffffffffff16908060010154908060020154908060030154905084565b600860009054906101000a900473ffffffffffffffffffffffffffffffffffffffff1681565b62000a9162002745565b81806001541015801562000aa55750600081115b62000ae7576040517f08c379a000000000000000000000000000000000000000000000000000000000815260040162000ade90620032e8565b60405180910390fd5b60026000848152602001908152602001600020604051806102000160405290816000820160009054906101000a900473ffffffffffffffffffffffffffffffffffffffff1673ffffffffffffffffffffffffffffffffffffffff1673ffffffffffffffffffffffffffffffffffffffff1681526020016001820154815260200160028201805462000b78906200366d565b80601f016020809104026020016040519081016040528092919081815260200182805462000ba6906200366d565b801562000bf75780601f1062000bcb5761010080835404028352916020019162000bf7565b820191906000526020600020905b81548152906001019060200180831162000bd957829003601f168201915b5050505050815260200160038201805462000c12906200366d565b80601f016020809104026020016040519081016040528092919081815260200182805462000c40906200366d565b801562000c915780601f1062000c655761010080835404028352916020019162000c91565b820191906000526020600020905b81548152906001019060200180831162000c7357829003601f168201915b50505050508152602001600482015481526020016005820160009054906101000a900473ffffffffffffffffffffffffffffffffffffffff1673ffffffffffffffffffffffffffffffffffffffff1673ffffffffffffffffffffffffffffffffffffffff16815260200160068201548152602001600782015481526020016008820154815260200160098201548152602001600a8201548152602001600b8201548152602001600c8201548152602001600d8201548152602001600e820160009054906101000a900460ff16600281111562000d725762000d71620028e5565b5b600281111562000d875762000d86620028e5565b5b8152602001600e820160019054906101000a900460ff161515151581525050915050919050565b600082806001541015801562000dc45750600081115b62000e06576040517f08c379a000000000000000000000000000000000000000000000000000000000815260040162000dfd90620032e8565b60405180910390fd5b834260026000838152602001908152602001600020600d0154101562000e63576040517f08c379a000000000000000000000000000000000000000000000000000000000815260040162000e5a906200335a565b60405180910390fd5b600060026000878152602001908152602001600020905060006004600088815260200190815260200160002060003373ffffffffffffffffffffffffffffffffffffffff1673ffffffffffffffffffffffffffffffffffffffff1681526020019081526020016000209050858160020154101562000f18576040517f08c379a000000000000000000000000000000000000000000000000000000000815260040162000f0f90620036f2565b60405180910390fd5b80600301543073ffffffffffffffffffffffffffffffffffffffff1631101562000f79576040517f08c379a000000000000000000000000000000000000000000000000000000000815260040162000f709062003764565b60405180910390fd5b8160000160009054906101000a900473ffffffffffffffffffffffffffffffffffffffff1673ffffffffffffffffffffffffffffffffffffffff1663beabacc8338460050160009054906101000a900473ffffffffffffffffffffffffffffffffffffffff16670de0b6b3a76400008a62000ff59190620035f3565b6040518463ffffffff167c0100000000000000000000000000000000000000000000000000000000028152600401620010319392919062003786565b600060405180830381600087803b1580156200104c57600080fd5b505af115801562001061573d6000803e3d6000fd5b505050503373ffffffffffffffffffffffffffffffffffffffff166108fc836008015488620010919190620035f3565b9081150290604051600060405180830381858888f19350505050158015620010bd573d6000803e3d6000fd5b5085816002016000828254620010d49190620037c3565b925050819055508582600a016000828254620010f19190620037c3565b925050819055508160080154866200110a9190620035f3565b8160030160008282546200111f9190620037c3565b9250508190555081600a015482600a01819055508582600b016000828254620011499190620037fe565b9250508190555081600b0154600560008460050160009054906101000a900473ffffffffffffffffffffffffffffffffffffffff1673ffffffffffffffffffffffffffffffffffffffff1673ffffffffffffffffffffffffffffffffffffffff1681526020019081526020016000208190555085600560003373ffffffffffffffffffffffffffffffffffffffff1673ffffffffffffffffffffffffffffffffffffffff16815260200190815260200160002060008282546200120d9190620037c3565b925050819055503373ffffffffffffffffffffffffffffffffffffffff1686887f05d2f1712ee9236ad359917514636b645f2a01960eefea50967f66d9cb443cde60405160405180910390a4600194505050505092915050565b620012716200280e565b600360008373ffffffffffffffffffffffffffffffffffffffff1673ffffffffffffffffffffffffffffffffffffffff1681526020019081526020016000206040518060a001604052908160008201548152602001600182018054620012d7906200366d565b80601f016020809104026020016040519081016040528092919081815260200182805462001305906200366d565b8015620013565780601f106200132a5761010080835404028352916020019162001356565b820191906000526020600020905b8154815290600101906020018083116200133857829003601f168201915b5050505050815260200160028201805462001371906200366d565b80601f01602080910402602001604051908101604052809291908181526020018280546200139f906200366d565b8015620013f05780601f10620013c457610100808354040283529160200191620013f0565b820191906000526020600020905b815481529060010190602001808311620013d257829003601f168201915b505050505081526020016003820160009054906101000a900473ffffffffffffffffffffffffffffffffffffffff1673ffffffffffffffffffffffffffffffffffffffff1673ffffffffffffffffffffffffffffffffffffffff1681526020016004820154815250509050919050565b60015481565b600860149054906101000a900460ff1681565b60008280600154101580156200148f5750600081115b620014d1576040517f08c379a0000000000000000000000000000000000000000000000000000000008152600401620014c890620032e8565b60405180910390fd5b834260026000838152602001908152602001600020600d015410156200152e576040517f08c379a000000000000000000000000000000000000000000000000000000000815260040162001525906200335a565b60405180910390fd5b600060026000878152602001908152602001600020905060006004600088815260200190815260200160002060003373ffffffffffffffffffffffffffffffffffffffff1673ffffffffffffffffffffffffffffffffffffffff1681526020019081526020016000209050858260080154620015ab9190620035f3565b3414620015ef576040517f08c379a0000000000000000000000000000000000000000000000000000000008152600401620015e690620036f2565b60405180910390fd5b60006002811115620016065762001605620028e5565b5b82600e0160009054906101000a900460ff1660028111156200162d576200162c620028e5565b5b1462001670576040517f08c379a0000000000000000000000000000000000000000000000000000000008152600401620016679062003889565b60405180910390fd5b600082600a015403620016fc57600086118015620016a3575081600901548683600a0154620016a09190620037fe565b11155b8015620016b4575081600901548611155b620016f6576040517f08c379a0000000000000000000000000000000000000000000000000000000008152600401620016ed90620038fb565b60405180910390fd5b62001765565b60008611801562001722575081600901548683600a01546200171f9190620037fe565b11155b62001764576040517f08c379a00000000000000000000000000000000000000000000000000000000081526004016200175b906200396d565b60405180910390fd5b5b8582600a0160008282546200177b9190620037fe565b925050819055508160000160009054906101000a900473ffffffffffffffffffffffffffffffffffffffff1673ffffffffffffffffffffffffffffffffffffffff1663beabacc88360050160009054906101000a900473ffffffffffffffffffffffffffffffffffffffff1633670de0b6b3a76400008a620017fe9190620035f3565b6040518463ffffffff167c01000000000000000000000000000000000000000000000000000000000281526004016200183a9392919062003786565b600060405180830381600087803b1580156200185557600080fd5b505af11580156200186a573d6000803e3d6000fd5b505050508582600b016000828254620018849190620037c3565b9250508190555085600560008460050160009054906101000a900473ffffffffffffffffffffffffffffffffffffffff1673ffffffffffffffffffffffffffffffffffffffff1673ffffffffffffffffffffffffffffffffffffffff1681526020019081526020016000206000828254620019009190620037c3565b9250508190555085600560003373ffffffffffffffffffffffffffffffffffffffff1673ffffffffffffffffffffffffffffffffffffffff1681526020019081526020016000206000828254620019589190620037fe565b9250508190555085816002016000828254620019759190620037fe565b9250508190555034816003016000828254620019929190620037fe565b92505081905550338160000160006101000a81548173ffffffffffffffffffffffffffffffffffffffff021916908373ffffffffffffffffffffffffffffffffffffffff1602179055508681600101819055503373ffffffffffffffffffffffffffffffffffffffff1682600a0154887fc84cdef8ffed2c03b52b412accc6d5b91af9eb50c8480fdfddd078846470b2d060405160405180910390a4600194505050505092915050565b600660009054906101000a900473ffffffffffffffffffffffffffffffffffffffff1681565b60008073ffffffffffffffffffffffffffffffffffffffff168273ffffffffffffffffffffffffffffffffffffffff160362001ad5576040517f08c379a000000000000000000000000000000000000000000000000000000000815260040162001acc90620039df565b60405180910390fd5b600073ffffffffffffffffffffffffffffffffffffffff16600860009054906101000a900473ffffffffffffffffffffffffffffffffffffffff1673ffffffffffffffffffffffffffffffffffffffff160362001bcd5781600860006101000a81548173ffffffffffffffffffffffffffffffffffffffff021916908373ffffffffffffffffffffffffffffffffffffffff1602179055507fb309a3e7f526e103b1b3df0dfa0a2e9784e4505551ab3a82c0bc7db7087699f2338360405162001ba092919062003a01565b60405180910390a16001600860146101000a81548160ff0219169083151502179055506001905062001d15565b600860009054906101000a900473ffffffffffffffffffffffffffffffffffffffff1673ffffffffffffffffffffffffffffffffffffffff1663e0e3671c336040518263ffffffff167c010000000000000000000000000000000000000000000000000000000002815260040162001c46919062003460565b602060405180830381865afa15801562001c64573d6000803e3d6000fd5b505050506040513d601f19601f8201168201806040525081019062001c8a9190620034ae565b62001c9457600080fd5b81600860006101000a81548173ffffffffffffffffffffffffffffffffffffffff021916908373ffffffffffffffffffffffffffffffffffffffff1602179055507fb309a3e7f526e103b1b3df0dfa0a2e9784e4505551ab3a82c0bc7db7087699f2338360405162001d0892919062003a01565b60405180910390a1600190505b919050565b600060608060008085806001541015801562001d365750600081115b62001d78576040517f08c379a000000000000000000000000000000000000000000000000000000000815260040162001d6f90620032e8565b60405180910390fd5b600062001d858862000a87565b9050600062001d98826000015162001267565b905080606001518160400151826020015183608001516000600281111562001dc55762001dc4620028e5565b5b866101c00151600281111562001de05762001ddf620028e5565b5b1462001dee57600062001df1565b60015b9750975097509750975050505091939590929450565b600660009054906101000a900473ffffffffffffffffffffffffffffffffffffffff1673ffffffffffffffffffffffffffffffffffffffff166363a846f8336040518263ffffffff167c010000000000000000000000000000000000000000000000000000000002815260040162001e80919062003460565b602060405180830381865afa15801562001e9e573d6000803e3d6000fd5b505050506040513d601f19601f8201168201806040525081019062001ec49190620034ae565b1562001f07576040517f08c379a000000000000000000000000000000000000000000000000000000000815260040162001efe9062003a7e565b60405180910390fd5b8083111562001f4d576040517f08c379a000000000000000000000000000000000000000000000000000000000815260040162001f449062003af0565b60405180910390fd5b83421062001f92576040517f08c379a000000000000000000000000000000000000000000000000000000000815260040162001f899062003b62565b60405180910390fd5b60008583833360405162001fa69062002856565b62001fb5949392919062003b84565b604051809103906000f08015801562001fd2573d6000803e3d6000fd5b50905080600760006101000a81548173ffffffffffffffffffffffffffffffffffffffff021916908373ffffffffffffffffffffffffffffffffffffffff160217905550600160008154809291906200202b9062003bdf565b91905055506040518061020001604052808273ffffffffffffffffffffffffffffffffffffffff1681526020018b815260200187815260200184815260200160015481526020013373ffffffffffffffffffffffffffffffffffffffff1681526020018a815260200189815260200188815260200185815260200160008152602001838152602001428152602001868152602001600280811115620020d557620020d4620028e5565b5b81526020016000151581525060026000600154815260200190815260200160002060008201518160000160006101000a81548173ffffffffffffffffffffffffffffffffffffffff021916908373ffffffffffffffffffffffffffffffffffffffff1602179055506020820151816001015560408201518160020190816200215e919062003dfa565b50606082015181600301908162002176919062003dfa565b506080820151816004015560a08201518160050160006101000a81548173ffffffffffffffffffffffffffffffffffffffff021916908373ffffffffffffffffffffffffffffffffffffffff16021790555060c0820151816006015560e082015181600701556101008201518160080155610120820151816009015561014082015181600a015561016082015181600b015561018082015181600c01556101a082015181600d01556101c082015181600e0160006101000a81548160ff021916908360028111156200224d576200224c620028e5565b5b02179055506101e082015181600e0160016101000a81548160ff02191690831515021790555090505081600560003373ffffffffffffffffffffffffffffffffffffffff1673ffffffffffffffffffffffffffffffffffffffff168152602001908152602001600020819055506040518060a001604052808b81526020018481526020018781526020018273ffffffffffffffffffffffffffffffffffffffff16815260200183815250600360008373ffffffffffffffffffffffffffffffffffffffff1673ffffffffffffffffffffffffffffffffffffffff16815260200190815260200160002060008201518160000155602082015181600101908162002357919062003dfa565b5060408201518160020190816200236f919062003dfa565b5060608201518160030160006101000a81548173ffffffffffffffffffffffffffffffffffffffff021916908373ffffffffffffffffffffffffffffffffffffffff1602179055506080820151816004015590505084876001547f2caabeaff968a26d6b7712926ea1a5adfdce0e50200599f60a3b50c3d2d912fb8d8d8d8c8b8b8b60405162002406979695949392919062003ef2565b60405180910390a450505050505050505050565b6000818060015410158015620024305750600081115b62002472576040517f08c379a00000000000000000000000000000000000000000000000000000000081526004016200246990620032e8565b60405180910390fd5b82600060028111156200248a5762002489620028e5565b5b60026000838152602001908152602001600020600e0160009054906101000a900460ff166002811115620024c357620024c2620028e5565b5b0362002506576040517f08c379a0000000000000000000000000000000000000000000000000000000008152600401620024fd90620033cc565b60405180910390fd5b600160028111156200251d576200251c620028e5565b5b60026000838152602001908152602001600020600e0160009054906101000a900460ff166002811115620025565762002555620028e5565b5b0362002599576040517f08c379a000000000000000000000000000000000000000000000000000000000815260040162002590906200343e565b60405180910390fd5b600660009054906101000a900473ffffffffffffffffffffffffffffffffffffffff1673ffffffffffffffffffffffffffffffffffffffff16639026dee8336040518263ffffffff167c010000000000000000000000000000000000000000000000000000000002815260040162002612919062003460565b602060405180830381865afa15801562002630573d6000803e3d6000fd5b505050506040513d601f19601f82011682018060405250810190620026569190620034ae565b6200266057600080fd5b600060026000868152602001908152602001600020600e0160006101000a81548160ff021916908360028111156200269d576200269c620028e5565b5b0217905550837f7d4061e68fab364906497bb959d95ad3f052a3978fed6ce9942a2b8f737aae5460405160405180910390a260026000858152602001908152602001600020600e0160009054906101000a900460ff1692505050919050565b6000600560008373ffffffffffffffffffffffffffffffffffffffff1673ffffffffffffffffffffffffffffffffffffffff168152602001908152602001600020549050919050565b604051806102000160405280600073ffffffffffffffffffffffffffffffffffffffff16815260200160008019168152602001606081526020016060815260200160008152602001600073ffffffffffffffffffffffffffffffffffffffff168152602001600080191681526020016000801916815260200160008152602001600081526020016000815260200160008152602001600081526020016000815260200160006002811115620027ff57620027fe620028e5565b5b81526020016000151581525090565b6040518060a00160405280600080191681526020016060815260200160608152602001600073ffffffffffffffffffffffffffffffffffffffff168152602001600081525090565b611f1b8062003f7e83390190565b6000604051905090565b600080fd5b600080fd5b6000819050919050565b6200288d8162002878565b81146200289957600080fd5b50565b600081359050620028ad8162002882565b92915050565b600060208284031215620028cc57620028cb6200286e565b5b6000620028dc848285016200289c565b91505092915050565b7f4e487b7100000000000000000000000000000000000000000000000000000000600052602160045260246000fd5b60038110620029285762002927620028e5565b5b50565b60008190506200293b8262002914565b919050565b60006200294d826200292b565b9050919050565b6200295f8162002940565b82525050565b60006020820190506200297c600083018462002954565b92915050565b60008115159050919050565b620029998162002982565b82525050565b6000602082019050620029b660008301846200298e565b92915050565b600073ffffffffffffffffffffffffffffffffffffffff82169050919050565b6000620029e982620029bc565b9050919050565b620029fb81620029dc565b811462002a0757600080fd5b50565b60008135905062002a1b81620029f0565b92915050565b6000806040838503121562002a3b5762002a3a6200286e565b5b600062002a4b858286016200289c565b925050602062002a5e8582860162002a0a565b9150509250929050565b62002a7381620029dc565b82525050565b62002a848162002878565b82525050565b600060808201905062002aa1600083018762002a68565b62002ab0602083018662002a79565b62002abf604083018562002a79565b62002ace606083018462002a79565b95945050505050565b6000819050919050565b600062002b0262002afc62002af684620029bc565b62002ad7565b620029bc565b9050919050565b600062002b168262002ae1565b9050919050565b600062002b2a8262002b09565b9050919050565b62002b3c8162002b1d565b82525050565b600060208201905062002b59600083018462002b31565b92915050565b62002b6a81620029dc565b82525050565b6000819050919050565b62002b858162002b70565b82525050565b600081519050919050565b600082825260208201905092915050565b60005b8381101562002bc757808201518184015260208101905062002baa565b60008484015250505050565b6000601f19601f8301169050919050565b600062002bf18262002b8b565b62002bfd818562002b96565b935062002c0f81856020860162002ba7565b62002c1a8162002bd3565b840191505092915050565b62002c308162002878565b82525050565b62002c418162002940565b82525050565b62002c528162002982565b82525050565b60006102008301600083015162002c73600086018262002b5f565b50602083015162002c88602086018262002b7a565b506040830151848203604086015262002ca2828262002be4565b9150506060830151848203606086015262002cbe828262002be4565b915050608083015162002cd5608086018262002c25565b5060a083015162002cea60a086018262002b5f565b5060c083015162002cff60c086018262002b7a565b5060e083015162002d1460e086018262002b7a565b5061010083015162002d2b61010086018262002c25565b5061012083015162002d4261012086018262002c25565b5061014083015162002d5961014086018262002c25565b5061016083015162002d7061016086018262002c25565b5061018083015162002d8761018086018262002c25565b506101a083015162002d9e6101a086018262002c25565b506101c083015162002db56101c086018262002c36565b506101e083015162002dcc6101e086018262002c47565b508091505092915050565b6000602082019050818103600083015262002df3818462002c58565b905092915050565b6000806040838503121562002e155762002e146200286e565b5b600062002e25858286016200289c565b925050602062002e38858286016200289c565b9150509250929050565b60006020828403121562002e5b5762002e5a6200286e565b5b600062002e6b8482850162002a0a565b91505092915050565b600060a08301600083015162002e8e600086018262002b7a565b506020830151848203602086015262002ea8828262002be4565b9150506040830151848203604086015262002ec4828262002be4565b915050606083015162002edb606086018262002b5f565b50608083015162002ef0608086018262002c25565b508091505092915050565b6000602082019050818103600083015262002f17818462002e74565b905092915050565b600060208201905062002f36600083018462002a79565b92915050565b600082825260208201905092915050565b600062002f5a8262002b8b565b62002f66818562002f3c565b935062002f7881856020860162002ba7565b62002f838162002bd3565b840191505092915050565b600060a08201905062002fa5600083018862002a68565b818103602083015262002fb9818762002f4d565b9050818103604083015262002fcf818662002f4d565b905062002fe0606083018562002a79565b62002fef60808301846200298e565b9695505050505050565b620030048162002b70565b81146200301057600080fd5b50565b600081359050620030248162002ff9565b92915050565b600080fd5b600080fd5b7f4e487b7100000000000000000000000000000000000000000000000000000000600052604160045260246000fd5b6200306e8262002bd3565b810181811067ffffffffffffffff8211171562003090576200308f62003034565b5b80604052505050565b6000620030a562002864565b9050620030b3828262003063565b919050565b600067ffffffffffffffff821115620030d657620030d562003034565b5b620030e18262002bd3565b9050602081019050919050565b82818337600083830152505050565b6000620031146200310e84620030b8565b62003099565b9050828152602081018484840111156200313357620031326200302f565b5b62003140848285620030ee565b509392505050565b600082601f83011262003160576200315f6200302a565b5b813562003172848260208601620030fd565b91505092915050565b60008060008060008060008060006101208a8c031215620031a157620031a06200286e565b5b6000620031b18c828d0162003013565b9950506020620031c48c828d0162003013565b9850506040620031d78c828d0162003013565b9750506060620031ea8c828d016200289c565b96505060808a013567ffffffffffffffff8111156200320e576200320d62002873565b5b6200321c8c828d0162003148565b95505060a06200322f8c828d016200289c565b94505060c0620032428c828d016200289c565b93505060e08a013567ffffffffffffffff81111562003266576200326562002873565b5b620032748c828d0162003148565b925050610100620032888c828d016200289c565b9150509295985092959850929598565b7f4e6f2063616d706169676e000000000000000000000000000000000000000000600082015250565b6000620032d0600b8362002f3c565b9150620032dd8262003298565b602082019050919050565b600060208201905081810360008301526200330381620032c1565b9050919050565b7f446561644c696e65207061737365640000000000000000000000000000000000600082015250565b600062003342600f8362002f3c565b91506200334f826200330a565b602082019050919050565b60006020820190508181036000830152620033758162003333565b9050919050565b7f416c726561647920617070726f76656400000000000000000000000000000000600082015250565b6000620033b460108362002f3c565b9150620033c1826200337c565b602082019050919050565b60006020820190508181036000830152620033e781620033a5565b9050919050565b7f416c72656164792072656a656374656400000000000000000000000000000000600082015250565b60006200342660108362002f3c565b91506200343382620033ee565b602082019050919050565b60006020820190508181036000830152620034598162003417565b9050919050565b600060208201905062003477600083018462002a68565b92915050565b620034888162002982565b81146200349457600080fd5b50565b600081519050620034a8816200347d565b92915050565b600060208284031215620034c757620034c66200286e565b5b6000620034d78482850162003497565b91505092915050565b7f446561644c696e65206e6f742070617373656400000000000000000000000000600082015250565b60006200351860138362002f3c565b91506200352582620034e0565b602082019050919050565b600060208201905081810360008301526200354b8162003509565b9050919050565b7f4e6f7420612063726561746f7200000000000000000000000000000000000000600082015250565b60006200358a600d8362002f3c565b9150620035978262003552565b602082019050919050565b60006020820190508181036000830152620035bd816200357b565b9050919050565b7f4e487b7100000000000000000000000000000000000000000000000000000000600052601160045260246000fd5b6000620036008262002878565b91506200360d8362002878565b92508282026200361d8162002878565b91508282048414831517620036375762003636620035c4565b5b5092915050565b7f4e487b7100000000000000000000000000000000000000000000000000000000600052602260045260246000fd5b600060028204905060018216806200368657607f821691505b6020821081036200369c576200369b6200363e565b5b50919050565b7f496e636f727265637420616d6f756e7400000000000000000000000000000000600082015250565b6000620036da60108362002f3c565b9150620036e782620036a2565b602082019050919050565b600060208201905081810360008301526200370d81620036cb565b9050919050565b7f636f6e7472616374206c6f772062616c616e6365000000000000000000000000600082015250565b60006200374c60148362002f3c565b9150620037598262003714565b602082019050919050565b600060208201905081810360008301526200377f816200373d565b9050919050565b60006060820190506200379d600083018662002a68565b620037ac602083018562002a68565b620037bb604083018462002a79565b949350505050565b6000620037d08262002878565b9150620037dd8362002878565b9250828203905081811115620037f857620037f7620035c4565b5b92915050565b60006200380b8262002878565b9150620038188362002878565b9250828201905080821115620038335762003832620035c4565b5b92915050565b7f4e6f7420617070726f7665640000000000000000000000000000000000000000600082015250565b600062003871600c8362002f3c565b91506200387e8262003839565b602082019050919050565b60006020820190508181036000830152620038a48162003862565b9050919050565b7f496e76616c696420636f6e747269627574696f6e2e0000000000000000000000600082015250565b6000620038e360158362002f3c565b9150620038f082620038ab565b602082019050919050565b600060208201905081810360008301526200391681620038d4565b9050919050565b7f496e76616c696420636f6e747269627574696f6e732e00000000000000000000600082015250565b60006200395560168362002f3c565b915062003962826200391d565b602082019050919050565b60006020820190508181036000830152620039888162003946565b9050919050565b7f7a65726f20616464726573730000000000000000000000000000000000000000600082015250565b6000620039c7600c8362002f3c565b9150620039d4826200398f565b602082019050919050565b60006020820190508181036000830152620039fa81620039b8565b9050919050565b600060408201905062003a18600083018562002a68565b62003a27602083018462002a68565b9392505050565b7f41646d696e2063616e2774000000000000000000000000000000000000000000600082015250565b600062003a66600b8362002f3c565b915062003a738262003a2e565b602082019050919050565b6000602082019050818103600083015262003a998162003a57565b9050919050565b7f696e76616c696420746172676574000000000000000000000000000000000000600082015250565b600062003ad8600e8362002f3c565b915062003ae58262003aa0565b602082019050919050565b6000602082019050818103600083015262003b0b8162003ac9565b9050919050565b7f64617465206973206f6c64000000000000000000000000000000000000000000600082015250565b600062003b4a600b8362002f3c565b915062003b578262003b12565b602082019050919050565b6000602082019050818103600083015262003b7d8162003b3b565b9050919050565b6000608082019050818103600083015262003ba0818762002f4d565b9050818103602083015262003bb6818662002f4d565b905062003bc7604083018562002a79565b62003bd6606083018462002a68565b95945050505050565b600062003bec8262002878565b91507fffffffffffffffffffffffffffffffffffffffffffffffffffffffffffffffff820362003c215762003c20620035c4565b5b600182019050919050565b60008190508160005260206000209050919050565b60006020601f8301049050919050565b60008160020a8302905092915050565b60006008830262003c937fffffffffffffffffffffffffffffffffffffffffffffffffffffffffffffffff8262003c51565b62003c9f868362003c51565b95508019841693508086168417925050509392505050565b600062003cd862003cd262003ccc8462002878565b62002ad7565b62002878565b9050919050565b6000819050919050565b62003cf48362003cb7565b62003d0c62003d038262003cdf565b84845462003c61565b825550505050565b600090565b62003d2362003d14565b62003d3081848462003ce9565b505050565b5b8181101562003d585762003d4c60008262003d19565b60018101905062003d36565b5050565b601f82111562003da75762003d718162003c2c565b62003d7c8462003c41565b8101602085101562003d8c578190505b62003da462003d9b8562003c41565b83018262003d35565b50505b505050565b60008160020a8304905092915050565b600062003dcf6000198460080262003dac565b1980831691505092915050565b600062003dea838362003dbc565b9150826002028217905092915050565b62003e058262002b8b565b67ffffffffffffffff81111562003e215762003e2062003034565b5b62003e2d82546200366d565b62003e3a82828562003d5c565b600060209050601f83116001811462003e72576000841562003e5d578287015190505b62003e69858262003ddc565b86555062003ed9565b601f19841662003e828662003c2c565b60005b8281101562003eac5784890151825560018201915060208501945060208101905062003e85565b8683101562003ecc578489015162003ec8601f89168262003dbc565b8355505b6001600288020188555050505b505050505050565b62003eec8162002b70565b82525050565b600060e08201905062003f09600083018a62003ee1565b62003f18602083018962003ee1565b62003f27604083018862003ee1565b818103606083015262003f3b818762002f4d565b905062003f4c608083018662002a79565b81810360a083015262003f60818562002f4d565b905062003f7160c083018462002a79565b9897505050505050505056fe60806040523480156200001157600080fd5b5060405162001f1b38038062001f1b8339818101604052810190620000379190620004c6565b838381600390816200004a9190620007bd565b5080600490816200005c9190620007bd565b50505062000096816012600a62000074919062000a27565b8462000081919062000a78565b62000100640100000000026401000000009004565b620000af6200027f640100000000026401000000009004565b60068190555033600760006101000a81548173ffffffffffffffffffffffffffffffffffffffff021916908373ffffffffffffffffffffffffffffffffffffffff1602179055505050505062000baf565b600073ffffffffffffffffffffffffffffffffffffffff168273ffffffffffffffffffffffffffffffffffffffff160362000172576040517f08c379a0000000000000000000000000000000000000000000000000000000008152600401620001699062000b24565b60405180910390fd5b6200018f6000838362000289640100000000026401000000009004565b8060026000828254620001a3919062000b46565b92505081905550806000808473ffffffffffffffffffffffffffffffffffffffff1673ffffffffffffffffffffffffffffffffffffffff168152602001908152602001600020600082825401925050819055508173ffffffffffffffffffffffffffffffffffffffff16600073ffffffffffffffffffffffffffffffffffffffff167fddf252ad1be2c89b69c2b068fc378daa952ba7f163c4a11628f55a4df523b3ef8360405162000256919062000b92565b60405180910390a36200027b600083836200028e640100000000026401000000009004565b5050565b6000600254905090565b505050565b505050565b6000604051905090565b600080fd5b600080fd5b600080fd5b600080fd5b6000601f19601f8301169050919050565b7f4e487b7100000000000000000000000000000000000000000000000000000000600052604160045260246000fd5b620002fc82620002b1565b810181811067ffffffffffffffff821117156200031e576200031d620002c2565b5b80604052505050565b60006200033362000293565b9050620003418282620002f1565b919050565b600067ffffffffffffffff821115620003645762000363620002c2565b5b6200036f82620002b1565b9050602081019050919050565b60005b838110156200039c5780820151818401526020810190506200037f565b60008484015250505050565b6000620003bf620003b98462000346565b62000327565b905082815260208101848484011115620003de57620003dd620002ac565b5b620003eb8482856200037c565b509392505050565b600082601f8301126200040b576200040a620002a7565b5b81516200041d848260208601620003a8565b91505092915050565b6000819050919050565b6200043b8162000426565b81146200044757600080fd5b50565b6000815190506200045b8162000430565b92915050565b600073ffffffffffffffffffffffffffffffffffffffff82169050919050565b60006200048e8262000461565b9050919050565b620004a08162000481565b8114620004ac57600080fd5b50565b600081519050620004c08162000495565b92915050565b60008060008060808587031215620004e357620004e26200029d565b5b600085015167ffffffffffffffff811115620005045762000503620002a2565b5b6200051287828801620003f3565b945050602085015167ffffffffffffffff811115620005365762000535620002a2565b5b6200054487828801620003f3565b935050604062000557878288016200044a565b92505060606200056a87828801620004af565b91505092959194509250565b600081519050919050565b7f4e487b7100000000000000000000000000000000000000000000000000000000600052602260045260246000fd5b60006002820490506001821680620005c957607f821691505b602082108103620005df57620005de62000581565b5b50919050565b60008190508160005260206000209050919050565b60006020601f8301049050919050565b60008160020a8302905092915050565b6000600883026200064c7fffffffffffffffffffffffffffffffffffffffffffffffffffffffffffffffff826200060a565b6200065886836200060a565b95508019841693508086168417925050509392505050565b6000819050919050565b60006200069b620006956200068f8462000426565b62000670565b62000426565b9050919050565b6000819050919050565b620006b7836200067a565b620006cf620006c682620006a2565b8484546200061a565b825550505050565b600090565b620006e6620006d7565b620006f3818484620006ac565b505050565b5b818110156200071b576200070f600082620006dc565b600181019050620006f9565b5050565b601f8211156200076a576200073481620005e5565b6200073f84620005fa565b810160208510156200074f578190505b620007676200075e85620005fa565b830182620006f8565b50505b505050565b60008160020a8304905092915050565b600062000792600019846008026200076f565b1980831691505092915050565b6000620007ad83836200077f565b9150826002028217905092915050565b620007c88262000576565b67ffffffffffffffff811115620007e457620007e3620002c2565b5b620007f08254620005b0565b620007fd8282856200071f565b600060209050601f83116001811462000835576000841562000820578287015190505b6200082c85826200079f565b8655506200089c565b601f1984166200084586620005e5565b60005b828110156200086f5784890151825560018201915060208501945060208101905062000848565b868310156200088f57848901516200088b601f8916826200077f565b8355505b6001600288020188555050505b505050505050565b7f4e487b7100000000000000000000000000000000000000000000000000000000600052601160045260246000fd5b6000600282049050919050565b6000808291508390505b600185111562000932578086048111156200090a5762000909620008a4565b5b60018516156200091a5780820291505b80810290506200092a85620008d3565b9450620008ea565b94509492505050565b6000826200094d576001905062000a20565b816200095d576000905062000a20565b81600181146200097657600281146200098157620009b7565b600191505062000a20565b60ff841115620009965762000995620008a4565b5b8360020a915084821115620009b057620009af620008a4565b5b5062000a20565b5060208310610133831016604e8410600b8410161715620009f15782820a905083811115620009eb57620009ea620008a4565b5b62000a20565b62000a008484846001620008e0565b9250905081840481111562000a1a5762000a19620008a4565b5b81810290505b9392505050565b600062000a348262000426565b915062000a418362000426565b925062000a707fffffffffffffffffffffffffffffffffffffffffffffffffffffffffffffffff84846200093b565b905092915050565b600062000a858262000426565b915062000a928362000426565b925082820262000aa28162000426565b9150828204841483151762000abc5762000abb620008a4565b5b5092915050565b600082825260208201905092915050565b7f45524332303a206d696e7420746f20746865207a65726f206164647265737300600082015250565b600062000b0c601f8362000ac3565b915062000b198262000ad4565b602082019050919050565b6000602082019050818103600083015262000b3f8162000afd565b9050919050565b600062000b538262000426565b915062000b608362000426565b925082820190508082111562000b7b5762000b7a620008a4565b5b92915050565b62000b8c8162000426565b82525050565b600060208201905062000ba9600083018462000b81565b92915050565b61135c8062000bbf6000396000f3fe608060405234801561001057600080fd5b50600436106100ec576000357c01000000000000000000000000000000000000000000000000000000009004806339509351116100a9578063a457c2d711610083578063a457c2d714610247578063a9059cbb14610277578063beabacc8146102a7578063dd62ed3e146102c3576100ec565b806339509351146101c957806370a08231146101f957806395d89b4114610229576100ec565b806306fdde03146100f1578063095ea7b31461010f57806318160ddd1461013f5780631bbc4b831461015d57806323b872dd1461017b578063313ce567146101ab575b600080fd5b6100f96102f3565b6040516101069190610bbf565b60405180910390f35b61012960048036038101906101249190610c7a565b610385565b6040516101369190610cd5565b60405180910390f35b6101476103a8565b6040516101549190610cff565b60405180910390f35b6101656103b2565b6040516101729190610d79565b60405180910390f35b61019560048036038101906101909190610d94565b6103d8565b6040516101a29190610cd5565b60405180910390f35b6101b3610407565b6040516101c09190610e03565b60405180910390f35b6101e360048036038101906101de9190610c7a565b610410565b6040516101f09190610cd5565b60405180910390f35b610213600480360381019061020e9190610e1e565b610447565b6040516102209190610cff565b60405180910390f35b61023161048f565b60405161023e9190610bbf565b60405180910390f35b610261600480360381019061025c9190610c7a565b610521565b60405161026e9190610cd5565b60405180910390f35b610291600480360381019061028c9190610c7a565b610598565b60405161029e9190610cd5565b60405180910390f35b6102c160048036038101906102bc9190610d94565b6105bb565b005b6102dd60048036038101906102d89190610e4b565b6105cb565b6040516102ea9190610cff565b60405180910390f35b60606003805461030290610eba565b80601f016020809104026020016040519081016040528092919081815260200182805461032e90610eba565b801561037b5780601f106103505761010080835404028352916020019161037b565b820191906000526020600020905b81548152906001019060200180831161035e57829003601f168201915b5050505050905090565b600080610390610652565b905061039d81858561065a565b600191505092915050565b6000600254905090565b600560009054906101000a900473ffffffffffffffffffffffffffffffffffffffff1681565b6000806103e3610652565b90506103f0858285610823565b6103fb8585856108af565b60019150509392505050565b60006012905090565b60008061041b610652565b905061043c81858561042d85896105cb565b6104379190610f1a565b61065a565b600191505092915050565b60008060008373ffffffffffffffffffffffffffffffffffffffff1673ffffffffffffffffffffffffffffffffffffffff168152602001908152602001600020549050919050565b60606004805461049e90610eba565b80601f01602080910402602001604051908101604052809291908181526020018280546104ca90610eba565b80156105175780601f106104ec57610100808354040283529160200191610517565b820191906000526020600020905b8154815290600101906020018083116104fa57829003601f168201915b5050505050905090565b60008061052c610652565b9050600061053a82866105cb565b90508381101561057f576040517f08c379a000000000000000000000000000000000000000000000000000000000815260040161057690610fc0565b60405180910390fd5b61058c828686840361065a565b60019250505092915050565b6000806105a3610652565b90506105b08185856108af565b600191505092915050565b6105c68383836108af565b505050565b6000600160008473ffffffffffffffffffffffffffffffffffffffff1673ffffffffffffffffffffffffffffffffffffffff16815260200190815260200160002060008373ffffffffffffffffffffffffffffffffffffffff1673ffffffffffffffffffffffffffffffffffffffff16815260200190815260200160002054905092915050565b600033905090565b600073ffffffffffffffffffffffffffffffffffffffff168373ffffffffffffffffffffffffffffffffffffffff16036106c9576040517f08c379a00000000000000000000000000000000000000000000000000000000081526004016106c090611052565b60405180910390fd5b600073ffffffffffffffffffffffffffffffffffffffff168273ffffffffffffffffffffffffffffffffffffffff1603610738576040517f08c379a000000000000000000000000000000000000000000000000000000000815260040161072f906110e4565b60405180910390fd5b80600160008573ffffffffffffffffffffffffffffffffffffffff1673ffffffffffffffffffffffffffffffffffffffff16815260200190815260200160002060008473ffffffffffffffffffffffffffffffffffffffff1673ffffffffffffffffffffffffffffffffffffffff168152602001908152602001600020819055508173ffffffffffffffffffffffffffffffffffffffff168373ffffffffffffffffffffffffffffffffffffffff167f8c5be1e5ebec7d5bd14f71427d1e84f3dd0314c0f7b2291e5b200ac8c7c3b925836040516108169190610cff565b60405180910390a3505050565b600061082f84846105cb565b90507fffffffffffffffffffffffffffffffffffffffffffffffffffffffffffffffff81146108a9578181101561089b576040517f08c379a000000000000000000000000000000000000000000000000000000000815260040161089290611150565b60405180910390fd5b6108a8848484840361065a565b5b50505050565b600073ffffffffffffffffffffffffffffffffffffffff168373ffffffffffffffffffffffffffffffffffffffff160361091e576040517f08c379a0000000000000000000000000000000000000000000000000000000008152600401610915906111e2565b60405180910390fd5b600073ffffffffffffffffffffffffffffffffffffffff168273ffffffffffffffffffffffffffffffffffffffff160361098d576040517f08c379a000000000000000000000000000000000000000000000000000000000815260040161098490611274565b60405180910390fd5b610998838383610b25565b60008060008573ffffffffffffffffffffffffffffffffffffffff1673ffffffffffffffffffffffffffffffffffffffff16815260200190815260200160002054905081811015610a1e576040517f08c379a0000000000000000000000000000000000000000000000000000000008152600401610a1590611306565b60405180910390fd5b8181036000808673ffffffffffffffffffffffffffffffffffffffff1673ffffffffffffffffffffffffffffffffffffffff16815260200190815260200160002081905550816000808573ffffffffffffffffffffffffffffffffffffffff1673ffffffffffffffffffffffffffffffffffffffff168152602001908152602001600020600082825401925050819055508273ffffffffffffffffffffffffffffffffffffffff168473ffffffffffffffffffffffffffffffffffffffff167fddf252ad1be2c89b69c2b068fc378daa952ba7f163c4a11628f55a4df523b3ef84604051610b0c9190610cff565b60405180910390a3610b1f848484610b2a565b50505050565b505050565b505050565b600081519050919050565b600082825260208201905092915050565b60005b83811015610b69578082015181840152602081019050610b4e565b60008484015250505050565b6000601f19601f8301169050919050565b6000610b9182610b2f565b610b9b8185610b3a565b9350610bab818560208601610b4b565b610bb481610b75565b840191505092915050565b60006020820190508181036000830152610bd98184610b86565b905092915050565b600080fd5b600073ffffffffffffffffffffffffffffffffffffffff82169050919050565b6000610c1182610be6565b9050919050565b610c2181610c06565b8114610c2c57600080fd5b50565b600081359050610c3e81610c18565b92915050565b6000819050919050565b610c5781610c44565b8114610c6257600080fd5b50565b600081359050610c7481610c4e565b92915050565b60008060408385031215610c9157610c90610be1565b5b6000610c9f85828601610c2f565b9250506020610cb085828601610c65565b9150509250929050565b60008115159050919050565b610ccf81610cba565b82525050565b6000602082019050610cea6000830184610cc6565b92915050565b610cf981610c44565b82525050565b6000602082019050610d146000830184610cf0565b92915050565b6000819050919050565b6000610d3f610d3a610d3584610be6565b610d1a565b610be6565b9050919050565b6000610d5182610d24565b9050919050565b6000610d6382610d46565b9050919050565b610d7381610d58565b82525050565b6000602082019050610d8e6000830184610d6a565b92915050565b600080600060608486031215610dad57610dac610be1565b5b6000610dbb86828701610c2f565b9350506020610dcc86828701610c2f565b9250506040610ddd86828701610c65565b9150509250925092565b600060ff82169050919050565b610dfd81610de7565b82525050565b6000602082019050610e186000830184610df4565b92915050565b600060208284031215610e3457610e33610be1565b5b6000610e4284828501610c2f565b91505092915050565b60008060408385031215610e6257610e61610be1565b5b6000610e7085828601610c2f565b9250506020610e8185828601610c2f565b9150509250929050565b7f4e487b7100000000000000000000000000000000000000000000000000000000600052602260045260246000fd5b60006002820490506001821680610ed257607f821691505b602082108103610ee557610ee4610e8b565b5b50919050565b7f4e487b7100000000000000000000000000000000000000000000000000000000600052601160045260246000fd5b6000610f2582610c44565b9150610f3083610c44565b9250828201905080821115610f4857610f47610eeb565b5b92915050565b7f45524332303a2064656372656173656420616c6c6f77616e63652062656c6f7760008201527f207a65726f000000000000000000000000000000000000000000000000000000602082015250565b6000610faa602583610b3a565b9150610fb582610f4e565b604082019050919050565b60006020820190508181036000830152610fd981610f9d565b9050919050565b7f45524332303a20617070726f76652066726f6d20746865207a65726f2061646460008201527f7265737300000000000000000000000000000000000000000000000000000000602082015250565b600061103c602483610b3a565b915061104782610fe0565b604082019050919050565b6000602082019050818103600083015261106b8161102f565b9050919050565b7f45524332303a20617070726f766520746f20746865207a65726f20616464726560008201527f7373000000000000000000000000000000000000000000000000000000000000602082015250565b60006110ce602283610b3a565b91506110d982611072565b604082019050919050565b600060208201905081810360008301526110fd816110c1565b9050919050565b7f45524332303a20696e73756666696369656e7420616c6c6f77616e6365000000600082015250565b600061113a601d83610b3a565b915061114582611104565b602082019050919050565b600060208201905081810360008301526111698161112d565b9050919050565b7f45524332303a207472616e736665722066726f6d20746865207a65726f20616460008201527f6472657373000000000000000000000000000000000000000000000000000000602082015250565b60006111cc602583610b3a565b91506111d782611170565b604082019050919050565b600060208201905081810360008301526111fb816111bf565b9050919050565b7f45524332303a207472616e7366657220746f20746865207a65726f206164647260008201527f6573730000000000000000000000000000000000000000000000000000000000602082015250565b600061125e602383610b3a565b915061126982611202565b604082019050919050565b6000602082019050818103600083015261128d81611251565b9050919050565b7f45524332303a207472616e7366657220616d6f756e742065786365656473206260008201527f616c616e63650000000000000000000000000000000000000000000000000000602082015250565b60006112f0602683610b3a565b91506112fb82611294565b604082019050919050565b6000602082019050818103600083015261131f816112e3565b905091905056fea2646970667358221220cdc7b65040058a35456d298017e2066dbe8bfde90011188c4012ccad210ab27164736f6c63430008110033a26469706673582212204471d5343317d45550a615c30b06646714fe0c9f860a1c2c9b80beb9d825fec064736f6c63430008110033",
  "immutableReferences": {},
  "source": "// SPDX-License-Identifier: UNLICENSED\npragma solidity ^0.8;\n\nimport \"./ERC20/ERC20.sol\";\nimport \"./ERC20/Ownable.sol\";\nimport \"./Contribution.sol\";\n// import \"./StateVariables.sol\";\n// import \"./Modifiers.sol\";\n// import \"./Refund.sol\";\n\n/// @title CrowdFudndingDao\n/// @author \n/// @notice You can use this contract for mint a new ERC20 based INRtoken\n/// @dev All function calls are currently implemented without side effects\n\ncontract CrowdFunding is Contribution {\n    //State Variables\n    ERC20Token private token;\n    OwnableContract public _ownableContract;\n    bool public isOwnableSet;\n\n    function setOwnable(address _ownable) external returns (bool) {\n        require(\n            _ownable != address(0),\n            \"zero address\"\n        );\n        if (address(_ownableContract) == address(0)) {\n            _ownableContract = OwnableContract(_ownable);\n            emit OwnableAddressSet(msg.sender, _ownable);\n            isOwnableSet = true;\n            return true;\n        }\n        require(_ownableContract.checkOwner(msg.sender));\n        _ownableContract = OwnableContract(_ownable);\n        emit OwnableAddressSet(msg.sender, _ownable);\n        return true;\n    }\n\n\n\n    /**\n    * @notice To create the new campaign\n    * @dev It will create a new ERC20 token\n    * @param _companyName name of the comapany\n    * @param _title Title of the campaign\n    * @param _description Description of the campaign\n    * @param _pricePerToken Campaign creator can decide price per token would be fixed cost\n    * @param _tokenName Name of the ERC20 Token\n    * @param _tokenSymbol Symbol of the ERC20 token\n    * @param deadLine End date for the campaign\n    * @param _target Goal of this campaign \n    * @param _totalSupply no of token wants to launch by campaign creator\n    **/\n\n    function createCampaign(\n        bytes32 _companyName,\n        bytes32 _title,\n        bytes32 _description,\n        uint256 _pricePerToken,\n        string memory _tokenName,\n        uint256 deadLine,\n        uint256 _target,\n        string memory _tokenSymbol,\n        uint256 _totalSupply\n    ) external {\n        require(!ownable.admin(msg.sender), \"Admin can't\");\n        require(_target <= _totalSupply, \"invalid target\");\n        require(block.timestamp < deadLine, \"date is old\");\n        address newContract = address(new ERC20Token(_tokenName, _tokenSymbol, _totalSupply, msg.sender));\n        token = ERC20Token(newContract);\n        campaignCount++;\n\n        campaigns[campaignCount] = Campaign({\n        contractAddress : newContract,\n        companyName: _companyName,\n        tokenName: _tokenName,\n        tokenSymbol : _tokenSymbol,\n        campaignId: campaignCount, \n        creator: msg.sender,\n        campaignTitle: _title,\n        campaignDescription: _description,\n        pricePerToken: _pricePerToken,\n        target: _target,\n        heldBalance: _totalSupply,\n        startDate: block.timestamp,\n        endDate: deadLine,\n        contribution: 0,\n        status: campainStatus.PENDING,\n        withdrawalStatus: false\n        });\n        balance[msg.sender] = _totalSupply;\n\n        companies[newContract] = Company({\n            companyName: _companyName,\n            tokenSymbol : _tokenSymbol,\n            contractAddress : newContract,\n            tokenName: _tokenName,\n            totalSupply : _totalSupply \n        });\n\n\n        emit campaignCreated(\n            campaignCount, \n            _companyName,\n            _title,\n            _description,\n            _pricePerToken,\n            _tokenName,\n            deadLine,\n            _target,\n            _tokenSymbol,\n            _totalSupply\n            );\n    }\n\n    /**\n    * @notice Approve  campaign\n    * @dev admin can approve this campaign\n    * @param campaignId campaign is approved by the admin \n    * @return status returning the enum for the referrence of campaign states\n    */\n\n    function approveCampaign(uint campaignId) external isCampaignFound(campaignId) isApprovedOrRejectedAlready(campaignId) returns(campainStatus) {\n        require(\n            ownable.checkAdmin(msg.sender)\n        );\n        campaigns[campaignId].status = campainStatus.APPROVED;\n        emit approved(campaignId);\n        return campaigns[campaignId].status; \n    }\n\n    /**\n    * @notice Reject campaign\n    * @dev admin can reject this campaign\n    * @param campaignId campaign is rejected by the admin by the help of this id \n    * @return status returning the enum for the referrence of campaign states\n    */\n\n    function rejectCampaign(uint campaignId) external  isCampaignFound(campaignId) isDeadLinePassed(campaignId) isApprovedOrRejectedAlready(campaignId) returns(campainStatus) {\n        require(\n            ownable.checkAdmin(msg.sender)\n        );\n        campaigns[campaignId].status = campainStatus.REJECTED;\n        emit rejected(campaignId);\n        return campaigns[campaignId].status; \n\n    }\n\n    // function contributeToCampaign(uint256 _campaignId, uint256 _contribution) external {\n    //     contribute(_campaignId,_contribution);\n    // }\n\n    // function refundAgainstCampaign(uint256 campaignId, uint256 _amount) external {\n    //     refundInstance.refund(campaignId, _amount);\n    // }\n\n    /**\n    * @notice handling the withDraw\n    * @dev users can call withDraw if campaign deadLine crossed\n    * @param campaignId campaignId helping to find the campaign by this id \n    * @return bool return true if the withDrawal gets success\n    */\n\n    function withDraw(uint256 campaignId) external isCampaignFound(campaignId) returns(bool) {\n        Campaign storage currentCampaign = campaigns[campaignId];\n        require(block.timestamp >= currentCampaign.endDate,\"DeadLine not passed\");\n        require(currentCampaign.creator == msg.sender, \"Not a creator\");\n        payable(msg.sender).transfer(currentCampaign.contribution * currentCampaign.pricePerToken);\n        currentCampaign.withdrawalStatus = true;\n        return true;\n    }\n\n    /**\n     * @notice Get company\n     * @dev get the company details\n     * @param _contractAddress get the company details that are stored against to this contract address\n     * @return company returning the structure of the company\n     */\n\n    function getCompany(address _contractAddress) public view returns (Company memory){\n        return companies[_contractAddress];\n    }\n\n    /**\n     * @notice get campaign\n     * @dev get the campaign, that are stored against to the id\n     * @param campaignId we can check and get the details of the campaign\n     * @return campaign returning the all details of the campaign in structure\n     */\n\n    function getCampaign(uint256 campaignId) public view isCampaignFound(campaignId) returns(Campaign memory){\n        return campaigns[campaignId];\n    }\n\n    /**\n     * @notice get balance\n     * @dev return the balance of the user\n     * @param _address to get the balance, stored against to the address\n     * @return balance returning the balance of the user in uint256 type\n     */\n\n    function getBalance(address _address) external view returns(uint256) {\n        return balance[_address];\n    }\n\n    function companyDetailsByCampaignId(uint256 campaignId) external view isCampaignFound(campaignId) \n    returns (\n        address,\n        string memory, \n        string memory, \n        uint256,\n        bool\n    ){\n            Campaign memory _campaign = getCampaign(campaignId);\n            Company memory _company = getCompany(_campaign.contractAddress);\n            return (\n                _company.contractAddress,\n                _company.tokenName,\n                _company.tokenSymbol,\n                _company.totalSupply,\n                _campaign.status == campainStatus.APPROVED ? true: false\n            );           \n    }\n}",
  "sourcePath": "/home/neosoft/projects/solidity/crowdFunding/crowdfunding-dao-solidity/contracts/CrowdFunding.sol",
  "compiler": {
    "name": "solc",
    "version": "0.8.17+commit.8df45f5f.Emscripten.clang"
  },
  "schemaVersion": "3.4.11",
  "updatedAt": "2023-05-09T10:55:52.214Z",
  "networkType": "ethereum",
  "devdoc": {
    "details": "All function calls are currently implemented without side effects",
    "kind": "dev",
    "methods": {
      "approveCampaign(uint256)": {
        "details": "admin can approve this campaign",
        "params": {
          "campaignId": "campaign is approved by the admin "
        },
        "returns": {
          "_0": "status returning the enum for the referrence of campaign states"
        }
      },
      "contribute(uint256,uint256)": {
        "details": "getting ERC20 token by giving the fiat currency in msg.value",
        "params": {
          "campaignId": "helping to find and contribute against the campaign by this id ",
          "tokens": "How many token user want's to buy against the fiat currency"
        }
      },
      "createCampaign(bytes32,bytes32,bytes32,uint256,string,uint256,uint256,string,uint256)": {
        "details": "It will create a new ERC20 token",
        "params": {
          "_companyName": "name of the comapany",
          "_description": "Description of the campaign",
          "_pricePerToken": "Campaign creator can decide price per token would be fixed cost",
          "_target": "Goal of this campaign ",
          "_title": "Title of the campaign",
          "_tokenName": "Name of the ERC20 Token",
          "_tokenSymbol": "Symbol of the ERC20 token",
          "_totalSupply": "no of token wants to launch by campaign creator*",
          "deadLine": "End date for the campaign"
        }
      },
      "getBalance(address)": {
        "details": "return the balance of the user",
        "params": {
          "_address": "to get the balance, stored against to the address"
        },
        "returns": {
          "_0": "balance returning the balance of the user in uint256 type"
        }
      },
      "getCampaign(uint256)": {
        "details": "get the campaign, that are stored against to the id",
        "params": {
          "campaignId": "we can check and get the details of the campaign"
        },
        "returns": {
          "_0": "campaign returning the all details of the campaign in structure"
        }
      },
      "getCompany(address)": {
        "details": "get the company details",
        "params": {
          "_contractAddress": "get the company details that are stored against to this contract address"
        },
        "returns": {
          "_0": "company returning the structure of the company"
        }
      },
      "refund(uint256,uint256)": {
        "details": "users can call refund if they want their contribution back before deadLine",
        "params": {
          "_amount": "amount to be refund ",
          "campaignId": "campaignId helping to find the campaign by this id "
        }
      },
      "rejectCampaign(uint256)": {
        "details": "admin can reject this campaign",
        "params": {
          "campaignId": "campaign is rejected by the admin by the help of this id "
        },
        "returns": {
          "_0": "status returning the enum for the referrence of campaign states"
        }
      },
      "withDraw(uint256)": {
        "details": "users can call withDraw if campaign deadLine crossed",
        "params": {
          "campaignId": "campaignId helping to find the campaign by this id "
        },
        "returns": {
          "_0": "bool return true if the withDrawal gets success"
        }
      }
    },
    "title": "CrowdFudndingDao",
    "version": 1
  },
  "userdoc": {
    "events": {
      "approved(uint256)": {
        "notice": "approval of the campaign"
      },
      "campaignCreated(uint256,bytes32,bytes32,bytes32,uint256,string,uint256,uint256,string,uint256)": {
        "notice": "event for campaign creation"
      },
      "contribution(uint256,uint256,address)": {
        "notice": "event for contribution"
      },
      "refunded(uint256,uint256,address)": {
        "notice": "refund request against the contribution"
      },
      "rejected(uint256)": {
        "notice": "rejection of the campaign"
      }
    },
    "kind": "user",
    "methods": {
      "approveCampaign(uint256)": {
        "notice": "Approve  campaign"
      },
      "contribute(uint256,uint256)": {
        "notice": "contribute to the campaign"
      },
      "createCampaign(bytes32,bytes32,bytes32,uint256,string,uint256,uint256,string,uint256)": {
        "notice": "To create the new campaign"
      },
      "getBalance(address)": {
        "notice": "get balance"
      },
      "getCampaign(uint256)": {
        "notice": "get campaign"
      },
      "getCompany(address)": {
        "notice": "Get company"
      },
      "refund(uint256,uint256)": {
        "notice": "handling the refund"
      },
      "rejectCampaign(uint256)": {
        "notice": "Reject campaign"
      },
      "withDraw(uint256)": {
        "notice": "handling the withDraw"
      }
    },
    "notice": "You can use this contract for mint a new ERC20 based INRtoken",
    "version": 1
  }
}