{
  "contractName": "CrowdFunding",
  "abi": [
    {
      "inputs": [
        {
          "internalType": "address",
          "name": "_admin",
          "type": "address"
        }
      ],
      "stateMutability": "nonpayable",
      "type": "constructor"
    },
    {
      "anonymous": false,
      "inputs": [
        {
          "indexed": true,
          "internalType": "uint256",
          "name": "campaignId",
          "type": "uint256"
        }
      ],
      "name": "approved",
      "type": "event"
    },
    {
      "anonymous": false,
      "inputs": [
        {
          "indexed": true,
          "internalType": "uint256",
          "name": "campaignId",
          "type": "uint256"
        },
        {
          "indexed": false,
          "internalType": "string",
          "name": "_companyName",
          "type": "string"
        },
        {
          "indexed": false,
          "internalType": "string",
          "name": "_title",
          "type": "string"
        },
        {
          "indexed": false,
          "internalType": "string",
          "name": "_description",
          "type": "string"
        },
        {
          "indexed": true,
          "internalType": "uint256",
          "name": "_pricePerToken",
          "type": "uint256"
        },
        {
          "indexed": false,
          "internalType": "string",
          "name": "_tokenName",
          "type": "string"
        },
        {
          "indexed": true,
          "internalType": "uint256",
          "name": "deadLine",
          "type": "uint256"
        },
        {
          "indexed": false,
          "internalType": "uint256",
          "name": "_target",
          "type": "uint256"
        },
        {
          "indexed": false,
          "internalType": "string",
          "name": "_tokenSymbol",
          "type": "string"
        },
        {
          "indexed": false,
          "internalType": "uint256",
          "name": "_totalSupply",
          "type": "uint256"
        }
      ],
      "name": "campaignCreated",
      "type": "event"
    },
    {
      "anonymous": false,
      "inputs": [
        {
          "indexed": true,
          "internalType": "uint256",
          "name": "campaignId",
          "type": "uint256"
        },
        {
          "indexed": true,
          "internalType": "uint256",
          "name": "contribution",
          "type": "uint256"
        },
        {
          "indexed": true,
          "internalType": "address",
          "name": "contributer",
          "type": "address"
        }
      ],
      "name": "contribution",
      "type": "event"
    },
    {
      "anonymous": false,
      "inputs": [
        {
          "indexed": true,
          "internalType": "uint256",
          "name": "campaignId",
          "type": "uint256"
        },
        {
          "indexed": true,
          "internalType": "uint256",
          "name": "contribution",
          "type": "uint256"
        },
        {
          "indexed": true,
          "internalType": "address",
          "name": "contributer",
          "type": "address"
        }
      ],
      "name": "refunded",
      "type": "event"
    },
    {
      "anonymous": false,
      "inputs": [
        {
          "indexed": true,
          "internalType": "uint256",
          "name": "campaignId",
          "type": "uint256"
        }
      ],
      "name": "rejected",
      "type": "event"
    },
    {
      "inputs": [],
      "name": "admin",
      "outputs": [
        {
          "internalType": "address",
          "name": "",
          "type": "address"
        }
      ],
      "stateMutability": "view",
      "type": "function",
      "constant": true
    },
    {
      "inputs": [],
      "name": "campaignCount",
      "outputs": [
        {
          "internalType": "uint256",
          "name": "",
          "type": "uint256"
        }
      ],
      "stateMutability": "view",
      "type": "function",
      "constant": true
    },
    {
      "inputs": [
        {
          "internalType": "uint256",
          "name": "",
          "type": "uint256"
        },
        {
          "internalType": "address",
          "name": "",
          "type": "address"
        }
      ],
      "name": "receipts",
      "outputs": [
        {
          "internalType": "address",
          "name": "contributer",
          "type": "address"
        },
        {
          "internalType": "uint256",
          "name": "campaignId",
          "type": "uint256"
        },
        {
          "internalType": "uint256",
          "name": "tokens",
          "type": "uint256"
        },
        {
          "internalType": "uint256",
          "name": "receivedEth",
          "type": "uint256"
        }
      ],
      "stateMutability": "view",
      "type": "function",
      "constant": true
    },
    {
      "inputs": [
        {
          "internalType": "string",
          "name": "_companyName",
          "type": "string"
        },
        {
          "internalType": "string",
          "name": "_title",
          "type": "string"
        },
        {
          "internalType": "string",
          "name": "_description",
          "type": "string"
        },
        {
          "internalType": "uint256",
          "name": "_pricePerToken",
          "type": "uint256"
        },
        {
          "internalType": "string",
          "name": "_tokenName",
          "type": "string"
        },
        {
          "internalType": "uint256",
          "name": "deadLine",
          "type": "uint256"
        },
        {
          "internalType": "uint256",
          "name": "_target",
          "type": "uint256"
        },
        {
          "internalType": "string",
          "name": "_tokenSymbol",
          "type": "string"
        },
        {
          "internalType": "uint256",
          "name": "_totalSupply",
          "type": "uint256"
        }
      ],
      "name": "createCampaign",
      "outputs": [],
      "stateMutability": "nonpayable",
      "type": "function"
    },
    {
      "inputs": [
        {
          "internalType": "uint256",
          "name": "campaignId",
          "type": "uint256"
        }
      ],
      "name": "approveCampaign",
      "outputs": [
        {
          "internalType": "enum CrowdFunding.campainStatus",
          "name": "",
          "type": "uint8"
        }
      ],
      "stateMutability": "nonpayable",
      "type": "function"
    },
    {
      "inputs": [
        {
          "internalType": "uint256",
          "name": "campaignId",
          "type": "uint256"
        }
      ],
      "name": "rejectCampaign",
      "outputs": [
        {
          "internalType": "enum CrowdFunding.campainStatus",
          "name": "",
          "type": "uint8"
        }
      ],
      "stateMutability": "nonpayable",
      "type": "function"
    },
    {
      "inputs": [
        {
          "internalType": "uint256",
          "name": "campaignId",
          "type": "uint256"
        },
        {
          "internalType": "uint256",
          "name": "tokens",
          "type": "uint256"
        }
      ],
      "name": "contribute",
      "outputs": [
        {
          "internalType": "bool",
          "name": "",
          "type": "bool"
        }
      ],
      "stateMutability": "payable",
      "type": "function",
      "payable": true
    },
    {
      "inputs": [
        {
          "internalType": "uint256",
          "name": "campaignId",
          "type": "uint256"
        },
        {
          "internalType": "uint256",
          "name": "_amount",
          "type": "uint256"
        }
      ],
      "name": "refund",
      "outputs": [
        {
          "internalType": "bool",
          "name": "",
          "type": "bool"
        }
      ],
      "stateMutability": "payable",
      "type": "function",
      "payable": true
    },
    {
      "inputs": [
        {
          "internalType": "uint256",
          "name": "campaignId",
          "type": "uint256"
        }
      ],
      "name": "withDraw",
      "outputs": [
        {
          "internalType": "bool",
          "name": "",
          "type": "bool"
        }
      ],
      "stateMutability": "nonpayable",
      "type": "function"
    },
    {
      "inputs": [
        {
          "internalType": "uint256",
          "name": "campaignId",
          "type": "uint256"
        },
        {
          "internalType": "address",
          "name": "contributer",
          "type": "address"
        }
      ],
      "name": "getContributionReceipt",
      "outputs": [
        {
          "components": [
            {
              "internalType": "address",
              "name": "contributer",
              "type": "address"
            },
            {
              "internalType": "uint256",
              "name": "campaignId",
              "type": "uint256"
            },
            {
              "internalType": "uint256",
              "name": "tokens",
              "type": "uint256"
            },
            {
              "internalType": "uint256",
              "name": "receivedEth",
              "type": "uint256"
            }
          ],
          "internalType": "struct CrowdFunding.ContributionReceipt",
          "name": "",
          "type": "tuple"
        }
      ],
      "stateMutability": "view",
      "type": "function",
      "constant": true
    },
    {
      "inputs": [
        {
          "internalType": "address",
          "name": "_contractAddress",
          "type": "address"
        }
      ],
      "name": "getCompany",
      "outputs": [
        {
          "components": [
            {
              "internalType": "string",
              "name": "companyName",
              "type": "string"
            },
            {
              "internalType": "string",
              "name": "tokenSymbol",
              "type": "string"
            },
            {
              "internalType": "string",
              "name": "tokenName",
              "type": "string"
            },
            {
              "internalType": "address",
              "name": "contractAddress",
              "type": "address"
            },
            {
              "internalType": "uint256",
              "name": "totalSupply",
              "type": "uint256"
            }
          ],
          "internalType": "struct CrowdFunding.Company",
          "name": "",
          "type": "tuple"
        }
      ],
      "stateMutability": "view",
      "type": "function",
      "constant": true
    },
    {
      "inputs": [
        {
          "internalType": "uint256",
          "name": "campaignId",
          "type": "uint256"
        }
      ],
      "name": "getCampaign",
      "outputs": [
        {
          "components": [
            {
              "internalType": "address",
              "name": "contractAddress",
              "type": "address"
            },
            {
              "internalType": "string",
              "name": "companyName",
              "type": "string"
            },
            {
              "internalType": "string",
              "name": "tokenName",
              "type": "string"
            },
            {
              "internalType": "string",
              "name": "tokenSymbol",
              "type": "string"
            },
            {
              "internalType": "uint256",
              "name": "campaignId",
              "type": "uint256"
            },
            {
              "internalType": "address",
              "name": "creator",
              "type": "address"
            },
            {
              "internalType": "string",
              "name": "campaignTitle",
              "type": "string"
            },
            {
              "internalType": "string",
              "name": "campaignDescription",
              "type": "string"
            },
            {
              "internalType": "uint256",
              "name": "pricePerToken",
              "type": "uint256"
            },
            {
              "internalType": "uint256",
              "name": "target",
              "type": "uint256"
            },
            {
              "internalType": "uint256",
              "name": "contribution",
              "type": "uint256"
            },
            {
              "internalType": "uint256",
              "name": "heldBalance",
              "type": "uint256"
            },
            {
              "internalType": "uint256",
              "name": "startDate",
              "type": "uint256"
            },
            {
              "internalType": "uint256",
              "name": "endDate",
              "type": "uint256"
            },
            {
              "internalType": "enum CrowdFunding.campainStatus",
              "name": "status",
              "type": "uint8"
            }
          ],
          "internalType": "struct CrowdFunding.Campaign",
          "name": "",
          "type": "tuple"
        }
      ],
      "stateMutability": "view",
      "type": "function",
      "constant": true
    },
    {
      "inputs": [
        {
          "internalType": "address",
          "name": "_address",
          "type": "address"
        }
      ],
      "name": "getBalance",
      "outputs": [
        {
          "internalType": "uint256",
          "name": "",
          "type": "uint256"
        }
      ],
      "stateMutability": "view",
      "type": "function",
      "constant": true
    },
    {
      "inputs": [
        {
          "internalType": "uint256",
          "name": "campaignId",
          "type": "uint256"
        }
      ],
      "name": "companyDetailsByCampaignId",
      "outputs": [
        {
          "internalType": "address",
          "name": "",
          "type": "address"
        },
        {
          "internalType": "string",
          "name": "",
          "type": "string"
        },
        {
          "internalType": "string",
          "name": "",
          "type": "string"
        },
        {
          "internalType": "uint256",
          "name": "",
          "type": "uint256"
        }
      ],
      "stateMutability": "view",
      "type": "function",
      "constant": true
    }
  ],
  "bytecode": "0x60806040523480156200001157600080fd5b5060405162006075380380620060758339818101604052810190620000379190620000e8565b806000806101000a81548173ffffffffffffffffffffffffffffffffffffffff021916908373ffffffffffffffffffffffffffffffffffffffff160217905550506200011a565b600080fd5b600073ffffffffffffffffffffffffffffffffffffffff82169050919050565b6000620000b08262000083565b9050919050565b620000c281620000a3565b8114620000ce57600080fd5b50565b600081519050620000e281620000b7565b92915050565b6000602082840312156200010157620001006200007e565b5b60006200011184828501620000d1565b91505092915050565b615f4b806200012a6000396000f3fe6080604052600436106200010f576000357c0100000000000000000000000000000000000000000000000000000000900480637274e30d11620000a8578063c75bc794116200007e578063c75bc7941462000379578063ee4e1b5314620003c0578063f851a4401462000404578063f8b2cb4f1462000434576200010f565b80637274e30d14620002e557806382df069114620003155780638c5909171462000343576200010f565b80634bf20ca411620000ea5780634bf20ca414620001e35780635598f8cc14620002275780635af36e3e146200026b57806362bc56e614620002a1576200010f565b8063034d09da146200011457806314174f3314620001585780634178b249146200019c575b600080fd5b3480156200012157600080fd5b506200014060048036038101906200013a91906200260b565b62000478565b6040516200014f9190620026bd565b60405180910390f35b3480156200016557600080fd5b506200018460048036038101906200017e91906200260b565b620006f0565b604051620001939190620026f7565b60405180910390f35b348015620001a957600080fd5b50620001c86004803603810190620001c2919062002779565b620008f7565b604051620001da9493929190620027e2565b60405180910390f35b348015620001f057600080fd5b506200020f600480360381019062000209919062002779565b62000954565b6040516200021e9190620028ae565b60405180910390f35b3480156200023457600080fd5b506200025360048036038101906200024d91906200260b565b62000a35565b60405162000262919062002af3565b60405180910390f35b62000289600480360381019062000283919062002b17565b62000eef565b604051620002989190620026f7565b60405180910390f35b348015620002ae57600080fd5b50620002cd6004803603810190620002c7919062002b5e565b6200139a565b604051620002dc919062002c1e565b60405180910390f35b348015620002f257600080fd5b50620002fd62001623565b6040516200030c919062002c42565b60405180910390f35b3480156200032257600080fd5b506200034160048036038101906200033b919062002db0565b62001629565b005b6200036160048036038101906200035b919062002b17565b62001b96565b604051620003709190620026f7565b60405180910390f35b3480156200038657600080fd5b50620003a560048036038101906200039f91906200260b565b62002142565b604051620003b7949392919062002f7c565b60405180910390f35b348015620003cd57600080fd5b50620003ec6004803603810190620003e691906200260b565b6200218f565b604051620003fb9190620026bd565b60405180910390f35b3480156200041157600080fd5b506200041c62002407565b6040516200042b919062002fd7565b60405180910390f35b3480156200044157600080fd5b506200046060048036038101906200045a919062002b5e565b6200242b565b6040516200046f919062002c42565b60405180910390f35b60003373ffffffffffffffffffffffffffffffffffffffff1660008054906101000a900473ffffffffffffffffffffffffffffffffffffffff1673ffffffffffffffffffffffffffffffffffffffff16146200050b576040517f08c379a0000000000000000000000000000000000000000000000000000000008152600401620005029062003044565b60405180910390fd5b81600254101580156200051e5750600082115b62000560576040517f08c379a00000000000000000000000000000000000000000000000000000000081526004016200055790620030b6565b60405180910390fd5b6000600360008481526020019081526020016000209050600060028111156200058e576200058d6200263d565b5b81600e0160009054906101000a900460ff166002811115620005b557620005b46200263d565b5b03620005f8576040517f08c379a0000000000000000000000000000000000000000000000000000000008152600401620005ef9062003128565b60405180910390fd5b600160028111156200060f576200060e6200263d565b5b81600e0160009054906101000a900460ff1660028111156200063657620006356200263d565b5b0362000679576040517f08c379a000000000000000000000000000000000000000000000000000000000815260040162000670906200319a565b60405180910390fd5b600181600e0160006101000a81548160ff02191690836002811115620006a457620006a36200263d565b5b0217905550827f8c9878cc57a61b734d09368704b49894d5fb6b8f68f9cb352054ebe5b15a49e860405160405180910390a280600e0160009054906101000a900460ff16915050919050565b60008160025410158015620007055750600082115b8015620007285750600060036000848152602001908152602001600020600a0154115b6200076a576040517f08c379a00000000000000000000000000000000000000000000000000000000081526004016200076190620030b6565b60405180910390fd5b60036000838152602001908152602001600020600d0154421015620007c6576040517f08c379a0000000000000000000000000000000000000000000000000000000008152600401620007bd906200320c565b60405180910390fd5b3373ffffffffffffffffffffffffffffffffffffffff166003600084815260200190815260200160002060050160009054906101000a900473ffffffffffffffffffffffffffffffffffffffff1673ffffffffffffffffffffffffffffffffffffffff16146200086d576040517f08c379a000000000000000000000000000000000000000000000000000000000815260040162000864906200327e565b60405180910390fd5b3373ffffffffffffffffffffffffffffffffffffffff166108fc600360008581526020019081526020016000206008015460036000868152602001908152602001600020600a0154620008c19190620032cf565b9081150290604051600060405180830381858888f19350505050158015620008ed573d6000803e3d6000fd5b5060019050919050565b6005602052816000526040600020602052806000526040600020600091509150508060000160009054906101000a900473ffffffffffffffffffffffffffffffffffffffff16908060010154908060020154908060030154905084565b6200095e62002474565b6005600084815260200190815260200160002060008373ffffffffffffffffffffffffffffffffffffffff1673ffffffffffffffffffffffffffffffffffffffff1681526020019081526020016000206040518060800160405290816000820160009054906101000a900473ffffffffffffffffffffffffffffffffffffffff1673ffffffffffffffffffffffffffffffffffffffff1673ffffffffffffffffffffffffffffffffffffffff1681526020016001820154815260200160028201548152602001600382015481525050905092915050565b62000a3f620024b2565b816002541015801562000a525750600082115b62000a94576040517f08c379a000000000000000000000000000000000000000000000000000000000815260040162000a8b90620030b6565b60405180910390fd5b60036000838152602001908152602001600020604051806101e00160405290816000820160009054906101000a900473ffffffffffffffffffffffffffffffffffffffff1673ffffffffffffffffffffffffffffffffffffffff1673ffffffffffffffffffffffffffffffffffffffff16815260200160018201805462000b1b9062003349565b80601f016020809104026020016040519081016040528092919081815260200182805462000b499062003349565b801562000b9a5780601f1062000b6e5761010080835404028352916020019162000b9a565b820191906000526020600020905b81548152906001019060200180831162000b7c57829003601f168201915b5050505050815260200160028201805462000bb59062003349565b80601f016020809104026020016040519081016040528092919081815260200182805462000be39062003349565b801562000c345780601f1062000c085761010080835404028352916020019162000c34565b820191906000526020600020905b81548152906001019060200180831162000c1657829003601f168201915b5050505050815260200160038201805462000c4f9062003349565b80601f016020809104026020016040519081016040528092919081815260200182805462000c7d9062003349565b801562000cce5780601f1062000ca25761010080835404028352916020019162000cce565b820191906000526020600020905b81548152906001019060200180831162000cb057829003601f168201915b50505050508152602001600482015481526020016005820160009054906101000a900473ffffffffffffffffffffffffffffffffffffffff1673ffffffffffffffffffffffffffffffffffffffff1673ffffffffffffffffffffffffffffffffffffffff16815260200160068201805462000d499062003349565b80601f016020809104026020016040519081016040528092919081815260200182805462000d779062003349565b801562000dc85780601f1062000d9c5761010080835404028352916020019162000dc8565b820191906000526020600020905b81548152906001019060200180831162000daa57829003601f168201915b5050505050815260200160078201805462000de39062003349565b80601f016020809104026020016040519081016040528092919081815260200182805462000e119062003349565b801562000e625780601f1062000e365761010080835404028352916020019162000e62565b820191906000526020600020905b81548152906001019060200180831162000e4457829003601f168201915b505050505081526020016008820154815260200160098201548152602001600a8201548152602001600b8201548152602001600c8201548152602001600d8201548152602001600e820160009054906101000a900460ff16600281111562000ecf5762000ece6200263d565b5b600281111562000ee45762000ee36200263d565b5b815250509050919050565b6000826002541015801562000f045750600083115b62000f46576040517f08c379a000000000000000000000000000000000000000000000000000000000815260040162000f3d90620030b6565b60405180910390fd5b60006003600085815260200190815260200160002090504281600d0154101562000fa7576040517f08c379a000000000000000000000000000000000000000000000000000000000815260040162000f9e90620033ce565b60405180910390fd5b60006005600086815260200190815260200160002060003373ffffffffffffffffffffffffffffffffffffffff1673ffffffffffffffffffffffffffffffffffffffff16815260200190815260200160002090508381600201541462001044576040517f08c379a00000000000000000000000000000000000000000000000000000000081526004016200103b9062003440565b60405180910390fd5b80600301543073ffffffffffffffffffffffffffffffffffffffff16311015620010a5576040517f08c379a00000000000000000000000000000000000000000000000000000000081526004016200109c90620034b2565b60405180910390fd5b8160000160009054906101000a900473ffffffffffffffffffffffffffffffffffffffff1673ffffffffffffffffffffffffffffffffffffffff1663beabacc8338460050160009054906101000a900473ffffffffffffffffffffffffffffffffffffffff16670de0b6b3a76400008560020154620011259190620032cf565b6040518463ffffffff167c01000000000000000000000000000000000000000000000000000000000281526004016200116193929190620034d4565b600060405180830381600087803b1580156200117c57600080fd5b505af115801562001191573d6000803e3d6000fd5b505050503373ffffffffffffffffffffffffffffffffffffffff166108fc82600301549081150290604051600060405180830381858888f19350505050158015620011e0573d6000803e3d6000fd5b5083816002016000828254620011f7919062003511565b925050819055508382600a01600082825462001214919062003511565b925050819055508160080154846200122d9190620032cf565b81600301600082825462001242919062003511565b9250508190555081600a015460036000878152602001908152602001600020600a01819055508382600b0160008282546200127e91906200354c565b9250508190555081600b0154600660008460050160009054906101000a900473ffffffffffffffffffffffffffffffffffffffff1673ffffffffffffffffffffffffffffffffffffffff1673ffffffffffffffffffffffffffffffffffffffff1681526020019081526020016000208190555083600660003373ffffffffffffffffffffffffffffffffffffffff1673ffffffffffffffffffffffffffffffffffffffff168152602001908152602001600020600082825462001342919062003511565b925050819055503373ffffffffffffffffffffffffffffffffffffffff1684867f05d2f1712ee9236ad359917514636b645f2a01960eefea50967f66d9cb443cde60405160405180910390a460019250505092915050565b620013a462002569565b600460008373ffffffffffffffffffffffffffffffffffffffff1673ffffffffffffffffffffffffffffffffffffffff1681526020019081526020016000206040518060a0016040529081600082018054620014009062003349565b80601f01602080910402602001604051908101604052809291908181526020018280546200142e9062003349565b80156200147f5780601f1062001453576101008083540402835291602001916200147f565b820191906000526020600020905b8154815290600101906020018083116200146157829003601f168201915b505050505081526020016001820180546200149a9062003349565b80601f0160208091040260200160405190810160405280929190818152602001828054620014c89062003349565b8015620015195780601f10620014ed5761010080835404028352916020019162001519565b820191906000526020600020905b815481529060010190602001808311620014fb57829003601f168201915b50505050508152602001600282018054620015349062003349565b80601f0160208091040260200160405190810160405280929190818152602001828054620015629062003349565b8015620015b35780601f106200158757610100808354040283529160200191620015b3565b820191906000526020600020905b8154815290600101906020018083116200159557829003601f168201915b505050505081526020016003820160009054906101000a900473ffffffffffffffffffffffffffffffffffffffff1673ffffffffffffffffffffffffffffffffffffffff1673ffffffffffffffffffffffffffffffffffffffff1681526020016004820154815250509050919050565b60025481565b60008054906101000a900473ffffffffffffffffffffffffffffffffffffffff1673ffffffffffffffffffffffffffffffffffffffff163373ffffffffffffffffffffffffffffffffffffffff1603620016ba576040517f08c379a0000000000000000000000000000000000000000000000000000000008152600401620016b190620035d7565b60405180910390fd5b8083111562001700576040517f08c379a0000000000000000000000000000000000000000000000000000000008152600401620016f79062003649565b60405180910390fd5b6000858383336040516200171490620025ae565b6200172394939291906200366b565b604051809103906000f08015801562001740573d6000803e3d6000fd5b50905080600160006101000a81548173ffffffffffffffffffffffffffffffffffffffff021916908373ffffffffffffffffffffffffffffffffffffffff160217905550600260008154809291906200179990620036c6565b9190505550604051806101e001604052808273ffffffffffffffffffffffffffffffffffffffff1681526020018b815260200187815260200184815260200160025481526020013373ffffffffffffffffffffffffffffffffffffffff1681526020018a8152602001898152602001888152602001858152602001600081526020018381526020014281526020018681526020016002808111156200184357620018426200263d565b5b81525060036000600254815260200190815260200160002060008201518160000160006101000a81548173ffffffffffffffffffffffffffffffffffffffff021916908373ffffffffffffffffffffffffffffffffffffffff1602179055506020820151816001019081620018b99190620038eb565b506040820151816002019081620018d19190620038eb565b506060820151816003019081620018e99190620038eb565b506080820151816004015560a08201518160050160006101000a81548173ffffffffffffffffffffffffffffffffffffffff021916908373ffffffffffffffffffffffffffffffffffffffff16021790555060c0820151816006019081620019529190620038eb565b5060e08201518160070190816200196a9190620038eb565b506101008201518160080155610120820151816009015561014082015181600a015561016082015181600b015561018082015181600c01556101a082015181600d01556101c082015181600e0160006101000a81548160ff02191690836002811115620019dc57620019db6200263d565b5b021790555090505081600660003373ffffffffffffffffffffffffffffffffffffffff1673ffffffffffffffffffffffffffffffffffffffff168152602001908152602001600020819055506040518060a001604052808b81526020018481526020018781526020018273ffffffffffffffffffffffffffffffffffffffff16815260200183815250600460008373ffffffffffffffffffffffffffffffffffffffff1673ffffffffffffffffffffffffffffffffffffffff168152602001908152602001600020600082015181600001908162001abb9190620038eb565b50602082015181600101908162001ad39190620038eb565b50604082015181600201908162001aeb9190620038eb565b5060608201518160030160006101000a81548173ffffffffffffffffffffffffffffffffffffffff021916908373ffffffffffffffffffffffffffffffffffffffff1602179055506080820151816004015590505084876002547f2ae28cd24d500e514d5bccc406e8db4194cdbfceec1128ae2246a45b8ccb24408d8d8d8c8b8b8b60405162001b829796959493929190620039d2565b60405180910390a450505050505050505050565b6000826002541015801562001bab5750600083115b62001bed576040517f08c379a000000000000000000000000000000000000000000000000000000000815260040162001be490620030b6565b60405180910390fd5b60006003600085815260200190815260200160002090504281600d0154101562001c4e576040517f08c379a000000000000000000000000000000000000000000000000000000000815260040162001c4590620033ce565b60405180910390fd5b82816008015462001c609190620032cf565b341462001ca4576040517f08c379a000000000000000000000000000000000000000000000000000000000815260040162001c9b9062003440565b60405180910390fd5b6000600281111562001cbb5762001cba6200263d565b5b81600e0160009054906101000a900460ff16600281111562001ce25762001ce16200263d565b5b1462001d25576040517f08c379a000000000000000000000000000000000000000000000000000000000815260040162001d1c9062003ac2565b60405180910390fd5b600081600a01540362001db15760008311801562001d58575080600901548382600a015462001d5591906200354c565b11155b801562001d69575080600901548311155b62001dab576040517f08c379a000000000000000000000000000000000000000000000000000000000815260040162001da29062003b34565b60405180910390fd5b62001e2b565b60008311801562001dd7575080600901548382600a015462001dd491906200354c565b11155b801562001de8575080600a01548311155b62001e2a576040517f08c379a000000000000000000000000000000000000000000000000000000000815260040162001e219062003ba6565b60405180910390fd5b5b8281600a01600082825462001e4191906200354c565b925050819055508060000160009054906101000a900473ffffffffffffffffffffffffffffffffffffffff1673ffffffffffffffffffffffffffffffffffffffff166340c10f1933670de0b6b3a76400008662001e9f9190620032cf565b6040518363ffffffff167c010000000000000000000000000000000000000000000000000000000002815260040162001eda92919062003bc8565b600060405180830381600087803b15801562001ef557600080fd5b505af115801562001f0a573d6000803e3d6000fd5b505050508281600b01600082825462001f24919062003511565b9250508190555082600660008360050160009054906101000a900473ffffffffffffffffffffffffffffffffffffffff1673ffffffffffffffffffffffffffffffffffffffff1673ffffffffffffffffffffffffffffffffffffffff168152602001908152602001600020600082825462001fa0919062003511565b9250508190555082600660003373ffffffffffffffffffffffffffffffffffffffff1673ffffffffffffffffffffffffffffffffffffffff168152602001908152602001600020600082825462001ff891906200354c565b9250508190555060405180608001604052803373ffffffffffffffffffffffffffffffffffffffff168152602001858152602001848152602001348152506005600086815260200190815260200160002060003373ffffffffffffffffffffffffffffffffffffffff1673ffffffffffffffffffffffffffffffffffffffff16815260200190815260200160002060008201518160000160006101000a81548173ffffffffffffffffffffffffffffffffffffffff021916908373ffffffffffffffffffffffffffffffffffffffff1602179055506020820151816001015560408201518160020155606082015181600301559050503373ffffffffffffffffffffffffffffffffffffffff1681600a0154857fc84cdef8ffed2c03b52b412accc6d5b91af9eb50c8480fdfddd078846470b2d060405160405180910390a4600191505092915050565b6000606080600080620021558662000a35565b905060006200216882600001516200139a565b90508060600151816040015182602001518360800151955095509550955050509193509193565b60003373ffffffffffffffffffffffffffffffffffffffff1660008054906101000a900473ffffffffffffffffffffffffffffffffffffffff1673ffffffffffffffffffffffffffffffffffffffff161462002222576040517f08c379a0000000000000000000000000000000000000000000000000000000008152600401620022199062003044565b60405180910390fd5b8160025410158015620022355750600082115b62002277576040517f08c379a00000000000000000000000000000000000000000000000000000000081526004016200226e90620030b6565b60405180910390fd5b600060036000848152602001908152602001600020905060006002811115620022a557620022a46200263d565b5b81600e0160009054906101000a900460ff166002811115620022cc57620022cb6200263d565b5b036200230f576040517f08c379a0000000000000000000000000000000000000000000000000000000008152600401620023069062003128565b60405180910390fd5b600160028111156200232657620023256200263d565b5b81600e0160009054906101000a900460ff1660028111156200234d576200234c6200263d565b5b0362002390576040517f08c379a000000000000000000000000000000000000000000000000000000000815260040162002387906200319a565b60405180910390fd5b600081600e0160006101000a81548160ff02191690836002811115620023bb57620023ba6200263d565b5b0217905550827f7d4061e68fab364906497bb959d95ad3f052a3978fed6ce9942a2b8f737aae5460405160405180910390a280600e0160009054906101000a900460ff16915050919050565b60008054906101000a900473ffffffffffffffffffffffffffffffffffffffff1681565b6000600660008373ffffffffffffffffffffffffffffffffffffffff1673ffffffffffffffffffffffffffffffffffffffff168152602001908152602001600020549050919050565b6040518060800160405280600073ffffffffffffffffffffffffffffffffffffffff1681526020016000815260200160008152602001600081525090565b604051806101e00160405280600073ffffffffffffffffffffffffffffffffffffffff16815260200160608152602001606081526020016060815260200160008152602001600073ffffffffffffffffffffffffffffffffffffffff1681526020016060815260200160608152602001600081526020016000815260200160008152602001600081526020016000815260200160008152602001600060028111156200256357620025626200263d565b5b81525090565b6040518060a00160405280606081526020016060815260200160608152602001600073ffffffffffffffffffffffffffffffffffffffff168152602001600081525090565b6123208062003bf683390190565b6000604051905090565b600080fd5b600080fd5b6000819050919050565b620025e581620025d0565b8114620025f157600080fd5b50565b6000813590506200260581620025da565b92915050565b600060208284031215620026245762002623620025c6565b5b60006200263484828501620025f4565b91505092915050565b7f4e487b7100000000000000000000000000000000000000000000000000000000600052602160045260246000fd5b6003811062002680576200267f6200263d565b5b50565b600081905062002693826200266c565b919050565b6000620026a58262002683565b9050919050565b620026b78162002698565b82525050565b6000602082019050620026d46000830184620026ac565b92915050565b60008115159050919050565b620026f181620026da565b82525050565b60006020820190506200270e6000830184620026e6565b92915050565b600073ffffffffffffffffffffffffffffffffffffffff82169050919050565b6000620027418262002714565b9050919050565b620027538162002734565b81146200275f57600080fd5b50565b600081359050620027738162002748565b92915050565b60008060408385031215620027935762002792620025c6565b5b6000620027a385828601620025f4565b9250506020620027b68582860162002762565b9150509250929050565b620027cb8162002734565b82525050565b620027dc81620025d0565b82525050565b6000608082019050620027f96000830187620027c0565b620028086020830186620027d1565b620028176040830185620027d1565b620028266060830184620027d1565b95945050505050565b6200283a8162002734565b82525050565b6200284b81620025d0565b82525050565b6080820160008201516200286960008501826200282f565b5060208201516200287e602085018262002840565b50604082015162002893604085018262002840565b506060820151620028a8606085018262002840565b50505050565b6000608082019050620028c5600083018462002851565b92915050565b600081519050919050565b600082825260208201905092915050565b60005b8381101562002907578082015181840152602081019050620028ea565b60008484015250505050565b6000601f19601f8301169050919050565b60006200293182620028cb565b6200293d8185620028d6565b93506200294f818560208601620028e7565b6200295a8162002913565b840191505092915050565b620029708162002698565b82525050565b60006101e0830160008301516200299160008601826200282f565b5060208301518482036020860152620029ab828262002924565b91505060408301518482036040860152620029c7828262002924565b91505060608301518482036060860152620029e3828262002924565b9150506080830151620029fa608086018262002840565b5060a083015162002a0f60a08601826200282f565b5060c083015184820360c086015262002a29828262002924565b91505060e083015184820360e086015262002a45828262002924565b91505061010083015162002a5e61010086018262002840565b5061012083015162002a7561012086018262002840565b5061014083015162002a8c61014086018262002840565b5061016083015162002aa361016086018262002840565b5061018083015162002aba61018086018262002840565b506101a083015162002ad16101a086018262002840565b506101c083015162002ae86101c086018262002965565b508091505092915050565b6000602082019050818103600083015262002b0f818462002976565b905092915050565b6000806040838503121562002b315762002b30620025c6565b5b600062002b4185828601620025f4565b925050602062002b5485828601620025f4565b9150509250929050565b60006020828403121562002b775762002b76620025c6565b5b600062002b878482850162002762565b91505092915050565b600060a083016000830151848203600086015262002baf828262002924565b9150506020830151848203602086015262002bcb828262002924565b9150506040830151848203604086015262002be7828262002924565b915050606083015162002bfe60608601826200282f565b50608083015162002c13608086018262002840565b508091505092915050565b6000602082019050818103600083015262002c3a818462002b90565b905092915050565b600060208201905062002c596000830184620027d1565b92915050565b600080fd5b600080fd5b7f4e487b7100000000000000000000000000000000000000000000000000000000600052604160045260246000fd5b62002ca38262002913565b810181811067ffffffffffffffff8211171562002cc55762002cc462002c69565b5b80604052505050565b600062002cda620025bc565b905062002ce8828262002c98565b919050565b600067ffffffffffffffff82111562002d0b5762002d0a62002c69565b5b62002d168262002913565b9050602081019050919050565b82818337600083830152505050565b600062002d4962002d438462002ced565b62002cce565b90508281526020810184848401111562002d685762002d6762002c64565b5b62002d7584828562002d23565b509392505050565b600082601f83011262002d955762002d9462002c5f565b5b813562002da784826020860162002d32565b91505092915050565b60008060008060008060008060006101208a8c03121562002dd65762002dd5620025c6565b5b60008a013567ffffffffffffffff81111562002df75762002df6620025cb565b5b62002e058c828d0162002d7d565b99505060208a013567ffffffffffffffff81111562002e295762002e28620025cb565b5b62002e378c828d0162002d7d565b98505060408a013567ffffffffffffffff81111562002e5b5762002e5a620025cb565b5b62002e698c828d0162002d7d565b975050606062002e7c8c828d01620025f4565b96505060808a013567ffffffffffffffff81111562002ea05762002e9f620025cb565b5b62002eae8c828d0162002d7d565b95505060a062002ec18c828d01620025f4565b94505060c062002ed48c828d01620025f4565b93505060e08a013567ffffffffffffffff81111562002ef85762002ef7620025cb565b5b62002f068c828d0162002d7d565b92505061010062002f1a8c828d01620025f4565b9150509295985092959850929598565b600082825260208201905092915050565b600062002f4882620028cb565b62002f54818562002f2a565b935062002f66818560208601620028e7565b62002f718162002913565b840191505092915050565b600060808201905062002f936000830187620027c0565b818103602083015262002fa7818662002f3b565b9050818103604083015262002fbd818562002f3b565b905062002fce6060830184620027d1565b95945050505050565b600060208201905062002fee6000830184620027c0565b92915050565b7f4f6e6c792061646d696e00000000000000000000000000000000000000000000600082015250565b60006200302c600a8362002f2a565b9150620030398262002ff4565b602082019050919050565b600060208201905081810360008301526200305f816200301d565b9050919050565b7f4e6f2063616d706169676e000000000000000000000000000000000000000000600082015250565b60006200309e600b8362002f2a565b9150620030ab8262003066565b602082019050919050565b60006020820190508181036000830152620030d1816200308f565b9050919050565b7f416c726561647920617070726f76656400000000000000000000000000000000600082015250565b60006200311060108362002f2a565b91506200311d82620030d8565b602082019050919050565b60006020820190508181036000830152620031438162003101565b9050919050565b7f416c72656164792072656a656374656400000000000000000000000000000000600082015250565b60006200318260108362002f2a565b91506200318f826200314a565b602082019050919050565b60006020820190508181036000830152620031b58162003173565b9050919050565b7f446561644c696e65206e6f742070617373656400000000000000000000000000600082015250565b6000620031f460138362002f2a565b91506200320182620031bc565b602082019050919050565b600060208201905081810360008301526200322781620031e5565b9050919050565b7f4e6f7420612063726561746f7200000000000000000000000000000000000000600082015250565b600062003266600d8362002f2a565b915062003273826200322e565b602082019050919050565b60006020820190508181036000830152620032998162003257565b9050919050565b7f4e487b7100000000000000000000000000000000000000000000000000000000600052601160045260246000fd5b6000620032dc82620025d0565b9150620032e983620025d0565b9250828202620032f981620025d0565b91508282048414831517620033135762003312620032a0565b5b5092915050565b7f4e487b7100000000000000000000000000000000000000000000000000000000600052602260045260246000fd5b600060028204905060018216806200336257607f821691505b6020821081036200337857620033776200331a565b5b50919050565b7f446561644c696e65207061737365640000000000000000000000000000000000600082015250565b6000620033b6600f8362002f2a565b9150620033c3826200337e565b602082019050919050565b60006020820190508181036000830152620033e981620033a7565b9050919050565b7f496e636f727265637420616d6f756e7400000000000000000000000000000000600082015250565b60006200342860108362002f2a565b91506200343582620033f0565b602082019050919050565b600060208201905081810360008301526200345b8162003419565b9050919050565b7f636f6e7472616374206c6f772062616c616e6365000000000000000000000000600082015250565b60006200349a60148362002f2a565b9150620034a78262003462565b602082019050919050565b60006020820190508181036000830152620034cd816200348b565b9050919050565b6000606082019050620034eb6000830186620027c0565b620034fa6020830185620027c0565b620035096040830184620027d1565b949350505050565b60006200351e82620025d0565b91506200352b83620025d0565b9250828203905081811115620035465762003545620032a0565b5b92915050565b60006200355982620025d0565b91506200356683620025d0565b9250828201905080821115620035815762003580620032a0565b5b92915050565b7f41646d696e2063616e2774000000000000000000000000000000000000000000600082015250565b6000620035bf600b8362002f2a565b9150620035cc8262003587565b602082019050919050565b60006020820190508181036000830152620035f281620035b0565b9050919050565b7f696e76616c696420746172676574000000000000000000000000000000000000600082015250565b600062003631600e8362002f2a565b91506200363e82620035f9565b602082019050919050565b60006020820190508181036000830152620036648162003622565b9050919050565b6000608082019050818103600083015262003687818762002f3b565b905081810360208301526200369d818662002f3b565b9050620036ae6040830185620027d1565b620036bd6060830184620027c0565b95945050505050565b6000620036d382620025d0565b91507fffffffffffffffffffffffffffffffffffffffffffffffffffffffffffffffff8203620037085762003707620032a0565b5b600182019050919050565b60008190508160005260206000209050919050565b60006020601f8301049050919050565b60008160020a8302905092915050565b6000600883026200377a7fffffffffffffffffffffffffffffffffffffffffffffffffffffffffffffffff8262003738565b62003786868362003738565b95508019841693508086168417925050509392505050565b6000819050919050565b6000620037c9620037c3620037bd84620025d0565b6200379e565b620025d0565b9050919050565b6000819050919050565b620037e583620037a8565b620037fd620037f482620037d0565b84845462003748565b825550505050565b600090565b6200381462003805565b62003821818484620037da565b505050565b5b8181101562003849576200383d6000826200380a565b60018101905062003827565b5050565b601f8211156200389857620038628162003713565b6200386d8462003728565b810160208510156200387d578190505b620038956200388c8562003728565b83018262003826565b50505b505050565b60008160020a8304905092915050565b6000620038c0600019846008026200389d565b1980831691505092915050565b6000620038db8383620038ad565b9150826002028217905092915050565b620038f682620028cb565b67ffffffffffffffff81111562003912576200391162002c69565b5b6200391e825462003349565b6200392b8282856200384d565b600060209050601f8311600181146200396357600084156200394e578287015190505b6200395a8582620038cd565b865550620039ca565b601f198416620039738662003713565b60005b828110156200399d5784890151825560018201915060208501945060208101905062003976565b86831015620039bd5784890151620039b9601f891682620038ad565b8355505b6001600288020188555050505b505050505050565b600060e0820190508181036000830152620039ee818a62002f3b565b9050818103602083015262003a04818962002f3b565b9050818103604083015262003a1a818862002f3b565b9050818103606083015262003a30818762002f3b565b905062003a416080830186620027d1565b81810360a083015262003a55818562002f3b565b905062003a6660c0830184620027d1565b98975050505050505050565b7f4e6f7420617070726f7665640000000000000000000000000000000000000000600082015250565b600062003aaa600c8362002f2a565b915062003ab78262003a72565b602082019050919050565b6000602082019050818103600083015262003add8162003a9b565b9050919050565b7f496e76616c696420636f6e747269627574696f6e2e0000000000000000000000600082015250565b600062003b1c60158362002f2a565b915062003b298262003ae4565b602082019050919050565b6000602082019050818103600083015262003b4f8162003b0d565b9050919050565b7f496e76616c696420636f6e747269627574696f6e732e00000000000000000000600082015250565b600062003b8e60168362002f2a565b915062003b9b8262003b56565b602082019050919050565b6000602082019050818103600083015262003bc18162003b7f565b9050919050565b600060408201905062003bdf6000830185620027c0565b62003bee6020830184620027d1565b939250505056fe60806040523480156200001157600080fd5b5060405162002320380380620023208339818101604052810190620000379190620004c6565b838381600390816200004a9190620007bd565b5080600490816200005c9190620007bd565b50505062000096816012600a62000074919062000a27565b8462000081919062000a78565b62000100640100000000026401000000009004565b620000af6200027f640100000000026401000000009004565b60068190555033600760006101000a81548173ffffffffffffffffffffffffffffffffffffffff021916908373ffffffffffffffffffffffffffffffffffffffff1602179055505050505062000baf565b600073ffffffffffffffffffffffffffffffffffffffff168273ffffffffffffffffffffffffffffffffffffffff160362000172576040517f08c379a0000000000000000000000000000000000000000000000000000000008152600401620001699062000b24565b60405180910390fd5b6200018f6000838362000289640100000000026401000000009004565b8060026000828254620001a3919062000b46565b92505081905550806000808473ffffffffffffffffffffffffffffffffffffffff1673ffffffffffffffffffffffffffffffffffffffff168152602001908152602001600020600082825401925050819055508173ffffffffffffffffffffffffffffffffffffffff16600073ffffffffffffffffffffffffffffffffffffffff167fddf252ad1be2c89b69c2b068fc378daa952ba7f163c4a11628f55a4df523b3ef8360405162000256919062000b92565b60405180910390a36200027b600083836200028e640100000000026401000000009004565b5050565b6000600254905090565b505050565b505050565b6000604051905090565b600080fd5b600080fd5b600080fd5b600080fd5b6000601f19601f8301169050919050565b7f4e487b7100000000000000000000000000000000000000000000000000000000600052604160045260246000fd5b620002fc82620002b1565b810181811067ffffffffffffffff821117156200031e576200031d620002c2565b5b80604052505050565b60006200033362000293565b9050620003418282620002f1565b919050565b600067ffffffffffffffff821115620003645762000363620002c2565b5b6200036f82620002b1565b9050602081019050919050565b60005b838110156200039c5780820151818401526020810190506200037f565b60008484015250505050565b6000620003bf620003b98462000346565b62000327565b905082815260208101848484011115620003de57620003dd620002ac565b5b620003eb8482856200037c565b509392505050565b600082601f8301126200040b576200040a620002a7565b5b81516200041d848260208601620003a8565b91505092915050565b6000819050919050565b6200043b8162000426565b81146200044757600080fd5b50565b6000815190506200045b8162000430565b92915050565b600073ffffffffffffffffffffffffffffffffffffffff82169050919050565b60006200048e8262000461565b9050919050565b620004a08162000481565b8114620004ac57600080fd5b50565b600081519050620004c08162000495565b92915050565b60008060008060808587031215620004e357620004e26200029d565b5b600085015167ffffffffffffffff811115620005045762000503620002a2565b5b6200051287828801620003f3565b945050602085015167ffffffffffffffff811115620005365762000535620002a2565b5b6200054487828801620003f3565b935050604062000557878288016200044a565b92505060606200056a87828801620004af565b91505092959194509250565b600081519050919050565b7f4e487b7100000000000000000000000000000000000000000000000000000000600052602260045260246000fd5b60006002820490506001821680620005c957607f821691505b602082108103620005df57620005de62000581565b5b50919050565b60008190508160005260206000209050919050565b60006020601f8301049050919050565b60008160020a8302905092915050565b6000600883026200064c7fffffffffffffffffffffffffffffffffffffffffffffffffffffffffffffffff826200060a565b6200065886836200060a565b95508019841693508086168417925050509392505050565b6000819050919050565b60006200069b620006956200068f8462000426565b62000670565b62000426565b9050919050565b6000819050919050565b620006b7836200067a565b620006cf620006c682620006a2565b8484546200061a565b825550505050565b600090565b620006e6620006d7565b620006f3818484620006ac565b505050565b5b818110156200071b576200070f600082620006dc565b600181019050620006f9565b5050565b601f8211156200076a576200073481620005e5565b6200073f84620005fa565b810160208510156200074f578190505b620007676200075e85620005fa565b830182620006f8565b50505b505050565b60008160020a8304905092915050565b600062000792600019846008026200076f565b1980831691505092915050565b6000620007ad83836200077f565b9150826002028217905092915050565b620007c88262000576565b67ffffffffffffffff811115620007e457620007e3620002c2565b5b620007f08254620005b0565b620007fd8282856200071f565b600060209050601f83116001811462000835576000841562000820578287015190505b6200082c85826200079f565b8655506200089c565b601f1984166200084586620005e5565b60005b828110156200086f5784890151825560018201915060208501945060208101905062000848565b868310156200088f57848901516200088b601f8916826200077f565b8355505b6001600288020188555050505b505050505050565b7f4e487b7100000000000000000000000000000000000000000000000000000000600052601160045260246000fd5b6000600282049050919050565b6000808291508390505b600185111562000932578086048111156200090a5762000909620008a4565b5b60018516156200091a5780820291505b80810290506200092a85620008d3565b9450620008ea565b94509492505050565b6000826200094d576001905062000a20565b816200095d576000905062000a20565b81600181146200097657600281146200098157620009b7565b600191505062000a20565b60ff841115620009965762000995620008a4565b5b8360020a915084821115620009b057620009af620008a4565b5b5062000a20565b5060208310610133831016604e8410600b8410161715620009f15782820a905083811115620009eb57620009ea620008a4565b5b62000a20565b62000a008484846001620008e0565b9250905081840481111562000a1a5762000a19620008a4565b5b81810290505b9392505050565b600062000a348262000426565b915062000a418362000426565b925062000a707fffffffffffffffffffffffffffffffffffffffffffffffffffffffffffffffff84846200093b565b905092915050565b600062000a858262000426565b915062000a928362000426565b925082820262000aa28162000426565b9150828204841483151762000abc5762000abb620008a4565b5b5092915050565b600082825260208201905092915050565b7f45524332303a206d696e7420746f20746865207a65726f206164647265737300600082015250565b600062000b0c601f8362000ac3565b915062000b198262000ad4565b602082019050919050565b6000602082019050818103600083015262000b3f8162000afd565b9050919050565b600062000b538262000426565b915062000b608362000426565b925082820190508082111562000b7b5762000b7a620008a4565b5b92915050565b62000b8c8162000426565b82525050565b600060208201905062000ba9600083018462000b81565b92915050565b6117618062000bbf6000396000f3fe608060405234801561001057600080fd5b5060043610610112576000357c01000000000000000000000000000000000000000000000000000000009004806340c10f19116100b4578063a457c2d711610083578063a457c2d7146102a5578063a9059cbb146102d5578063beabacc814610305578063dd62ed3e1461032157610112565b806340c10f191461021f5780635c1705081461023b57806370a082311461025757806395d89b411461028757610112565b80631bbc4b83116100f05780631bbc4b831461018357806323b872dd146101a1578063313ce567146101d157806339509351146101ef57610112565b806306fdde0314610117578063095ea7b31461013557806318160ddd14610165575b600080fd5b61011f610351565b60405161012c9190610eec565b60405180910390f35b61014f600480360381019061014a9190610fa7565b6103e3565b60405161015c9190611002565b60405180910390f35b61016d610406565b60405161017a919061102c565b60405180910390f35b61018b610410565b60405161019891906110a6565b60405180910390f35b6101bb60048036038101906101b691906110c1565b610436565b6040516101c89190611002565b60405180910390f35b6101d9610465565b6040516101e69190611130565b60405180910390f35b61020960048036038101906102049190610fa7565b61046e565b6040516102169190611002565b60405180910390f35b61023960048036038101906102349190610fa7565b6104a5565b005b61025560048036038101906102509190610fa7565b610543565b005b610271600480360381019061026c919061114b565b61061e565b60405161027e919061102c565b60405180910390f35b61028f610666565b60405161029c9190610eec565b60405180910390f35b6102bf60048036038101906102ba9190610fa7565b6106f8565b6040516102cc9190611002565b60405180910390f35b6102ef60048036038101906102ea9190610fa7565b61076f565b6040516102fc9190611002565b60405180910390f35b61031f600480360381019061031a91906110c1565b610792565b005b61033b60048036038101906103369190611178565b6107a2565b604051610348919061102c565b60405180910390f35b606060038054610360906111e7565b80601f016020809104026020016040519081016040528092919081815260200182805461038c906111e7565b80156103d95780601f106103ae576101008083540402835291602001916103d9565b820191906000526020600020905b8154815290600101906020018083116103bc57829003601f168201915b5050505050905090565b6000806103ee610829565b90506103fb818585610831565b600191505092915050565b6000600254905090565b600560009054906101000a900473ffffffffffffffffffffffffffffffffffffffff1681565b600080610441610829565b905061044e8582856109fa565b610459858585610a86565b60019150509392505050565b60006012905090565b600080610479610829565b905061049a81858561048b85896107a2565b6104959190611247565b610831565b600191505092915050565b600760009054906101000a900473ffffffffffffffffffffffffffffffffffffffff1673ffffffffffffffffffffffffffffffffffffffff163373ffffffffffffffffffffffffffffffffffffffff1614610535576040517f08c379a000000000000000000000000000000000000000000000000000000000815260040161052c906112c7565b60405180910390fd5b61053f8282610cfc565b5050565b600760009054906101000a900473ffffffffffffffffffffffffffffffffffffffff1673ffffffffffffffffffffffffffffffffffffffff163373ffffffffffffffffffffffffffffffffffffffff16146105d3576040517f08c379a00000000000000000000000000000000000000000000000000000000081526004016105ca906112c7565b60405180910390fd5b8173ffffffffffffffffffffffffffffffffffffffff166108fc829081150290604051600060405180830381858888f19350505050158015610619573d6000803e3d6000fd5b505050565b60008060008373ffffffffffffffffffffffffffffffffffffffff1673ffffffffffffffffffffffffffffffffffffffff168152602001908152602001600020549050919050565b606060048054610675906111e7565b80601f01602080910402602001604051908101604052809291908181526020018280546106a1906111e7565b80156106ee5780601f106106c3576101008083540402835291602001916106ee565b820191906000526020600020905b8154815290600101906020018083116106d157829003601f168201915b5050505050905090565b600080610703610829565b9050600061071182866107a2565b905083811015610756576040517f08c379a000000000000000000000000000000000000000000000000000000000815260040161074d90611359565b60405180910390fd5b6107638286868403610831565b60019250505092915050565b60008061077a610829565b9050610787818585610a86565b600191505092915050565b61079d838383610a86565b505050565b6000600160008473ffffffffffffffffffffffffffffffffffffffff1673ffffffffffffffffffffffffffffffffffffffff16815260200190815260200160002060008373ffffffffffffffffffffffffffffffffffffffff1673ffffffffffffffffffffffffffffffffffffffff16815260200190815260200160002054905092915050565b600033905090565b600073ffffffffffffffffffffffffffffffffffffffff168373ffffffffffffffffffffffffffffffffffffffff16036108a0576040517f08c379a0000000000000000000000000000000000000000000000000000000008152600401610897906113eb565b60405180910390fd5b600073ffffffffffffffffffffffffffffffffffffffff168273ffffffffffffffffffffffffffffffffffffffff160361090f576040517f08c379a00000000000000000000000000000000000000000000000000000000081526004016109069061147d565b60405180910390fd5b80600160008573ffffffffffffffffffffffffffffffffffffffff1673ffffffffffffffffffffffffffffffffffffffff16815260200190815260200160002060008473ffffffffffffffffffffffffffffffffffffffff1673ffffffffffffffffffffffffffffffffffffffff168152602001908152602001600020819055508173ffffffffffffffffffffffffffffffffffffffff168373ffffffffffffffffffffffffffffffffffffffff167f8c5be1e5ebec7d5bd14f71427d1e84f3dd0314c0f7b2291e5b200ac8c7c3b925836040516109ed919061102c565b60405180910390a3505050565b6000610a0684846107a2565b90507fffffffffffffffffffffffffffffffffffffffffffffffffffffffffffffffff8114610a805781811015610a72576040517f08c379a0000000000000000000000000000000000000000000000000000000008152600401610a69906114e9565b60405180910390fd5b610a7f8484848403610831565b5b50505050565b600073ffffffffffffffffffffffffffffffffffffffff168373ffffffffffffffffffffffffffffffffffffffff1603610af5576040517f08c379a0000000000000000000000000000000000000000000000000000000008152600401610aec9061157b565b60405180910390fd5b600073ffffffffffffffffffffffffffffffffffffffff168273ffffffffffffffffffffffffffffffffffffffff1603610b64576040517f08c379a0000000000000000000000000000000000000000000000000000000008152600401610b5b9061160d565b60405180910390fd5b610b6f838383610e52565b60008060008573ffffffffffffffffffffffffffffffffffffffff1673ffffffffffffffffffffffffffffffffffffffff16815260200190815260200160002054905081811015610bf5576040517f08c379a0000000000000000000000000000000000000000000000000000000008152600401610bec9061169f565b60405180910390fd5b8181036000808673ffffffffffffffffffffffffffffffffffffffff1673ffffffffffffffffffffffffffffffffffffffff16815260200190815260200160002081905550816000808573ffffffffffffffffffffffffffffffffffffffff1673ffffffffffffffffffffffffffffffffffffffff168152602001908152602001600020600082825401925050819055508273ffffffffffffffffffffffffffffffffffffffff168473ffffffffffffffffffffffffffffffffffffffff167fddf252ad1be2c89b69c2b068fc378daa952ba7f163c4a11628f55a4df523b3ef84604051610ce3919061102c565b60405180910390a3610cf6848484610e57565b50505050565b600073ffffffffffffffffffffffffffffffffffffffff168273ffffffffffffffffffffffffffffffffffffffff1603610d6b576040517f08c379a0000000000000000000000000000000000000000000000000000000008152600401610d629061170b565b60405180910390fd5b610d7760008383610e52565b8060026000828254610d899190611247565b92505081905550806000808473ffffffffffffffffffffffffffffffffffffffff1673ffffffffffffffffffffffffffffffffffffffff168152602001908152602001600020600082825401925050819055508173ffffffffffffffffffffffffffffffffffffffff16600073ffffffffffffffffffffffffffffffffffffffff167fddf252ad1be2c89b69c2b068fc378daa952ba7f163c4a11628f55a4df523b3ef83604051610e3a919061102c565b60405180910390a3610e4e60008383610e57565b5050565b505050565b505050565b600081519050919050565b600082825260208201905092915050565b60005b83811015610e96578082015181840152602081019050610e7b565b60008484015250505050565b6000601f19601f8301169050919050565b6000610ebe82610e5c565b610ec88185610e67565b9350610ed8818560208601610e78565b610ee181610ea2565b840191505092915050565b60006020820190508181036000830152610f068184610eb3565b905092915050565b600080fd5b600073ffffffffffffffffffffffffffffffffffffffff82169050919050565b6000610f3e82610f13565b9050919050565b610f4e81610f33565b8114610f5957600080fd5b50565b600081359050610f6b81610f45565b92915050565b6000819050919050565b610f8481610f71565b8114610f8f57600080fd5b50565b600081359050610fa181610f7b565b92915050565b60008060408385031215610fbe57610fbd610f0e565b5b6000610fcc85828601610f5c565b9250506020610fdd85828601610f92565b9150509250929050565b60008115159050919050565b610ffc81610fe7565b82525050565b60006020820190506110176000830184610ff3565b92915050565b61102681610f71565b82525050565b6000602082019050611041600083018461101d565b92915050565b6000819050919050565b600061106c61106761106284610f13565b611047565b610f13565b9050919050565b600061107e82611051565b9050919050565b600061109082611073565b9050919050565b6110a081611085565b82525050565b60006020820190506110bb6000830184611097565b92915050565b6000806000606084860312156110da576110d9610f0e565b5b60006110e886828701610f5c565b93505060206110f986828701610f5c565b925050604061110a86828701610f92565b9150509250925092565b600060ff82169050919050565b61112a81611114565b82525050565b60006020820190506111456000830184611121565b92915050565b60006020828403121561116157611160610f0e565b5b600061116f84828501610f5c565b91505092915050565b6000806040838503121561118f5761118e610f0e565b5b600061119d85828601610f5c565b92505060206111ae85828601610f5c565b9150509250929050565b7f4e487b7100000000000000000000000000000000000000000000000000000000600052602260045260246000fd5b600060028204905060018216806111ff57607f821691505b602082108103611212576112116111b8565b5b50919050565b7f4e487b7100000000000000000000000000000000000000000000000000000000600052601160045260246000fd5b600061125282610f71565b915061125d83610f71565b925082820190508082111561127557611274611218565b5b92915050565b7f4f6e6c79204f776e657200000000000000000000000000000000000000000000600082015250565b60006112b1600a83610e67565b91506112bc8261127b565b602082019050919050565b600060208201905081810360008301526112e0816112a4565b9050919050565b7f45524332303a2064656372656173656420616c6c6f77616e63652062656c6f7760008201527f207a65726f000000000000000000000000000000000000000000000000000000602082015250565b6000611343602583610e67565b915061134e826112e7565b604082019050919050565b6000602082019050818103600083015261137281611336565b9050919050565b7f45524332303a20617070726f76652066726f6d20746865207a65726f2061646460008201527f7265737300000000000000000000000000000000000000000000000000000000602082015250565b60006113d5602483610e67565b91506113e082611379565b604082019050919050565b60006020820190508181036000830152611404816113c8565b9050919050565b7f45524332303a20617070726f766520746f20746865207a65726f20616464726560008201527f7373000000000000000000000000000000000000000000000000000000000000602082015250565b6000611467602283610e67565b91506114728261140b565b604082019050919050565b600060208201905081810360008301526114968161145a565b9050919050565b7f45524332303a20696e73756666696369656e7420616c6c6f77616e6365000000600082015250565b60006114d3601d83610e67565b91506114de8261149d565b602082019050919050565b60006020820190508181036000830152611502816114c6565b9050919050565b7f45524332303a207472616e736665722066726f6d20746865207a65726f20616460008201527f6472657373000000000000000000000000000000000000000000000000000000602082015250565b6000611565602583610e67565b915061157082611509565b604082019050919050565b6000602082019050818103600083015261159481611558565b9050919050565b7f45524332303a207472616e7366657220746f20746865207a65726f206164647260008201527f6573730000000000000000000000000000000000000000000000000000000000602082015250565b60006115f7602383610e67565b91506116028261159b565b604082019050919050565b60006020820190508181036000830152611626816115ea565b9050919050565b7f45524332303a207472616e7366657220616d6f756e742065786365656473206260008201527f616c616e63650000000000000000000000000000000000000000000000000000602082015250565b6000611689602683610e67565b91506116948261162d565b604082019050919050565b600060208201905081810360008301526116b88161167c565b9050919050565b7f45524332303a206d696e7420746f20746865207a65726f206164647265737300600082015250565b60006116f5601f83610e67565b9150611700826116bf565b602082019050919050565b60006020820190508181036000830152611724816116e8565b905091905056fea2646970667358221220e947f55b1e69c8c5feae07fe6e6350530e59ebe9c2ccf8b51203595a7e35a74464736f6c63430008110033a264697066735822122099b4101e49d987f1e24c34a9177c6f9ce8c8e1f88baaafa3042c985d5846a37364736f6c63430008110033",
  "immutableReferences": {},
  "source": "// SPDX-License-Identifier: UNLICENSED\npragma solidity ^0.8;\n\nimport \"./ERC20.sol\";\n\n/// @title CrowdFudndingDao\n/// @author \n/// @notice You can use this contract for mint a new ERC20 based INRtoken\n/// @dev All function calls are currently implemented without side effects\n\ncontract CrowdFunding{\n    //State Variables\n    address public admin;\n    ERC20Token private token;\n\n    /**\n    * @dev Constructor function to set the admin\n    * @param _admin admin of this contract\n    */\n\n    constructor (address _admin) {\n        admin = _admin;\n    }\n\n    modifier onlyAdmin() {\n        require(admin == msg.sender,\"Only admin\");\n        _;\n    }\n\n    uint256 public campaignCount;\n    \n    struct Campaign{\n        // contract address\n        address contractAddress;\n        // Company Name\n        string companyName;\n        // Name of the token\n        string tokenName;\n        // Symbol of the token\n        string tokenSymbol;\n        // Id of the Campaign\n        uint campaignId;\n        // Creator of the campaign\n        address creator;\n        // Title of the campaign\n        string campaignTitle;\n        // Campaign Description\n        string campaignDescription;\n        // pricePer token fixed by the user\n        uint256 pricePerToken;\n        // required fund\n        uint256 target;\n        // total contribution received\n        uint256 contribution;\n        // totalHeld Balance\n        uint256 heldBalance;\n        // Campaign Start Date\n        uint256 startDate;\n        // Campaign End Date\n        uint256 endDate;\n        // Status of the campaign\n        campainStatus status;\n    }\n\n    struct Company {\n        // Name of the company\n        string companyName;\n        // Token symbol created by the company\n        string tokenSymbol;\n        // Token name created by the company\n        string tokenName;\n        // Contract address against the company's campaign\n        address contractAddress;\n        // Total supply\n        uint256 totalSupply;\n    }\n\n    struct ContributionReceipt{\n        // address of the contributer\n        address contributer;\n        // Id of the camapign \n        uint256 campaignId;\n        // Token of contribution\n        uint256 tokens;\n        // Eth value\n        uint256 receivedEth;\n    }\n\n    /**\n     * @notice event for campaign creation\n     * @dev This event is emitted when a crowdfunding campaign is made.\n     * @param campaignId id of the campaign\n     * @param _companyName name of the company going to create the campaign\n     * @param _title title of the camapaign\n     * @param _description detailed description of the campaign\n     * @param _pricePerToken price per token for eg : 10 NEO tokens == 100INR( here 1 neo is equal to 10 INR)\n     * @param _tokenName Name of the token launched by the user\n     * @param deadLine End date for the campaign to contribute,\n     * @param _target goal of the crowd funding\n     * @param _tokenSymbol symbol of the token launched by the user\n     * @param _totalSupply total supply\n     */\n\n\n    event campaignCreated(\n        uint256 indexed campaignId,\n        string _companyName,\n        string _title,\n        string _description,\n        uint256 indexed _pricePerToken,\n        string _tokenName,\n        uint256 indexed deadLine,\n        uint256 _target,\n        string _tokenSymbol,\n        uint256 _totalSupply\n    );\n\n    /**\n     * @notice approval of the campaign\n     * @dev this event is emitted when a campaign gets approve by the admin\n     * @param campaignId id of the campaign\n     */\n\n    event approved(uint256 indexed campaignId);\n\n    /**\n     * @notice rejection of the campaign\n     * @dev this event is emitted when a campaign gets reject by the admin\n     * @param campaignId id of the campaign\n     */\n\n    event rejected(uint256 indexed campaignId);\n\n    /**\n     * @notice event for contribution\n     * @dev this event will emit when the contribution was maded by the users\n     * @param campaignId Id of the campaign  \n     * @param contribution amount of the contribution by the user\n     * @param contributer address of the contributer\n     */\n\n    event contribution(uint256 indexed campaignId, uint256 indexed contribution, address indexed contributer);\n\n    /**\n     * @notice refund request against the contribution \n     * @dev This event will emit when refund is made\n     * @param campaignId Id of the campaign  \n     * @param contribution amount of the contribution by the user\n     * @param contributer address of the contributer\n     */\n\n    event refunded(uint256 indexed campaignId, uint256 indexed contribution, address indexed contributer);\n\n    enum campainStatus {APPROVED,REJECTED,PENDING}\n\n    // CAMPAIGNID => CAMPAINGS\n    mapping (uint256 => Campaign) campaigns;\n\n    //CONTRACT ADDRESS => COMPANY\n    mapping(address => Company) companies;\n\n    // CAMPAIGNID => CONTRIBUTER => RECEIPT\n    mapping (uint256 => mapping(address => ContributionReceipt)) public receipts;\n\n    // USER => BALANCE \n    mapping (address => uint256) balance;\n\n    /**\n    * @notice To create the new campaign\n    * @dev It will create a new ERC20 token\n    * @param _companyName name of the comapany\n    * @param _title Title of the campaign\n    * @param _description Description of the campaign\n    * @param _pricePerToken Campaign creator can decide price per token would be fixed cost\n    * @param _tokenName Name of the ERC20 Token\n    * @param _tokenSymbol Symbol of the ERC20 token\n    * @param deadLine End date for the campaign\n    * @param _target Goal of this campaign \n    * @param _totalSupply no of token wants to launch by campaign creator\n    **/\n\n    function createCampaign(\n        string memory _companyName,\n        string memory _title,\n        string memory _description,\n        uint256 _pricePerToken,\n        string memory _tokenName,\n        uint256 deadLine,\n        uint256 _target,\n        string memory _tokenSymbol,\n        uint256 _totalSupply\n    ) external {\n        require(msg.sender != admin, \"Admin can't\");\n        require(_target <= _totalSupply, \"invalid target\");\n        address newContract = address(new ERC20Token(_tokenName, _tokenSymbol, _totalSupply, msg.sender));\n        token = ERC20Token(newContract);\n        campaignCount++;\n\n        campaigns[campaignCount] = Campaign({\n        contractAddress : newContract,\n        companyName: _companyName,\n        tokenName: _tokenName,\n        tokenSymbol : _tokenSymbol,\n        campaignId: campaignCount, \n        creator: msg.sender,\n        campaignTitle: _title,\n        campaignDescription: _description,\n        pricePerToken: _pricePerToken,\n        target: _target,\n        heldBalance: _totalSupply,\n        startDate: block.timestamp,\n        endDate: deadLine,\n        contribution: 0,\n        status: campainStatus.PENDING\n        });\n        balance[msg.sender] = _totalSupply;\n\n        companies[newContract] = Company({\n            companyName: _companyName,\n            tokenSymbol : _tokenSymbol,\n            contractAddress : newContract,\n            tokenName: _tokenName,\n            totalSupply : _totalSupply \n        });\n\n\n        emit campaignCreated(\n            campaignCount, \n            _companyName,\n            _title,\n            _description,\n            _pricePerToken,\n            _tokenName,\n            deadLine,\n            _target,\n            _tokenSymbol,\n            _totalSupply\n            );\n    }\n\n    /**\n    * @notice Approve  campaign\n    * @dev admin can approve this campaign\n    * @param campaignId campaign is approved by the admin \n    * @return status returning the enum for the referrence of campaign states\n    */\n\n    function approveCampaign(uint campaignId) external onlyAdmin returns(campainStatus)  {\n        require(campaignCount >= campaignId && campaignId > 0,\"No campaign\");\n        Campaign storage currentCampaign = campaigns[campaignId];\n        require(currentCampaign.status != campainStatus.APPROVED,\"Already approved\");\n        require(currentCampaign.status != campainStatus.REJECTED,\"Already rejected\");\n        currentCampaign.status = campainStatus.APPROVED;\n\n        emit approved(campaignId);\n        return currentCampaign.status; \n    }\n\n    /**\n    * @notice Reject campaign\n    * @dev admin can reject this campaign\n    * @param campaignId campaign is rejected by the admin by the help of this id \n    * @return status returning the enum for the referrence of campaign states\n    */\n\n    function rejectCampaign(uint campaignId) external onlyAdmin returns(campainStatus)  {\n        require(campaignCount >= campaignId && campaignId > 0,\"No campaign\");\n        Campaign storage currentCampaign = campaigns[campaignId];\n        require(currentCampaign.status != campainStatus.APPROVED,\"Already approved\");\n        require(currentCampaign.status != campainStatus.REJECTED,\"Already rejected\");\n        currentCampaign.status = campainStatus.REJECTED;\n        \n        emit rejected(campaignId);\n        return currentCampaign.status; \n\n    }\n\n    /**\n    * @notice contribute to the campaign\n    * @dev getting ERC20 token by giving the fiat currency in msg.value\n    * @param campaignId helping to find and contribute against the campaign by this id \n    * @param tokens How many token user want's to buy against the fiat currency\n    * @return bool return true if the contribution get success\n    */\n\n    function contribute(uint256 campaignId, uint256 tokens) external payable returns(bool){\n        require(campaignCount >= campaignId && campaignId > 0,\"No campaign\");\n        Campaign storage currentCampaign = campaigns[campaignId];\n        require(currentCampaign.endDate >= block.timestamp,\"DeadLine passed\");\n        require(msg.value == currentCampaign.pricePerToken * tokens, \"Incorrect amount\");\n        require(currentCampaign.status == campainStatus.APPROVED, \"Not approved\");\n        if(currentCampaign.contribution == 0){\n        require(\n            tokens > 0 &&\n            currentCampaign.contribution + tokens <= currentCampaign.target &&\n            tokens <= currentCampaign.target,\n            \"Invalid contribution.\"\n        );\n        }\n        else\n        {\n            require(tokens > 0 &&\n            currentCampaign.contribution + tokens <= currentCampaign.target &&\n            tokens <= currentCampaign.contribution,\n            \"Invalid contributions.\");\n        }\n\n        currentCampaign.contribution += tokens;\n\n        ERC20Token(currentCampaign.contractAddress).mint(msg.sender,tokens * 10**18);\n        \n        currentCampaign.heldBalance -= tokens;\n        balance[currentCampaign.creator] -= tokens ;\n        balance[msg.sender] += tokens;\n        \n        receipts[campaignId][msg.sender] = ContributionReceipt({\n                contributer : msg.sender,\n                tokens: tokens,\n                receivedEth: msg.value,\n                campaignId:campaignId\n        });\n\n        emit contribution(campaignId, currentCampaign.contribution, msg.sender);\n        return true;\n\n    }\n\n    /**\n    * @notice handling the refund\n    * @dev users can call refund if they want their contribution back before deadLine\n    * @param campaignId campaignId helping to find the campaign by this id \n    * @return bool return true if the refund get success\n    */\n\n    function refund(uint256 campaignId, uint256 _amount) external payable returns (bool) {\n        require(campaignCount >= campaignId && campaignId > 0,\"No campaign\");\n        Campaign storage currentCampaign = campaigns[campaignId];\n        \n        require(currentCampaign.endDate >= block.timestamp,\"DeadLine passed\");\n        ContributionReceipt storage user = receipts[campaignId][msg.sender];\n        require(user.tokens == _amount, \"Incorrect amount\");\n        require(address(this).balance >= user.receivedEth, \"contract low balance\");\n\n        ERC20Token(currentCampaign.contractAddress).transfer(msg.sender,currentCampaign.creator,user.tokens * 10**18);\n        payable(msg.sender).transfer(user.receivedEth);\n        user.tokens -= _amount;\n        currentCampaign.contribution -= _amount;\n\n        user.receivedEth -= (_amount) * currentCampaign.pricePerToken;\n        campaigns[campaignId].contribution = currentCampaign.contribution;\n        currentCampaign.heldBalance += _amount;\n        balance[currentCampaign.creator] = currentCampaign.heldBalance;\n        balance[msg.sender] -= _amount;\n        emit refunded(campaignId, _amount, msg.sender);\n\n        return true;\n    }\n\n    /**\n    * @notice handling the withDraw\n    * @dev users can call withDraw if campaign deadLine crossed\n    * @param campaignId campaignId helping to find the campaign by this id \n    * @return bool return true if the withDrawal gets success\n    */\n\n    function withDraw(uint256 campaignId) external returns(bool) {\n        require(campaignCount >= campaignId && campaignId > 0 && campaigns[campaignId].contribution > 0 ,\"No campaign\");\n        require(block.timestamp >= campaigns[campaignId].endDate,\"DeadLine not passed\");\n        require(campaigns[campaignId].creator == msg.sender, \"Not a creator\");\n        payable(msg.sender).transfer(campaigns[campaignId].contribution * campaigns[campaignId].pricePerToken);\n        return true;\n    }\n\n    /**\n     * @notice contribution receipt\n     * @dev to get receipt for the contribution by the id and contributor address\n     * @param campaignId helps to find the campaign agains\n     * @param contributer address of the contributer\n     * @return contributionReceipt returning struct of the contribution receipt\n     */\n    \n    function getContributionReceipt(uint256 campaignId, address contributer) external view returns (ContributionReceipt memory) {\n        return receipts[campaignId][contributer];\n    }\n\n    /**\n     * @notice Get company\n     * @dev get the company details\n     * @param _contractAddress get the company details that are stored against to this contract address\n     * @return company returning the structure of the company\n     */\n\n    function getCompany(address _contractAddress) public view returns (Company memory){\n        return companies[_contractAddress];\n    }\n\n    /**\n     * @notice get campaign\n     * @dev get the campaign, that are stored against to the id\n     * @param campaignId we can check and get the details of the campaign\n     * @return campaign returning the all details of the campaign in structure\n     */\n\n    function getCampaign(uint256 campaignId) public view returns(Campaign memory){\n        require(campaignCount >= campaignId && campaignId > 0,\"No campaign\");\n        return campaigns[campaignId];\n    }\n\n    /**\n     * @notice get balance\n     * @dev return the balance of the user\n     * @param _address to get the balance, stored against to the address\n     * @return balance returning the balance of the user in uint256 type\n     */\n\n    function getBalance(address _address) external view returns(uint256) {\n        return balance[_address];\n    }\n\n    function companyDetailsByCampaignId(uint256 campaignId) external view returns (\n        address,\n        string memory, \n        string memory, \n        uint256\n    ){\n            Campaign memory _campaign = getCampaign(campaignId);\n            Company memory _company = getCompany(_campaign.contractAddress);\n            return (\n                _company.contractAddress,\n                _company.tokenName,\n                _company.tokenSymbol,\n                _company.totalSupply\n            );           \n    }\n}\n",
  "sourcePath": "/home/neosoft/projects/solidity/crowdFunding/crowdfunding-dao-solidity/contracts/CrowdFunding.sol",
  "compiler": {
    "name": "solc",
    "version": "0.8.17+commit.8df45f5f.Emscripten.clang"
  },
  "schemaVersion": "3.4.11",
  "updatedAt": "2023-03-09T20:03:15.048Z",
  "networkType": "ethereum",
  "devdoc": {
    "details": "All function calls are currently implemented without side effects",
    "events": {
      "approved(uint256)": {
        "details": "this event is emitted when a campaign gets approve by the admin",
        "params": {
          "campaignId": "id of the campaign"
        }
      },
      "campaignCreated(uint256,string,string,string,uint256,string,uint256,uint256,string,uint256)": {
        "details": "This event is emitted when a crowdfunding campaign is made.",
        "params": {
          "_companyName": "name of the company going to create the campaign",
          "_description": "detailed description of the campaign",
          "_pricePerToken": "price per token for eg : 10 NEO tokens == 100INR( here 1 neo is equal to 10 INR)",
          "_target": "goal of the crowd funding",
          "_title": "title of the camapaign",
          "_tokenName": "Name of the token launched by the user",
          "_tokenSymbol": "symbol of the token launched by the user",
          "_totalSupply": "total supply",
          "campaignId": "id of the campaign",
          "deadLine": "End date for the campaign to contribute,"
        }
      },
      "contribution(uint256,uint256,address)": {
        "details": "this event will emit when the contribution was maded by the users",
        "params": {
          "campaignId": "Id of the campaign  ",
          "contributer": "address of the contributer",
          "contribution": "amount of the contribution by the user"
        }
      },
      "refunded(uint256,uint256,address)": {
        "details": "This event will emit when refund is made",
        "params": {
          "campaignId": "Id of the campaign  ",
          "contributer": "address of the contributer",
          "contribution": "amount of the contribution by the user"
        }
      },
      "rejected(uint256)": {
        "details": "this event is emitted when a campaign gets reject by the admin",
        "params": {
          "campaignId": "id of the campaign"
        }
      }
    },
    "kind": "dev",
    "methods": {
      "approveCampaign(uint256)": {
        "details": "admin can approve this campaign",
        "params": {
          "campaignId": "campaign is approved by the admin "
        },
        "returns": {
          "_0": "status returning the enum for the referrence of campaign states"
        }
      },
      "constructor": {
        "details": "Constructor function to set the admin",
        "params": {
          "_admin": "admin of this contract"
        }
      },
      "contribute(uint256,uint256)": {
        "details": "getting ERC20 token by giving the fiat currency in msg.value",
        "params": {
          "campaignId": "helping to find and contribute against the campaign by this id ",
          "tokens": "How many token user want's to buy against the fiat currency"
        },
        "returns": {
          "_0": "bool return true if the contribution get success"
        }
      },
      "createCampaign(string,string,string,uint256,string,uint256,uint256,string,uint256)": {
        "details": "It will create a new ERC20 token",
        "params": {
          "_companyName": "name of the comapany",
          "_description": "Description of the campaign",
          "_pricePerToken": "Campaign creator can decide price per token would be fixed cost",
          "_target": "Goal of this campaign ",
          "_title": "Title of the campaign",
          "_tokenName": "Name of the ERC20 Token",
          "_tokenSymbol": "Symbol of the ERC20 token",
          "_totalSupply": "no of token wants to launch by campaign creator*",
          "deadLine": "End date for the campaign"
        }
      },
      "getBalance(address)": {
        "details": "return the balance of the user",
        "params": {
          "_address": "to get the balance, stored against to the address"
        },
        "returns": {
          "_0": "balance returning the balance of the user in uint256 type"
        }
      },
      "getCampaign(uint256)": {
        "details": "get the campaign, that are stored against to the id",
        "params": {
          "campaignId": "we can check and get the details of the campaign"
        },
        "returns": {
          "_0": "campaign returning the all details of the campaign in structure"
        }
      },
      "getCompany(address)": {
        "details": "get the company details",
        "params": {
          "_contractAddress": "get the company details that are stored against to this contract address"
        },
        "returns": {
          "_0": "company returning the structure of the company"
        }
      },
      "getContributionReceipt(uint256,address)": {
        "details": "to get receipt for the contribution by the id and contributor address",
        "params": {
          "campaignId": "helps to find the campaign agains",
          "contributer": "address of the contributer"
        },
        "returns": {
          "_0": "contributionReceipt returning struct of the contribution receipt"
        }
      },
      "refund(uint256,uint256)": {
        "details": "users can call refund if they want their contribution back before deadLine",
        "params": {
          "campaignId": "campaignId helping to find the campaign by this id "
        },
        "returns": {
          "_0": "bool return true if the refund get success"
        }
      },
      "rejectCampaign(uint256)": {
        "details": "admin can reject this campaign",
        "params": {
          "campaignId": "campaign is rejected by the admin by the help of this id "
        },
        "returns": {
          "_0": "status returning the enum for the referrence of campaign states"
        }
      },
      "withDraw(uint256)": {
        "details": "users can call withDraw if campaign deadLine crossed",
        "params": {
          "campaignId": "campaignId helping to find the campaign by this id "
        },
        "returns": {
          "_0": "bool return true if the withDrawal gets success"
        }
      }
    },
    "title": "CrowdFudndingDao",
    "version": 1
  },
  "userdoc": {
    "events": {
      "approved(uint256)": {
        "notice": "approval of the campaign"
      },
      "campaignCreated(uint256,string,string,string,uint256,string,uint256,uint256,string,uint256)": {
        "notice": "event for campaign creation"
      },
      "contribution(uint256,uint256,address)": {
        "notice": "event for contribution"
      },
      "refunded(uint256,uint256,address)": {
        "notice": "refund request against the contribution "
      },
      "rejected(uint256)": {
        "notice": "rejection of the campaign"
      }
    },
    "kind": "user",
    "methods": {
      "approveCampaign(uint256)": {
        "notice": "Approve  campaign"
      },
      "contribute(uint256,uint256)": {
        "notice": "contribute to the campaign"
      },
      "createCampaign(string,string,string,uint256,string,uint256,uint256,string,uint256)": {
        "notice": "To create the new campaign"
      },
      "getBalance(address)": {
        "notice": "get balance"
      },
      "getCampaign(uint256)": {
        "notice": "get campaign"
      },
      "getCompany(address)": {
        "notice": "Get company"
      },
      "getContributionReceipt(uint256,address)": {
        "notice": "contribution receipt"
      },
      "refund(uint256,uint256)": {
        "notice": "handling the refund"
      },
      "rejectCampaign(uint256)": {
        "notice": "Reject campaign"
      },
      "withDraw(uint256)": {
        "notice": "handling the withDraw"
      }
    },
    "notice": "You can use this contract for mint a new ERC20 based INRtoken",
    "version": 1
  }
}