{
  "contractName": "CrowdFunding",
  "abi": [
    {
      "anonymous": false,
      "inputs": [
        {
          "indexed": false,
          "internalType": "address",
          "name": "sender",
          "type": "address"
        },
        {
          "indexed": false,
          "internalType": "address",
          "name": "ownableAddress",
          "type": "address"
        }
      ],
      "name": "OwnableAddressSet",
      "type": "event"
    },
    {
      "anonymous": false,
      "inputs": [
        {
          "indexed": true,
          "internalType": "uint256",
          "name": "campaignId",
          "type": "uint256"
        }
      ],
      "name": "approved",
      "type": "event"
    },
    {
      "anonymous": false,
      "inputs": [
        {
          "indexed": true,
          "internalType": "uint256",
          "name": "campaignId",
          "type": "uint256"
        },
        {
          "indexed": false,
          "internalType": "bytes32",
          "name": "_companyName",
          "type": "bytes32"
        },
        {
          "indexed": false,
          "internalType": "bytes32",
          "name": "_title",
          "type": "bytes32"
        },
        {
          "indexed": false,
          "internalType": "bytes32",
          "name": "_description",
          "type": "bytes32"
        },
        {
          "indexed": true,
          "internalType": "uint256",
          "name": "_pricePerToken",
          "type": "uint256"
        },
        {
          "indexed": false,
          "internalType": "string",
          "name": "_tokenName",
          "type": "string"
        },
        {
          "indexed": true,
          "internalType": "uint256",
          "name": "deadLine",
          "type": "uint256"
        },
        {
          "indexed": false,
          "internalType": "uint256",
          "name": "_target",
          "type": "uint256"
        },
        {
          "indexed": false,
          "internalType": "string",
          "name": "_tokenSymbol",
          "type": "string"
        },
        {
          "indexed": false,
          "internalType": "uint256",
          "name": "_totalSupply",
          "type": "uint256"
        }
      ],
      "name": "campaignCreated",
      "type": "event"
    },
    {
      "anonymous": false,
      "inputs": [
        {
          "indexed": true,
          "internalType": "uint256",
          "name": "campaignId",
          "type": "uint256"
        },
        {
          "indexed": true,
          "internalType": "uint256",
          "name": "contribution",
          "type": "uint256"
        },
        {
          "indexed": true,
          "internalType": "address",
          "name": "contributer",
          "type": "address"
        }
      ],
      "name": "contribution",
      "type": "event"
    },
    {
      "anonymous": false,
      "inputs": [
        {
          "indexed": true,
          "internalType": "uint256",
          "name": "campaignId",
          "type": "uint256"
        },
        {
          "indexed": true,
          "internalType": "uint256",
          "name": "contribution",
          "type": "uint256"
        },
        {
          "indexed": true,
          "internalType": "address",
          "name": "contributer",
          "type": "address"
        }
      ],
      "name": "refunded",
      "type": "event"
    },
    {
      "anonymous": false,
      "inputs": [
        {
          "indexed": true,
          "internalType": "uint256",
          "name": "campaignId",
          "type": "uint256"
        }
      ],
      "name": "rejected",
      "type": "event"
    },
    {
      "inputs": [],
      "name": "_ownableContract",
      "outputs": [
        {
          "internalType": "contract OwnableContract",
          "name": "",
          "type": "address"
        }
      ],
      "stateMutability": "view",
      "type": "function",
      "constant": true
    },
    {
      "inputs": [],
      "name": "campaignCount",
      "outputs": [
        {
          "internalType": "uint256",
          "name": "",
          "type": "uint256"
        }
      ],
      "stateMutability": "view",
      "type": "function",
      "constant": true
    },
    {
      "inputs": [
        {
          "internalType": "uint256",
          "name": "campaignId",
          "type": "uint256"
        },
        {
          "internalType": "uint256",
          "name": "tokens",
          "type": "uint256"
        }
      ],
      "name": "contribute",
      "outputs": [
        {
          "internalType": "bool",
          "name": "",
          "type": "bool"
        }
      ],
      "stateMutability": "payable",
      "type": "function",
      "payable": true
    },
    {
      "inputs": [],
      "name": "ownable",
      "outputs": [
        {
          "internalType": "contract OwnableContract",
          "name": "",
          "type": "address"
        }
      ],
      "stateMutability": "view",
      "type": "function",
      "constant": true
    },
    {
      "inputs": [
        {
          "internalType": "uint256",
          "name": "",
          "type": "uint256"
        },
        {
          "internalType": "address",
          "name": "",
          "type": "address"
        }
      ],
      "name": "receipts",
      "outputs": [
        {
          "internalType": "address",
          "name": "contributer",
          "type": "address"
        },
        {
          "internalType": "uint256",
          "name": "campaignId",
          "type": "uint256"
        },
        {
          "internalType": "uint256",
          "name": "tokens",
          "type": "uint256"
        },
        {
          "internalType": "uint256",
          "name": "receivedEth",
          "type": "uint256"
        }
      ],
      "stateMutability": "view",
      "type": "function",
      "constant": true
    },
    {
      "inputs": [
        {
          "internalType": "uint256",
          "name": "campaignId",
          "type": "uint256"
        },
        {
          "internalType": "uint256",
          "name": "_amount",
          "type": "uint256"
        }
      ],
      "name": "refund",
      "outputs": [
        {
          "internalType": "bool",
          "name": "",
          "type": "bool"
        }
      ],
      "stateMutability": "payable",
      "type": "function",
      "payable": true
    },
    {
      "inputs": [
        {
          "internalType": "address",
          "name": "_ownable",
          "type": "address"
        }
      ],
      "name": "setOwnable",
      "outputs": [
        {
          "internalType": "bool",
          "name": "",
          "type": "bool"
        }
      ],
      "stateMutability": "nonpayable",
      "type": "function"
    },
    {
      "inputs": [
        {
          "internalType": "bytes32",
          "name": "_companyName",
          "type": "bytes32"
        },
        {
          "internalType": "bytes32",
          "name": "_title",
          "type": "bytes32"
        },
        {
          "internalType": "bytes32",
          "name": "_description",
          "type": "bytes32"
        },
        {
          "internalType": "uint256",
          "name": "_pricePerToken",
          "type": "uint256"
        },
        {
          "internalType": "string",
          "name": "_tokenName",
          "type": "string"
        },
        {
          "internalType": "uint256",
          "name": "deadLine",
          "type": "uint256"
        },
        {
          "internalType": "uint256",
          "name": "_target",
          "type": "uint256"
        },
        {
          "internalType": "string",
          "name": "_tokenSymbol",
          "type": "string"
        },
        {
          "internalType": "uint256",
          "name": "_totalSupply",
          "type": "uint256"
        }
      ],
      "name": "createCampaign",
      "outputs": [],
      "stateMutability": "nonpayable",
      "type": "function"
    },
    {
      "inputs": [
        {
          "internalType": "uint256",
          "name": "campaignId",
          "type": "uint256"
        }
      ],
      "name": "approveCampaign",
      "outputs": [
        {
          "internalType": "enum StateVariables.campainStatus",
          "name": "",
          "type": "uint8"
        }
      ],
      "stateMutability": "nonpayable",
      "type": "function"
    },
    {
      "inputs": [
        {
          "internalType": "uint256",
          "name": "campaignId",
          "type": "uint256"
        }
      ],
      "name": "rejectCampaign",
      "outputs": [
        {
          "internalType": "enum StateVariables.campainStatus",
          "name": "",
          "type": "uint8"
        }
      ],
      "stateMutability": "nonpayable",
      "type": "function"
    },
    {
      "inputs": [
        {
          "internalType": "uint256",
          "name": "campaignId",
          "type": "uint256"
        }
      ],
      "name": "withDraw",
      "outputs": [
        {
          "internalType": "bool",
          "name": "",
          "type": "bool"
        }
      ],
      "stateMutability": "nonpayable",
      "type": "function"
    },
    {
      "inputs": [
        {
          "internalType": "address",
          "name": "_contractAddress",
          "type": "address"
        }
      ],
      "name": "getCompany",
      "outputs": [
        {
          "components": [
            {
              "internalType": "bytes32",
              "name": "companyName",
              "type": "bytes32"
            },
            {
              "internalType": "string",
              "name": "tokenSymbol",
              "type": "string"
            },
            {
              "internalType": "string",
              "name": "tokenName",
              "type": "string"
            },
            {
              "internalType": "address",
              "name": "contractAddress",
              "type": "address"
            },
            {
              "internalType": "uint256",
              "name": "totalSupply",
              "type": "uint256"
            }
          ],
          "internalType": "struct StateVariables.Company",
          "name": "",
          "type": "tuple"
        }
      ],
      "stateMutability": "view",
      "type": "function",
      "constant": true
    },
    {
      "inputs": [
        {
          "internalType": "uint256",
          "name": "campaignId",
          "type": "uint256"
        }
      ],
      "name": "getCampaign",
      "outputs": [
        {
          "components": [
            {
              "internalType": "address",
              "name": "contractAddress",
              "type": "address"
            },
            {
              "internalType": "bytes32",
              "name": "companyName",
              "type": "bytes32"
            },
            {
              "internalType": "string",
              "name": "tokenName",
              "type": "string"
            },
            {
              "internalType": "string",
              "name": "tokenSymbol",
              "type": "string"
            },
            {
              "internalType": "uint256",
              "name": "campaignId",
              "type": "uint256"
            },
            {
              "internalType": "address",
              "name": "creator",
              "type": "address"
            },
            {
              "internalType": "bytes32",
              "name": "campaignTitle",
              "type": "bytes32"
            },
            {
              "internalType": "bytes32",
              "name": "campaignDescription",
              "type": "bytes32"
            },
            {
              "internalType": "uint256",
              "name": "pricePerToken",
              "type": "uint256"
            },
            {
              "internalType": "uint256",
              "name": "target",
              "type": "uint256"
            },
            {
              "internalType": "uint256",
              "name": "contribution",
              "type": "uint256"
            },
            {
              "internalType": "uint256",
              "name": "heldBalance",
              "type": "uint256"
            },
            {
              "internalType": "uint256",
              "name": "startDate",
              "type": "uint256"
            },
            {
              "internalType": "uint256",
              "name": "endDate",
              "type": "uint256"
            },
            {
              "internalType": "enum StateVariables.campainStatus",
              "name": "status",
              "type": "uint8"
            },
            {
              "internalType": "bool",
              "name": "withdrawalStatus",
              "type": "bool"
            }
          ],
          "internalType": "struct StateVariables.Campaign",
          "name": "",
          "type": "tuple"
        }
      ],
      "stateMutability": "view",
      "type": "function",
      "constant": true
    },
    {
      "inputs": [
        {
          "internalType": "address",
          "name": "_address",
          "type": "address"
        }
      ],
      "name": "getBalance",
      "outputs": [
        {
          "internalType": "uint256",
          "name": "",
          "type": "uint256"
        }
      ],
      "stateMutability": "view",
      "type": "function",
      "constant": true
    },
    {
      "inputs": [
        {
          "internalType": "uint256",
          "name": "campaignId",
          "type": "uint256"
        }
      ],
      "name": "companyDetailsByCampaignId",
      "outputs": [
        {
          "internalType": "address",
          "name": "",
          "type": "address"
        },
        {
          "internalType": "string",
          "name": "",
          "type": "string"
        },
        {
          "internalType": "string",
          "name": "",
          "type": "string"
        },
        {
          "internalType": "uint256",
          "name": "",
          "type": "uint256"
        },
        {
          "internalType": "bool",
          "name": "",
          "type": "bool"
        }
      ],
      "stateMutability": "view",
      "type": "function",
      "constant": true
    }
  ],
  "bytecode": "0x608060405234801561001057600080fd5b50615f32806100206000396000f3fe6080604052600436106200011b576000357c0100000000000000000000000000000000000000000000000000000000900480637274e30d11620000b4578063c75bc794116200007e578063c75bc79414620003b7578063db8adee514620003ff578063ee4e1b53146200042d578063f8b2cb4f1462000471576200011b565b80637274e30d14620002dd5780638c590917146200030d578063b38854be1462000343578063c4618d181462000373576200011b565b806350d63b9911620000f657806350d63b9914620001ef5780635598f8cc146200021f5780635af36e3e146200026357806362bc56e61462000299576200011b565b8063034d09da146200012057806314174f3314620001645780634178b24914620001a8575b600080fd5b3480156200012d57600080fd5b506200014c60048036038101906200014691906200287f565b620004b5565b6040516200015b919062002931565b60405180910390f35b3480156200017157600080fd5b506200019060048036038101906200018a91906200287f565b62000797565b6040516200019f91906200296b565b60405180910390f35b348015620001b557600080fd5b50620001d46004803603810190620001ce9190620029ed565b6200096a565b604051620001e6949392919062002a56565b60405180910390f35b348015620001fc57600080fd5b5062000207620009c7565b60405162000216919062002b0e565b60405180910390f35b3480156200022c57600080fd5b506200024b60048036038101906200024591906200287f565b620009ed565b6040516200025a919062002da3565b60405180910390f35b6200028160048036038101906200027b919062002dc7565b62000d14565b6040516200029091906200296b565b60405180910390f35b348015620002a657600080fd5b50620002c56004803603810190620002bf919062002e0e565b620011cd565b604051620002d4919062002ec7565b60405180910390f35b348015620002ea57600080fd5b50620002f5620013c6565b60405162000304919062002eeb565b60405180910390f35b6200032b600480360381019062000325919062002dc7565b620013cc565b6040516200033a91906200296b565b60405180910390f35b3480156200035057600080fd5b506200035b6200198f565b6040516200036a919062002b0e565b60405180910390f35b3480156200038057600080fd5b506200039f600480360381019062000399919062002e0e565b620019b5565b604051620003ae91906200296b565b60405180910390f35b348015620003c457600080fd5b50620003e36004803603810190620003dd91906200287f565b62001c52565b604051620003f695949392919062002f5a565b60405180910390f35b3480156200040c57600080fd5b506200042b600480360381019062000425919062003147565b62001d3f565b005b3480156200043a57600080fd5b506200045960048036038101906200045391906200287f565b620023e6565b60405162000468919062002931565b60405180910390f35b3480156200047e57600080fd5b506200049d600480360381019062000497919062002e0e565b620026c8565b604051620004ac919062002eeb565b60405180910390f35b6000818060015410158015620004cb5750600081115b6200050d576040517f08c379a00000000000000000000000000000000000000000000000000000000081526004016200050490620032b4565b60405180910390fd5b8260006002811115620005255762000524620028b1565b5b60026000838152602001908152602001600020600e0160009054906101000a900460ff1660028111156200055e576200055d620028b1565b5b03620005a1576040517f08c379a0000000000000000000000000000000000000000000000000000000008152600401620005989062003326565b60405180910390fd5b60016002811115620005b857620005b7620028b1565b5b60026000838152602001908152602001600020600e0160009054906101000a900460ff166002811115620005f157620005f0620028b1565b5b0362000634576040517f08c379a00000000000000000000000000000000000000000000000000000000081526004016200062b9062003398565b60405180910390fd5b600860009054906101000a900473ffffffffffffffffffffffffffffffffffffffff1673ffffffffffffffffffffffffffffffffffffffff16639026dee8336040518263ffffffff167c0100000000000000000000000000000000000000000000000000000000028152600401620006ad9190620033ba565b602060405180830381865afa158015620006cb573d6000803e3d6000fd5b505050506040513d601f19601f82011682018060405250810190620006f1919062003408565b620006fb57600080fd5b600160026000868152602001908152602001600020600e0160006101000a81548160ff02191690836002811115620007385762000737620028b1565b5b0217905550837f8c9878cc57a61b734d09368704b49894d5fb6b8f68f9cb352054ebe5b15a49e860405160405180910390a260026000858152602001908152602001600020600e0160009054906101000a900460ff1692505050919050565b6000818060015410158015620007ad5750600081115b620007ef576040517f08c379a0000000000000000000000000000000000000000000000000000000008152600401620007e690620032b4565b60405180910390fd5b600060026000858152602001908152602001600020905080600d015442101562000850576040517f08c379a000000000000000000000000000000000000000000000000000000000815260040162000847906200348a565b60405180910390fd5b3373ffffffffffffffffffffffffffffffffffffffff168160050160009054906101000a900473ffffffffffffffffffffffffffffffffffffffff1673ffffffffffffffffffffffffffffffffffffffff1614620008e5576040517f08c379a0000000000000000000000000000000000000000000000000000000008152600401620008dc90620034fc565b60405180910390fd5b3373ffffffffffffffffffffffffffffffffffffffff166108fc826008015483600a01546200091591906200354d565b9081150290604051600060405180830381858888f1935050505015801562000941573d6000803e3d6000fd5b50600181600e0160016101000a81548160ff021916908315150217905550600192505050919050565b6004602052816000526040600020602052806000526040600020600091509150508060000160009054906101000a900473ffffffffffffffffffffffffffffffffffffffff16908060010154908060020154908060030154905084565b600860009054906101000a900473ffffffffffffffffffffffffffffffffffffffff1681565b620009f762002711565b81806001541015801562000a0b5750600081115b62000a4d576040517f08c379a000000000000000000000000000000000000000000000000000000000815260040162000a4490620032b4565b60405180910390fd5b60026000848152602001908152602001600020604051806102000160405290816000820160009054906101000a900473ffffffffffffffffffffffffffffffffffffffff1673ffffffffffffffffffffffffffffffffffffffff1673ffffffffffffffffffffffffffffffffffffffff1681526020016001820154815260200160028201805462000ade90620035c7565b80601f016020809104026020016040519081016040528092919081815260200182805462000b0c90620035c7565b801562000b5d5780601f1062000b315761010080835404028352916020019162000b5d565b820191906000526020600020905b81548152906001019060200180831162000b3f57829003601f168201915b5050505050815260200160038201805462000b7890620035c7565b80601f016020809104026020016040519081016040528092919081815260200182805462000ba690620035c7565b801562000bf75780601f1062000bcb5761010080835404028352916020019162000bf7565b820191906000526020600020905b81548152906001019060200180831162000bd957829003601f168201915b50505050508152602001600482015481526020016005820160009054906101000a900473ffffffffffffffffffffffffffffffffffffffff1673ffffffffffffffffffffffffffffffffffffffff1673ffffffffffffffffffffffffffffffffffffffff16815260200160068201548152602001600782015481526020016008820154815260200160098201548152602001600a8201548152602001600b8201548152602001600c8201548152602001600d8201548152602001600e820160009054906101000a900460ff16600281111562000cd85762000cd7620028b1565b5b600281111562000ced5762000cec620028b1565b5b8152602001600e820160019054906101000a900460ff161515151581525050915050919050565b600082806001541015801562000d2a5750600081115b62000d6c576040517f08c379a000000000000000000000000000000000000000000000000000000000815260040162000d6390620032b4565b60405180910390fd5b834260026000838152602001908152602001600020600d0154101562000dc9576040517f08c379a000000000000000000000000000000000000000000000000000000000815260040162000dc0906200364c565b60405180910390fd5b600060026000878152602001908152602001600020905060006004600088815260200190815260200160002060003373ffffffffffffffffffffffffffffffffffffffff1673ffffffffffffffffffffffffffffffffffffffff1681526020019081526020016000209050858160020154101562000e7e576040517f08c379a000000000000000000000000000000000000000000000000000000000815260040162000e7590620036be565b60405180910390fd5b80600301543073ffffffffffffffffffffffffffffffffffffffff1631101562000edf576040517f08c379a000000000000000000000000000000000000000000000000000000000815260040162000ed69062003730565b60405180910390fd5b8160000160009054906101000a900473ffffffffffffffffffffffffffffffffffffffff1673ffffffffffffffffffffffffffffffffffffffff1663beabacc8338460050160009054906101000a900473ffffffffffffffffffffffffffffffffffffffff16670de0b6b3a76400008a62000f5b91906200354d565b6040518463ffffffff167c010000000000000000000000000000000000000000000000000000000002815260040162000f979392919062003752565b600060405180830381600087803b15801562000fb257600080fd5b505af115801562000fc7573d6000803e3d6000fd5b505050503373ffffffffffffffffffffffffffffffffffffffff166108fc83600801548862000ff791906200354d565b9081150290604051600060405180830381858888f1935050505015801562001023573d6000803e3d6000fd5b50858160020160008282546200103a91906200378f565b925050819055508582600a0160008282546200105791906200378f565b925050819055508160080154866200107091906200354d565b8160030160008282546200108591906200378f565b9250508190555081600a015482600a01819055508582600b016000828254620010af9190620037ca565b9250508190555081600b0154600560008460050160009054906101000a900473ffffffffffffffffffffffffffffffffffffffff1673ffffffffffffffffffffffffffffffffffffffff1673ffffffffffffffffffffffffffffffffffffffff1681526020019081526020016000208190555085600560003373ffffffffffffffffffffffffffffffffffffffff1673ffffffffffffffffffffffffffffffffffffffff16815260200190815260200160002060008282546200117391906200378f565b925050819055503373ffffffffffffffffffffffffffffffffffffffff1686887f05d2f1712ee9236ad359917514636b645f2a01960eefea50967f66d9cb443cde60405160405180910390a4600194505050505092915050565b620011d7620027da565b600360008373ffffffffffffffffffffffffffffffffffffffff1673ffffffffffffffffffffffffffffffffffffffff1681526020019081526020016000206040518060a0016040529081600082015481526020016001820180546200123d90620035c7565b80601f01602080910402602001604051908101604052809291908181526020018280546200126b90620035c7565b8015620012bc5780601f106200129057610100808354040283529160200191620012bc565b820191906000526020600020905b8154815290600101906020018083116200129e57829003601f168201915b50505050508152602001600282018054620012d790620035c7565b80601f01602080910402602001604051908101604052809291908181526020018280546200130590620035c7565b8015620013565780601f106200132a5761010080835404028352916020019162001356565b820191906000526020600020905b8154815290600101906020018083116200133857829003601f168201915b505050505081526020016003820160009054906101000a900473ffffffffffffffffffffffffffffffffffffffff1673ffffffffffffffffffffffffffffffffffffffff1673ffffffffffffffffffffffffffffffffffffffff1681526020016004820154815250509050919050565b60015481565b6000828060015410158015620013e25750600081115b62001424576040517f08c379a00000000000000000000000000000000000000000000000000000000081526004016200141b90620032b4565b60405180910390fd5b834260026000838152602001908152602001600020600d0154101562001481576040517f08c379a000000000000000000000000000000000000000000000000000000000815260040162001478906200364c565b60405180910390fd5b600060026000878152602001908152602001600020905060006004600088815260200190815260200160002060003373ffffffffffffffffffffffffffffffffffffffff1673ffffffffffffffffffffffffffffffffffffffff1681526020019081526020016000209050858260080154620014fe91906200354d565b341462001542576040517f08c379a00000000000000000000000000000000000000000000000000000000081526004016200153990620036be565b60405180910390fd5b60006002811115620015595762001558620028b1565b5b82600e0160009054906101000a900460ff16600281111562001580576200157f620028b1565b5b14620015c3576040517f08c379a0000000000000000000000000000000000000000000000000000000008152600401620015ba9062003855565b60405180910390fd5b600082600a0154036200164f57600086118015620015f6575081600901548683600a0154620015f39190620037ca565b11155b801562001607575081600901548611155b62001649576040517f08c379a00000000000000000000000000000000000000000000000000000000081526004016200164090620038c7565b60405180910390fd5b620016b8565b60008611801562001675575081600901548683600a0154620016729190620037ca565b11155b620016b7576040517f08c379a0000000000000000000000000000000000000000000000000000000008152600401620016ae9062003939565b60405180910390fd5b5b8582600a016000828254620016ce9190620037ca565b925050819055508160000160009054906101000a900473ffffffffffffffffffffffffffffffffffffffff1673ffffffffffffffffffffffffffffffffffffffff1663beabacc88360050160009054906101000a900473ffffffffffffffffffffffffffffffffffffffff1633670de0b6b3a76400008a6200175191906200354d565b6040518463ffffffff167c01000000000000000000000000000000000000000000000000000000000281526004016200178d9392919062003752565b600060405180830381600087803b158015620017a857600080fd5b505af1158015620017bd573d6000803e3d6000fd5b505050508582600b016000828254620017d791906200378f565b9250508190555085600560008460050160009054906101000a900473ffffffffffffffffffffffffffffffffffffffff1673ffffffffffffffffffffffffffffffffffffffff1673ffffffffffffffffffffffffffffffffffffffff16815260200190815260200160002060008282546200185391906200378f565b9250508190555085600560003373ffffffffffffffffffffffffffffffffffffffff1673ffffffffffffffffffffffffffffffffffffffff1681526020019081526020016000206000828254620018ab9190620037ca565b9250508190555085816002016000828254620018c89190620037ca565b9250508190555034816003016000828254620018e59190620037ca565b92505081905550338160000160006101000a81548173ffffffffffffffffffffffffffffffffffffffff021916908373ffffffffffffffffffffffffffffffffffffffff1602179055508681600101819055503373ffffffffffffffffffffffffffffffffffffffff1682600a0154887fc84cdef8ffed2c03b52b412accc6d5b91af9eb50c8480fdfddd078846470b2d060405160405180910390a4600194505050505092915050565b600660009054906101000a900473ffffffffffffffffffffffffffffffffffffffff1681565b60008073ffffffffffffffffffffffffffffffffffffffff168273ffffffffffffffffffffffffffffffffffffffff160362001a28576040517f08c379a000000000000000000000000000000000000000000000000000000000815260040162001a1f90620039ab565b60405180910390fd5b600073ffffffffffffffffffffffffffffffffffffffff16600860009054906101000a900473ffffffffffffffffffffffffffffffffffffffff1673ffffffffffffffffffffffffffffffffffffffff160362001b055781600860006101000a81548173ffffffffffffffffffffffffffffffffffffffff021916908373ffffffffffffffffffffffffffffffffffffffff1602179055507fb309a3e7f526e103b1b3df0dfa0a2e9784e4505551ab3a82c0bc7db7087699f2338360405162001af3929190620039cd565b60405180910390a16001905062001c4d565b600860009054906101000a900473ffffffffffffffffffffffffffffffffffffffff1673ffffffffffffffffffffffffffffffffffffffff1663e0e3671c336040518263ffffffff167c010000000000000000000000000000000000000000000000000000000002815260040162001b7e9190620033ba565b602060405180830381865afa15801562001b9c573d6000803e3d6000fd5b505050506040513d601f19601f8201168201806040525081019062001bc2919062003408565b62001bcc57600080fd5b81600860006101000a81548173ffffffffffffffffffffffffffffffffffffffff021916908373ffffffffffffffffffffffffffffffffffffffff1602179055507fb309a3e7f526e103b1b3df0dfa0a2e9784e4505551ab3a82c0bc7db7087699f2338360405162001c40929190620039cd565b60405180910390a1600190505b919050565b600060608060008085806001541015801562001c6e5750600081115b62001cb0576040517f08c379a000000000000000000000000000000000000000000000000000000000815260040162001ca790620032b4565b60405180910390fd5b600062001cbd88620009ed565b9050600062001cd08260000151620011cd565b905080606001518160400151826020015183608001516000600281111562001cfd5762001cfc620028b1565b5b866101c00151600281111562001d185762001d17620028b1565b5b1462001d2657600062001d29565b60015b9750975097509750975050505091939590929450565b600073ffffffffffffffffffffffffffffffffffffffff16600860009054906101000a900473ffffffffffffffffffffffffffffffffffffffff1673ffffffffffffffffffffffffffffffffffffffff160362001dd3576040517f08c379a000000000000000000000000000000000000000000000000000000000815260040162001dca9062003a70565b60405180910390fd5b600860009054906101000a900473ffffffffffffffffffffffffffffffffffffffff1673ffffffffffffffffffffffffffffffffffffffff166363a846f8336040518263ffffffff167c010000000000000000000000000000000000000000000000000000000002815260040162001e4c9190620033ba565b602060405180830381865afa15801562001e6a573d6000803e3d6000fd5b505050506040513d601f19601f8201168201806040525081019062001e90919062003408565b1562001ed3576040517f08c379a000000000000000000000000000000000000000000000000000000000815260040162001eca9062003ae2565b60405180910390fd5b8083111562001f19576040517f08c379a000000000000000000000000000000000000000000000000000000000815260040162001f109062003b54565b60405180910390fd5b83421062001f5e576040517f08c379a000000000000000000000000000000000000000000000000000000000815260040162001f559062003bc6565b60405180910390fd5b60008583833360405162001f729062002822565b62001f81949392919062003be8565b604051809103906000f08015801562001f9e573d6000803e3d6000fd5b50905080600760006101000a81548173ffffffffffffffffffffffffffffffffffffffff021916908373ffffffffffffffffffffffffffffffffffffffff1602179055506001600081548092919062001ff79062003c43565b91905055506040518061020001604052808273ffffffffffffffffffffffffffffffffffffffff1681526020018b815260200187815260200184815260200160015481526020013373ffffffffffffffffffffffffffffffffffffffff1681526020018a815260200189815260200188815260200185815260200160008152602001838152602001428152602001868152602001600280811115620020a157620020a0620028b1565b5b81526020016000151581525060026000600154815260200190815260200160002060008201518160000160006101000a81548173ffffffffffffffffffffffffffffffffffffffff021916908373ffffffffffffffffffffffffffffffffffffffff1602179055506020820151816001015560408201518160020190816200212a919062003e5e565b50606082015181600301908162002142919062003e5e565b506080820151816004015560a08201518160050160006101000a81548173ffffffffffffffffffffffffffffffffffffffff021916908373ffffffffffffffffffffffffffffffffffffffff16021790555060c0820151816006015560e082015181600701556101008201518160080155610120820151816009015561014082015181600a015561016082015181600b015561018082015181600c01556101a082015181600d01556101c082015181600e0160006101000a81548160ff02191690836002811115620022195762002218620028b1565b5b02179055506101e082015181600e0160016101000a81548160ff02191690831515021790555090505081600560003373ffffffffffffffffffffffffffffffffffffffff1673ffffffffffffffffffffffffffffffffffffffff168152602001908152602001600020819055506040518060a001604052808b81526020018481526020018781526020018273ffffffffffffffffffffffffffffffffffffffff16815260200183815250600360008373ffffffffffffffffffffffffffffffffffffffff1673ffffffffffffffffffffffffffffffffffffffff16815260200190815260200160002060008201518160000155602082015181600101908162002323919062003e5e565b5060408201518160020190816200233b919062003e5e565b5060608201518160030160006101000a81548173ffffffffffffffffffffffffffffffffffffffff021916908373ffffffffffffffffffffffffffffffffffffffff1602179055506080820151816004015590505084876001547f2caabeaff968a26d6b7712926ea1a5adfdce0e50200599f60a3b50c3d2d912fb8d8d8d8c8b8b8b604051620023d2979695949392919062003f56565b60405180910390a450505050505050505050565b6000818060015410158015620023fc5750600081115b6200243e576040517f08c379a00000000000000000000000000000000000000000000000000000000081526004016200243590620032b4565b60405180910390fd5b8260006002811115620024565762002455620028b1565b5b60026000838152602001908152602001600020600e0160009054906101000a900460ff1660028111156200248f576200248e620028b1565b5b03620024d2576040517f08c379a0000000000000000000000000000000000000000000000000000000008152600401620024c99062003326565b60405180910390fd5b60016002811115620024e957620024e8620028b1565b5b60026000838152602001908152602001600020600e0160009054906101000a900460ff166002811115620025225762002521620028b1565b5b0362002565576040517f08c379a00000000000000000000000000000000000000000000000000000000081526004016200255c9062003398565b60405180910390fd5b600860009054906101000a900473ffffffffffffffffffffffffffffffffffffffff1673ffffffffffffffffffffffffffffffffffffffff16639026dee8336040518263ffffffff167c0100000000000000000000000000000000000000000000000000000000028152600401620025de9190620033ba565b602060405180830381865afa158015620025fc573d6000803e3d6000fd5b505050506040513d601f19601f8201168201806040525081019062002622919062003408565b6200262c57600080fd5b600060026000868152602001908152602001600020600e0160006101000a81548160ff02191690836002811115620026695762002668620028b1565b5b0217905550837f7d4061e68fab364906497bb959d95ad3f052a3978fed6ce9942a2b8f737aae5460405160405180910390a260026000858152602001908152602001600020600e0160009054906101000a900460ff1692505050919050565b6000600560008373ffffffffffffffffffffffffffffffffffffffff1673ffffffffffffffffffffffffffffffffffffffff168152602001908152602001600020549050919050565b604051806102000160405280600073ffffffffffffffffffffffffffffffffffffffff16815260200160008019168152602001606081526020016060815260200160008152602001600073ffffffffffffffffffffffffffffffffffffffff168152602001600080191681526020016000801916815260200160008152602001600081526020016000815260200160008152602001600081526020016000815260200160006002811115620027cb57620027ca620028b1565b5b81526020016000151581525090565b6040518060a00160405280600080191681526020016060815260200160608152602001600073ffffffffffffffffffffffffffffffffffffffff168152602001600081525090565b611f1b8062003fe283390190565b6000604051905090565b600080fd5b600080fd5b6000819050919050565b620028598162002844565b81146200286557600080fd5b50565b60008135905062002879816200284e565b92915050565b6000602082840312156200289857620028976200283a565b5b6000620028a88482850162002868565b91505092915050565b7f4e487b7100000000000000000000000000000000000000000000000000000000600052602160045260246000fd5b60038110620028f457620028f3620028b1565b5b50565b60008190506200290782620028e0565b919050565b60006200291982620028f7565b9050919050565b6200292b816200290c565b82525050565b600060208201905062002948600083018462002920565b92915050565b60008115159050919050565b62002965816200294e565b82525050565b60006020820190506200298260008301846200295a565b92915050565b600073ffffffffffffffffffffffffffffffffffffffff82169050919050565b6000620029b58262002988565b9050919050565b620029c781620029a8565b8114620029d357600080fd5b50565b600081359050620029e781620029bc565b92915050565b6000806040838503121562002a075762002a066200283a565b5b600062002a178582860162002868565b925050602062002a2a85828601620029d6565b9150509250929050565b62002a3f81620029a8565b82525050565b62002a508162002844565b82525050565b600060808201905062002a6d600083018762002a34565b62002a7c602083018662002a45565b62002a8b604083018562002a45565b62002a9a606083018462002a45565b95945050505050565b6000819050919050565b600062002ace62002ac862002ac28462002988565b62002aa3565b62002988565b9050919050565b600062002ae28262002aad565b9050919050565b600062002af68262002ad5565b9050919050565b62002b088162002ae9565b82525050565b600060208201905062002b25600083018462002afd565b92915050565b62002b3681620029a8565b82525050565b6000819050919050565b62002b518162002b3c565b82525050565b600081519050919050565b600082825260208201905092915050565b60005b8381101562002b9357808201518184015260208101905062002b76565b60008484015250505050565b6000601f19601f8301169050919050565b600062002bbd8262002b57565b62002bc9818562002b62565b935062002bdb81856020860162002b73565b62002be68162002b9f565b840191505092915050565b62002bfc8162002844565b82525050565b62002c0d816200290c565b82525050565b62002c1e816200294e565b82525050565b60006102008301600083015162002c3f600086018262002b2b565b50602083015162002c54602086018262002b46565b506040830151848203604086015262002c6e828262002bb0565b9150506060830151848203606086015262002c8a828262002bb0565b915050608083015162002ca1608086018262002bf1565b5060a083015162002cb660a086018262002b2b565b5060c083015162002ccb60c086018262002b46565b5060e083015162002ce060e086018262002b46565b5061010083015162002cf761010086018262002bf1565b5061012083015162002d0e61012086018262002bf1565b5061014083015162002d2561014086018262002bf1565b5061016083015162002d3c61016086018262002bf1565b5061018083015162002d5361018086018262002bf1565b506101a083015162002d6a6101a086018262002bf1565b506101c083015162002d816101c086018262002c02565b506101e083015162002d986101e086018262002c13565b508091505092915050565b6000602082019050818103600083015262002dbf818462002c24565b905092915050565b6000806040838503121562002de15762002de06200283a565b5b600062002df18582860162002868565b925050602062002e048582860162002868565b9150509250929050565b60006020828403121562002e275762002e266200283a565b5b600062002e3784828501620029d6565b91505092915050565b600060a08301600083015162002e5a600086018262002b46565b506020830151848203602086015262002e74828262002bb0565b9150506040830151848203604086015262002e90828262002bb0565b915050606083015162002ea7606086018262002b2b565b50608083015162002ebc608086018262002bf1565b508091505092915050565b6000602082019050818103600083015262002ee3818462002e40565b905092915050565b600060208201905062002f02600083018462002a45565b92915050565b600082825260208201905092915050565b600062002f268262002b57565b62002f32818562002f08565b935062002f4481856020860162002b73565b62002f4f8162002b9f565b840191505092915050565b600060a08201905062002f71600083018862002a34565b818103602083015262002f85818762002f19565b9050818103604083015262002f9b818662002f19565b905062002fac606083018562002a45565b62002fbb60808301846200295a565b9695505050505050565b62002fd08162002b3c565b811462002fdc57600080fd5b50565b60008135905062002ff08162002fc5565b92915050565b600080fd5b600080fd5b7f4e487b7100000000000000000000000000000000000000000000000000000000600052604160045260246000fd5b6200303a8262002b9f565b810181811067ffffffffffffffff821117156200305c576200305b62003000565b5b80604052505050565b60006200307162002830565b90506200307f82826200302f565b919050565b600067ffffffffffffffff821115620030a257620030a162003000565b5b620030ad8262002b9f565b9050602081019050919050565b82818337600083830152505050565b6000620030e0620030da8462003084565b62003065565b905082815260208101848484011115620030ff57620030fe62002ffb565b5b6200310c848285620030ba565b509392505050565b600082601f8301126200312c576200312b62002ff6565b5b81356200313e848260208601620030c9565b91505092915050565b60008060008060008060008060006101208a8c0312156200316d576200316c6200283a565b5b60006200317d8c828d0162002fdf565b9950506020620031908c828d0162002fdf565b9850506040620031a38c828d0162002fdf565b9750506060620031b68c828d0162002868565b96505060808a013567ffffffffffffffff811115620031da57620031d96200283f565b5b620031e88c828d0162003114565b95505060a0620031fb8c828d0162002868565b94505060c06200320e8c828d0162002868565b93505060e08a013567ffffffffffffffff8111156200323257620032316200283f565b5b620032408c828d0162003114565b925050610100620032548c828d0162002868565b9150509295985092959850929598565b7f4e6f2063616d706169676e000000000000000000000000000000000000000000600082015250565b60006200329c600b8362002f08565b9150620032a98262003264565b602082019050919050565b60006020820190508181036000830152620032cf816200328d565b9050919050565b7f416c726561647920617070726f76656400000000000000000000000000000000600082015250565b60006200330e60108362002f08565b91506200331b82620032d6565b602082019050919050565b600060208201905081810360008301526200334181620032ff565b9050919050565b7f416c72656164792072656a656374656400000000000000000000000000000000600082015250565b60006200338060108362002f08565b91506200338d8262003348565b602082019050919050565b60006020820190508181036000830152620033b38162003371565b9050919050565b6000602082019050620033d1600083018462002a34565b92915050565b620033e2816200294e565b8114620033ee57600080fd5b50565b6000815190506200340281620033d7565b92915050565b6000602082840312156200342157620034206200283a565b5b60006200343184828501620033f1565b91505092915050565b7f446561644c696e65206e6f742070617373656400000000000000000000000000600082015250565b60006200347260138362002f08565b91506200347f826200343a565b602082019050919050565b60006020820190508181036000830152620034a58162003463565b9050919050565b7f4e6f7420612063726561746f7200000000000000000000000000000000000000600082015250565b6000620034e4600d8362002f08565b9150620034f182620034ac565b602082019050919050565b600060208201905081810360008301526200351781620034d5565b9050919050565b7f4e487b7100000000000000000000000000000000000000000000000000000000600052601160045260246000fd5b60006200355a8262002844565b9150620035678362002844565b9250828202620035778162002844565b915082820484148315176200359157620035906200351e565b5b5092915050565b7f4e487b7100000000000000000000000000000000000000000000000000000000600052602260045260246000fd5b60006002820490506001821680620035e057607f821691505b602082108103620035f657620035f562003598565b5b50919050565b7f446561644c696e65207061737365640000000000000000000000000000000000600082015250565b600062003634600f8362002f08565b91506200364182620035fc565b602082019050919050565b60006020820190508181036000830152620036678162003625565b9050919050565b7f496e636f727265637420616d6f756e7400000000000000000000000000000000600082015250565b6000620036a660108362002f08565b9150620036b3826200366e565b602082019050919050565b60006020820190508181036000830152620036d98162003697565b9050919050565b7f636f6e7472616374206c6f772062616c616e6365000000000000000000000000600082015250565b60006200371860148362002f08565b91506200372582620036e0565b602082019050919050565b600060208201905081810360008301526200374b8162003709565b9050919050565b600060608201905062003769600083018662002a34565b62003778602083018562002a34565b62003787604083018462002a45565b949350505050565b60006200379c8262002844565b9150620037a98362002844565b9250828203905081811115620037c457620037c36200351e565b5b92915050565b6000620037d78262002844565b9150620037e48362002844565b9250828201905080821115620037ff57620037fe6200351e565b5b92915050565b7f4e6f7420617070726f7665640000000000000000000000000000000000000000600082015250565b60006200383d600c8362002f08565b91506200384a8262003805565b602082019050919050565b6000602082019050818103600083015262003870816200382e565b9050919050565b7f496e76616c696420636f6e747269627574696f6e2e0000000000000000000000600082015250565b6000620038af60158362002f08565b9150620038bc8262003877565b602082019050919050565b60006020820190508181036000830152620038e281620038a0565b9050919050565b7f496e76616c696420636f6e747269627574696f6e732e00000000000000000000600082015250565b60006200392160168362002f08565b91506200392e82620038e9565b602082019050919050565b60006020820190508181036000830152620039548162003912565b9050919050565b7f7a65726f20616464726573730000000000000000000000000000000000000000600082015250565b600062003993600c8362002f08565b9150620039a0826200395b565b602082019050919050565b60006020820190508181036000830152620039c68162003984565b9050919050565b6000604082019050620039e4600083018562002a34565b620039f3602083018462002a34565b9392505050565b7f4f776e61626c65436f6e74726163742061646472657373206e6f74207365747460008201527f6564000000000000000000000000000000000000000000000000000000000000602082015250565b600062003a5860228362002f08565b915062003a6582620039fa565b604082019050919050565b6000602082019050818103600083015262003a8b8162003a49565b9050919050565b7f41646d696e2063616e2774000000000000000000000000000000000000000000600082015250565b600062003aca600b8362002f08565b915062003ad78262003a92565b602082019050919050565b6000602082019050818103600083015262003afd8162003abb565b9050919050565b7f696e76616c696420746172676574000000000000000000000000000000000000600082015250565b600062003b3c600e8362002f08565b915062003b498262003b04565b602082019050919050565b6000602082019050818103600083015262003b6f8162003b2d565b9050919050565b7f64617465206973206f6c64000000000000000000000000000000000000000000600082015250565b600062003bae600b8362002f08565b915062003bbb8262003b76565b602082019050919050565b6000602082019050818103600083015262003be18162003b9f565b9050919050565b6000608082019050818103600083015262003c04818762002f19565b9050818103602083015262003c1a818662002f19565b905062003c2b604083018562002a45565b62003c3a606083018462002a34565b95945050505050565b600062003c508262002844565b91507fffffffffffffffffffffffffffffffffffffffffffffffffffffffffffffffff820362003c855762003c846200351e565b5b600182019050919050565b60008190508160005260206000209050919050565b60006020601f8301049050919050565b60008160020a8302905092915050565b60006008830262003cf77fffffffffffffffffffffffffffffffffffffffffffffffffffffffffffffffff8262003cb5565b62003d03868362003cb5565b95508019841693508086168417925050509392505050565b600062003d3c62003d3662003d308462002844565b62002aa3565b62002844565b9050919050565b6000819050919050565b62003d588362003d1b565b62003d7062003d678262003d43565b84845462003cc5565b825550505050565b600090565b62003d8762003d78565b62003d9481848462003d4d565b505050565b5b8181101562003dbc5762003db060008262003d7d565b60018101905062003d9a565b5050565b601f82111562003e0b5762003dd58162003c90565b62003de08462003ca5565b8101602085101562003df0578190505b62003e0862003dff8562003ca5565b83018262003d99565b50505b505050565b60008160020a8304905092915050565b600062003e336000198460080262003e10565b1980831691505092915050565b600062003e4e838362003e20565b9150826002028217905092915050565b62003e698262002b57565b67ffffffffffffffff81111562003e855762003e8462003000565b5b62003e918254620035c7565b62003e9e82828562003dc0565b600060209050601f83116001811462003ed6576000841562003ec1578287015190505b62003ecd858262003e40565b86555062003f3d565b601f19841662003ee68662003c90565b60005b8281101562003f105784890151825560018201915060208501945060208101905062003ee9565b8683101562003f30578489015162003f2c601f89168262003e20565b8355505b6001600288020188555050505b505050505050565b62003f508162002b3c565b82525050565b600060e08201905062003f6d600083018a62003f45565b62003f7c602083018962003f45565b62003f8b604083018862003f45565b818103606083015262003f9f818762002f19565b905062003fb0608083018662002a45565b81810360a083015262003fc4818562002f19565b905062003fd560c083018462002a45565b9897505050505050505056fe60806040523480156200001157600080fd5b5060405162001f1b38038062001f1b8339818101604052810190620000379190620004c6565b838381600390816200004a9190620007bd565b5080600490816200005c9190620007bd565b50505062000096816012600a62000074919062000a27565b8462000081919062000a78565b62000100640100000000026401000000009004565b620000af6200027f640100000000026401000000009004565b60068190555033600760006101000a81548173ffffffffffffffffffffffffffffffffffffffff021916908373ffffffffffffffffffffffffffffffffffffffff1602179055505050505062000baf565b600073ffffffffffffffffffffffffffffffffffffffff168273ffffffffffffffffffffffffffffffffffffffff160362000172576040517f08c379a0000000000000000000000000000000000000000000000000000000008152600401620001699062000b24565b60405180910390fd5b6200018f6000838362000289640100000000026401000000009004565b8060026000828254620001a3919062000b46565b92505081905550806000808473ffffffffffffffffffffffffffffffffffffffff1673ffffffffffffffffffffffffffffffffffffffff168152602001908152602001600020600082825401925050819055508173ffffffffffffffffffffffffffffffffffffffff16600073ffffffffffffffffffffffffffffffffffffffff167fddf252ad1be2c89b69c2b068fc378daa952ba7f163c4a11628f55a4df523b3ef8360405162000256919062000b92565b60405180910390a36200027b600083836200028e640100000000026401000000009004565b5050565b6000600254905090565b505050565b505050565b6000604051905090565b600080fd5b600080fd5b600080fd5b600080fd5b6000601f19601f8301169050919050565b7f4e487b7100000000000000000000000000000000000000000000000000000000600052604160045260246000fd5b620002fc82620002b1565b810181811067ffffffffffffffff821117156200031e576200031d620002c2565b5b80604052505050565b60006200033362000293565b9050620003418282620002f1565b919050565b600067ffffffffffffffff821115620003645762000363620002c2565b5b6200036f82620002b1565b9050602081019050919050565b60005b838110156200039c5780820151818401526020810190506200037f565b60008484015250505050565b6000620003bf620003b98462000346565b62000327565b905082815260208101848484011115620003de57620003dd620002ac565b5b620003eb8482856200037c565b509392505050565b600082601f8301126200040b576200040a620002a7565b5b81516200041d848260208601620003a8565b91505092915050565b6000819050919050565b6200043b8162000426565b81146200044757600080fd5b50565b6000815190506200045b8162000430565b92915050565b600073ffffffffffffffffffffffffffffffffffffffff82169050919050565b60006200048e8262000461565b9050919050565b620004a08162000481565b8114620004ac57600080fd5b50565b600081519050620004c08162000495565b92915050565b60008060008060808587031215620004e357620004e26200029d565b5b600085015167ffffffffffffffff811115620005045762000503620002a2565b5b6200051287828801620003f3565b945050602085015167ffffffffffffffff811115620005365762000535620002a2565b5b6200054487828801620003f3565b935050604062000557878288016200044a565b92505060606200056a87828801620004af565b91505092959194509250565b600081519050919050565b7f4e487b7100000000000000000000000000000000000000000000000000000000600052602260045260246000fd5b60006002820490506001821680620005c957607f821691505b602082108103620005df57620005de62000581565b5b50919050565b60008190508160005260206000209050919050565b60006020601f8301049050919050565b60008160020a8302905092915050565b6000600883026200064c7fffffffffffffffffffffffffffffffffffffffffffffffffffffffffffffffff826200060a565b6200065886836200060a565b95508019841693508086168417925050509392505050565b6000819050919050565b60006200069b620006956200068f8462000426565b62000670565b62000426565b9050919050565b6000819050919050565b620006b7836200067a565b620006cf620006c682620006a2565b8484546200061a565b825550505050565b600090565b620006e6620006d7565b620006f3818484620006ac565b505050565b5b818110156200071b576200070f600082620006dc565b600181019050620006f9565b5050565b601f8211156200076a576200073481620005e5565b6200073f84620005fa565b810160208510156200074f578190505b620007676200075e85620005fa565b830182620006f8565b50505b505050565b60008160020a8304905092915050565b600062000792600019846008026200076f565b1980831691505092915050565b6000620007ad83836200077f565b9150826002028217905092915050565b620007c88262000576565b67ffffffffffffffff811115620007e457620007e3620002c2565b5b620007f08254620005b0565b620007fd8282856200071f565b600060209050601f83116001811462000835576000841562000820578287015190505b6200082c85826200079f565b8655506200089c565b601f1984166200084586620005e5565b60005b828110156200086f5784890151825560018201915060208501945060208101905062000848565b868310156200088f57848901516200088b601f8916826200077f565b8355505b6001600288020188555050505b505050505050565b7f4e487b7100000000000000000000000000000000000000000000000000000000600052601160045260246000fd5b6000600282049050919050565b6000808291508390505b600185111562000932578086048111156200090a5762000909620008a4565b5b60018516156200091a5780820291505b80810290506200092a85620008d3565b9450620008ea565b94509492505050565b6000826200094d576001905062000a20565b816200095d576000905062000a20565b81600181146200097657600281146200098157620009b7565b600191505062000a20565b60ff841115620009965762000995620008a4565b5b8360020a915084821115620009b057620009af620008a4565b5b5062000a20565b5060208310610133831016604e8410600b8410161715620009f15782820a905083811115620009eb57620009ea620008a4565b5b62000a20565b62000a008484846001620008e0565b9250905081840481111562000a1a5762000a19620008a4565b5b81810290505b9392505050565b600062000a348262000426565b915062000a418362000426565b925062000a707fffffffffffffffffffffffffffffffffffffffffffffffffffffffffffffffff84846200093b565b905092915050565b600062000a858262000426565b915062000a928362000426565b925082820262000aa28162000426565b9150828204841483151762000abc5762000abb620008a4565b5b5092915050565b600082825260208201905092915050565b7f45524332303a206d696e7420746f20746865207a65726f206164647265737300600082015250565b600062000b0c601f8362000ac3565b915062000b198262000ad4565b602082019050919050565b6000602082019050818103600083015262000b3f8162000afd565b9050919050565b600062000b538262000426565b915062000b608362000426565b925082820190508082111562000b7b5762000b7a620008a4565b5b92915050565b62000b8c8162000426565b82525050565b600060208201905062000ba9600083018462000b81565b92915050565b61135c8062000bbf6000396000f3fe608060405234801561001057600080fd5b50600436106100ec576000357c01000000000000000000000000000000000000000000000000000000009004806339509351116100a9578063a457c2d711610083578063a457c2d714610247578063a9059cbb14610277578063beabacc8146102a7578063dd62ed3e146102c3576100ec565b806339509351146101c957806370a08231146101f957806395d89b4114610229576100ec565b806306fdde03146100f1578063095ea7b31461010f57806318160ddd1461013f5780631bbc4b831461015d57806323b872dd1461017b578063313ce567146101ab575b600080fd5b6100f96102f3565b6040516101069190610bbf565b60405180910390f35b61012960048036038101906101249190610c7a565b610385565b6040516101369190610cd5565b60405180910390f35b6101476103a8565b6040516101549190610cff565b60405180910390f35b6101656103b2565b6040516101729190610d79565b60405180910390f35b61019560048036038101906101909190610d94565b6103d8565b6040516101a29190610cd5565b60405180910390f35b6101b3610407565b6040516101c09190610e03565b60405180910390f35b6101e360048036038101906101de9190610c7a565b610410565b6040516101f09190610cd5565b60405180910390f35b610213600480360381019061020e9190610e1e565b610447565b6040516102209190610cff565b60405180910390f35b61023161048f565b60405161023e9190610bbf565b60405180910390f35b610261600480360381019061025c9190610c7a565b610521565b60405161026e9190610cd5565b60405180910390f35b610291600480360381019061028c9190610c7a565b610598565b60405161029e9190610cd5565b60405180910390f35b6102c160048036038101906102bc9190610d94565b6105bb565b005b6102dd60048036038101906102d89190610e4b565b6105cb565b6040516102ea9190610cff565b60405180910390f35b60606003805461030290610eba565b80601f016020809104026020016040519081016040528092919081815260200182805461032e90610eba565b801561037b5780601f106103505761010080835404028352916020019161037b565b820191906000526020600020905b81548152906001019060200180831161035e57829003601f168201915b5050505050905090565b600080610390610652565b905061039d81858561065a565b600191505092915050565b6000600254905090565b600560009054906101000a900473ffffffffffffffffffffffffffffffffffffffff1681565b6000806103e3610652565b90506103f0858285610823565b6103fb8585856108af565b60019150509392505050565b60006012905090565b60008061041b610652565b905061043c81858561042d85896105cb565b6104379190610f1a565b61065a565b600191505092915050565b60008060008373ffffffffffffffffffffffffffffffffffffffff1673ffffffffffffffffffffffffffffffffffffffff168152602001908152602001600020549050919050565b60606004805461049e90610eba565b80601f01602080910402602001604051908101604052809291908181526020018280546104ca90610eba565b80156105175780601f106104ec57610100808354040283529160200191610517565b820191906000526020600020905b8154815290600101906020018083116104fa57829003601f168201915b5050505050905090565b60008061052c610652565b9050600061053a82866105cb565b90508381101561057f576040517f08c379a000000000000000000000000000000000000000000000000000000000815260040161057690610fc0565b60405180910390fd5b61058c828686840361065a565b60019250505092915050565b6000806105a3610652565b90506105b08185856108af565b600191505092915050565b6105c68383836108af565b505050565b6000600160008473ffffffffffffffffffffffffffffffffffffffff1673ffffffffffffffffffffffffffffffffffffffff16815260200190815260200160002060008373ffffffffffffffffffffffffffffffffffffffff1673ffffffffffffffffffffffffffffffffffffffff16815260200190815260200160002054905092915050565b600033905090565b600073ffffffffffffffffffffffffffffffffffffffff168373ffffffffffffffffffffffffffffffffffffffff16036106c9576040517f08c379a00000000000000000000000000000000000000000000000000000000081526004016106c090611052565b60405180910390fd5b600073ffffffffffffffffffffffffffffffffffffffff168273ffffffffffffffffffffffffffffffffffffffff1603610738576040517f08c379a000000000000000000000000000000000000000000000000000000000815260040161072f906110e4565b60405180910390fd5b80600160008573ffffffffffffffffffffffffffffffffffffffff1673ffffffffffffffffffffffffffffffffffffffff16815260200190815260200160002060008473ffffffffffffffffffffffffffffffffffffffff1673ffffffffffffffffffffffffffffffffffffffff168152602001908152602001600020819055508173ffffffffffffffffffffffffffffffffffffffff168373ffffffffffffffffffffffffffffffffffffffff167f8c5be1e5ebec7d5bd14f71427d1e84f3dd0314c0f7b2291e5b200ac8c7c3b925836040516108169190610cff565b60405180910390a3505050565b600061082f84846105cb565b90507fffffffffffffffffffffffffffffffffffffffffffffffffffffffffffffffff81146108a9578181101561089b576040517f08c379a000000000000000000000000000000000000000000000000000000000815260040161089290611150565b60405180910390fd5b6108a8848484840361065a565b5b50505050565b600073ffffffffffffffffffffffffffffffffffffffff168373ffffffffffffffffffffffffffffffffffffffff160361091e576040517f08c379a0000000000000000000000000000000000000000000000000000000008152600401610915906111e2565b60405180910390fd5b600073ffffffffffffffffffffffffffffffffffffffff168273ffffffffffffffffffffffffffffffffffffffff160361098d576040517f08c379a000000000000000000000000000000000000000000000000000000000815260040161098490611274565b60405180910390fd5b610998838383610b25565b60008060008573ffffffffffffffffffffffffffffffffffffffff1673ffffffffffffffffffffffffffffffffffffffff16815260200190815260200160002054905081811015610a1e576040517f08c379a0000000000000000000000000000000000000000000000000000000008152600401610a1590611306565b60405180910390fd5b8181036000808673ffffffffffffffffffffffffffffffffffffffff1673ffffffffffffffffffffffffffffffffffffffff16815260200190815260200160002081905550816000808573ffffffffffffffffffffffffffffffffffffffff1673ffffffffffffffffffffffffffffffffffffffff168152602001908152602001600020600082825401925050819055508273ffffffffffffffffffffffffffffffffffffffff168473ffffffffffffffffffffffffffffffffffffffff167fddf252ad1be2c89b69c2b068fc378daa952ba7f163c4a11628f55a4df523b3ef84604051610b0c9190610cff565b60405180910390a3610b1f848484610b2a565b50505050565b505050565b505050565b600081519050919050565b600082825260208201905092915050565b60005b83811015610b69578082015181840152602081019050610b4e565b60008484015250505050565b6000601f19601f8301169050919050565b6000610b9182610b2f565b610b9b8185610b3a565b9350610bab818560208601610b4b565b610bb481610b75565b840191505092915050565b60006020820190508181036000830152610bd98184610b86565b905092915050565b600080fd5b600073ffffffffffffffffffffffffffffffffffffffff82169050919050565b6000610c1182610be6565b9050919050565b610c2181610c06565b8114610c2c57600080fd5b50565b600081359050610c3e81610c18565b92915050565b6000819050919050565b610c5781610c44565b8114610c6257600080fd5b50565b600081359050610c7481610c4e565b92915050565b60008060408385031215610c9157610c90610be1565b5b6000610c9f85828601610c2f565b9250506020610cb085828601610c65565b9150509250929050565b60008115159050919050565b610ccf81610cba565b82525050565b6000602082019050610cea6000830184610cc6565b92915050565b610cf981610c44565b82525050565b6000602082019050610d146000830184610cf0565b92915050565b6000819050919050565b6000610d3f610d3a610d3584610be6565b610d1a565b610be6565b9050919050565b6000610d5182610d24565b9050919050565b6000610d6382610d46565b9050919050565b610d7381610d58565b82525050565b6000602082019050610d8e6000830184610d6a565b92915050565b600080600060608486031215610dad57610dac610be1565b5b6000610dbb86828701610c2f565b9350506020610dcc86828701610c2f565b9250506040610ddd86828701610c65565b9150509250925092565b600060ff82169050919050565b610dfd81610de7565b82525050565b6000602082019050610e186000830184610df4565b92915050565b600060208284031215610e3457610e33610be1565b5b6000610e4284828501610c2f565b91505092915050565b60008060408385031215610e6257610e61610be1565b5b6000610e7085828601610c2f565b9250506020610e8185828601610c2f565b9150509250929050565b7f4e487b7100000000000000000000000000000000000000000000000000000000600052602260045260246000fd5b60006002820490506001821680610ed257607f821691505b602082108103610ee557610ee4610e8b565b5b50919050565b7f4e487b7100000000000000000000000000000000000000000000000000000000600052601160045260246000fd5b6000610f2582610c44565b9150610f3083610c44565b9250828201905080821115610f4857610f47610eeb565b5b92915050565b7f45524332303a2064656372656173656420616c6c6f77616e63652062656c6f7760008201527f207a65726f000000000000000000000000000000000000000000000000000000602082015250565b6000610faa602583610b3a565b9150610fb582610f4e565b604082019050919050565b60006020820190508181036000830152610fd981610f9d565b9050919050565b7f45524332303a20617070726f76652066726f6d20746865207a65726f2061646460008201527f7265737300000000000000000000000000000000000000000000000000000000602082015250565b600061103c602483610b3a565b915061104782610fe0565b604082019050919050565b6000602082019050818103600083015261106b8161102f565b9050919050565b7f45524332303a20617070726f766520746f20746865207a65726f20616464726560008201527f7373000000000000000000000000000000000000000000000000000000000000602082015250565b60006110ce602283610b3a565b91506110d982611072565b604082019050919050565b600060208201905081810360008301526110fd816110c1565b9050919050565b7f45524332303a20696e73756666696369656e7420616c6c6f77616e6365000000600082015250565b600061113a601d83610b3a565b915061114582611104565b602082019050919050565b600060208201905081810360008301526111698161112d565b9050919050565b7f45524332303a207472616e736665722066726f6d20746865207a65726f20616460008201527f6472657373000000000000000000000000000000000000000000000000000000602082015250565b60006111cc602583610b3a565b91506111d782611170565b604082019050919050565b600060208201905081810360008301526111fb816111bf565b9050919050565b7f45524332303a207472616e7366657220746f20746865207a65726f206164647260008201527f6573730000000000000000000000000000000000000000000000000000000000602082015250565b600061125e602383610b3a565b915061126982611202565b604082019050919050565b6000602082019050818103600083015261128d81611251565b9050919050565b7f45524332303a207472616e7366657220616d6f756e742065786365656473206260008201527f616c616e63650000000000000000000000000000000000000000000000000000602082015250565b60006112f0602683610b3a565b91506112fb82611294565b604082019050919050565b6000602082019050818103600083015261131f816112e3565b905091905056fea2646970667358221220cdc7b65040058a35456d298017e2066dbe8bfde90011188c4012ccad210ab27164736f6c63430008110033a26469706673582212202308c55dd1ee2f49bee49b382f330555a759cd68d8c886456ab87b26e4f5205864736f6c63430008110033",
  "immutableReferences": {},
  "source": "// SPDX-License-Identifier: UNLICENSED\npragma solidity ^0.8;\n\nimport \"./ERC20/ERC20.sol\";\nimport \"./ERC20/Ownable.sol\";\nimport \"./Contribution.sol\";\n\n/// @title CrowdFudndingDao\n/// @author \n/// @notice You can use this contract for mint a new ERC20 based INRtoken\n/// @dev All function calls are currently implemented without side effects\n\ncontract CrowdFunding is Contribution {\n    //State Variables\n    ERC20Token private token;\n    OwnableContract public _ownableContract;\n\n    function setOwnable(address _ownable) external returns (bool) {\n        require(\n            _ownable != address(0),\n            \"zero address\"\n        );\n        if (address(_ownableContract) == address(0)) {\n            _ownableContract = OwnableContract(_ownable);\n            emit OwnableAddressSet(msg.sender, _ownable);\n            return true;\n        }\n        require(_ownableContract.checkOwner(msg.sender));\n        _ownableContract = OwnableContract(_ownable);\n        emit OwnableAddressSet(msg.sender, _ownable);\n        return true;\n    }\n\n    /**\n    * @notice To create the new campaign\n    * @dev It will create a new ERC20 token\n    * @param _companyName name of the comapany\n    * @param _title Title of the campaign\n    * @param _description Description of the campaign\n    * @param _pricePerToken Campaign creator can decide price per token would be fixed cost\n    * @param _tokenName Name of the ERC20 Token\n    * @param _tokenSymbol Symbol of the ERC20 token\n    * @param deadLine End date for the campaign\n    * @param _target Goal of this campaign \n    * @param _totalSupply no of token wants to launch by campaign creator\n    **/\n\n    function createCampaign(\n        bytes32 _companyName,\n        bytes32 _title,\n        bytes32 _description,\n        uint256 _pricePerToken,\n        string memory _tokenName,\n        uint256 deadLine,\n        uint256 _target,\n        string memory _tokenSymbol,\n        uint256 _totalSupply\n    ) external {\n        require(address(_ownableContract) != address(0),\"OwnableContract address not setted\");\n        require(!_ownableContract.admin(msg.sender), \"Admin can't\");\n        require(_target <= _totalSupply, \"invalid target\");\n        require(block.timestamp < deadLine, \"date is old\");\n        address newContract = address(new ERC20Token(_tokenName, _tokenSymbol, _totalSupply, msg.sender));\n        token = ERC20Token(newContract);\n        campaignCount++;\n\n        campaigns[campaignCount] = Campaign({\n        contractAddress : newContract,\n        companyName: _companyName,\n        tokenName: _tokenName,\n        tokenSymbol : _tokenSymbol,\n        campaignId: campaignCount, \n        creator: msg.sender,\n        campaignTitle: _title,\n        campaignDescription: _description,\n        pricePerToken: _pricePerToken,\n        target: _target,\n        heldBalance: _totalSupply,\n        startDate: block.timestamp,\n        endDate: deadLine,\n        contribution: 0,\n        status: campainStatus.PENDING,\n        withdrawalStatus: false\n        });\n        balance[msg.sender] = _totalSupply;\n\n        companies[newContract] = Company({\n            companyName: _companyName,\n            tokenSymbol : _tokenSymbol,\n            contractAddress : newContract,\n            tokenName: _tokenName,\n            totalSupply : _totalSupply \n        });\n\n\n        emit campaignCreated(\n            campaignCount, \n            _companyName,\n            _title,\n            _description,\n            _pricePerToken,\n            _tokenName,\n            deadLine,\n            _target,\n            _tokenSymbol,\n            _totalSupply\n            );\n    }\n\n    /**\n    * @notice Approve  campaign\n    * @dev admin can approve this campaign\n    * @param campaignId campaign is approved by the admin \n    * @return status returning the enum for the referrence of campaign states\n    */\n\n    function approveCampaign(uint campaignId) external isCampaignFound(campaignId) isApprovedOrRejectedAlready(campaignId) returns(campainStatus) {\n        require(\n            _ownableContract.checkAdmin(msg.sender)\n        );\n        campaigns[campaignId].status = campainStatus.APPROVED;\n        emit approved(campaignId);\n        return campaigns[campaignId].status; \n    }\n\n    /**\n    * @notice Reject campaign\n    * @dev admin can reject this campaign\n    * @param campaignId campaign is rejected by the admin by the help of this id \n    * @return status returning the enum for the referrence of campaign states\n    */\n\n    function rejectCampaign(uint campaignId) external  isCampaignFound(campaignId) isApprovedOrRejectedAlready(campaignId) returns(campainStatus) {\n        require(\n            _ownableContract.checkAdmin(msg.sender)\n        );\n        campaigns[campaignId].status = campainStatus.REJECTED;\n        emit rejected(campaignId);\n        return campaigns[campaignId].status; \n\n    }\n\n    /**\n    * @notice handling the withDraw\n    * @dev users can call withDraw if campaign deadLine crossed\n    * @param campaignId campaignId helping to find the campaign by this id \n    * @return bool return true if the withDrawal gets success\n    */\n\n    function withDraw(uint256 campaignId) external isCampaignFound(campaignId) returns(bool) {\n        Campaign storage currentCampaign = campaigns[campaignId];\n        require(block.timestamp >= currentCampaign.endDate,\"DeadLine not passed\");\n        require(currentCampaign.creator == msg.sender, \"Not a creator\");\n        payable(msg.sender).transfer(currentCampaign.contribution * currentCampaign.pricePerToken);\n        currentCampaign.withdrawalStatus = true;\n        return true;\n    }\n\n    /**\n     * @notice Get company\n     * @dev get the company details\n     * @param _contractAddress get the company details that are stored against to this contract address\n     * @return company returning the structure of the company\n     */\n\n    function getCompany(address _contractAddress) public view returns (Company memory){\n        return companies[_contractAddress];\n    }\n\n    /**\n     * @notice get campaign\n     * @dev get the campaign, that are stored against to the id\n     * @param campaignId we can check and get the details of the campaign\n     * @return campaign returning the all details of the campaign in structure\n     */\n\n    function getCampaign(uint256 campaignId) public view isCampaignFound(campaignId) returns(Campaign memory){\n        return campaigns[campaignId];\n    }\n\n    /**\n     * @notice get balance\n     * @dev return the balance of the user\n     * @param _address to get the balance, stored against to the address\n     * @return balance returning the balance of the user in uint256 type\n     */\n\n    function getBalance(address _address) external view returns(uint256) {\n        return balance[_address];\n    }\n\n    function companyDetailsByCampaignId(uint256 campaignId) external view isCampaignFound(campaignId) \n    returns (\n        address,\n        string memory, \n        string memory, \n        uint256,\n        bool\n    ){\n            Campaign memory _campaign = getCampaign(campaignId);\n            Company memory _company = getCompany(_campaign.contractAddress);\n            return (\n                _company.contractAddress,\n                _company.tokenName,\n                _company.tokenSymbol,\n                _company.totalSupply,\n                _campaign.status == campainStatus.APPROVED ? true: false\n            );           \n    }\n}",
  "sourcePath": "/home/neosoft/projects/solidity/crowdFunding/crowdfunding-dao-solidity/contracts/CrowdFunding.sol",
  "compiler": {
    "name": "solc",
    "version": "0.8.17+commit.8df45f5f.Emscripten.clang"
  },
  "schemaVersion": "3.4.11",
  "updatedAt": "2023-05-10T11:44:56.177Z",
  "networkType": "ethereum",
  "devdoc": {
    "details": "All function calls are currently implemented without side effects",
    "kind": "dev",
    "methods": {
      "approveCampaign(uint256)": {
        "details": "admin can approve this campaign",
        "params": {
          "campaignId": "campaign is approved by the admin "
        },
        "returns": {
          "_0": "status returning the enum for the referrence of campaign states"
        }
      },
      "contribute(uint256,uint256)": {
        "details": "getting ERC20 token by giving the fiat currency in msg.value",
        "params": {
          "campaignId": "helping to find and contribute against the campaign by this id ",
          "tokens": "How many token user want's to buy against the fiat currency"
        }
      },
      "createCampaign(bytes32,bytes32,bytes32,uint256,string,uint256,uint256,string,uint256)": {
        "details": "It will create a new ERC20 token",
        "params": {
          "_companyName": "name of the comapany",
          "_description": "Description of the campaign",
          "_pricePerToken": "Campaign creator can decide price per token would be fixed cost",
          "_target": "Goal of this campaign ",
          "_title": "Title of the campaign",
          "_tokenName": "Name of the ERC20 Token",
          "_tokenSymbol": "Symbol of the ERC20 token",
          "_totalSupply": "no of token wants to launch by campaign creator*",
          "deadLine": "End date for the campaign"
        }
      },
      "getBalance(address)": {
        "details": "return the balance of the user",
        "params": {
          "_address": "to get the balance, stored against to the address"
        },
        "returns": {
          "_0": "balance returning the balance of the user in uint256 type"
        }
      },
      "getCampaign(uint256)": {
        "details": "get the campaign, that are stored against to the id",
        "params": {
          "campaignId": "we can check and get the details of the campaign"
        },
        "returns": {
          "_0": "campaign returning the all details of the campaign in structure"
        }
      },
      "getCompany(address)": {
        "details": "get the company details",
        "params": {
          "_contractAddress": "get the company details that are stored against to this contract address"
        },
        "returns": {
          "_0": "company returning the structure of the company"
        }
      },
      "refund(uint256,uint256)": {
        "details": "users can call refund if they want their contribution back before deadLine",
        "params": {
          "_amount": "amount to be refund ",
          "campaignId": "campaignId helping to find the campaign by this id "
        }
      },
      "rejectCampaign(uint256)": {
        "details": "admin can reject this campaign",
        "params": {
          "campaignId": "campaign is rejected by the admin by the help of this id "
        },
        "returns": {
          "_0": "status returning the enum for the referrence of campaign states"
        }
      },
      "withDraw(uint256)": {
        "details": "users can call withDraw if campaign deadLine crossed",
        "params": {
          "campaignId": "campaignId helping to find the campaign by this id "
        },
        "returns": {
          "_0": "bool return true if the withDrawal gets success"
        }
      }
    },
    "title": "CrowdFudndingDao",
    "version": 1
  },
  "userdoc": {
    "events": {
      "approved(uint256)": {
        "notice": "approval of the campaign"
      },
      "campaignCreated(uint256,bytes32,bytes32,bytes32,uint256,string,uint256,uint256,string,uint256)": {
        "notice": "event for campaign creation"
      },
      "contribution(uint256,uint256,address)": {
        "notice": "event for contribution"
      },
      "refunded(uint256,uint256,address)": {
        "notice": "refund request against the contribution"
      },
      "rejected(uint256)": {
        "notice": "rejection of the campaign"
      }
    },
    "kind": "user",
    "methods": {
      "approveCampaign(uint256)": {
        "notice": "Approve  campaign"
      },
      "contribute(uint256,uint256)": {
        "notice": "contribute to the campaign"
      },
      "createCampaign(bytes32,bytes32,bytes32,uint256,string,uint256,uint256,string,uint256)": {
        "notice": "To create the new campaign"
      },
      "getBalance(address)": {
        "notice": "get balance"
      },
      "getCampaign(uint256)": {
        "notice": "get campaign"
      },
      "getCompany(address)": {
        "notice": "Get company"
      },
      "refund(uint256,uint256)": {
        "notice": "handling the refund"
      },
      "rejectCampaign(uint256)": {
        "notice": "Reject campaign"
      },
      "withDraw(uint256)": {
        "notice": "handling the withDraw"
      }
    },
    "notice": "You can use this contract for mint a new ERC20 based INRtoken",
    "version": 1
  }
}