{
  "contractName": "CrowdFunding",
  "abi": [
    {
      "inputs": [
        {
          "internalType": "address",
          "name": "_admin",
          "type": "address"
        }
      ],
      "stateMutability": "nonpayable",
      "type": "constructor"
    },
    {
      "anonymous": false,
      "inputs": [
        {
          "indexed": true,
          "internalType": "uint256",
          "name": "campaignId",
          "type": "uint256"
        }
      ],
      "name": "approved",
      "type": "event"
    },
    {
      "anonymous": false,
      "inputs": [
        {
          "indexed": true,
          "internalType": "uint256",
          "name": "campaignId",
          "type": "uint256"
        },
        {
          "indexed": false,
          "internalType": "string",
          "name": "_companyName",
          "type": "string"
        },
        {
          "indexed": false,
          "internalType": "string",
          "name": "_title",
          "type": "string"
        },
        {
          "indexed": false,
          "internalType": "string",
          "name": "_description",
          "type": "string"
        },
        {
          "indexed": true,
          "internalType": "uint256",
          "name": "_pricePerToken",
          "type": "uint256"
        },
        {
          "indexed": false,
          "internalType": "string",
          "name": "_tokenName",
          "type": "string"
        },
        {
          "indexed": true,
          "internalType": "uint256",
          "name": "deadLine",
          "type": "uint256"
        },
        {
          "indexed": false,
          "internalType": "uint256",
          "name": "_target",
          "type": "uint256"
        },
        {
          "indexed": false,
          "internalType": "string",
          "name": "_tokenSymbol",
          "type": "string"
        },
        {
          "indexed": false,
          "internalType": "uint256",
          "name": "_totalSupply",
          "type": "uint256"
        }
      ],
      "name": "campaignCreated",
      "type": "event"
    },
    {
      "anonymous": false,
      "inputs": [
        {
          "indexed": true,
          "internalType": "uint256",
          "name": "campaignId",
          "type": "uint256"
        },
        {
          "indexed": true,
          "internalType": "uint256",
          "name": "contribution",
          "type": "uint256"
        },
        {
          "indexed": true,
          "internalType": "address",
          "name": "contributer",
          "type": "address"
        }
      ],
      "name": "contribution",
      "type": "event"
    },
    {
      "anonymous": false,
      "inputs": [
        {
          "indexed": true,
          "internalType": "uint256",
          "name": "campaignId",
          "type": "uint256"
        },
        {
          "indexed": true,
          "internalType": "uint256",
          "name": "contribution",
          "type": "uint256"
        },
        {
          "indexed": true,
          "internalType": "address",
          "name": "contributer",
          "type": "address"
        }
      ],
      "name": "refunded",
      "type": "event"
    },
    {
      "anonymous": false,
      "inputs": [
        {
          "indexed": true,
          "internalType": "uint256",
          "name": "campaignId",
          "type": "uint256"
        }
      ],
      "name": "rejected",
      "type": "event"
    },
    {
      "inputs": [],
      "name": "admin",
      "outputs": [
        {
          "internalType": "address",
          "name": "",
          "type": "address"
        }
      ],
      "stateMutability": "view",
      "type": "function",
      "constant": true
    },
    {
      "inputs": [],
      "name": "campaignCount",
      "outputs": [
        {
          "internalType": "uint256",
          "name": "",
          "type": "uint256"
        }
      ],
      "stateMutability": "view",
      "type": "function",
      "constant": true
    },
    {
      "inputs": [
        {
          "internalType": "uint256",
          "name": "",
          "type": "uint256"
        },
        {
          "internalType": "address",
          "name": "",
          "type": "address"
        }
      ],
      "name": "receipts",
      "outputs": [
        {
          "internalType": "address",
          "name": "contributer",
          "type": "address"
        },
        {
          "internalType": "uint256",
          "name": "campaignId",
          "type": "uint256"
        },
        {
          "internalType": "uint256",
          "name": "tokens",
          "type": "uint256"
        },
        {
          "internalType": "uint256",
          "name": "receivedEth",
          "type": "uint256"
        }
      ],
      "stateMutability": "view",
      "type": "function",
      "constant": true
    },
    {
      "inputs": [
        {
          "internalType": "string",
          "name": "_companyName",
          "type": "string"
        },
        {
          "internalType": "string",
          "name": "_title",
          "type": "string"
        },
        {
          "internalType": "string",
          "name": "_description",
          "type": "string"
        },
        {
          "internalType": "uint256",
          "name": "_pricePerToken",
          "type": "uint256"
        },
        {
          "internalType": "string",
          "name": "_tokenName",
          "type": "string"
        },
        {
          "internalType": "uint256",
          "name": "deadLine",
          "type": "uint256"
        },
        {
          "internalType": "uint256",
          "name": "_target",
          "type": "uint256"
        },
        {
          "internalType": "string",
          "name": "_tokenSymbol",
          "type": "string"
        },
        {
          "internalType": "uint256",
          "name": "_totalSupply",
          "type": "uint256"
        }
      ],
      "name": "createCampaign",
      "outputs": [],
      "stateMutability": "nonpayable",
      "type": "function"
    },
    {
      "inputs": [
        {
          "internalType": "uint256",
          "name": "campaignId",
          "type": "uint256"
        }
      ],
      "name": "approveCampaign",
      "outputs": [
        {
          "internalType": "enum CrowdFunding.campainStatus",
          "name": "",
          "type": "uint8"
        }
      ],
      "stateMutability": "nonpayable",
      "type": "function"
    },
    {
      "inputs": [
        {
          "internalType": "uint256",
          "name": "campaignId",
          "type": "uint256"
        }
      ],
      "name": "rejectCampaign",
      "outputs": [
        {
          "internalType": "enum CrowdFunding.campainStatus",
          "name": "",
          "type": "uint8"
        }
      ],
      "stateMutability": "nonpayable",
      "type": "function"
    },
    {
      "inputs": [
        {
          "internalType": "uint256",
          "name": "campaignId",
          "type": "uint256"
        },
        {
          "internalType": "uint256",
          "name": "tokens",
          "type": "uint256"
        }
      ],
      "name": "contribute",
      "outputs": [
        {
          "internalType": "bool",
          "name": "",
          "type": "bool"
        }
      ],
      "stateMutability": "payable",
      "type": "function",
      "payable": true
    },
    {
      "inputs": [
        {
          "internalType": "uint256",
          "name": "campaignId",
          "type": "uint256"
        },
        {
          "internalType": "uint256",
          "name": "_amount",
          "type": "uint256"
        }
      ],
      "name": "refund",
      "outputs": [
        {
          "internalType": "bool",
          "name": "",
          "type": "bool"
        }
      ],
      "stateMutability": "payable",
      "type": "function",
      "payable": true
    },
    {
      "inputs": [
        {
          "internalType": "uint256",
          "name": "campaignId",
          "type": "uint256"
        }
      ],
      "name": "withDraw",
      "outputs": [
        {
          "internalType": "bool",
          "name": "",
          "type": "bool"
        }
      ],
      "stateMutability": "nonpayable",
      "type": "function"
    },
    {
      "inputs": [
        {
          "internalType": "uint256",
          "name": "campaignId",
          "type": "uint256"
        },
        {
          "internalType": "address",
          "name": "contributer",
          "type": "address"
        }
      ],
      "name": "getContributionReceipt",
      "outputs": [
        {
          "components": [
            {
              "internalType": "address",
              "name": "contributer",
              "type": "address"
            },
            {
              "internalType": "uint256",
              "name": "campaignId",
              "type": "uint256"
            },
            {
              "internalType": "uint256",
              "name": "tokens",
              "type": "uint256"
            },
            {
              "internalType": "uint256",
              "name": "receivedEth",
              "type": "uint256"
            }
          ],
          "internalType": "struct CrowdFunding.ContributionReceipt",
          "name": "",
          "type": "tuple"
        }
      ],
      "stateMutability": "view",
      "type": "function",
      "constant": true
    },
    {
      "inputs": [
        {
          "internalType": "address",
          "name": "_contractAddress",
          "type": "address"
        }
      ],
      "name": "getCompany",
      "outputs": [
        {
          "components": [
            {
              "internalType": "string",
              "name": "companyName",
              "type": "string"
            },
            {
              "internalType": "string",
              "name": "tokenSymbol",
              "type": "string"
            },
            {
              "internalType": "string",
              "name": "tokenName",
              "type": "string"
            },
            {
              "internalType": "address",
              "name": "contractAddress",
              "type": "address"
            },
            {
              "internalType": "uint256",
              "name": "totalSupply",
              "type": "uint256"
            }
          ],
          "internalType": "struct CrowdFunding.Company",
          "name": "",
          "type": "tuple"
        }
      ],
      "stateMutability": "view",
      "type": "function",
      "constant": true
    },
    {
      "inputs": [
        {
          "internalType": "uint256",
          "name": "campaignId",
          "type": "uint256"
        }
      ],
      "name": "getCampaign",
      "outputs": [
        {
          "components": [
            {
              "internalType": "address",
              "name": "contractAddress",
              "type": "address"
            },
            {
              "internalType": "string",
              "name": "companyName",
              "type": "string"
            },
            {
              "internalType": "string",
              "name": "tokenName",
              "type": "string"
            },
            {
              "internalType": "string",
              "name": "tokenSymbol",
              "type": "string"
            },
            {
              "internalType": "uint256",
              "name": "campaignId",
              "type": "uint256"
            },
            {
              "internalType": "address",
              "name": "creator",
              "type": "address"
            },
            {
              "internalType": "string",
              "name": "campaignTitle",
              "type": "string"
            },
            {
              "internalType": "string",
              "name": "campaignDescription",
              "type": "string"
            },
            {
              "internalType": "uint256",
              "name": "pricePerToken",
              "type": "uint256"
            },
            {
              "internalType": "uint256",
              "name": "target",
              "type": "uint256"
            },
            {
              "internalType": "uint256",
              "name": "contribution",
              "type": "uint256"
            },
            {
              "internalType": "uint256",
              "name": "heldBalance",
              "type": "uint256"
            },
            {
              "internalType": "uint256",
              "name": "startDate",
              "type": "uint256"
            },
            {
              "internalType": "uint256",
              "name": "endDate",
              "type": "uint256"
            },
            {
              "internalType": "enum CrowdFunding.campainStatus",
              "name": "status",
              "type": "uint8"
            },
            {
              "internalType": "bool",
              "name": "withdrawalStatus",
              "type": "bool"
            }
          ],
          "internalType": "struct CrowdFunding.Campaign",
          "name": "",
          "type": "tuple"
        }
      ],
      "stateMutability": "view",
      "type": "function",
      "constant": true
    },
    {
      "inputs": [
        {
          "internalType": "address",
          "name": "_address",
          "type": "address"
        }
      ],
      "name": "getBalance",
      "outputs": [
        {
          "internalType": "uint256",
          "name": "",
          "type": "uint256"
        }
      ],
      "stateMutability": "view",
      "type": "function",
      "constant": true
    },
    {
      "inputs": [
        {
          "internalType": "address",
          "name": "sender",
          "type": "address"
        }
      ],
      "name": "ethBalance",
      "outputs": [
        {
          "internalType": "uint256",
          "name": "",
          "type": "uint256"
        }
      ],
      "stateMutability": "view",
      "type": "function",
      "constant": true
    },
    {
      "inputs": [
        {
          "internalType": "uint256",
          "name": "campaignId",
          "type": "uint256"
        }
      ],
      "name": "companyDetailsByCampaignId",
      "outputs": [
        {
          "internalType": "address",
          "name": "",
          "type": "address"
        },
        {
          "internalType": "string",
          "name": "",
          "type": "string"
        },
        {
          "internalType": "string",
          "name": "",
          "type": "string"
        },
        {
          "internalType": "uint256",
          "name": "",
          "type": "uint256"
        },
        {
          "internalType": "bool",
          "name": "",
          "type": "bool"
        }
      ],
      "stateMutability": "view",
      "type": "function",
      "constant": true
    }
  ],
  "bytecode": "0x60806040523480156200001157600080fd5b5060405162006107380380620061078339818101604052810190620000379190620000e8565b806000806101000a81548173ffffffffffffffffffffffffffffffffffffffff021916908373ffffffffffffffffffffffffffffffffffffffff160217905550506200011a565b600080fd5b600073ffffffffffffffffffffffffffffffffffffffff82169050919050565b6000620000b08262000083565b9050919050565b620000c281620000a3565b8114620000ce57600080fd5b50565b600081519050620000e281620000b7565b92915050565b6000602082840312156200010157620001006200007e565b5b60006200011184828501620000d1565b91505092915050565b615fdd806200012a6000396000f3fe6080604052600436106200011b576000357c0100000000000000000000000000000000000000000000000000000000900480637274e30d11620000b4578063d8f3790f116200007e578063d8f3790f14620003cd578063ee4e1b531462000411578063f851a4401462000455578063f8b2cb4f1462000485576200011b565b80637274e30d14620002f157806382df069114620003215780638c590917146200034f578063c75bc7941462000385576200011b565b80634bf20ca411620000f65780634bf20ca414620001ef5780635598f8cc14620002335780635af36e3e146200027757806362bc56e614620002ad576200011b565b8063034d09da146200012057806314174f3314620001645780634178b24914620001a8575b600080fd5b3480156200012d57600080fd5b506200014c6004803603810190620001469190620026f5565b620004c9565b6040516200015b9190620027a7565b60405180910390f35b3480156200017157600080fd5b506200019060048036038101906200018a9190620026f5565b62000741565b6040516200019f9190620027e1565b60405180910390f35b348015620001b557600080fd5b50620001d46004803603810190620001ce919062002863565b62000911565b604051620001e69493929190620028cc565b60405180910390f35b348015620001fc57600080fd5b506200021b600480360381019062000215919062002863565b6200096e565b6040516200022a919062002998565b60405180910390f35b3480156200024057600080fd5b506200025f6004803603810190620002599190620026f5565b62000a4f565b6040516200026e919062002c05565b60405180910390f35b6200029560048036038101906200028f919062002c29565b62000f24565b604051620002a49190620027e1565b60405180910390f35b348015620002ba57600080fd5b50620002d96004803603810190620002d3919062002c70565b620013c7565b604051620002e8919062002d30565b60405180910390f35b348015620002fe57600080fd5b506200030962001650565b60405162000318919062002d54565b60405180910390f35b3480156200032e57600080fd5b506200034d600480360381019062000347919062002ec2565b62001656565b005b6200036d600480360381019062000367919062002c29565b62001c32565b6040516200037c9190620027e1565b60405180910390f35b3480156200039257600080fd5b50620003b16004803603810190620003ab9190620026f5565b620021b9565b604051620003c49594939291906200308e565b60405180910390f35b348015620003da57600080fd5b50620003f96004803603810190620003f3919062002c70565b6200224f565b60405162000408919062002d54565b60405180910390f35b3480156200041e57600080fd5b506200043d6004803603810190620004379190620026f5565b62002270565b6040516200044c9190620027a7565b60405180910390f35b3480156200046257600080fd5b506200046d620024e8565b6040516200047c9190620030f9565b60405180910390f35b3480156200049257600080fd5b50620004b16004803603810190620004ab919062002c70565b6200250c565b604051620004c0919062002d54565b60405180910390f35b60003373ffffffffffffffffffffffffffffffffffffffff1660008054906101000a900473ffffffffffffffffffffffffffffffffffffffff1673ffffffffffffffffffffffffffffffffffffffff16146200055c576040517f08c379a0000000000000000000000000000000000000000000000000000000008152600401620005539062003166565b60405180910390fd5b81600254101580156200056f5750600082115b620005b1576040517f08c379a0000000000000000000000000000000000000000000000000000000008152600401620005a890620031d8565b60405180910390fd5b600060036000848152602001908152602001600020905060006002811115620005df57620005de62002727565b5b81600e0160009054906101000a900460ff16600281111562000606576200060562002727565b5b0362000649576040517f08c379a000000000000000000000000000000000000000000000000000000000815260040162000640906200324a565b60405180910390fd5b6001600281111562000660576200065f62002727565b5b81600e0160009054906101000a900460ff16600281111562000687576200068662002727565b5b03620006ca576040517f08c379a0000000000000000000000000000000000000000000000000000000008152600401620006c190620032bc565b60405180910390fd5b600181600e0160006101000a81548160ff02191690836002811115620006f557620006f462002727565b5b0217905550827f8c9878cc57a61b734d09368704b49894d5fb6b8f68f9cb352054ebe5b15a49e860405160405180910390a280600e0160009054906101000a900460ff16915050919050565b60008060036000848152602001908152602001600020905082600254101580156200076c5750600083115b620007ae576040517f08c379a0000000000000000000000000000000000000000000000000000000008152600401620007a590620031d8565b60405180910390fd5b80600d0154421015620007f8576040517f08c379a0000000000000000000000000000000000000000000000000000000008152600401620007ef906200332e565b60405180910390fd5b3373ffffffffffffffffffffffffffffffffffffffff168160050160009054906101000a900473ffffffffffffffffffffffffffffffffffffffff1673ffffffffffffffffffffffffffffffffffffffff16146200088d576040517f08c379a00000000000000000000000000000000000000000000000000000000081526004016200088490620033a0565b60405180910390fd5b3373ffffffffffffffffffffffffffffffffffffffff166108fc826008015483600a0154620008bd9190620033f1565b9081150290604051600060405180830381858888f19350505050158015620008e9573d6000803e3d6000fd5b50600181600e0160016101000a81548160ff0219169083151502179055506001915050919050565b6005602052816000526040600020602052806000526040600020600091509150508060000160009054906101000a900473ffffffffffffffffffffffffffffffffffffffff16908060010154908060020154908060030154905084565b6200097862002555565b6005600084815260200190815260200160002060008373ffffffffffffffffffffffffffffffffffffffff1673ffffffffffffffffffffffffffffffffffffffff1681526020019081526020016000206040518060800160405290816000820160009054906101000a900473ffffffffffffffffffffffffffffffffffffffff1673ffffffffffffffffffffffffffffffffffffffff1673ffffffffffffffffffffffffffffffffffffffff1681526020016001820154815260200160028201548152602001600382015481525050905092915050565b62000a5962002593565b816002541015801562000a6c5750600082115b62000aae576040517f08c379a000000000000000000000000000000000000000000000000000000000815260040162000aa590620031d8565b60405180910390fd5b60036000838152602001908152602001600020604051806102000160405290816000820160009054906101000a900473ffffffffffffffffffffffffffffffffffffffff1673ffffffffffffffffffffffffffffffffffffffff1673ffffffffffffffffffffffffffffffffffffffff16815260200160018201805462000b35906200346b565b80601f016020809104026020016040519081016040528092919081815260200182805462000b63906200346b565b801562000bb45780601f1062000b885761010080835404028352916020019162000bb4565b820191906000526020600020905b81548152906001019060200180831162000b9657829003601f168201915b5050505050815260200160028201805462000bcf906200346b565b80601f016020809104026020016040519081016040528092919081815260200182805462000bfd906200346b565b801562000c4e5780601f1062000c225761010080835404028352916020019162000c4e565b820191906000526020600020905b81548152906001019060200180831162000c3057829003601f168201915b5050505050815260200160038201805462000c69906200346b565b80601f016020809104026020016040519081016040528092919081815260200182805462000c97906200346b565b801562000ce85780601f1062000cbc5761010080835404028352916020019162000ce8565b820191906000526020600020905b81548152906001019060200180831162000cca57829003601f168201915b50505050508152602001600482015481526020016005820160009054906101000a900473ffffffffffffffffffffffffffffffffffffffff1673ffffffffffffffffffffffffffffffffffffffff1673ffffffffffffffffffffffffffffffffffffffff16815260200160068201805462000d63906200346b565b80601f016020809104026020016040519081016040528092919081815260200182805462000d91906200346b565b801562000de25780601f1062000db65761010080835404028352916020019162000de2565b820191906000526020600020905b81548152906001019060200180831162000dc457829003601f168201915b5050505050815260200160078201805462000dfd906200346b565b80601f016020809104026020016040519081016040528092919081815260200182805462000e2b906200346b565b801562000e7c5780601f1062000e505761010080835404028352916020019162000e7c565b820191906000526020600020905b81548152906001019060200180831162000e5e57829003601f168201915b505050505081526020016008820154815260200160098201548152602001600a8201548152602001600b8201548152602001600c8201548152602001600d8201548152602001600e820160009054906101000a900460ff16600281111562000ee95762000ee862002727565b5b600281111562000efe5762000efd62002727565b5b8152602001600e820160019054906101000a900460ff1615151515815250509050919050565b6000826002541015801562000f395750600083115b62000f7b576040517f08c379a000000000000000000000000000000000000000000000000000000000815260040162000f7290620031d8565b60405180910390fd5b60006003600085815260200190815260200160002090504281600d0154101562000fdc576040517f08c379a000000000000000000000000000000000000000000000000000000000815260040162000fd390620034f0565b60405180910390fd5b60006005600086815260200190815260200160002060003373ffffffffffffffffffffffffffffffffffffffff1673ffffffffffffffffffffffffffffffffffffffff168152602001908152602001600020905083816002015410156200107a576040517f08c379a0000000000000000000000000000000000000000000000000000000008152600401620010719062003562565b60405180910390fd5b80600301543073ffffffffffffffffffffffffffffffffffffffff16311015620010db576040517f08c379a0000000000000000000000000000000000000000000000000000000008152600401620010d290620035d4565b60405180910390fd5b8160000160009054906101000a900473ffffffffffffffffffffffffffffffffffffffff1673ffffffffffffffffffffffffffffffffffffffff1663beabacc8338460050160009054906101000a900473ffffffffffffffffffffffffffffffffffffffff16670de0b6b3a764000088620011579190620033f1565b6040518463ffffffff167c01000000000000000000000000000000000000000000000000000000000281526004016200119393929190620035f6565b600060405180830381600087803b158015620011ae57600080fd5b505af1158015620011c3573d6000803e3d6000fd5b505050503373ffffffffffffffffffffffffffffffffffffffff166108fc836008015486620011f39190620033f1565b9081150290604051600060405180830381858888f193505050501580156200121f573d6000803e3d6000fd5b508381600201600082825462001236919062003633565b925050819055508382600a01600082825462001253919062003633565b925050819055508160080154846200126c9190620033f1565b81600301600082825462001281919062003633565b9250508190555081600a015482600a01819055508382600b016000828254620012ab91906200366e565b9250508190555081600b0154600660008460050160009054906101000a900473ffffffffffffffffffffffffffffffffffffffff1673ffffffffffffffffffffffffffffffffffffffff1673ffffffffffffffffffffffffffffffffffffffff1681526020019081526020016000208190555083600660003373ffffffffffffffffffffffffffffffffffffffff1673ffffffffffffffffffffffffffffffffffffffff16815260200190815260200160002060008282546200136f919062003633565b925050819055503373ffffffffffffffffffffffffffffffffffffffff1684867f05d2f1712ee9236ad359917514636b645f2a01960eefea50967f66d9cb443cde60405160405180910390a460019250505092915050565b620013d162002653565b600460008373ffffffffffffffffffffffffffffffffffffffff1673ffffffffffffffffffffffffffffffffffffffff1681526020019081526020016000206040518060a00160405290816000820180546200142d906200346b565b80601f01602080910402602001604051908101604052809291908181526020018280546200145b906200346b565b8015620014ac5780601f106200148057610100808354040283529160200191620014ac565b820191906000526020600020905b8154815290600101906020018083116200148e57829003601f168201915b50505050508152602001600182018054620014c7906200346b565b80601f0160208091040260200160405190810160405280929190818152602001828054620014f5906200346b565b8015620015465780601f106200151a5761010080835404028352916020019162001546565b820191906000526020600020905b8154815290600101906020018083116200152857829003601f168201915b5050505050815260200160028201805462001561906200346b565b80601f01602080910402602001604051908101604052809291908181526020018280546200158f906200346b565b8015620015e05780601f10620015b457610100808354040283529160200191620015e0565b820191906000526020600020905b815481529060010190602001808311620015c257829003601f168201915b505050505081526020016003820160009054906101000a900473ffffffffffffffffffffffffffffffffffffffff1673ffffffffffffffffffffffffffffffffffffffff1673ffffffffffffffffffffffffffffffffffffffff1681526020016004820154815250509050919050565b60025481565b60008054906101000a900473ffffffffffffffffffffffffffffffffffffffff1673ffffffffffffffffffffffffffffffffffffffff163373ffffffffffffffffffffffffffffffffffffffff1603620016e7576040517f08c379a0000000000000000000000000000000000000000000000000000000008152600401620016de90620036f9565b60405180910390fd5b808311156200172d576040517f08c379a000000000000000000000000000000000000000000000000000000000815260040162001724906200376b565b60405180910390fd5b83421062001772576040517f08c379a00000000000000000000000000000000000000000000000000000000081526004016200176990620037dd565b60405180910390fd5b600085838333604051620017869062002698565b620017959493929190620037ff565b604051809103906000f080158015620017b2573d6000803e3d6000fd5b50905080600160006101000a81548173ffffffffffffffffffffffffffffffffffffffff021916908373ffffffffffffffffffffffffffffffffffffffff160217905550600260008154809291906200180b906200385a565b91905055506040518061020001604052808273ffffffffffffffffffffffffffffffffffffffff1681526020018b815260200187815260200184815260200160025481526020013373ffffffffffffffffffffffffffffffffffffffff1681526020018a815260200189815260200188815260200185815260200160008152602001838152602001428152602001868152602001600280811115620018b557620018b462002727565b5b81526020016000151581525060036000600254815260200190815260200160002060008201518160000160006101000a81548173ffffffffffffffffffffffffffffffffffffffff021916908373ffffffffffffffffffffffffffffffffffffffff160217905550602082015181600101908162001934919062003a7f565b5060408201518160020190816200194c919062003a7f565b50606082015181600301908162001964919062003a7f565b506080820151816004015560a08201518160050160006101000a81548173ffffffffffffffffffffffffffffffffffffffff021916908373ffffffffffffffffffffffffffffffffffffffff16021790555060c0820151816006019081620019cd919062003a7f565b5060e0820151816007019081620019e5919062003a7f565b506101008201518160080155610120820151816009015561014082015181600a015561016082015181600b015561018082015181600c01556101a082015181600d01556101c082015181600e0160006101000a81548160ff0219169083600281111562001a575762001a5662002727565b5b02179055506101e082015181600e0160016101000a81548160ff02191690831515021790555090505081600660003373ffffffffffffffffffffffffffffffffffffffff1673ffffffffffffffffffffffffffffffffffffffff168152602001908152602001600020819055506040518060a001604052808b81526020018481526020018781526020018273ffffffffffffffffffffffffffffffffffffffff16815260200183815250600460008373ffffffffffffffffffffffffffffffffffffffff1673ffffffffffffffffffffffffffffffffffffffff168152602001908152602001600020600082015181600001908162001b57919062003a7f565b50602082015181600101908162001b6f919062003a7f565b50604082015181600201908162001b87919062003a7f565b5060608201518160030160006101000a81548173ffffffffffffffffffffffffffffffffffffffff021916908373ffffffffffffffffffffffffffffffffffffffff1602179055506080820151816004015590505084876002547f2ae28cd24d500e514d5bccc406e8db4194cdbfceec1128ae2246a45b8ccb24408d8d8d8c8b8b8b60405162001c1e979695949392919062003b66565b60405180910390a450505050505050505050565b6000826002541015801562001c475750600083115b62001c89576040517f08c379a000000000000000000000000000000000000000000000000000000000815260040162001c8090620031d8565b60405180910390fd5b600060036000858152602001908152602001600020905060006005600086815260200190815260200160002060003373ffffffffffffffffffffffffffffffffffffffff1673ffffffffffffffffffffffffffffffffffffffff16815260200190815260200160002090504282600d0154101562001d3e576040517f08c379a000000000000000000000000000000000000000000000000000000000815260040162001d3590620034f0565b60405180910390fd5b83826008015462001d509190620033f1565b341462001d94576040517f08c379a000000000000000000000000000000000000000000000000000000000815260040162001d8b9062003562565b60405180910390fd5b6000600281111562001dab5762001daa62002727565b5b82600e0160009054906101000a900460ff16600281111562001dd25762001dd162002727565b5b1462001e15576040517f08c379a000000000000000000000000000000000000000000000000000000000815260040162001e0c9062003c56565b60405180910390fd5b600082600a01540362001ea15760008411801562001e48575081600901548483600a015462001e4591906200366e565b11155b801562001e59575081600901548411155b62001e9b576040517f08c379a000000000000000000000000000000000000000000000000000000000815260040162001e929062003cc8565b60405180910390fd5b62001f0a565b60008411801562001ec7575081600901548483600a015462001ec491906200366e565b11155b62001f09576040517f08c379a000000000000000000000000000000000000000000000000000000000815260040162001f009062003d3a565b60405180910390fd5b5b8382600a01600082825462001f2091906200366e565b925050819055508160000160009054906101000a900473ffffffffffffffffffffffffffffffffffffffff1673ffffffffffffffffffffffffffffffffffffffff166340c10f1933670de0b6b3a76400008762001f7e9190620033f1565b6040518363ffffffff167c010000000000000000000000000000000000000000000000000000000002815260040162001fb992919062003d5c565b600060405180830381600087803b15801562001fd457600080fd5b505af115801562001fe9573d6000803e3d6000fd5b505050508382600b01600082825462002003919062003633565b9250508190555083600660008460050160009054906101000a900473ffffffffffffffffffffffffffffffffffffffff1673ffffffffffffffffffffffffffffffffffffffff1673ffffffffffffffffffffffffffffffffffffffff16815260200190815260200160002060008282546200207f919062003633565b9250508190555083600660003373ffffffffffffffffffffffffffffffffffffffff1673ffffffffffffffffffffffffffffffffffffffff1681526020019081526020016000206000828254620020d791906200366e565b9250508190555083816002016000828254620020f491906200366e565b92505081905550348160030160008282546200211191906200366e565b92505081905550338160000160006101000a81548173ffffffffffffffffffffffffffffffffffffffff021916908373ffffffffffffffffffffffffffffffffffffffff1602179055508481600101819055503373ffffffffffffffffffffffffffffffffffffffff1682600a0154867fc84cdef8ffed2c03b52b412accc6d5b91af9eb50c8480fdfddd078846470b2d060405160405180910390a460019250505092915050565b60006060806000806000620021ce8762000a4f565b90506000620021e18260000151620013c7565b90508060600151816040015182602001518360800151600060028111156200220e576200220d62002727565b5b866101c00151600281111562002229576200222862002727565b5b14620022375760006200223a565b60015b96509650965096509650505091939590929450565b60008173ffffffffffffffffffffffffffffffffffffffff16319050919050565b60003373ffffffffffffffffffffffffffffffffffffffff1660008054906101000a900473ffffffffffffffffffffffffffffffffffffffff1673ffffffffffffffffffffffffffffffffffffffff161462002303576040517f08c379a0000000000000000000000000000000000000000000000000000000008152600401620022fa9062003166565b60405180910390fd5b8160025410158015620023165750600082115b62002358576040517f08c379a00000000000000000000000000000000000000000000000000000000081526004016200234f90620031d8565b60405180910390fd5b60006003600084815260200190815260200160002090506000600281111562002386576200238562002727565b5b81600e0160009054906101000a900460ff166002811115620023ad57620023ac62002727565b5b03620023f0576040517f08c379a0000000000000000000000000000000000000000000000000000000008152600401620023e7906200324a565b60405180910390fd5b6001600281111562002407576200240662002727565b5b81600e0160009054906101000a900460ff1660028111156200242e576200242d62002727565b5b0362002471576040517f08c379a00000000000000000000000000000000000000000000000000000000081526004016200246890620032bc565b60405180910390fd5b600081600e0160006101000a81548160ff021916908360028111156200249c576200249b62002727565b5b0217905550827f7d4061e68fab364906497bb959d95ad3f052a3978fed6ce9942a2b8f737aae5460405160405180910390a280600e0160009054906101000a900460ff16915050919050565b60008054906101000a900473ffffffffffffffffffffffffffffffffffffffff1681565b6000600660008373ffffffffffffffffffffffffffffffffffffffff1673ffffffffffffffffffffffffffffffffffffffff168152602001908152602001600020549050919050565b6040518060800160405280600073ffffffffffffffffffffffffffffffffffffffff1681526020016000815260200160008152602001600081525090565b604051806102000160405280600073ffffffffffffffffffffffffffffffffffffffff16815260200160608152602001606081526020016060815260200160008152602001600073ffffffffffffffffffffffffffffffffffffffff16815260200160608152602001606081526020016000815260200160008152602001600081526020016000815260200160008152602001600081526020016000600281111562002644576200264362002727565b5b81526020016000151581525090565b6040518060a00160405280606081526020016060815260200160608152602001600073ffffffffffffffffffffffffffffffffffffffff168152602001600081525090565b61221e8062003d8a83390190565b6000604051905090565b600080fd5b600080fd5b6000819050919050565b620026cf81620026ba565b8114620026db57600080fd5b50565b600081359050620026ef81620026c4565b92915050565b6000602082840312156200270e576200270d620026b0565b5b60006200271e84828501620026de565b91505092915050565b7f4e487b7100000000000000000000000000000000000000000000000000000000600052602160045260246000fd5b600381106200276a576200276962002727565b5b50565b60008190506200277d8262002756565b919050565b60006200278f826200276d565b9050919050565b620027a18162002782565b82525050565b6000602082019050620027be600083018462002796565b92915050565b60008115159050919050565b620027db81620027c4565b82525050565b6000602082019050620027f86000830184620027d0565b92915050565b600073ffffffffffffffffffffffffffffffffffffffff82169050919050565b60006200282b82620027fe565b9050919050565b6200283d816200281e565b81146200284957600080fd5b50565b6000813590506200285d8162002832565b92915050565b600080604083850312156200287d576200287c620026b0565b5b60006200288d85828601620026de565b9250506020620028a0858286016200284c565b9150509250929050565b620028b5816200281e565b82525050565b620028c681620026ba565b82525050565b6000608082019050620028e36000830187620028aa565b620028f26020830186620028bb565b620029016040830185620028bb565b620029106060830184620028bb565b95945050505050565b62002924816200281e565b82525050565b6200293581620026ba565b82525050565b60808201600082015162002953600085018262002919565b5060208201516200296860208501826200292a565b5060408201516200297d60408501826200292a565b5060608201516200299260608501826200292a565b50505050565b6000608082019050620029af60008301846200293b565b92915050565b600081519050919050565b600082825260208201905092915050565b60005b83811015620029f1578082015181840152602081019050620029d4565b60008484015250505050565b6000601f19601f8301169050919050565b600062002a1b82620029b5565b62002a278185620029c0565b935062002a39818560208601620029d1565b62002a4481620029fd565b840191505092915050565b62002a5a8162002782565b82525050565b62002a6b81620027c4565b82525050565b60006102008301600083015162002a8c600086018262002919565b506020830151848203602086015262002aa6828262002a0e565b9150506040830151848203604086015262002ac2828262002a0e565b9150506060830151848203606086015262002ade828262002a0e565b915050608083015162002af560808601826200292a565b5060a083015162002b0a60a086018262002919565b5060c083015184820360c086015262002b24828262002a0e565b91505060e083015184820360e086015262002b40828262002a0e565b91505061010083015162002b596101008601826200292a565b5061012083015162002b706101208601826200292a565b5061014083015162002b876101408601826200292a565b5061016083015162002b9e6101608601826200292a565b5061018083015162002bb56101808601826200292a565b506101a083015162002bcc6101a08601826200292a565b506101c083015162002be36101c086018262002a4f565b506101e083015162002bfa6101e086018262002a60565b508091505092915050565b6000602082019050818103600083015262002c21818462002a71565b905092915050565b6000806040838503121562002c435762002c42620026b0565b5b600062002c5385828601620026de565b925050602062002c6685828601620026de565b9150509250929050565b60006020828403121562002c895762002c88620026b0565b5b600062002c99848285016200284c565b91505092915050565b600060a083016000830151848203600086015262002cc1828262002a0e565b9150506020830151848203602086015262002cdd828262002a0e565b9150506040830151848203604086015262002cf9828262002a0e565b915050606083015162002d10606086018262002919565b50608083015162002d2560808601826200292a565b508091505092915050565b6000602082019050818103600083015262002d4c818462002ca2565b905092915050565b600060208201905062002d6b6000830184620028bb565b92915050565b600080fd5b600080fd5b7f4e487b7100000000000000000000000000000000000000000000000000000000600052604160045260246000fd5b62002db582620029fd565b810181811067ffffffffffffffff8211171562002dd75762002dd662002d7b565b5b80604052505050565b600062002dec620026a6565b905062002dfa828262002daa565b919050565b600067ffffffffffffffff82111562002e1d5762002e1c62002d7b565b5b62002e2882620029fd565b9050602081019050919050565b82818337600083830152505050565b600062002e5b62002e558462002dff565b62002de0565b90508281526020810184848401111562002e7a5762002e7962002d76565b5b62002e8784828562002e35565b509392505050565b600082601f83011262002ea75762002ea662002d71565b5b813562002eb984826020860162002e44565b91505092915050565b60008060008060008060008060006101208a8c03121562002ee85762002ee7620026b0565b5b60008a013567ffffffffffffffff81111562002f095762002f08620026b5565b5b62002f178c828d0162002e8f565b99505060208a013567ffffffffffffffff81111562002f3b5762002f3a620026b5565b5b62002f498c828d0162002e8f565b98505060408a013567ffffffffffffffff81111562002f6d5762002f6c620026b5565b5b62002f7b8c828d0162002e8f565b975050606062002f8e8c828d01620026de565b96505060808a013567ffffffffffffffff81111562002fb25762002fb1620026b5565b5b62002fc08c828d0162002e8f565b95505060a062002fd38c828d01620026de565b94505060c062002fe68c828d01620026de565b93505060e08a013567ffffffffffffffff8111156200300a5762003009620026b5565b5b620030188c828d0162002e8f565b9250506101006200302c8c828d01620026de565b9150509295985092959850929598565b600082825260208201905092915050565b60006200305a82620029b5565b6200306681856200303c565b935062003078818560208601620029d1565b6200308381620029fd565b840191505092915050565b600060a082019050620030a56000830188620028aa565b8181036020830152620030b981876200304d565b90508181036040830152620030cf81866200304d565b9050620030e06060830185620028bb565b620030ef6080830184620027d0565b9695505050505050565b6000602082019050620031106000830184620028aa565b92915050565b7f4f6e6c792061646d696e00000000000000000000000000000000000000000000600082015250565b60006200314e600a836200303c565b91506200315b8262003116565b602082019050919050565b6000602082019050818103600083015262003181816200313f565b9050919050565b7f4e6f2063616d706169676e000000000000000000000000000000000000000000600082015250565b6000620031c0600b836200303c565b9150620031cd8262003188565b602082019050919050565b60006020820190508181036000830152620031f381620031b1565b9050919050565b7f416c726561647920617070726f76656400000000000000000000000000000000600082015250565b6000620032326010836200303c565b91506200323f82620031fa565b602082019050919050565b60006020820190508181036000830152620032658162003223565b9050919050565b7f416c72656164792072656a656374656400000000000000000000000000000000600082015250565b6000620032a46010836200303c565b9150620032b1826200326c565b602082019050919050565b60006020820190508181036000830152620032d78162003295565b9050919050565b7f446561644c696e65206e6f742070617373656400000000000000000000000000600082015250565b6000620033166013836200303c565b91506200332382620032de565b602082019050919050565b60006020820190508181036000830152620033498162003307565b9050919050565b7f4e6f7420612063726561746f7200000000000000000000000000000000000000600082015250565b600062003388600d836200303c565b9150620033958262003350565b602082019050919050565b60006020820190508181036000830152620033bb8162003379565b9050919050565b7f4e487b7100000000000000000000000000000000000000000000000000000000600052601160045260246000fd5b6000620033fe82620026ba565b91506200340b83620026ba565b92508282026200341b81620026ba565b91508282048414831517620034355762003434620033c2565b5b5092915050565b7f4e487b7100000000000000000000000000000000000000000000000000000000600052602260045260246000fd5b600060028204905060018216806200348457607f821691505b6020821081036200349a57620034996200343c565b5b50919050565b7f446561644c696e65207061737365640000000000000000000000000000000000600082015250565b6000620034d8600f836200303c565b9150620034e582620034a0565b602082019050919050565b600060208201905081810360008301526200350b81620034c9565b9050919050565b7f496e636f727265637420616d6f756e7400000000000000000000000000000000600082015250565b60006200354a6010836200303c565b9150620035578262003512565b602082019050919050565b600060208201905081810360008301526200357d816200353b565b9050919050565b7f636f6e7472616374206c6f772062616c616e6365000000000000000000000000600082015250565b6000620035bc6014836200303c565b9150620035c98262003584565b602082019050919050565b60006020820190508181036000830152620035ef81620035ad565b9050919050565b60006060820190506200360d6000830186620028aa565b6200361c6020830185620028aa565b6200362b6040830184620028bb565b949350505050565b60006200364082620026ba565b91506200364d83620026ba565b9250828203905081811115620036685762003667620033c2565b5b92915050565b60006200367b82620026ba565b91506200368883620026ba565b9250828201905080821115620036a357620036a2620033c2565b5b92915050565b7f41646d696e2063616e2774000000000000000000000000000000000000000000600082015250565b6000620036e1600b836200303c565b9150620036ee82620036a9565b602082019050919050565b600060208201905081810360008301526200371481620036d2565b9050919050565b7f696e76616c696420746172676574000000000000000000000000000000000000600082015250565b600062003753600e836200303c565b915062003760826200371b565b602082019050919050565b60006020820190508181036000830152620037868162003744565b9050919050565b7f4e6f7420616c6c6f77656420666f72206f6c6465722064617465730000000000600082015250565b6000620037c5601b836200303c565b9150620037d2826200378d565b602082019050919050565b60006020820190508181036000830152620037f881620037b6565b9050919050565b600060808201905081810360008301526200381b81876200304d565b905081810360208301526200383181866200304d565b9050620038426040830185620028bb565b620038516060830184620028aa565b95945050505050565b60006200386782620026ba565b91507fffffffffffffffffffffffffffffffffffffffffffffffffffffffffffffffff82036200389c576200389b620033c2565b5b600182019050919050565b60008190508160005260206000209050919050565b60006020601f8301049050919050565b60008160020a8302905092915050565b6000600883026200390e7fffffffffffffffffffffffffffffffffffffffffffffffffffffffffffffffff82620038cc565b6200391a8683620038cc565b95508019841693508086168417925050509392505050565b6000819050919050565b60006200395d620039576200395184620026ba565b62003932565b620026ba565b9050919050565b6000819050919050565b62003979836200393c565b62003991620039888262003964565b848454620038dc565b825550505050565b600090565b620039a862003999565b620039b58184846200396e565b505050565b5b81811015620039dd57620039d16000826200399e565b600181019050620039bb565b5050565b601f82111562003a2c57620039f681620038a7565b62003a0184620038bc565b8101602085101562003a11578190505b62003a2962003a2085620038bc565b830182620039ba565b50505b505050565b60008160020a8304905092915050565b600062003a546000198460080262003a31565b1980831691505092915050565b600062003a6f838362003a41565b9150826002028217905092915050565b62003a8a82620029b5565b67ffffffffffffffff81111562003aa65762003aa562002d7b565b5b62003ab282546200346b565b62003abf828285620039e1565b600060209050601f83116001811462003af7576000841562003ae2578287015190505b62003aee858262003a61565b86555062003b5e565b601f19841662003b0786620038a7565b60005b8281101562003b315784890151825560018201915060208501945060208101905062003b0a565b8683101562003b51578489015162003b4d601f89168262003a41565b8355505b6001600288020188555050505b505050505050565b600060e082019050818103600083015262003b82818a6200304d565b9050818103602083015262003b9881896200304d565b9050818103604083015262003bae81886200304d565b9050818103606083015262003bc481876200304d565b905062003bd56080830186620028bb565b81810360a083015262003be981856200304d565b905062003bfa60c0830184620028bb565b98975050505050505050565b7f4e6f7420617070726f7665640000000000000000000000000000000000000000600082015250565b600062003c3e600c836200303c565b915062003c4b8262003c06565b602082019050919050565b6000602082019050818103600083015262003c718162003c2f565b9050919050565b7f496e76616c69647320636f6e747269627574696f6e2e00000000000000000000600082015250565b600062003cb06016836200303c565b915062003cbd8262003c78565b602082019050919050565b6000602082019050818103600083015262003ce38162003ca1565b9050919050565b7f496e76616c696420636f6e747269627574696f6e732e00000000000000000000600082015250565b600062003d226016836200303c565b915062003d2f8262003cea565b602082019050919050565b6000602082019050818103600083015262003d558162003d13565b9050919050565b600060408201905062003d736000830185620028aa565b62003d826020830184620028bb565b939250505056fe60806040523480156200001157600080fd5b506040516200221e3803806200221e8339818101604052810190620000379190620004c6565b838381600390816200004a9190620007bd565b5080600490816200005c9190620007bd565b50505062000096816012600a62000074919062000a27565b8462000081919062000a78565b62000100640100000000026401000000009004565b620000af6200027f640100000000026401000000009004565b60068190555033600760006101000a81548173ffffffffffffffffffffffffffffffffffffffff021916908373ffffffffffffffffffffffffffffffffffffffff1602179055505050505062000baf565b600073ffffffffffffffffffffffffffffffffffffffff168273ffffffffffffffffffffffffffffffffffffffff160362000172576040517f08c379a0000000000000000000000000000000000000000000000000000000008152600401620001699062000b24565b60405180910390fd5b6200018f6000838362000289640100000000026401000000009004565b8060026000828254620001a3919062000b46565b92505081905550806000808473ffffffffffffffffffffffffffffffffffffffff1673ffffffffffffffffffffffffffffffffffffffff168152602001908152602001600020600082825401925050819055508173ffffffffffffffffffffffffffffffffffffffff16600073ffffffffffffffffffffffffffffffffffffffff167fddf252ad1be2c89b69c2b068fc378daa952ba7f163c4a11628f55a4df523b3ef8360405162000256919062000b92565b60405180910390a36200027b600083836200028e640100000000026401000000009004565b5050565b6000600254905090565b505050565b505050565b6000604051905090565b600080fd5b600080fd5b600080fd5b600080fd5b6000601f19601f8301169050919050565b7f4e487b7100000000000000000000000000000000000000000000000000000000600052604160045260246000fd5b620002fc82620002b1565b810181811067ffffffffffffffff821117156200031e576200031d620002c2565b5b80604052505050565b60006200033362000293565b9050620003418282620002f1565b919050565b600067ffffffffffffffff821115620003645762000363620002c2565b5b6200036f82620002b1565b9050602081019050919050565b60005b838110156200039c5780820151818401526020810190506200037f565b60008484015250505050565b6000620003bf620003b98462000346565b62000327565b905082815260208101848484011115620003de57620003dd620002ac565b5b620003eb8482856200037c565b509392505050565b600082601f8301126200040b576200040a620002a7565b5b81516200041d848260208601620003a8565b91505092915050565b6000819050919050565b6200043b8162000426565b81146200044757600080fd5b50565b6000815190506200045b8162000430565b92915050565b600073ffffffffffffffffffffffffffffffffffffffff82169050919050565b60006200048e8262000461565b9050919050565b620004a08162000481565b8114620004ac57600080fd5b50565b600081519050620004c08162000495565b92915050565b60008060008060808587031215620004e357620004e26200029d565b5b600085015167ffffffffffffffff811115620005045762000503620002a2565b5b6200051287828801620003f3565b945050602085015167ffffffffffffffff811115620005365762000535620002a2565b5b6200054487828801620003f3565b935050604062000557878288016200044a565b92505060606200056a87828801620004af565b91505092959194509250565b600081519050919050565b7f4e487b7100000000000000000000000000000000000000000000000000000000600052602260045260246000fd5b60006002820490506001821680620005c957607f821691505b602082108103620005df57620005de62000581565b5b50919050565b60008190508160005260206000209050919050565b60006020601f8301049050919050565b60008160020a8302905092915050565b6000600883026200064c7fffffffffffffffffffffffffffffffffffffffffffffffffffffffffffffffff826200060a565b6200065886836200060a565b95508019841693508086168417925050509392505050565b6000819050919050565b60006200069b620006956200068f8462000426565b62000670565b62000426565b9050919050565b6000819050919050565b620006b7836200067a565b620006cf620006c682620006a2565b8484546200061a565b825550505050565b600090565b620006e6620006d7565b620006f3818484620006ac565b505050565b5b818110156200071b576200070f600082620006dc565b600181019050620006f9565b5050565b601f8211156200076a576200073481620005e5565b6200073f84620005fa565b810160208510156200074f578190505b620007676200075e85620005fa565b830182620006f8565b50505b505050565b60008160020a8304905092915050565b600062000792600019846008026200076f565b1980831691505092915050565b6000620007ad83836200077f565b9150826002028217905092915050565b620007c88262000576565b67ffffffffffffffff811115620007e457620007e3620002c2565b5b620007f08254620005b0565b620007fd8282856200071f565b600060209050601f83116001811462000835576000841562000820578287015190505b6200082c85826200079f565b8655506200089c565b601f1984166200084586620005e5565b60005b828110156200086f5784890151825560018201915060208501945060208101905062000848565b868310156200088f57848901516200088b601f8916826200077f565b8355505b6001600288020188555050505b505050505050565b7f4e487b7100000000000000000000000000000000000000000000000000000000600052601160045260246000fd5b6000600282049050919050565b6000808291508390505b600185111562000932578086048111156200090a5762000909620008a4565b5b60018516156200091a5780820291505b80810290506200092a85620008d3565b9450620008ea565b94509492505050565b6000826200094d576001905062000a20565b816200095d576000905062000a20565b81600181146200097657600281146200098157620009b7565b600191505062000a20565b60ff841115620009965762000995620008a4565b5b8360020a915084821115620009b057620009af620008a4565b5b5062000a20565b5060208310610133831016604e8410600b8410161715620009f15782820a905083811115620009eb57620009ea620008a4565b5b62000a20565b62000a008484846001620008e0565b9250905081840481111562000a1a5762000a19620008a4565b5b81810290505b9392505050565b600062000a348262000426565b915062000a418362000426565b925062000a707fffffffffffffffffffffffffffffffffffffffffffffffffffffffffffffffff84846200093b565b905092915050565b600062000a858262000426565b915062000a928362000426565b925082820262000aa28162000426565b9150828204841483151762000abc5762000abb620008a4565b5b5092915050565b600082825260208201905092915050565b7f45524332303a206d696e7420746f20746865207a65726f206164647265737300600082015250565b600062000b0c601f8362000ac3565b915062000b198262000ad4565b602082019050919050565b6000602082019050818103600083015262000b3f8162000afd565b9050919050565b600062000b538262000426565b915062000b608362000426565b925082820190508082111562000b7b5762000b7a620008a4565b5b92915050565b62000b8c8162000426565b82525050565b600060208201905062000ba9600083018462000b81565b92915050565b61165f8062000bbf6000396000f3fe608060405234801561001057600080fd5b5060043610610107576000357c01000000000000000000000000000000000000000000000000000000009004806340c10f19116100a9578063a457c2d711610083578063a457c2d71461027e578063a9059cbb146102ae578063beabacc8146102de578063dd62ed3e146102fa57610107565b806340c10f191461021457806370a082311461023057806395d89b411461026057610107565b80631bbc4b83116100e55780631bbc4b831461017857806323b872dd14610196578063313ce567146101c657806339509351146101e457610107565b806306fdde031461010c578063095ea7b31461012a57806318160ddd1461015a575b600080fd5b61011461032a565b6040516101219190610dea565b60405180910390f35b610144600480360381019061013f9190610ea5565b6103bc565b6040516101519190610f00565b60405180910390f35b6101626103df565b60405161016f9190610f2a565b60405180910390f35b6101806103e9565b60405161018d9190610fa4565b60405180910390f35b6101b060048036038101906101ab9190610fbf565b61040f565b6040516101bd9190610f00565b60405180910390f35b6101ce61043e565b6040516101db919061102e565b60405180910390f35b6101fe60048036038101906101f99190610ea5565b610447565b60405161020b9190610f00565b60405180910390f35b61022e60048036038101906102299190610ea5565b61047e565b005b61024a60048036038101906102459190611049565b61051c565b6040516102579190610f2a565b60405180910390f35b610268610564565b6040516102759190610dea565b60405180910390f35b61029860048036038101906102939190610ea5565b6105f6565b6040516102a59190610f00565b60405180910390f35b6102c860048036038101906102c39190610ea5565b61066d565b6040516102d59190610f00565b60405180910390f35b6102f860048036038101906102f39190610fbf565b610690565b005b610314600480360381019061030f9190611076565b6106a0565b6040516103219190610f2a565b60405180910390f35b606060038054610339906110e5565b80601f0160208091040260200160405190810160405280929190818152602001828054610365906110e5565b80156103b25780601f10610387576101008083540402835291602001916103b2565b820191906000526020600020905b81548152906001019060200180831161039557829003601f168201915b5050505050905090565b6000806103c7610727565b90506103d481858561072f565b600191505092915050565b6000600254905090565b600560009054906101000a900473ffffffffffffffffffffffffffffffffffffffff1681565b60008061041a610727565b90506104278582856108f8565b610432858585610984565b60019150509392505050565b60006012905090565b600080610452610727565b905061047381858561046485896106a0565b61046e9190611145565b61072f565b600191505092915050565b600760009054906101000a900473ffffffffffffffffffffffffffffffffffffffff1673ffffffffffffffffffffffffffffffffffffffff163373ffffffffffffffffffffffffffffffffffffffff161461050e576040517f08c379a0000000000000000000000000000000000000000000000000000000008152600401610505906111c5565b60405180910390fd5b6105188282610bfa565b5050565b60008060008373ffffffffffffffffffffffffffffffffffffffff1673ffffffffffffffffffffffffffffffffffffffff168152602001908152602001600020549050919050565b606060048054610573906110e5565b80601f016020809104026020016040519081016040528092919081815260200182805461059f906110e5565b80156105ec5780601f106105c1576101008083540402835291602001916105ec565b820191906000526020600020905b8154815290600101906020018083116105cf57829003601f168201915b5050505050905090565b600080610601610727565b9050600061060f82866106a0565b905083811015610654576040517f08c379a000000000000000000000000000000000000000000000000000000000815260040161064b90611257565b60405180910390fd5b610661828686840361072f565b60019250505092915050565b600080610678610727565b9050610685818585610984565b600191505092915050565b61069b838383610984565b505050565b6000600160008473ffffffffffffffffffffffffffffffffffffffff1673ffffffffffffffffffffffffffffffffffffffff16815260200190815260200160002060008373ffffffffffffffffffffffffffffffffffffffff1673ffffffffffffffffffffffffffffffffffffffff16815260200190815260200160002054905092915050565b600033905090565b600073ffffffffffffffffffffffffffffffffffffffff168373ffffffffffffffffffffffffffffffffffffffff160361079e576040517f08c379a0000000000000000000000000000000000000000000000000000000008152600401610795906112e9565b60405180910390fd5b600073ffffffffffffffffffffffffffffffffffffffff168273ffffffffffffffffffffffffffffffffffffffff160361080d576040517f08c379a00000000000000000000000000000000000000000000000000000000081526004016108049061137b565b60405180910390fd5b80600160008573ffffffffffffffffffffffffffffffffffffffff1673ffffffffffffffffffffffffffffffffffffffff16815260200190815260200160002060008473ffffffffffffffffffffffffffffffffffffffff1673ffffffffffffffffffffffffffffffffffffffff168152602001908152602001600020819055508173ffffffffffffffffffffffffffffffffffffffff168373ffffffffffffffffffffffffffffffffffffffff167f8c5be1e5ebec7d5bd14f71427d1e84f3dd0314c0f7b2291e5b200ac8c7c3b925836040516108eb9190610f2a565b60405180910390a3505050565b600061090484846106a0565b90507fffffffffffffffffffffffffffffffffffffffffffffffffffffffffffffffff811461097e5781811015610970576040517f08c379a0000000000000000000000000000000000000000000000000000000008152600401610967906113e7565b60405180910390fd5b61097d848484840361072f565b5b50505050565b600073ffffffffffffffffffffffffffffffffffffffff168373ffffffffffffffffffffffffffffffffffffffff16036109f3576040517f08c379a00000000000000000000000000000000000000000000000000000000081526004016109ea90611479565b60405180910390fd5b600073ffffffffffffffffffffffffffffffffffffffff168273ffffffffffffffffffffffffffffffffffffffff1603610a62576040517f08c379a0000000000000000000000000000000000000000000000000000000008152600401610a599061150b565b60405180910390fd5b610a6d838383610d50565b60008060008573ffffffffffffffffffffffffffffffffffffffff1673ffffffffffffffffffffffffffffffffffffffff16815260200190815260200160002054905081811015610af3576040517f08c379a0000000000000000000000000000000000000000000000000000000008152600401610aea9061159d565b60405180910390fd5b8181036000808673ffffffffffffffffffffffffffffffffffffffff1673ffffffffffffffffffffffffffffffffffffffff16815260200190815260200160002081905550816000808573ffffffffffffffffffffffffffffffffffffffff1673ffffffffffffffffffffffffffffffffffffffff168152602001908152602001600020600082825401925050819055508273ffffffffffffffffffffffffffffffffffffffff168473ffffffffffffffffffffffffffffffffffffffff167fddf252ad1be2c89b69c2b068fc378daa952ba7f163c4a11628f55a4df523b3ef84604051610be19190610f2a565b60405180910390a3610bf4848484610d55565b50505050565b600073ffffffffffffffffffffffffffffffffffffffff168273ffffffffffffffffffffffffffffffffffffffff1603610c69576040517f08c379a0000000000000000000000000000000000000000000000000000000008152600401610c6090611609565b60405180910390fd5b610c7560008383610d50565b8060026000828254610c879190611145565b92505081905550806000808473ffffffffffffffffffffffffffffffffffffffff1673ffffffffffffffffffffffffffffffffffffffff168152602001908152602001600020600082825401925050819055508173ffffffffffffffffffffffffffffffffffffffff16600073ffffffffffffffffffffffffffffffffffffffff167fddf252ad1be2c89b69c2b068fc378daa952ba7f163c4a11628f55a4df523b3ef83604051610d389190610f2a565b60405180910390a3610d4c60008383610d55565b5050565b505050565b505050565b600081519050919050565b600082825260208201905092915050565b60005b83811015610d94578082015181840152602081019050610d79565b60008484015250505050565b6000601f19601f8301169050919050565b6000610dbc82610d5a565b610dc68185610d65565b9350610dd6818560208601610d76565b610ddf81610da0565b840191505092915050565b60006020820190508181036000830152610e048184610db1565b905092915050565b600080fd5b600073ffffffffffffffffffffffffffffffffffffffff82169050919050565b6000610e3c82610e11565b9050919050565b610e4c81610e31565b8114610e5757600080fd5b50565b600081359050610e6981610e43565b92915050565b6000819050919050565b610e8281610e6f565b8114610e8d57600080fd5b50565b600081359050610e9f81610e79565b92915050565b60008060408385031215610ebc57610ebb610e0c565b5b6000610eca85828601610e5a565b9250506020610edb85828601610e90565b9150509250929050565b60008115159050919050565b610efa81610ee5565b82525050565b6000602082019050610f156000830184610ef1565b92915050565b610f2481610e6f565b82525050565b6000602082019050610f3f6000830184610f1b565b92915050565b6000819050919050565b6000610f6a610f65610f6084610e11565b610f45565b610e11565b9050919050565b6000610f7c82610f4f565b9050919050565b6000610f8e82610f71565b9050919050565b610f9e81610f83565b82525050565b6000602082019050610fb96000830184610f95565b92915050565b600080600060608486031215610fd857610fd7610e0c565b5b6000610fe686828701610e5a565b9350506020610ff786828701610e5a565b925050604061100886828701610e90565b9150509250925092565b600060ff82169050919050565b61102881611012565b82525050565b6000602082019050611043600083018461101f565b92915050565b60006020828403121561105f5761105e610e0c565b5b600061106d84828501610e5a565b91505092915050565b6000806040838503121561108d5761108c610e0c565b5b600061109b85828601610e5a565b92505060206110ac85828601610e5a565b9150509250929050565b7f4e487b7100000000000000000000000000000000000000000000000000000000600052602260045260246000fd5b600060028204905060018216806110fd57607f821691505b6020821081036111105761110f6110b6565b5b50919050565b7f4e487b7100000000000000000000000000000000000000000000000000000000600052601160045260246000fd5b600061115082610e6f565b915061115b83610e6f565b925082820190508082111561117357611172611116565b5b92915050565b7f4f6e6c79204f776e657200000000000000000000000000000000000000000000600082015250565b60006111af600a83610d65565b91506111ba82611179565b602082019050919050565b600060208201905081810360008301526111de816111a2565b9050919050565b7f45524332303a2064656372656173656420616c6c6f77616e63652062656c6f7760008201527f207a65726f000000000000000000000000000000000000000000000000000000602082015250565b6000611241602583610d65565b915061124c826111e5565b604082019050919050565b6000602082019050818103600083015261127081611234565b9050919050565b7f45524332303a20617070726f76652066726f6d20746865207a65726f2061646460008201527f7265737300000000000000000000000000000000000000000000000000000000602082015250565b60006112d3602483610d65565b91506112de82611277565b604082019050919050565b60006020820190508181036000830152611302816112c6565b9050919050565b7f45524332303a20617070726f766520746f20746865207a65726f20616464726560008201527f7373000000000000000000000000000000000000000000000000000000000000602082015250565b6000611365602283610d65565b915061137082611309565b604082019050919050565b6000602082019050818103600083015261139481611358565b9050919050565b7f45524332303a20696e73756666696369656e7420616c6c6f77616e6365000000600082015250565b60006113d1601d83610d65565b91506113dc8261139b565b602082019050919050565b60006020820190508181036000830152611400816113c4565b9050919050565b7f45524332303a207472616e736665722066726f6d20746865207a65726f20616460008201527f6472657373000000000000000000000000000000000000000000000000000000602082015250565b6000611463602583610d65565b915061146e82611407565b604082019050919050565b6000602082019050818103600083015261149281611456565b9050919050565b7f45524332303a207472616e7366657220746f20746865207a65726f206164647260008201527f6573730000000000000000000000000000000000000000000000000000000000602082015250565b60006114f5602383610d65565b915061150082611499565b604082019050919050565b60006020820190508181036000830152611524816114e8565b9050919050565b7f45524332303a207472616e7366657220616d6f756e742065786365656473206260008201527f616c616e63650000000000000000000000000000000000000000000000000000602082015250565b6000611587602683610d65565b91506115928261152b565b604082019050919050565b600060208201905081810360008301526115b68161157a565b9050919050565b7f45524332303a206d696e7420746f20746865207a65726f206164647265737300600082015250565b60006115f3601f83610d65565b91506115fe826115bd565b602082019050919050565b60006020820190508181036000830152611622816115e6565b905091905056fea26469706673582212208a3a89a315a2504c0a22c3e92bf70da08b84b1ab1a95a8d590e7d700a252892b64736f6c63430008110033a2646970667358221220d4366499ab402c182284bb6b42f0bfb8beb7e47d1d30ce808d46e1ab8b9e3d8c64736f6c63430008110033",
  "immutableReferences": {},
  "source": "// SPDX-License-Identifier: UNLICENSED\npragma solidity ^0.8;\n\nimport \"./ERC20.sol\";\n\n/// @title CrowdFudndingDao\n/// @author \n/// @notice You can use this contract for mint a new ERC20 based INRtoken\n/// @dev All function calls are currently implemented without side effects\n\ncontract CrowdFunding{\n    //State Variables\n    address public admin;\n    ERC20Token private token;\n\n    /**\n    * @dev Constructor function to set the admin\n    * @param _admin admin of this contract\n    */\n\n    constructor (address _admin) {\n        admin = _admin;\n    }\n\n    modifier onlyAdmin() {\n        require(admin == msg.sender,\"Only admin\");\n        _;\n    }\n\n    uint256 public campaignCount;\n    \n    struct Campaign{\n        // contract address\n        address contractAddress;\n        // Company Name\n        string companyName;\n        // Name of the token\n        string tokenName;\n        // Symbol of the token\n        string tokenSymbol;\n        // Id of the Campaign\n        uint campaignId;\n        // Creator of the campaign\n        address creator;\n        // Title of the campaign\n        string campaignTitle;\n        // Campaign Description\n        string campaignDescription;\n        // pricePer token fixed by the user\n        uint256 pricePerToken;\n        // required fund\n        uint256 target;\n        // total contribution received\n        uint256 contribution;\n        // totalHeld Balance\n        uint256 heldBalance;\n        // Campaign Start Date\n        uint256 startDate;\n        // Campaign End Date\n        uint256 endDate;\n        // Status of the campaign\n        campainStatus status;\n        // Withdraw status\n        bool withdrawalStatus;\n    }\n\n    struct Company {\n        // Name of the company\n        string companyName;\n        // Token symbol created by the company\n        string tokenSymbol;\n        // Token name created by the company\n        string tokenName;\n        // Contract address against the company's campaign\n        address contractAddress;\n        // Total supply\n        uint256 totalSupply;\n    }\n\n    struct ContributionReceipt{\n        // address of the contributer\n        address contributer;\n        // Id of the camapign \n        uint256 campaignId;\n        // Token of contribution\n        uint256 tokens;\n        // Eth value\n        uint256 receivedEth;\n    }\n\n    /**\n     * @notice event for campaign creation\n     * @dev This event is emitted when a crowdfunding campaign is made.\n     * @param campaignId id of the campaign\n     * @param _companyName name of the company going to create the campaign\n     * @param _title title of the camapaign\n     * @param _description detailed description of the campaign\n     * @param _pricePerToken price per token for eg : 10 NEO tokens == 100INR( here 1 neo is equal to 10 INR)\n     * @param _tokenName Name of the token launched by the user\n     * @param deadLine End date for the campaign to contribute,\n     * @param _target goal of the crowd funding\n     * @param _tokenSymbol symbol of the token launched by the user\n     * @param _totalSupply total supply\n     */\n\n\n    event campaignCreated(\n        uint256 indexed campaignId,\n        string _companyName,\n        string _title,\n        string _description,\n        uint256 indexed _pricePerToken,\n        string _tokenName,\n        uint256 indexed deadLine,\n        uint256 _target,\n        string _tokenSymbol,\n        uint256 _totalSupply\n    );\n\n    /**\n     * @notice approval of the campaign\n     * @dev this event is emitted when a campaign gets approve by the admin\n     * @param campaignId id of the campaign\n     */\n\n    event approved(uint256 indexed campaignId);\n\n    /**\n     * @notice rejection of the campaign\n     * @dev this event is emitted when a campaign gets reject by the admin\n     * @param campaignId id of the campaign\n     */\n\n    event rejected(uint256 indexed campaignId);\n\n    /**\n     * @notice event for contribution\n     * @dev this event will emit when the contribution was maded by the users\n     * @param campaignId Id of the campaign  \n     * @param contribution amount of the contribution by the user\n     * @param contributer address of the contributer\n     */\n\n    event contribution(uint256 indexed campaignId, uint256 indexed contribution, address indexed contributer);\n\n    /**\n     * @notice refund request against the contribution \n     * @dev This event will emit when refund is made\n     * @param campaignId Id of the campaign  \n     * @param contribution amount of the contribution by the user\n     * @param contributer address of the contributer\n     */\n\n    event refunded(uint256 indexed campaignId, uint256 indexed contribution, address indexed contributer);\n\n    enum campainStatus {APPROVED,REJECTED,PENDING}\n\n    // CAMPAIGNID => CAMPAINGS\n    mapping (uint256 => Campaign) campaigns;\n\n    //CONTRACT ADDRESS => COMPANY\n    mapping(address => Company) companies;\n\n    // CAMPAIGNID => CONTRIBUTER => RECEIPT\n    mapping (uint256 => mapping(address => ContributionReceipt)) public receipts;\n\n    // USER => BALANCE \n    mapping (address => uint256) balance;\n\n    /**\n    * @notice To create the new campaign\n    * @dev It will create a new ERC20 token\n    * @param _companyName name of the comapany\n    * @param _title Title of the campaign\n    * @param _description Description of the campaign\n    * @param _pricePerToken Campaign creator can decide price per token would be fixed cost\n    * @param _tokenName Name of the ERC20 Token\n    * @param _tokenSymbol Symbol of the ERC20 token\n    * @param deadLine End date for the campaign\n    * @param _target Goal of this campaign \n    * @param _totalSupply no of token wants to launch by campaign creator\n    **/\n\n    function createCampaign(\n        string memory _companyName,\n        string memory _title,\n        string memory _description,\n        uint256 _pricePerToken,\n        string memory _tokenName,\n        uint256 deadLine,\n        uint256 _target,\n        string memory _tokenSymbol,\n        uint256 _totalSupply\n    ) external {\n        require(msg.sender != admin, \"Admin can't\");\n        require(_target <= _totalSupply, \"invalid target\");\n        require(block.timestamp < deadLine, \"Not allowed for older dates\");\n        address newContract = address(new ERC20Token(_tokenName, _tokenSymbol, _totalSupply, msg.sender));\n        token = ERC20Token(newContract);\n        campaignCount++;\n\n        campaigns[campaignCount] = Campaign({\n        contractAddress : newContract,\n        companyName: _companyName,\n        tokenName: _tokenName,\n        tokenSymbol : _tokenSymbol,\n        campaignId: campaignCount, \n        creator: msg.sender,\n        campaignTitle: _title,\n        campaignDescription: _description,\n        pricePerToken: _pricePerToken,\n        target: _target,\n        heldBalance: _totalSupply,\n        startDate: block.timestamp,\n        endDate: deadLine,\n        contribution: 0,\n        status: campainStatus.PENDING,\n        withdrawalStatus: false\n        });\n        balance[msg.sender] = _totalSupply;\n\n        companies[newContract] = Company({\n            companyName: _companyName,\n            tokenSymbol : _tokenSymbol,\n            contractAddress : newContract,\n            tokenName: _tokenName,\n            totalSupply : _totalSupply \n        });\n\n\n        emit campaignCreated(\n            campaignCount, \n            _companyName,\n            _title,\n            _description,\n            _pricePerToken,\n            _tokenName,\n            deadLine,\n            _target,\n            _tokenSymbol,\n            _totalSupply\n            );\n    }\n\n    /**\n    * @notice Approve  campaign\n    * @dev admin can approve this campaign\n    * @param campaignId campaign is approved by the admin \n    * @return status returning the enum for the referrence of campaign states\n    */\n\n    function approveCampaign(uint campaignId) external onlyAdmin returns(campainStatus)  {\n        require(campaignCount >= campaignId && campaignId > 0,\"No campaign\");\n        Campaign storage currentCampaign = campaigns[campaignId];\n        require(currentCampaign.status != campainStatus.APPROVED,\"Already approved\");\n        require(currentCampaign.status != campainStatus.REJECTED,\"Already rejected\");\n        currentCampaign.status = campainStatus.APPROVED;\n\n        emit approved(campaignId);\n        return currentCampaign.status; \n    }\n\n    /**\n    * @notice Reject campaign\n    * @dev admin can reject this campaign\n    * @param campaignId campaign is rejected by the admin by the help of this id \n    * @return status returning the enum for the referrence of campaign states\n    */\n\n    function rejectCampaign(uint campaignId) external onlyAdmin returns(campainStatus)  {\n        require(campaignCount >= campaignId && campaignId > 0,\"No campaign\");\n        Campaign storage currentCampaign = campaigns[campaignId];\n        require(currentCampaign.status != campainStatus.APPROVED,\"Already approved\");\n        require(currentCampaign.status != campainStatus.REJECTED,\"Already rejected\");\n        currentCampaign.status = campainStatus.REJECTED;\n        \n        emit rejected(campaignId);\n        return currentCampaign.status; \n\n    }\n\n    /**\n    * @notice contribute to the campaign\n    * @dev getting ERC20 token by giving the fiat currency in msg.value\n    * @param campaignId helping to find and contribute against the campaign by this id \n    * @param tokens How many token user want's to buy against the fiat currency\n    * @return bool return true if the contribution get success\n    */\n\n    function contribute(uint256 campaignId, uint256 tokens) external payable returns(bool){\n        require(campaignCount >= campaignId && campaignId > 0,\"No campaign\");\n        Campaign storage currentCampaign = campaigns[campaignId];\n        ContributionReceipt storage user = receipts[campaignId][msg.sender];\n        require(currentCampaign.endDate >= block.timestamp,\"DeadLine passed\");\n        require(msg.value == currentCampaign.pricePerToken * tokens, \"Incorrect amount\");\n        require(currentCampaign.status == campainStatus.APPROVED, \"Not approved\");\n        if(currentCampaign.contribution == 0){\n        require(\n            tokens > 0 &&\n            currentCampaign.contribution + tokens <= currentCampaign.target &&\n            tokens <= currentCampaign.target,\n            \"Invalids contribution.\"\n        );\n        }\n        else\n        {\n            require(tokens > 0 &&\n            currentCampaign.contribution + tokens <= currentCampaign.target,\n            \"Invalid contributions.\");\n        }\n\n        currentCampaign.contribution += tokens;\n\n        ERC20Token(currentCampaign.contractAddress).mint(msg.sender,tokens * 10**18);\n        \n        currentCampaign.heldBalance -= tokens;\n        balance[currentCampaign.creator] -= tokens ;\n        balance[msg.sender] += tokens;\n\n        user.tokens +=tokens;\n        user.receivedEth +=msg.value;\n        user.contributer = msg.sender;\n        user.campaignId = campaignId;\n\n        emit contribution(campaignId, currentCampaign.contribution, msg.sender);\n        return true;\n\n    }\n\n    /**\n    * @notice handling the refund\n    * @dev users can call refund if they want their contribution back before deadLine\n    * @param campaignId campaignId helping to find the campaign by this id \n    * @return bool return true if the refund get success\n    */\n\n    function refund(uint256 campaignId, uint256 _amount) external payable returns (bool) {\n        require(campaignCount >= campaignId && campaignId > 0,\"No campaign\");\n        Campaign storage currentCampaign = campaigns[campaignId];\n        \n        require(currentCampaign.endDate >= block.timestamp,\"DeadLine passed\");\n        ContributionReceipt storage user = receipts[campaignId][msg.sender];\n        require(user.tokens >= _amount, \"Incorrect amount\");\n        require(address(this).balance >= user.receivedEth, \"contract low balance\");\n\n        ERC20Token(currentCampaign.contractAddress).transfer(msg.sender,currentCampaign.creator,_amount * 10**18);\n        payable(msg.sender).transfer(_amount * currentCampaign.pricePerToken);\n        user.tokens -= _amount;\n        currentCampaign.contribution -= _amount;\n\n        user.receivedEth -= (_amount) * currentCampaign.pricePerToken;\n        currentCampaign.contribution = currentCampaign.contribution;\n        currentCampaign.heldBalance += _amount;\n        balance[currentCampaign.creator] = currentCampaign.heldBalance;\n        balance[msg.sender] -= _amount;\n        emit refunded(campaignId, _amount, msg.sender);\n\n        return true;\n    }\n\n    /**\n    * @notice handling the withDraw\n    * @dev users can call withDraw if campaign deadLine crossed\n    * @param campaignId campaignId helping to find the campaign by this id \n    * @return bool return true if the withDrawal gets success\n    */\n\n    function withDraw(uint256 campaignId) external returns(bool) {\n        Campaign storage currentCampaign = campaigns[campaignId];\n        require(campaignCount >= campaignId && campaignId > 0 ,\"No campaign\");\n        require(block.timestamp >= currentCampaign.endDate,\"DeadLine not passed\");\n        require(currentCampaign.creator == msg.sender, \"Not a creator\");\n        payable(msg.sender).transfer(currentCampaign.contribution * currentCampaign.pricePerToken);\n        currentCampaign.withdrawalStatus = true;\n        return true;\n    }\n\n    /**\n     * @notice contribution receipt\n     * @dev to get receipt for the contribution by the id and contributor address\n     * @param campaignId helps to find the campaign agains\n     * @param contributer address of the contributer\n     * @return contributionReceipt returning struct of the contribution receipt\n     */\n    \n    function getContributionReceipt(uint256 campaignId, address contributer) external view returns (ContributionReceipt memory) {\n        return receipts[campaignId][contributer];\n    }\n\n    /**\n     * @notice Get company\n     * @dev get the company details\n     * @param _contractAddress get the company details that are stored against to this contract address\n     * @return company returning the structure of the company\n     */\n\n    function getCompany(address _contractAddress) public view returns (Company memory){\n        return companies[_contractAddress];\n    }\n\n    /**\n     * @notice get campaign\n     * @dev get the campaign, that are stored against to the id\n     * @param campaignId we can check and get the details of the campaign\n     * @return campaign returning the all details of the campaign in structure\n     */\n\n    function getCampaign(uint256 campaignId) public view returns(Campaign memory){\n        require(campaignCount >= campaignId && campaignId > 0,\"No campaign\");\n        return campaigns[campaignId];\n    }\n\n    /**\n     * @notice get balance\n     * @dev return the balance of the user\n     * @param _address to get the balance, stored against to the address\n     * @return balance returning the balance of the user in uint256 type\n     */\n\n    function getBalance(address _address) external view returns(uint256) {\n        return balance[_address];\n    }\n\n    function ethBalance(address sender) external view returns(uint256) {\n        return sender.balance;\n    }\n\n    function companyDetailsByCampaignId(uint256 campaignId) external view returns (\n        address,\n        string memory, \n        string memory, \n        uint256,\n        bool\n    ){\n            Campaign memory _campaign = getCampaign(campaignId);\n            Company memory _company = getCompany(_campaign.contractAddress);\n            return (\n                _company.contractAddress,\n                _company.tokenName,\n                _company.tokenSymbol,\n                _company.totalSupply,\n                _campaign.status == campainStatus.APPROVED ? true: false\n            );           \n    }\n}",
  "sourcePath": "/home/neosoft/projects/solidity/crowdFunding/crowdfunding-dao-solidity/contracts/CrowdFunding.sol",
  "compiler": {
    "name": "solc",
    "version": "0.8.17+commit.8df45f5f.Emscripten.clang"
  },
  "schemaVersion": "3.4.11",
  "updatedAt": "2023-03-14T12:35:04.235Z",
  "networkType": "ethereum",
  "devdoc": {
    "details": "All function calls are currently implemented without side effects",
    "events": {
      "approved(uint256)": {
        "details": "this event is emitted when a campaign gets approve by the admin",
        "params": {
          "campaignId": "id of the campaign"
        }
      },
      "campaignCreated(uint256,string,string,string,uint256,string,uint256,uint256,string,uint256)": {
        "details": "This event is emitted when a crowdfunding campaign is made.",
        "params": {
          "_companyName": "name of the company going to create the campaign",
          "_description": "detailed description of the campaign",
          "_pricePerToken": "price per token for eg : 10 NEO tokens == 100INR( here 1 neo is equal to 10 INR)",
          "_target": "goal of the crowd funding",
          "_title": "title of the camapaign",
          "_tokenName": "Name of the token launched by the user",
          "_tokenSymbol": "symbol of the token launched by the user",
          "_totalSupply": "total supply",
          "campaignId": "id of the campaign",
          "deadLine": "End date for the campaign to contribute,"
        }
      },
      "contribution(uint256,uint256,address)": {
        "details": "this event will emit when the contribution was maded by the users",
        "params": {
          "campaignId": "Id of the campaign  ",
          "contributer": "address of the contributer",
          "contribution": "amount of the contribution by the user"
        }
      },
      "refunded(uint256,uint256,address)": {
        "details": "This event will emit when refund is made",
        "params": {
          "campaignId": "Id of the campaign  ",
          "contributer": "address of the contributer",
          "contribution": "amount of the contribution by the user"
        }
      },
      "rejected(uint256)": {
        "details": "this event is emitted when a campaign gets reject by the admin",
        "params": {
          "campaignId": "id of the campaign"
        }
      }
    },
    "kind": "dev",
    "methods": {
      "approveCampaign(uint256)": {
        "details": "admin can approve this campaign",
        "params": {
          "campaignId": "campaign is approved by the admin "
        },
        "returns": {
          "_0": "status returning the enum for the referrence of campaign states"
        }
      },
      "constructor": {
        "details": "Constructor function to set the admin",
        "params": {
          "_admin": "admin of this contract"
        }
      },
      "contribute(uint256,uint256)": {
        "details": "getting ERC20 token by giving the fiat currency in msg.value",
        "params": {
          "campaignId": "helping to find and contribute against the campaign by this id ",
          "tokens": "How many token user want's to buy against the fiat currency"
        },
        "returns": {
          "_0": "bool return true if the contribution get success"
        }
      },
      "createCampaign(string,string,string,uint256,string,uint256,uint256,string,uint256)": {
        "details": "It will create a new ERC20 token",
        "params": {
          "_companyName": "name of the comapany",
          "_description": "Description of the campaign",
          "_pricePerToken": "Campaign creator can decide price per token would be fixed cost",
          "_target": "Goal of this campaign ",
          "_title": "Title of the campaign",
          "_tokenName": "Name of the ERC20 Token",
          "_tokenSymbol": "Symbol of the ERC20 token",
          "_totalSupply": "no of token wants to launch by campaign creator*",
          "deadLine": "End date for the campaign"
        }
      },
      "getBalance(address)": {
        "details": "return the balance of the user",
        "params": {
          "_address": "to get the balance, stored against to the address"
        },
        "returns": {
          "_0": "balance returning the balance of the user in uint256 type"
        }
      },
      "getCampaign(uint256)": {
        "details": "get the campaign, that are stored against to the id",
        "params": {
          "campaignId": "we can check and get the details of the campaign"
        },
        "returns": {
          "_0": "campaign returning the all details of the campaign in structure"
        }
      },
      "getCompany(address)": {
        "details": "get the company details",
        "params": {
          "_contractAddress": "get the company details that are stored against to this contract address"
        },
        "returns": {
          "_0": "company returning the structure of the company"
        }
      },
      "getContributionReceipt(uint256,address)": {
        "details": "to get receipt for the contribution by the id and contributor address",
        "params": {
          "campaignId": "helps to find the campaign agains",
          "contributer": "address of the contributer"
        },
        "returns": {
          "_0": "contributionReceipt returning struct of the contribution receipt"
        }
      },
      "refund(uint256,uint256)": {
        "details": "users can call refund if they want their contribution back before deadLine",
        "params": {
          "campaignId": "campaignId helping to find the campaign by this id "
        },
        "returns": {
          "_0": "bool return true if the refund get success"
        }
      },
      "rejectCampaign(uint256)": {
        "details": "admin can reject this campaign",
        "params": {
          "campaignId": "campaign is rejected by the admin by the help of this id "
        },
        "returns": {
          "_0": "status returning the enum for the referrence of campaign states"
        }
      },
      "withDraw(uint256)": {
        "details": "users can call withDraw if campaign deadLine crossed",
        "params": {
          "campaignId": "campaignId helping to find the campaign by this id "
        },
        "returns": {
          "_0": "bool return true if the withDrawal gets success"
        }
      }
    },
    "title": "CrowdFudndingDao",
    "version": 1
  },
  "userdoc": {
    "events": {
      "approved(uint256)": {
        "notice": "approval of the campaign"
      },
      "campaignCreated(uint256,string,string,string,uint256,string,uint256,uint256,string,uint256)": {
        "notice": "event for campaign creation"
      },
      "contribution(uint256,uint256,address)": {
        "notice": "event for contribution"
      },
      "refunded(uint256,uint256,address)": {
        "notice": "refund request against the contribution "
      },
      "rejected(uint256)": {
        "notice": "rejection of the campaign"
      }
    },
    "kind": "user",
    "methods": {
      "approveCampaign(uint256)": {
        "notice": "Approve  campaign"
      },
      "contribute(uint256,uint256)": {
        "notice": "contribute to the campaign"
      },
      "createCampaign(string,string,string,uint256,string,uint256,uint256,string,uint256)": {
        "notice": "To create the new campaign"
      },
      "getBalance(address)": {
        "notice": "get balance"
      },
      "getCampaign(uint256)": {
        "notice": "get campaign"
      },
      "getCompany(address)": {
        "notice": "Get company"
      },
      "getContributionReceipt(uint256,address)": {
        "notice": "contribution receipt"
      },
      "refund(uint256,uint256)": {
        "notice": "handling the refund"
      },
      "rejectCampaign(uint256)": {
        "notice": "Reject campaign"
      },
      "withDraw(uint256)": {
        "notice": "handling the withDraw"
      }
    },
    "notice": "You can use this contract for mint a new ERC20 based INRtoken",
    "version": 1
  }
}