{
  "contractName": "CrowdFunding",
  "abi": [
    {
      "inputs": [
        {
          "internalType": "address",
          "name": "_admin",
          "type": "address"
        }
      ],
      "stateMutability": "nonpayable",
      "type": "constructor"
    },
    {
      "anonymous": false,
      "inputs": [
        {
          "indexed": true,
          "internalType": "uint256",
          "name": "campaignId",
          "type": "uint256"
        }
      ],
      "name": "approved",
      "type": "event"
    },
    {
      "anonymous": false,
      "inputs": [
        {
          "indexed": true,
          "internalType": "uint256",
          "name": "campaignId",
          "type": "uint256"
        },
        {
          "indexed": false,
          "internalType": "string",
          "name": "_companyName",
          "type": "string"
        },
        {
          "indexed": false,
          "internalType": "string",
          "name": "_title",
          "type": "string"
        },
        {
          "indexed": false,
          "internalType": "string",
          "name": "_description",
          "type": "string"
        },
        {
          "indexed": true,
          "internalType": "uint256",
          "name": "_pricePerToken",
          "type": "uint256"
        },
        {
          "indexed": false,
          "internalType": "string",
          "name": "_tokenName",
          "type": "string"
        },
        {
          "indexed": true,
          "internalType": "uint256",
          "name": "deadLine",
          "type": "uint256"
        },
        {
          "indexed": false,
          "internalType": "uint256",
          "name": "_target",
          "type": "uint256"
        },
        {
          "indexed": false,
          "internalType": "string",
          "name": "_tokenSymbol",
          "type": "string"
        },
        {
          "indexed": false,
          "internalType": "uint256",
          "name": "_totalSupply",
          "type": "uint256"
        }
      ],
      "name": "campaignCreated",
      "type": "event"
    },
    {
      "anonymous": false,
      "inputs": [
        {
          "indexed": true,
          "internalType": "uint256",
          "name": "campaignId",
          "type": "uint256"
        },
        {
          "indexed": true,
          "internalType": "uint256",
          "name": "contribution",
          "type": "uint256"
        },
        {
          "indexed": true,
          "internalType": "address",
          "name": "contributer",
          "type": "address"
        }
      ],
      "name": "contribution",
      "type": "event"
    },
    {
      "anonymous": false,
      "inputs": [
        {
          "indexed": true,
          "internalType": "uint256",
          "name": "campaignId",
          "type": "uint256"
        },
        {
          "indexed": true,
          "internalType": "uint256",
          "name": "contribution",
          "type": "uint256"
        },
        {
          "indexed": true,
          "internalType": "address",
          "name": "contributer",
          "type": "address"
        }
      ],
      "name": "refunded",
      "type": "event"
    },
    {
      "anonymous": false,
      "inputs": [
        {
          "indexed": true,
          "internalType": "uint256",
          "name": "campaignId",
          "type": "uint256"
        }
      ],
      "name": "rejected",
      "type": "event"
    },
    {
      "inputs": [],
      "name": "admin",
      "outputs": [
        {
          "internalType": "address",
          "name": "",
          "type": "address"
        }
      ],
      "stateMutability": "view",
      "type": "function",
      "constant": true
    },
    {
      "inputs": [],
      "name": "campaignCount",
      "outputs": [
        {
          "internalType": "uint256",
          "name": "",
          "type": "uint256"
        }
      ],
      "stateMutability": "view",
      "type": "function",
      "constant": true
    },
    {
      "inputs": [
        {
          "internalType": "uint256",
          "name": "",
          "type": "uint256"
        },
        {
          "internalType": "address",
          "name": "",
          "type": "address"
        }
      ],
      "name": "receipts",
      "outputs": [
        {
          "internalType": "address",
          "name": "contributer",
          "type": "address"
        },
        {
          "internalType": "uint256",
          "name": "campaignId",
          "type": "uint256"
        },
        {
          "internalType": "uint256",
          "name": "tokens",
          "type": "uint256"
        },
        {
          "internalType": "uint256",
          "name": "receivedEth",
          "type": "uint256"
        }
      ],
      "stateMutability": "view",
      "type": "function",
      "constant": true
    },
    {
      "inputs": [
        {
          "internalType": "string",
          "name": "_companyName",
          "type": "string"
        },
        {
          "internalType": "string",
          "name": "_title",
          "type": "string"
        },
        {
          "internalType": "string",
          "name": "_description",
          "type": "string"
        },
        {
          "internalType": "uint256",
          "name": "_pricePerToken",
          "type": "uint256"
        },
        {
          "internalType": "string",
          "name": "_tokenName",
          "type": "string"
        },
        {
          "internalType": "uint256",
          "name": "deadLine",
          "type": "uint256"
        },
        {
          "internalType": "uint256",
          "name": "_target",
          "type": "uint256"
        },
        {
          "internalType": "string",
          "name": "_tokenSymbol",
          "type": "string"
        },
        {
          "internalType": "uint256",
          "name": "_totalSupply",
          "type": "uint256"
        }
      ],
      "name": "createCampaign",
      "outputs": [],
      "stateMutability": "nonpayable",
      "type": "function"
    },
    {
      "inputs": [
        {
          "internalType": "uint256",
          "name": "campaignId",
          "type": "uint256"
        }
      ],
      "name": "approveCampaign",
      "outputs": [
        {
          "internalType": "enum CrowdFunding.campainStatus",
          "name": "",
          "type": "uint8"
        }
      ],
      "stateMutability": "nonpayable",
      "type": "function"
    },
    {
      "inputs": [
        {
          "internalType": "uint256",
          "name": "campaignId",
          "type": "uint256"
        }
      ],
      "name": "rejectCampaign",
      "outputs": [
        {
          "internalType": "enum CrowdFunding.campainStatus",
          "name": "",
          "type": "uint8"
        }
      ],
      "stateMutability": "nonpayable",
      "type": "function"
    },
    {
      "inputs": [
        {
          "internalType": "uint256",
          "name": "campaignId",
          "type": "uint256"
        },
        {
          "internalType": "uint256",
          "name": "tokens",
          "type": "uint256"
        }
      ],
      "name": "contribute",
      "outputs": [
        {
          "internalType": "bool",
          "name": "",
          "type": "bool"
        }
      ],
      "stateMutability": "payable",
      "type": "function",
      "payable": true
    },
    {
      "inputs": [
        {
          "internalType": "uint256",
          "name": "campaignId",
          "type": "uint256"
        },
        {
          "internalType": "uint256",
          "name": "_amount",
          "type": "uint256"
        }
      ],
      "name": "refund",
      "outputs": [
        {
          "internalType": "bool",
          "name": "",
          "type": "bool"
        }
      ],
      "stateMutability": "payable",
      "type": "function",
      "payable": true
    },
    {
      "inputs": [
        {
          "internalType": "uint256",
          "name": "campaignId",
          "type": "uint256"
        }
      ],
      "name": "withDraw",
      "outputs": [
        {
          "internalType": "bool",
          "name": "",
          "type": "bool"
        }
      ],
      "stateMutability": "nonpayable",
      "type": "function"
    },
    {
      "inputs": [
        {
          "internalType": "uint256",
          "name": "campaignId",
          "type": "uint256"
        },
        {
          "internalType": "address",
          "name": "contributer",
          "type": "address"
        }
      ],
      "name": "getContributionReceipt",
      "outputs": [
        {
          "components": [
            {
              "internalType": "address",
              "name": "contributer",
              "type": "address"
            },
            {
              "internalType": "uint256",
              "name": "campaignId",
              "type": "uint256"
            },
            {
              "internalType": "uint256",
              "name": "tokens",
              "type": "uint256"
            },
            {
              "internalType": "uint256",
              "name": "receivedEth",
              "type": "uint256"
            }
          ],
          "internalType": "struct CrowdFunding.ContributionReceipt",
          "name": "",
          "type": "tuple"
        }
      ],
      "stateMutability": "view",
      "type": "function",
      "constant": true
    },
    {
      "inputs": [
        {
          "internalType": "address",
          "name": "_contractAddress",
          "type": "address"
        }
      ],
      "name": "getCompany",
      "outputs": [
        {
          "components": [
            {
              "internalType": "string",
              "name": "companyName",
              "type": "string"
            },
            {
              "internalType": "string",
              "name": "tokenSymbol",
              "type": "string"
            },
            {
              "internalType": "string",
              "name": "tokenName",
              "type": "string"
            },
            {
              "internalType": "address",
              "name": "contractAddress",
              "type": "address"
            },
            {
              "internalType": "uint256",
              "name": "totalSupply",
              "type": "uint256"
            }
          ],
          "internalType": "struct CrowdFunding.Company",
          "name": "",
          "type": "tuple"
        }
      ],
      "stateMutability": "view",
      "type": "function",
      "constant": true
    },
    {
      "inputs": [
        {
          "internalType": "uint256",
          "name": "campaignId",
          "type": "uint256"
        }
      ],
      "name": "getCampaign",
      "outputs": [
        {
          "components": [
            {
              "internalType": "address",
              "name": "contractAddress",
              "type": "address"
            },
            {
              "internalType": "string",
              "name": "companyName",
              "type": "string"
            },
            {
              "internalType": "string",
              "name": "tokenName",
              "type": "string"
            },
            {
              "internalType": "string",
              "name": "tokenSymbol",
              "type": "string"
            },
            {
              "internalType": "uint256",
              "name": "campaignId",
              "type": "uint256"
            },
            {
              "internalType": "address",
              "name": "creator",
              "type": "address"
            },
            {
              "internalType": "string",
              "name": "campaignTitle",
              "type": "string"
            },
            {
              "internalType": "string",
              "name": "campaignDescription",
              "type": "string"
            },
            {
              "internalType": "uint256",
              "name": "pricePerToken",
              "type": "uint256"
            },
            {
              "internalType": "uint256",
              "name": "target",
              "type": "uint256"
            },
            {
              "internalType": "uint256",
              "name": "contribution",
              "type": "uint256"
            },
            {
              "internalType": "uint256",
              "name": "heldBalance",
              "type": "uint256"
            },
            {
              "internalType": "uint256",
              "name": "startDate",
              "type": "uint256"
            },
            {
              "internalType": "uint256",
              "name": "endDate",
              "type": "uint256"
            },
            {
              "internalType": "enum CrowdFunding.campainStatus",
              "name": "status",
              "type": "uint8"
            },
            {
              "internalType": "bool",
              "name": "withdrawalStatus",
              "type": "bool"
            }
          ],
          "internalType": "struct CrowdFunding.Campaign",
          "name": "",
          "type": "tuple"
        }
      ],
      "stateMutability": "view",
      "type": "function",
      "constant": true
    },
    {
      "inputs": [
        {
          "internalType": "address",
          "name": "_address",
          "type": "address"
        }
      ],
      "name": "getBalance",
      "outputs": [
        {
          "internalType": "uint256",
          "name": "",
          "type": "uint256"
        }
      ],
      "stateMutability": "view",
      "type": "function",
      "constant": true
    },
    {
      "inputs": [
        {
          "internalType": "address",
          "name": "sender",
          "type": "address"
        }
      ],
      "name": "ethBalance",
      "outputs": [
        {
          "internalType": "uint256",
          "name": "",
          "type": "uint256"
        }
      ],
      "stateMutability": "view",
      "type": "function",
      "constant": true
    },
    {
      "inputs": [
        {
          "internalType": "uint256",
          "name": "campaignId",
          "type": "uint256"
        }
      ],
      "name": "companyDetailsByCampaignId",
      "outputs": [
        {
          "internalType": "address",
          "name": "",
          "type": "address"
        },
        {
          "internalType": "string",
          "name": "",
          "type": "string"
        },
        {
          "internalType": "string",
          "name": "",
          "type": "string"
        },
        {
          "internalType": "uint256",
          "name": "",
          "type": "uint256"
        },
        {
          "internalType": "bool",
          "name": "",
          "type": "bool"
        }
      ],
      "stateMutability": "view",
      "type": "function",
      "constant": true
    }
  ],
  "bytecode": "0x60806040523480156200001157600080fd5b5060405162005fa938038062005fa98339818101604052810190620000379190620000e8565b806000806101000a81548173ffffffffffffffffffffffffffffffffffffffff021916908373ffffffffffffffffffffffffffffffffffffffff160217905550506200011a565b600080fd5b600073ffffffffffffffffffffffffffffffffffffffff82169050919050565b6000620000b08262000083565b9050919050565b620000c281620000a3565b8114620000ce57600080fd5b50565b600081519050620000e281620000b7565b92915050565b6000602082840312156200010157620001006200007e565b5b60006200011184828501620000d1565b91505092915050565b615e7f806200012a6000396000f3fe6080604052600436106200011b576000357c0100000000000000000000000000000000000000000000000000000000900480637274e30d11620000b4578063d8f3790f116200007e578063d8f3790f14620003cd578063ee4e1b531462000411578063f851a4401462000455578063f8b2cb4f1462000485576200011b565b80637274e30d14620002f157806382df069114620003215780638c590917146200034f578063c75bc7941462000385576200011b565b80634bf20ca411620000f65780634bf20ca414620001ef5780635598f8cc14620002335780635af36e3e146200027757806362bc56e614620002ad576200011b565b8063034d09da146200012057806314174f3314620001645780634178b24914620001a8575b600080fd5b3480156200012d57600080fd5b506200014c6004803603810190620001469190620028c7565b620004c9565b6040516200015b919062002979565b60405180910390f35b3480156200017157600080fd5b506200019060048036038101906200018a9190620028c7565b620007d3565b6040516200019f9190620029b3565b60405180910390f35b348015620001b557600080fd5b50620001d46004803603810190620001ce919062002a35565b620009a6565b604051620001e6949392919062002a9e565b60405180910390f35b348015620001fc57600080fd5b506200021b600480360381019062000215919062002a35565b62000a03565b6040516200022a919062002b6a565b60405180910390f35b3480156200024057600080fd5b506200025f6004803603810190620002599190620028c7565b62000ae4565b6040516200026e919062002dd7565b60405180910390f35b6200029560048036038101906200028f919062002dfb565b62000fbb565b604051620002a49190620029b3565b60405180910390f35b348015620002ba57600080fd5b50620002d96004803603810190620002d3919062002e42565b62001474565b604051620002e8919062002f02565b60405180910390f35b348015620002fe57600080fd5b5062000309620016fd565b60405162000318919062002f26565b60405180910390f35b3480156200032e57600080fd5b506200034d600480360381019062000347919062003094565b62001703565b005b6200036d600480360381019062000367919062002dfb565b62001cdf565b6040516200037c9190620029b3565b60405180910390f35b3480156200039257600080fd5b50620003b16004803603810190620003ab9190620028c7565b620022a2565b604051620003c495949392919062003260565b60405180910390f35b348015620003da57600080fd5b50620003f96004803603810190620003f3919062002e42565b6200238f565b60405162000408919062002f26565b60405180910390f35b3480156200041e57600080fd5b506200043d6004803603810190620004379190620028c7565b620023b0565b6040516200044c919062002979565b60405180910390f35b3480156200046257600080fd5b506200046d620026ba565b6040516200047c9190620032cb565b60405180910390f35b3480156200049257600080fd5b50620004b16004803603810190620004ab919062002e42565b620026de565b604051620004c0919062002f26565b60405180910390f35b60003373ffffffffffffffffffffffffffffffffffffffff1660008054906101000a900473ffffffffffffffffffffffffffffffffffffffff1673ffffffffffffffffffffffffffffffffffffffff16146200055c576040517f08c379a0000000000000000000000000000000000000000000000000000000008152600401620005539062003338565b60405180910390fd5b818060025410158015620005705750600081115b620005b2576040517f08c379a0000000000000000000000000000000000000000000000000000000008152600401620005a990620033aa565b60405180910390fd5b824260036000838152602001908152602001600020600d015410156200060f576040517f08c379a000000000000000000000000000000000000000000000000000000000815260040162000606906200341c565b60405180910390fd5b8360006002811115620006275762000626620028f9565b5b60036000838152602001908152602001600020600e0160009054906101000a900460ff16600281111562000660576200065f620028f9565b5b03620006a3576040517f08c379a00000000000000000000000000000000000000000000000000000000081526004016200069a906200348e565b60405180910390fd5b60016002811115620006ba57620006b9620028f9565b5b60036000838152602001908152602001600020600e0160009054906101000a900460ff166002811115620006f357620006f2620028f9565b5b0362000736576040517f08c379a00000000000000000000000000000000000000000000000000000000081526004016200072d9062003500565b60405180910390fd5b600160036000878152602001908152602001600020600e0160006101000a81548160ff02191690836002811115620007735762000772620028f9565b5b0217905550847f8c9878cc57a61b734d09368704b49894d5fb6b8f68f9cb352054ebe5b15a49e860405160405180910390a260036000868152602001908152602001600020600e0160009054906101000a900460ff169350505050919050565b6000818060025410158015620007e95750600081115b6200082b576040517f08c379a00000000000000000000000000000000000000000000000000000000081526004016200082290620033aa565b60405180910390fd5b600060036000858152602001908152602001600020905080600d01544210156200088c576040517f08c379a0000000000000000000000000000000000000000000000000000000008152600401620008839062003572565b60405180910390fd5b3373ffffffffffffffffffffffffffffffffffffffff168160050160009054906101000a900473ffffffffffffffffffffffffffffffffffffffff1673ffffffffffffffffffffffffffffffffffffffff161462000921576040517f08c379a00000000000000000000000000000000000000000000000000000000081526004016200091890620035e4565b60405180910390fd5b3373ffffffffffffffffffffffffffffffffffffffff166108fc826008015483600a015462000951919062003635565b9081150290604051600060405180830381858888f193505050501580156200097d573d6000803e3d6000fd5b50600181600e0160016101000a81548160ff021916908315150217905550600192505050919050565b6005602052816000526040600020602052806000526040600020600091509150508060000160009054906101000a900473ffffffffffffffffffffffffffffffffffffffff16908060010154908060020154908060030154905084565b62000a0d62002727565b6005600084815260200190815260200160002060008373ffffffffffffffffffffffffffffffffffffffff1673ffffffffffffffffffffffffffffffffffffffff1681526020019081526020016000206040518060800160405290816000820160009054906101000a900473ffffffffffffffffffffffffffffffffffffffff1673ffffffffffffffffffffffffffffffffffffffff1673ffffffffffffffffffffffffffffffffffffffff1681526020016001820154815260200160028201548152602001600382015481525050905092915050565b62000aee62002765565b81806002541015801562000b025750600081115b62000b44576040517f08c379a000000000000000000000000000000000000000000000000000000000815260040162000b3b90620033aa565b60405180910390fd5b60036000848152602001908152602001600020604051806102000160405290816000820160009054906101000a900473ffffffffffffffffffffffffffffffffffffffff1673ffffffffffffffffffffffffffffffffffffffff1673ffffffffffffffffffffffffffffffffffffffff16815260200160018201805462000bcb90620036af565b80601f016020809104026020016040519081016040528092919081815260200182805462000bf990620036af565b801562000c4a5780601f1062000c1e5761010080835404028352916020019162000c4a565b820191906000526020600020905b81548152906001019060200180831162000c2c57829003601f168201915b5050505050815260200160028201805462000c6590620036af565b80601f016020809104026020016040519081016040528092919081815260200182805462000c9390620036af565b801562000ce45780601f1062000cb85761010080835404028352916020019162000ce4565b820191906000526020600020905b81548152906001019060200180831162000cc657829003601f168201915b5050505050815260200160038201805462000cff90620036af565b80601f016020809104026020016040519081016040528092919081815260200182805462000d2d90620036af565b801562000d7e5780601f1062000d525761010080835404028352916020019162000d7e565b820191906000526020600020905b81548152906001019060200180831162000d6057829003601f168201915b50505050508152602001600482015481526020016005820160009054906101000a900473ffffffffffffffffffffffffffffffffffffffff1673ffffffffffffffffffffffffffffffffffffffff1673ffffffffffffffffffffffffffffffffffffffff16815260200160068201805462000df990620036af565b80601f016020809104026020016040519081016040528092919081815260200182805462000e2790620036af565b801562000e785780601f1062000e4c5761010080835404028352916020019162000e78565b820191906000526020600020905b81548152906001019060200180831162000e5a57829003601f168201915b5050505050815260200160078201805462000e9390620036af565b80601f016020809104026020016040519081016040528092919081815260200182805462000ec190620036af565b801562000f125780601f1062000ee65761010080835404028352916020019162000f12565b820191906000526020600020905b81548152906001019060200180831162000ef457829003601f168201915b505050505081526020016008820154815260200160098201548152602001600a8201548152602001600b8201548152602001600c8201548152602001600d8201548152602001600e820160009054906101000a900460ff16600281111562000f7f5762000f7e620028f9565b5b600281111562000f945762000f93620028f9565b5b8152602001600e820160019054906101000a900460ff161515151581525050915050919050565b600082806002541015801562000fd15750600081115b62001013576040517f08c379a00000000000000000000000000000000000000000000000000000000081526004016200100a90620033aa565b60405180910390fd5b834260036000838152602001908152602001600020600d0154101562001070576040517f08c379a000000000000000000000000000000000000000000000000000000000815260040162001067906200341c565b60405180910390fd5b600060036000878152602001908152602001600020905060006005600088815260200190815260200160002060003373ffffffffffffffffffffffffffffffffffffffff1673ffffffffffffffffffffffffffffffffffffffff1681526020019081526020016000209050858160020154101562001125576040517f08c379a00000000000000000000000000000000000000000000000000000000081526004016200111c9062003734565b60405180910390fd5b80600301543073ffffffffffffffffffffffffffffffffffffffff1631101562001186576040517f08c379a00000000000000000000000000000000000000000000000000000000081526004016200117d90620037a6565b60405180910390fd5b8160000160009054906101000a900473ffffffffffffffffffffffffffffffffffffffff1673ffffffffffffffffffffffffffffffffffffffff1663beabacc8338460050160009054906101000a900473ffffffffffffffffffffffffffffffffffffffff16670de0b6b3a76400008a62001202919062003635565b6040518463ffffffff167c01000000000000000000000000000000000000000000000000000000000281526004016200123e93929190620037c8565b600060405180830381600087803b1580156200125957600080fd5b505af11580156200126e573d6000803e3d6000fd5b505050503373ffffffffffffffffffffffffffffffffffffffff166108fc8360080154886200129e919062003635565b9081150290604051600060405180830381858888f19350505050158015620012ca573d6000803e3d6000fd5b5085816002016000828254620012e1919062003805565b925050819055508582600a016000828254620012fe919062003805565b9250508190555081600801548662001317919062003635565b8160030160008282546200132c919062003805565b9250508190555081600a015482600a01819055508582600b01600082825462001356919062003840565b9250508190555081600b0154600660008460050160009054906101000a900473ffffffffffffffffffffffffffffffffffffffff1673ffffffffffffffffffffffffffffffffffffffff1673ffffffffffffffffffffffffffffffffffffffff1681526020019081526020016000208190555085600660003373ffffffffffffffffffffffffffffffffffffffff1673ffffffffffffffffffffffffffffffffffffffff16815260200190815260200160002060008282546200141a919062003805565b925050819055503373ffffffffffffffffffffffffffffffffffffffff1686887f05d2f1712ee9236ad359917514636b645f2a01960eefea50967f66d9cb443cde60405160405180910390a4600194505050505092915050565b6200147e62002825565b600460008373ffffffffffffffffffffffffffffffffffffffff1673ffffffffffffffffffffffffffffffffffffffff1681526020019081526020016000206040518060a0016040529081600082018054620014da90620036af565b80601f01602080910402602001604051908101604052809291908181526020018280546200150890620036af565b8015620015595780601f106200152d5761010080835404028352916020019162001559565b820191906000526020600020905b8154815290600101906020018083116200153b57829003601f168201915b505050505081526020016001820180546200157490620036af565b80601f0160208091040260200160405190810160405280929190818152602001828054620015a290620036af565b8015620015f35780601f10620015c757610100808354040283529160200191620015f3565b820191906000526020600020905b815481529060010190602001808311620015d557829003601f168201915b505050505081526020016002820180546200160e90620036af565b80601f01602080910402602001604051908101604052809291908181526020018280546200163c90620036af565b80156200168d5780601f1062001661576101008083540402835291602001916200168d565b820191906000526020600020905b8154815290600101906020018083116200166f57829003601f168201915b505050505081526020016003820160009054906101000a900473ffffffffffffffffffffffffffffffffffffffff1673ffffffffffffffffffffffffffffffffffffffff1673ffffffffffffffffffffffffffffffffffffffff1681526020016004820154815250509050919050565b60025481565b60008054906101000a900473ffffffffffffffffffffffffffffffffffffffff1673ffffffffffffffffffffffffffffffffffffffff163373ffffffffffffffffffffffffffffffffffffffff160362001794576040517f08c379a00000000000000000000000000000000000000000000000000000000081526004016200178b90620038cb565b60405180910390fd5b80831115620017da576040517f08c379a0000000000000000000000000000000000000000000000000000000008152600401620017d1906200393d565b60405180910390fd5b8342106200181f576040517f08c379a00000000000000000000000000000000000000000000000000000000081526004016200181690620039af565b60405180910390fd5b60008583833360405162001833906200286a565b620018429493929190620039d1565b604051809103906000f0801580156200185f573d6000803e3d6000fd5b50905080600160006101000a81548173ffffffffffffffffffffffffffffffffffffffff021916908373ffffffffffffffffffffffffffffffffffffffff16021790555060026000815480929190620018b89062003a2c565b91905055506040518061020001604052808273ffffffffffffffffffffffffffffffffffffffff1681526020018b815260200187815260200184815260200160025481526020013373ffffffffffffffffffffffffffffffffffffffff1681526020018a815260200189815260200188815260200185815260200160008152602001838152602001428152602001868152602001600280811115620019625762001961620028f9565b5b81526020016000151581525060036000600254815260200190815260200160002060008201518160000160006101000a81548173ffffffffffffffffffffffffffffffffffffffff021916908373ffffffffffffffffffffffffffffffffffffffff1602179055506020820151816001019081620019e1919062003c51565b506040820151816002019081620019f9919062003c51565b50606082015181600301908162001a11919062003c51565b506080820151816004015560a08201518160050160006101000a81548173ffffffffffffffffffffffffffffffffffffffff021916908373ffffffffffffffffffffffffffffffffffffffff16021790555060c082015181600601908162001a7a919062003c51565b5060e082015181600701908162001a92919062003c51565b506101008201518160080155610120820151816009015561014082015181600a015561016082015181600b015561018082015181600c01556101a082015181600d01556101c082015181600e0160006101000a81548160ff0219169083600281111562001b045762001b03620028f9565b5b02179055506101e082015181600e0160016101000a81548160ff02191690831515021790555090505081600660003373ffffffffffffffffffffffffffffffffffffffff1673ffffffffffffffffffffffffffffffffffffffff168152602001908152602001600020819055506040518060a001604052808b81526020018481526020018781526020018273ffffffffffffffffffffffffffffffffffffffff16815260200183815250600460008373ffffffffffffffffffffffffffffffffffffffff1673ffffffffffffffffffffffffffffffffffffffff168152602001908152602001600020600082015181600001908162001c04919062003c51565b50602082015181600101908162001c1c919062003c51565b50604082015181600201908162001c34919062003c51565b5060608201518160030160006101000a81548173ffffffffffffffffffffffffffffffffffffffff021916908373ffffffffffffffffffffffffffffffffffffffff1602179055506080820151816004015590505084876002547f2ae28cd24d500e514d5bccc406e8db4194cdbfceec1128ae2246a45b8ccb24408d8d8d8c8b8b8b60405162001ccb979695949392919062003d38565b60405180910390a450505050505050505050565b600082806002541015801562001cf55750600081115b62001d37576040517f08c379a000000000000000000000000000000000000000000000000000000000815260040162001d2e90620033aa565b60405180910390fd5b834260036000838152602001908152602001600020600d0154101562001d94576040517f08c379a000000000000000000000000000000000000000000000000000000000815260040162001d8b906200341c565b60405180910390fd5b600060036000878152602001908152602001600020905060006005600088815260200190815260200160002060003373ffffffffffffffffffffffffffffffffffffffff1673ffffffffffffffffffffffffffffffffffffffff168152602001908152602001600020905085826008015462001e11919062003635565b341462001e55576040517f08c379a000000000000000000000000000000000000000000000000000000000815260040162001e4c9062003734565b60405180910390fd5b6000600281111562001e6c5762001e6b620028f9565b5b82600e0160009054906101000a900460ff16600281111562001e935762001e92620028f9565b5b1462001ed6576040517f08c379a000000000000000000000000000000000000000000000000000000000815260040162001ecd9062003e28565b60405180910390fd5b600082600a01540362001f625760008611801562001f09575081600901548683600a015462001f06919062003840565b11155b801562001f1a575081600901548611155b62001f5c576040517f08c379a000000000000000000000000000000000000000000000000000000000815260040162001f539062003e9a565b60405180910390fd5b62001fcb565b60008611801562001f88575081600901548683600a015462001f85919062003840565b11155b62001fca576040517f08c379a000000000000000000000000000000000000000000000000000000000815260040162001fc19062003f0c565b60405180910390fd5b5b8582600a01600082825462001fe1919062003840565b925050819055508160000160009054906101000a900473ffffffffffffffffffffffffffffffffffffffff1673ffffffffffffffffffffffffffffffffffffffff1663beabacc88360050160009054906101000a900473ffffffffffffffffffffffffffffffffffffffff1633670de0b6b3a76400008a62002064919062003635565b6040518463ffffffff167c0100000000000000000000000000000000000000000000000000000000028152600401620020a093929190620037c8565b600060405180830381600087803b158015620020bb57600080fd5b505af1158015620020d0573d6000803e3d6000fd5b505050508582600b016000828254620020ea919062003805565b9250508190555085600660008460050160009054906101000a900473ffffffffffffffffffffffffffffffffffffffff1673ffffffffffffffffffffffffffffffffffffffff1673ffffffffffffffffffffffffffffffffffffffff168152602001908152602001600020600082825462002166919062003805565b9250508190555085600660003373ffffffffffffffffffffffffffffffffffffffff1673ffffffffffffffffffffffffffffffffffffffff1681526020019081526020016000206000828254620021be919062003840565b9250508190555085816002016000828254620021db919062003840565b9250508190555034816003016000828254620021f8919062003840565b92505081905550338160000160006101000a81548173ffffffffffffffffffffffffffffffffffffffff021916908373ffffffffffffffffffffffffffffffffffffffff1602179055508681600101819055503373ffffffffffffffffffffffffffffffffffffffff1682600a0154887fc84cdef8ffed2c03b52b412accc6d5b91af9eb50c8480fdfddd078846470b2d060405160405180910390a4600194505050505092915050565b6000606080600080858060025410158015620022be5750600081115b62002300576040517f08c379a0000000000000000000000000000000000000000000000000000000008152600401620022f790620033aa565b60405180910390fd5b60006200230d8862000ae4565b9050600062002320826000015162001474565b90508060600151816040015182602001518360800151600060028111156200234d576200234c620028f9565b5b866101c001516002811115620023685762002367620028f9565b5b146200237657600062002379565b60015b9750975097509750975050505091939590929450565b60008173ffffffffffffffffffffffffffffffffffffffff16319050919050565b60003373ffffffffffffffffffffffffffffffffffffffff1660008054906101000a900473ffffffffffffffffffffffffffffffffffffffff1673ffffffffffffffffffffffffffffffffffffffff161462002443576040517f08c379a00000000000000000000000000000000000000000000000000000000081526004016200243a9062003338565b60405180910390fd5b818060025410158015620024575750600081115b62002499576040517f08c379a00000000000000000000000000000000000000000000000000000000081526004016200249090620033aa565b60405180910390fd5b824260036000838152602001908152602001600020600d01541015620024f6576040517f08c379a0000000000000000000000000000000000000000000000000000000008152600401620024ed906200341c565b60405180910390fd5b83600060028111156200250e576200250d620028f9565b5b60036000838152602001908152602001600020600e0160009054906101000a900460ff166002811115620025475762002546620028f9565b5b036200258a576040517f08c379a000000000000000000000000000000000000000000000000000000000815260040162002581906200348e565b60405180910390fd5b60016002811115620025a157620025a0620028f9565b5b60036000838152602001908152602001600020600e0160009054906101000a900460ff166002811115620025da57620025d9620028f9565b5b036200261d576040517f08c379a0000000000000000000000000000000000000000000000000000000008152600401620026149062003500565b60405180910390fd5b600060036000878152602001908152602001600020600e0160006101000a81548160ff021916908360028111156200265a5762002659620028f9565b5b0217905550847f7d4061e68fab364906497bb959d95ad3f052a3978fed6ce9942a2b8f737aae5460405160405180910390a260036000868152602001908152602001600020600e0160009054906101000a900460ff169350505050919050565b60008054906101000a900473ffffffffffffffffffffffffffffffffffffffff1681565b6000600660008373ffffffffffffffffffffffffffffffffffffffff1673ffffffffffffffffffffffffffffffffffffffff168152602001908152602001600020549050919050565b6040518060800160405280600073ffffffffffffffffffffffffffffffffffffffff1681526020016000815260200160008152602001600081525090565b604051806102000160405280600073ffffffffffffffffffffffffffffffffffffffff16815260200160608152602001606081526020016060815260200160008152602001600073ffffffffffffffffffffffffffffffffffffffff168152602001606081526020016060815260200160008152602001600081526020016000815260200160008152602001600081526020016000815260200160006002811115620028165762002815620028f9565b5b81526020016000151581525090565b6040518060a00160405280606081526020016060815260200160608152602001600073ffffffffffffffffffffffffffffffffffffffff168152602001600081525090565b611f1b8062003f2f83390190565b6000604051905090565b600080fd5b600080fd5b6000819050919050565b620028a1816200288c565b8114620028ad57600080fd5b50565b600081359050620028c18162002896565b92915050565b600060208284031215620028e057620028df62002882565b5b6000620028f084828501620028b0565b91505092915050565b7f4e487b7100000000000000000000000000000000000000000000000000000000600052602160045260246000fd5b600381106200293c576200293b620028f9565b5b50565b60008190506200294f8262002928565b919050565b600062002961826200293f565b9050919050565b620029738162002954565b82525050565b600060208201905062002990600083018462002968565b92915050565b60008115159050919050565b620029ad8162002996565b82525050565b6000602082019050620029ca6000830184620029a2565b92915050565b600073ffffffffffffffffffffffffffffffffffffffff82169050919050565b6000620029fd82620029d0565b9050919050565b62002a0f81620029f0565b811462002a1b57600080fd5b50565b60008135905062002a2f8162002a04565b92915050565b6000806040838503121562002a4f5762002a4e62002882565b5b600062002a5f85828601620028b0565b925050602062002a728582860162002a1e565b9150509250929050565b62002a8781620029f0565b82525050565b62002a98816200288c565b82525050565b600060808201905062002ab5600083018762002a7c565b62002ac4602083018662002a8d565b62002ad3604083018562002a8d565b62002ae2606083018462002a8d565b95945050505050565b62002af681620029f0565b82525050565b62002b07816200288c565b82525050565b60808201600082015162002b25600085018262002aeb565b50602082015162002b3a602085018262002afc565b50604082015162002b4f604085018262002afc565b50606082015162002b64606085018262002afc565b50505050565b600060808201905062002b81600083018462002b0d565b92915050565b600081519050919050565b600082825260208201905092915050565b60005b8381101562002bc357808201518184015260208101905062002ba6565b60008484015250505050565b6000601f19601f8301169050919050565b600062002bed8262002b87565b62002bf9818562002b92565b935062002c0b81856020860162002ba3565b62002c168162002bcf565b840191505092915050565b62002c2c8162002954565b82525050565b62002c3d8162002996565b82525050565b60006102008301600083015162002c5e600086018262002aeb565b506020830151848203602086015262002c78828262002be0565b9150506040830151848203604086015262002c94828262002be0565b9150506060830151848203606086015262002cb0828262002be0565b915050608083015162002cc7608086018262002afc565b5060a083015162002cdc60a086018262002aeb565b5060c083015184820360c086015262002cf6828262002be0565b91505060e083015184820360e086015262002d12828262002be0565b91505061010083015162002d2b61010086018262002afc565b5061012083015162002d4261012086018262002afc565b5061014083015162002d5961014086018262002afc565b5061016083015162002d7061016086018262002afc565b5061018083015162002d8761018086018262002afc565b506101a083015162002d9e6101a086018262002afc565b506101c083015162002db56101c086018262002c21565b506101e083015162002dcc6101e086018262002c32565b508091505092915050565b6000602082019050818103600083015262002df3818462002c43565b905092915050565b6000806040838503121562002e155762002e1462002882565b5b600062002e2585828601620028b0565b925050602062002e3885828601620028b0565b9150509250929050565b60006020828403121562002e5b5762002e5a62002882565b5b600062002e6b8482850162002a1e565b91505092915050565b600060a083016000830151848203600086015262002e93828262002be0565b9150506020830151848203602086015262002eaf828262002be0565b9150506040830151848203604086015262002ecb828262002be0565b915050606083015162002ee2606086018262002aeb565b50608083015162002ef7608086018262002afc565b508091505092915050565b6000602082019050818103600083015262002f1e818462002e74565b905092915050565b600060208201905062002f3d600083018462002a8d565b92915050565b600080fd5b600080fd5b7f4e487b7100000000000000000000000000000000000000000000000000000000600052604160045260246000fd5b62002f878262002bcf565b810181811067ffffffffffffffff8211171562002fa95762002fa862002f4d565b5b80604052505050565b600062002fbe62002878565b905062002fcc828262002f7c565b919050565b600067ffffffffffffffff82111562002fef5762002fee62002f4d565b5b62002ffa8262002bcf565b9050602081019050919050565b82818337600083830152505050565b60006200302d620030278462002fd1565b62002fb2565b9050828152602081018484840111156200304c576200304b62002f48565b5b6200305984828562003007565b509392505050565b600082601f83011262003079576200307862002f43565b5b81356200308b84826020860162003016565b91505092915050565b60008060008060008060008060006101208a8c031215620030ba57620030b962002882565b5b60008a013567ffffffffffffffff811115620030db57620030da62002887565b5b620030e98c828d0162003061565b99505060208a013567ffffffffffffffff8111156200310d576200310c62002887565b5b6200311b8c828d0162003061565b98505060408a013567ffffffffffffffff8111156200313f576200313e62002887565b5b6200314d8c828d0162003061565b9750506060620031608c828d01620028b0565b96505060808a013567ffffffffffffffff81111562003184576200318362002887565b5b620031928c828d0162003061565b95505060a0620031a58c828d01620028b0565b94505060c0620031b88c828d01620028b0565b93505060e08a013567ffffffffffffffff811115620031dc57620031db62002887565b5b620031ea8c828d0162003061565b925050610100620031fe8c828d01620028b0565b9150509295985092959850929598565b600082825260208201905092915050565b60006200322c8262002b87565b6200323881856200320e565b93506200324a81856020860162002ba3565b620032558162002bcf565b840191505092915050565b600060a08201905062003277600083018862002a7c565b81810360208301526200328b81876200321f565b90508181036040830152620032a181866200321f565b9050620032b2606083018562002a8d565b620032c16080830184620029a2565b9695505050505050565b6000602082019050620032e2600083018462002a7c565b92915050565b7f4f6e6c792061646d696e00000000000000000000000000000000000000000000600082015250565b600062003320600a836200320e565b91506200332d82620032e8565b602082019050919050565b60006020820190508181036000830152620033538162003311565b9050919050565b7f4e6f2063616d706169676e000000000000000000000000000000000000000000600082015250565b600062003392600b836200320e565b91506200339f826200335a565b602082019050919050565b60006020820190508181036000830152620033c58162003383565b9050919050565b7f446561644c696e65207061737365640000000000000000000000000000000000600082015250565b600062003404600f836200320e565b91506200341182620033cc565b602082019050919050565b600060208201905081810360008301526200343781620033f5565b9050919050565b7f416c726561647920617070726f76656400000000000000000000000000000000600082015250565b6000620034766010836200320e565b915062003483826200343e565b602082019050919050565b60006020820190508181036000830152620034a98162003467565b9050919050565b7f416c72656164792072656a656374656400000000000000000000000000000000600082015250565b6000620034e86010836200320e565b9150620034f582620034b0565b602082019050919050565b600060208201905081810360008301526200351b81620034d9565b9050919050565b7f446561644c696e65206e6f742070617373656400000000000000000000000000600082015250565b60006200355a6013836200320e565b9150620035678262003522565b602082019050919050565b600060208201905081810360008301526200358d816200354b565b9050919050565b7f4e6f7420612063726561746f7200000000000000000000000000000000000000600082015250565b6000620035cc600d836200320e565b9150620035d98262003594565b602082019050919050565b60006020820190508181036000830152620035ff81620035bd565b9050919050565b7f4e487b7100000000000000000000000000000000000000000000000000000000600052601160045260246000fd5b600062003642826200288c565b91506200364f836200288c565b92508282026200365f816200288c565b9150828204841483151762003679576200367862003606565b5b5092915050565b7f4e487b7100000000000000000000000000000000000000000000000000000000600052602260045260246000fd5b60006002820490506001821680620036c857607f821691505b602082108103620036de57620036dd62003680565b5b50919050565b7f496e636f727265637420616d6f756e7400000000000000000000000000000000600082015250565b60006200371c6010836200320e565b91506200372982620036e4565b602082019050919050565b600060208201905081810360008301526200374f816200370d565b9050919050565b7f636f6e7472616374206c6f772062616c616e6365000000000000000000000000600082015250565b60006200378e6014836200320e565b91506200379b8262003756565b602082019050919050565b60006020820190508181036000830152620037c1816200377f565b9050919050565b6000606082019050620037df600083018662002a7c565b620037ee602083018562002a7c565b620037fd604083018462002a8d565b949350505050565b600062003812826200288c565b91506200381f836200288c565b92508282039050818111156200383a576200383962003606565b5b92915050565b60006200384d826200288c565b91506200385a836200288c565b925082820190508082111562003875576200387462003606565b5b92915050565b7f41646d696e2063616e2774000000000000000000000000000000000000000000600082015250565b6000620038b3600b836200320e565b9150620038c0826200387b565b602082019050919050565b60006020820190508181036000830152620038e681620038a4565b9050919050565b7f696e76616c696420746172676574000000000000000000000000000000000000600082015250565b600062003925600e836200320e565b91506200393282620038ed565b602082019050919050565b60006020820190508181036000830152620039588162003916565b9050919050565b7f4e6f7420616c6c6f77656420666f72206f6c6465722064617465730000000000600082015250565b600062003997601b836200320e565b9150620039a4826200395f565b602082019050919050565b60006020820190508181036000830152620039ca8162003988565b9050919050565b60006080820190508181036000830152620039ed81876200321f565b9050818103602083015262003a0381866200321f565b905062003a14604083018562002a8d565b62003a23606083018462002a7c565b95945050505050565b600062003a39826200288c565b91507fffffffffffffffffffffffffffffffffffffffffffffffffffffffffffffffff820362003a6e5762003a6d62003606565b5b600182019050919050565b60008190508160005260206000209050919050565b60006020601f8301049050919050565b60008160020a8302905092915050565b60006008830262003ae07fffffffffffffffffffffffffffffffffffffffffffffffffffffffffffffffff8262003a9e565b62003aec868362003a9e565b95508019841693508086168417925050509392505050565b6000819050919050565b600062003b2f62003b2962003b23846200288c565b62003b04565b6200288c565b9050919050565b6000819050919050565b62003b4b8362003b0e565b62003b6362003b5a8262003b36565b84845462003aae565b825550505050565b600090565b62003b7a62003b6b565b62003b8781848462003b40565b505050565b5b8181101562003baf5762003ba360008262003b70565b60018101905062003b8d565b5050565b601f82111562003bfe5762003bc88162003a79565b62003bd38462003a8e565b8101602085101562003be3578190505b62003bfb62003bf28562003a8e565b83018262003b8c565b50505b505050565b60008160020a8304905092915050565b600062003c266000198460080262003c03565b1980831691505092915050565b600062003c41838362003c13565b9150826002028217905092915050565b62003c5c8262002b87565b67ffffffffffffffff81111562003c785762003c7762002f4d565b5b62003c848254620036af565b62003c9182828562003bb3565b600060209050601f83116001811462003cc9576000841562003cb4578287015190505b62003cc0858262003c33565b86555062003d30565b601f19841662003cd98662003a79565b60005b8281101562003d035784890151825560018201915060208501945060208101905062003cdc565b8683101562003d23578489015162003d1f601f89168262003c13565b8355505b6001600288020188555050505b505050505050565b600060e082019050818103600083015262003d54818a6200321f565b9050818103602083015262003d6a81896200321f565b9050818103604083015262003d8081886200321f565b9050818103606083015262003d9681876200321f565b905062003da7608083018662002a8d565b81810360a083015262003dbb81856200321f565b905062003dcc60c083018462002a8d565b98975050505050505050565b7f4e6f7420617070726f7665640000000000000000000000000000000000000000600082015250565b600062003e10600c836200320e565b915062003e1d8262003dd8565b602082019050919050565b6000602082019050818103600083015262003e438162003e01565b9050919050565b7f496e76616c69647320636f6e747269627574696f6e2e00000000000000000000600082015250565b600062003e826016836200320e565b915062003e8f8262003e4a565b602082019050919050565b6000602082019050818103600083015262003eb58162003e73565b9050919050565b7f496e76616c696420636f6e747269627574696f6e732e00000000000000000000600082015250565b600062003ef46016836200320e565b915062003f018262003ebc565b602082019050919050565b6000602082019050818103600083015262003f278162003ee5565b905091905056fe60806040523480156200001157600080fd5b5060405162001f1b38038062001f1b8339818101604052810190620000379190620004c6565b838381600390816200004a9190620007bd565b5080600490816200005c9190620007bd565b50505062000096816012600a62000074919062000a27565b8462000081919062000a78565b62000100640100000000026401000000009004565b620000af6200027f640100000000026401000000009004565b60068190555033600760006101000a81548173ffffffffffffffffffffffffffffffffffffffff021916908373ffffffffffffffffffffffffffffffffffffffff1602179055505050505062000baf565b600073ffffffffffffffffffffffffffffffffffffffff168273ffffffffffffffffffffffffffffffffffffffff160362000172576040517f08c379a0000000000000000000000000000000000000000000000000000000008152600401620001699062000b24565b60405180910390fd5b6200018f6000838362000289640100000000026401000000009004565b8060026000828254620001a3919062000b46565b92505081905550806000808473ffffffffffffffffffffffffffffffffffffffff1673ffffffffffffffffffffffffffffffffffffffff168152602001908152602001600020600082825401925050819055508173ffffffffffffffffffffffffffffffffffffffff16600073ffffffffffffffffffffffffffffffffffffffff167fddf252ad1be2c89b69c2b068fc378daa952ba7f163c4a11628f55a4df523b3ef8360405162000256919062000b92565b60405180910390a36200027b600083836200028e640100000000026401000000009004565b5050565b6000600254905090565b505050565b505050565b6000604051905090565b600080fd5b600080fd5b600080fd5b600080fd5b6000601f19601f8301169050919050565b7f4e487b7100000000000000000000000000000000000000000000000000000000600052604160045260246000fd5b620002fc82620002b1565b810181811067ffffffffffffffff821117156200031e576200031d620002c2565b5b80604052505050565b60006200033362000293565b9050620003418282620002f1565b919050565b600067ffffffffffffffff821115620003645762000363620002c2565b5b6200036f82620002b1565b9050602081019050919050565b60005b838110156200039c5780820151818401526020810190506200037f565b60008484015250505050565b6000620003bf620003b98462000346565b62000327565b905082815260208101848484011115620003de57620003dd620002ac565b5b620003eb8482856200037c565b509392505050565b600082601f8301126200040b576200040a620002a7565b5b81516200041d848260208601620003a8565b91505092915050565b6000819050919050565b6200043b8162000426565b81146200044757600080fd5b50565b6000815190506200045b8162000430565b92915050565b600073ffffffffffffffffffffffffffffffffffffffff82169050919050565b60006200048e8262000461565b9050919050565b620004a08162000481565b8114620004ac57600080fd5b50565b600081519050620004c08162000495565b92915050565b60008060008060808587031215620004e357620004e26200029d565b5b600085015167ffffffffffffffff811115620005045762000503620002a2565b5b6200051287828801620003f3565b945050602085015167ffffffffffffffff811115620005365762000535620002a2565b5b6200054487828801620003f3565b935050604062000557878288016200044a565b92505060606200056a87828801620004af565b91505092959194509250565b600081519050919050565b7f4e487b7100000000000000000000000000000000000000000000000000000000600052602260045260246000fd5b60006002820490506001821680620005c957607f821691505b602082108103620005df57620005de62000581565b5b50919050565b60008190508160005260206000209050919050565b60006020601f8301049050919050565b60008160020a8302905092915050565b6000600883026200064c7fffffffffffffffffffffffffffffffffffffffffffffffffffffffffffffffff826200060a565b6200065886836200060a565b95508019841693508086168417925050509392505050565b6000819050919050565b60006200069b620006956200068f8462000426565b62000670565b62000426565b9050919050565b6000819050919050565b620006b7836200067a565b620006cf620006c682620006a2565b8484546200061a565b825550505050565b600090565b620006e6620006d7565b620006f3818484620006ac565b505050565b5b818110156200071b576200070f600082620006dc565b600181019050620006f9565b5050565b601f8211156200076a576200073481620005e5565b6200073f84620005fa565b810160208510156200074f578190505b620007676200075e85620005fa565b830182620006f8565b50505b505050565b60008160020a8304905092915050565b600062000792600019846008026200076f565b1980831691505092915050565b6000620007ad83836200077f565b9150826002028217905092915050565b620007c88262000576565b67ffffffffffffffff811115620007e457620007e3620002c2565b5b620007f08254620005b0565b620007fd8282856200071f565b600060209050601f83116001811462000835576000841562000820578287015190505b6200082c85826200079f565b8655506200089c565b601f1984166200084586620005e5565b60005b828110156200086f5784890151825560018201915060208501945060208101905062000848565b868310156200088f57848901516200088b601f8916826200077f565b8355505b6001600288020188555050505b505050505050565b7f4e487b7100000000000000000000000000000000000000000000000000000000600052601160045260246000fd5b6000600282049050919050565b6000808291508390505b600185111562000932578086048111156200090a5762000909620008a4565b5b60018516156200091a5780820291505b80810290506200092a85620008d3565b9450620008ea565b94509492505050565b6000826200094d576001905062000a20565b816200095d576000905062000a20565b81600181146200097657600281146200098157620009b7565b600191505062000a20565b60ff841115620009965762000995620008a4565b5b8360020a915084821115620009b057620009af620008a4565b5b5062000a20565b5060208310610133831016604e8410600b8410161715620009f15782820a905083811115620009eb57620009ea620008a4565b5b62000a20565b62000a008484846001620008e0565b9250905081840481111562000a1a5762000a19620008a4565b5b81810290505b9392505050565b600062000a348262000426565b915062000a418362000426565b925062000a707fffffffffffffffffffffffffffffffffffffffffffffffffffffffffffffffff84846200093b565b905092915050565b600062000a858262000426565b915062000a928362000426565b925082820262000aa28162000426565b9150828204841483151762000abc5762000abb620008a4565b5b5092915050565b600082825260208201905092915050565b7f45524332303a206d696e7420746f20746865207a65726f206164647265737300600082015250565b600062000b0c601f8362000ac3565b915062000b198262000ad4565b602082019050919050565b6000602082019050818103600083015262000b3f8162000afd565b9050919050565b600062000b538262000426565b915062000b608362000426565b925082820190508082111562000b7b5762000b7a620008a4565b5b92915050565b62000b8c8162000426565b82525050565b600060208201905062000ba9600083018462000b81565b92915050565b61135c8062000bbf6000396000f3fe608060405234801561001057600080fd5b50600436106100ec576000357c01000000000000000000000000000000000000000000000000000000009004806339509351116100a9578063a457c2d711610083578063a457c2d714610247578063a9059cbb14610277578063beabacc8146102a7578063dd62ed3e146102c3576100ec565b806339509351146101c957806370a08231146101f957806395d89b4114610229576100ec565b806306fdde03146100f1578063095ea7b31461010f57806318160ddd1461013f5780631bbc4b831461015d57806323b872dd1461017b578063313ce567146101ab575b600080fd5b6100f96102f3565b6040516101069190610bbf565b60405180910390f35b61012960048036038101906101249190610c7a565b610385565b6040516101369190610cd5565b60405180910390f35b6101476103a8565b6040516101549190610cff565b60405180910390f35b6101656103b2565b6040516101729190610d79565b60405180910390f35b61019560048036038101906101909190610d94565b6103d8565b6040516101a29190610cd5565b60405180910390f35b6101b3610407565b6040516101c09190610e03565b60405180910390f35b6101e360048036038101906101de9190610c7a565b610410565b6040516101f09190610cd5565b60405180910390f35b610213600480360381019061020e9190610e1e565b610447565b6040516102209190610cff565b60405180910390f35b61023161048f565b60405161023e9190610bbf565b60405180910390f35b610261600480360381019061025c9190610c7a565b610521565b60405161026e9190610cd5565b60405180910390f35b610291600480360381019061028c9190610c7a565b610598565b60405161029e9190610cd5565b60405180910390f35b6102c160048036038101906102bc9190610d94565b6105bb565b005b6102dd60048036038101906102d89190610e4b565b6105cb565b6040516102ea9190610cff565b60405180910390f35b60606003805461030290610eba565b80601f016020809104026020016040519081016040528092919081815260200182805461032e90610eba565b801561037b5780601f106103505761010080835404028352916020019161037b565b820191906000526020600020905b81548152906001019060200180831161035e57829003601f168201915b5050505050905090565b600080610390610652565b905061039d81858561065a565b600191505092915050565b6000600254905090565b600560009054906101000a900473ffffffffffffffffffffffffffffffffffffffff1681565b6000806103e3610652565b90506103f0858285610823565b6103fb8585856108af565b60019150509392505050565b60006012905090565b60008061041b610652565b905061043c81858561042d85896105cb565b6104379190610f1a565b61065a565b600191505092915050565b60008060008373ffffffffffffffffffffffffffffffffffffffff1673ffffffffffffffffffffffffffffffffffffffff168152602001908152602001600020549050919050565b60606004805461049e90610eba565b80601f01602080910402602001604051908101604052809291908181526020018280546104ca90610eba565b80156105175780601f106104ec57610100808354040283529160200191610517565b820191906000526020600020905b8154815290600101906020018083116104fa57829003601f168201915b5050505050905090565b60008061052c610652565b9050600061053a82866105cb565b90508381101561057f576040517f08c379a000000000000000000000000000000000000000000000000000000000815260040161057690610fc0565b60405180910390fd5b61058c828686840361065a565b60019250505092915050565b6000806105a3610652565b90506105b08185856108af565b600191505092915050565b6105c68383836108af565b505050565b6000600160008473ffffffffffffffffffffffffffffffffffffffff1673ffffffffffffffffffffffffffffffffffffffff16815260200190815260200160002060008373ffffffffffffffffffffffffffffffffffffffff1673ffffffffffffffffffffffffffffffffffffffff16815260200190815260200160002054905092915050565b600033905090565b600073ffffffffffffffffffffffffffffffffffffffff168373ffffffffffffffffffffffffffffffffffffffff16036106c9576040517f08c379a00000000000000000000000000000000000000000000000000000000081526004016106c090611052565b60405180910390fd5b600073ffffffffffffffffffffffffffffffffffffffff168273ffffffffffffffffffffffffffffffffffffffff1603610738576040517f08c379a000000000000000000000000000000000000000000000000000000000815260040161072f906110e4565b60405180910390fd5b80600160008573ffffffffffffffffffffffffffffffffffffffff1673ffffffffffffffffffffffffffffffffffffffff16815260200190815260200160002060008473ffffffffffffffffffffffffffffffffffffffff1673ffffffffffffffffffffffffffffffffffffffff168152602001908152602001600020819055508173ffffffffffffffffffffffffffffffffffffffff168373ffffffffffffffffffffffffffffffffffffffff167f8c5be1e5ebec7d5bd14f71427d1e84f3dd0314c0f7b2291e5b200ac8c7c3b925836040516108169190610cff565b60405180910390a3505050565b600061082f84846105cb565b90507fffffffffffffffffffffffffffffffffffffffffffffffffffffffffffffffff81146108a9578181101561089b576040517f08c379a000000000000000000000000000000000000000000000000000000000815260040161089290611150565b60405180910390fd5b6108a8848484840361065a565b5b50505050565b600073ffffffffffffffffffffffffffffffffffffffff168373ffffffffffffffffffffffffffffffffffffffff160361091e576040517f08c379a0000000000000000000000000000000000000000000000000000000008152600401610915906111e2565b60405180910390fd5b600073ffffffffffffffffffffffffffffffffffffffff168273ffffffffffffffffffffffffffffffffffffffff160361098d576040517f08c379a000000000000000000000000000000000000000000000000000000000815260040161098490611274565b60405180910390fd5b610998838383610b25565b60008060008573ffffffffffffffffffffffffffffffffffffffff1673ffffffffffffffffffffffffffffffffffffffff16815260200190815260200160002054905081811015610a1e576040517f08c379a0000000000000000000000000000000000000000000000000000000008152600401610a1590611306565b60405180910390fd5b8181036000808673ffffffffffffffffffffffffffffffffffffffff1673ffffffffffffffffffffffffffffffffffffffff16815260200190815260200160002081905550816000808573ffffffffffffffffffffffffffffffffffffffff1673ffffffffffffffffffffffffffffffffffffffff168152602001908152602001600020600082825401925050819055508273ffffffffffffffffffffffffffffffffffffffff168473ffffffffffffffffffffffffffffffffffffffff167fddf252ad1be2c89b69c2b068fc378daa952ba7f163c4a11628f55a4df523b3ef84604051610b0c9190610cff565b60405180910390a3610b1f848484610b2a565b50505050565b505050565b505050565b600081519050919050565b600082825260208201905092915050565b60005b83811015610b69578082015181840152602081019050610b4e565b60008484015250505050565b6000601f19601f8301169050919050565b6000610b9182610b2f565b610b9b8185610b3a565b9350610bab818560208601610b4b565b610bb481610b75565b840191505092915050565b60006020820190508181036000830152610bd98184610b86565b905092915050565b600080fd5b600073ffffffffffffffffffffffffffffffffffffffff82169050919050565b6000610c1182610be6565b9050919050565b610c2181610c06565b8114610c2c57600080fd5b50565b600081359050610c3e81610c18565b92915050565b6000819050919050565b610c5781610c44565b8114610c6257600080fd5b50565b600081359050610c7481610c4e565b92915050565b60008060408385031215610c9157610c90610be1565b5b6000610c9f85828601610c2f565b9250506020610cb085828601610c65565b9150509250929050565b60008115159050919050565b610ccf81610cba565b82525050565b6000602082019050610cea6000830184610cc6565b92915050565b610cf981610c44565b82525050565b6000602082019050610d146000830184610cf0565b92915050565b6000819050919050565b6000610d3f610d3a610d3584610be6565b610d1a565b610be6565b9050919050565b6000610d5182610d24565b9050919050565b6000610d6382610d46565b9050919050565b610d7381610d58565b82525050565b6000602082019050610d8e6000830184610d6a565b92915050565b600080600060608486031215610dad57610dac610be1565b5b6000610dbb86828701610c2f565b9350506020610dcc86828701610c2f565b9250506040610ddd86828701610c65565b9150509250925092565b600060ff82169050919050565b610dfd81610de7565b82525050565b6000602082019050610e186000830184610df4565b92915050565b600060208284031215610e3457610e33610be1565b5b6000610e4284828501610c2f565b91505092915050565b60008060408385031215610e6257610e61610be1565b5b6000610e7085828601610c2f565b9250506020610e8185828601610c2f565b9150509250929050565b7f4e487b7100000000000000000000000000000000000000000000000000000000600052602260045260246000fd5b60006002820490506001821680610ed257607f821691505b602082108103610ee557610ee4610e8b565b5b50919050565b7f4e487b7100000000000000000000000000000000000000000000000000000000600052601160045260246000fd5b6000610f2582610c44565b9150610f3083610c44565b9250828201905080821115610f4857610f47610eeb565b5b92915050565b7f45524332303a2064656372656173656420616c6c6f77616e63652062656c6f7760008201527f207a65726f000000000000000000000000000000000000000000000000000000602082015250565b6000610faa602583610b3a565b9150610fb582610f4e565b604082019050919050565b60006020820190508181036000830152610fd981610f9d565b9050919050565b7f45524332303a20617070726f76652066726f6d20746865207a65726f2061646460008201527f7265737300000000000000000000000000000000000000000000000000000000602082015250565b600061103c602483610b3a565b915061104782610fe0565b604082019050919050565b6000602082019050818103600083015261106b8161102f565b9050919050565b7f45524332303a20617070726f766520746f20746865207a65726f20616464726560008201527f7373000000000000000000000000000000000000000000000000000000000000602082015250565b60006110ce602283610b3a565b91506110d982611072565b604082019050919050565b600060208201905081810360008301526110fd816110c1565b9050919050565b7f45524332303a20696e73756666696369656e7420616c6c6f77616e6365000000600082015250565b600061113a601d83610b3a565b915061114582611104565b602082019050919050565b600060208201905081810360008301526111698161112d565b9050919050565b7f45524332303a207472616e736665722066726f6d20746865207a65726f20616460008201527f6472657373000000000000000000000000000000000000000000000000000000602082015250565b60006111cc602583610b3a565b91506111d782611170565b604082019050919050565b600060208201905081810360008301526111fb816111bf565b9050919050565b7f45524332303a207472616e7366657220746f20746865207a65726f206164647260008201527f6573730000000000000000000000000000000000000000000000000000000000602082015250565b600061125e602383610b3a565b915061126982611202565b604082019050919050565b6000602082019050818103600083015261128d81611251565b9050919050565b7f45524332303a207472616e7366657220616d6f756e742065786365656473206260008201527f616c616e63650000000000000000000000000000000000000000000000000000602082015250565b60006112f0602683610b3a565b91506112fb82611294565b604082019050919050565b6000602082019050818103600083015261131f816112e3565b905091905056fea264697066735822122008a25791c08c617f7169907f29d6322b8863485b9052bf2a90636e4736eedfbc64736f6c63430008110033a26469706673582212203dff54d098101f622fa4072cfb271bce86dd58eb8eb37e16c2bb41f9374a8d2d64736f6c63430008110033",
  "immutableReferences": {},
  "source": "// SPDX-License-Identifier: UNLICENSED\npragma solidity ^0.8;\n\nimport \"./ERC20.sol\";\n\n/// @title CrowdFudndingDao\n/// @author \n/// @notice You can use this contract for mint a new ERC20 based INRtoken\n/// @dev All function calls are currently implemented without side effects\n\ncontract CrowdFunding{\n    //State Variables\n    address public admin;\n    ERC20Token private token;\n\n    /**\n    * @dev Constructor function to set the admin\n    * @param _admin admin of this contract\n    */\n\n    constructor (address _admin) {\n        admin = _admin;\n    }\n\n    modifier onlyAdmin() {\n        require(admin == msg.sender,\"Only admin\");\n        _;\n    }\n\n    modifier isApprovedOrRejectedAlready(uint256 campaignId) {\n        require(campaigns[campaignId].status != campainStatus.APPROVED,\"Already approved\");\n        require(campaigns[campaignId].status != campainStatus.REJECTED,\"Already rejected\");\n        _;\n    }\n\n    modifier isCampaignFound(uint256 campaignId) {\n        require(campaignCount >= campaignId && campaignId > 0,\"No campaign\");\n        _;\n    }\n\n    modifier isDeadLinePassed(uint256 campaignId) {\n        require(campaigns[campaignId].endDate >= block.timestamp,\"DeadLine passed\");\n        _;\n    }\n\n    uint256 public campaignCount;\n    \n    struct Campaign{\n        // contract address\n        address contractAddress;\n        // Company Name\n        string companyName;\n        // Name of the token\n        string tokenName;\n        // Symbol of the token\n        string tokenSymbol;\n        // Id of the Campaign\n        uint campaignId;\n        // Creator of the campaign\n        address creator;\n        // Title of the campaign\n        string campaignTitle;\n        // Campaign Description\n        string campaignDescription;\n        // pricePer token fixed by the user\n        uint256 pricePerToken;\n        // required fund\n        uint256 target;\n        // total contribution received\n        uint256 contribution;\n        // totalHeld Balance\n        uint256 heldBalance;\n        // Campaign Start Date\n        uint256 startDate;\n        // Campaign End Date\n        uint256 endDate;\n        // Status of the campaign\n        campainStatus status;\n        // Withdraw status\n        bool withdrawalStatus;\n    }\n\n    struct Company {\n        // Name of the company\n        string companyName;\n        // Token symbol created by the company\n        string tokenSymbol;\n        // Token name created by the company\n        string tokenName;\n        // Contract address against the company's campaign\n        address contractAddress;\n        // Total supply\n        uint256 totalSupply;\n    }\n\n    struct ContributionReceipt{\n        // address of the contributer\n        address contributer;\n        // Id of the camapign \n        uint256 campaignId;\n        // Token of contribution\n        uint256 tokens;\n        // Eth value\n        uint256 receivedEth;\n    }\n\n    /**\n     * @notice event for campaign creation\n     * @dev This event is emitted when a crowdfunding campaign is made.\n     * @param campaignId id of the campaign\n     * @param _companyName name of the company going to create the campaign\n     * @param _title title of the camapaign\n     * @param _description detailed description of the campaign\n     * @param _pricePerToken price per token for eg : 10 NEO tokens == 100INR( here 1 neo is equal to 10 INR)\n     * @param _tokenName Name of the token launched by the user\n     * @param deadLine End date for the campaign to contribute,\n     * @param _target goal of the crowd funding\n     * @param _tokenSymbol symbol of the token launched by the user\n     * @param _totalSupply total supply\n     */\n\n\n    event campaignCreated(\n        uint256 indexed campaignId,\n        string _companyName,\n        string _title,\n        string _description,\n        uint256 indexed _pricePerToken,\n        string _tokenName,\n        uint256 indexed deadLine,\n        uint256 _target,\n        string _tokenSymbol,\n        uint256 _totalSupply\n    );\n\n    /**\n     * @notice approval of the campaign\n     * @dev this event is emitted when a campaign gets approve by the admin\n     * @param campaignId id of the campaign\n     */\n\n    event approved(uint256 indexed campaignId);\n\n    /**\n     * @notice rejection of the campaign\n     * @dev this event is emitted when a campaign gets reject by the admin\n     * @param campaignId id of the campaign\n     */\n\n    event rejected(uint256 indexed campaignId);\n\n    /**\n     * @notice event for contribution\n     * @dev this event will emit when the contribution was maded by the users\n     * @param campaignId Id of the campaign  \n     * @param contribution amount of the contribution by the user\n     * @param contributer address of the contributer\n     */\n\n    event contribution(uint256 indexed campaignId, uint256 indexed contribution, address indexed contributer);\n\n    /**\n     * @notice refund request against the contribution \n     * @dev This event will emit when refund is made\n     * @param campaignId Id of the campaign  \n     * @param contribution amount of the contribution by the user\n     * @param contributer address of the contributer\n     */\n\n    event refunded(uint256 indexed campaignId, uint256 indexed contribution, address indexed contributer);\n\n    enum campainStatus {APPROVED,REJECTED,PENDING}\n\n    // CAMPAIGNID => CAMPAINGS\n    mapping (uint256 => Campaign) campaigns;\n\n    //CONTRACT ADDRESS => COMPANY\n    mapping(address => Company) companies;\n\n    // CAMPAIGNID => CONTRIBUTER => RECEIPT\n    mapping (uint256 => mapping(address => ContributionReceipt)) public receipts;\n\n    // USER => BALANCE \n    mapping (address => uint256) balance;\n\n    /**\n    * @notice To create the new campaign\n    * @dev It will create a new ERC20 token\n    * @param _companyName name of the comapany\n    * @param _title Title of the campaign\n    * @param _description Description of the campaign\n    * @param _pricePerToken Campaign creator can decide price per token would be fixed cost\n    * @param _tokenName Name of the ERC20 Token\n    * @param _tokenSymbol Symbol of the ERC20 token\n    * @param deadLine End date for the campaign\n    * @param _target Goal of this campaign \n    * @param _totalSupply no of token wants to launch by campaign creator\n    **/\n\n    function createCampaign(\n        string memory _companyName,\n        string memory _title,\n        string memory _description,\n        uint256 _pricePerToken,\n        string memory _tokenName,\n        uint256 deadLine,\n        uint256 _target,\n        string memory _tokenSymbol,\n        uint256 _totalSupply\n    ) external {\n        require(msg.sender != admin, \"Admin can't\");\n        require(_target <= _totalSupply, \"invalid target\");\n        require(block.timestamp < deadLine, \"Not allowed for older dates\");\n        address newContract = address(new ERC20Token(_tokenName, _tokenSymbol, _totalSupply, msg.sender));\n        token = ERC20Token(newContract);\n        campaignCount++;\n\n        campaigns[campaignCount] = Campaign({\n        contractAddress : newContract,\n        companyName: _companyName,\n        tokenName: _tokenName,\n        tokenSymbol : _tokenSymbol,\n        campaignId: campaignCount, \n        creator: msg.sender,\n        campaignTitle: _title,\n        campaignDescription: _description,\n        pricePerToken: _pricePerToken,\n        target: _target,\n        heldBalance: _totalSupply,\n        startDate: block.timestamp,\n        endDate: deadLine,\n        contribution: 0,\n        status: campainStatus.PENDING,\n        withdrawalStatus: false\n        });\n        balance[msg.sender] = _totalSupply;\n\n        companies[newContract] = Company({\n            companyName: _companyName,\n            tokenSymbol : _tokenSymbol,\n            contractAddress : newContract,\n            tokenName: _tokenName,\n            totalSupply : _totalSupply \n        });\n\n\n        emit campaignCreated(\n            campaignCount, \n            _companyName,\n            _title,\n            _description,\n            _pricePerToken,\n            _tokenName,\n            deadLine,\n            _target,\n            _tokenSymbol,\n            _totalSupply\n            );\n    }\n\n    /**\n    * @notice Approve  campaign\n    * @dev admin can approve this campaign\n    * @param campaignId campaign is approved by the admin \n    * @return status returning the enum for the referrence of campaign states\n    */\n\n    function approveCampaign(uint campaignId) external onlyAdmin isCampaignFound(campaignId)isDeadLinePassed(campaignId) isApprovedOrRejectedAlready(campaignId) returns(campainStatus) {\n        campaigns[campaignId].status = campainStatus.APPROVED;\n        emit approved(campaignId);\n        return campaigns[campaignId].status; \n    }\n\n    /**\n    * @notice Reject campaign\n    * @dev admin can reject this campaign\n    * @param campaignId campaign is rejected by the admin by the help of this id \n    * @return status returning the enum for the referrence of campaign states\n    */\n\n    function rejectCampaign(uint campaignId) external onlyAdmin isCampaignFound(campaignId)isDeadLinePassed(campaignId) isApprovedOrRejectedAlready(campaignId) returns(campainStatus) {\n        campaigns[campaignId].status = campainStatus.REJECTED;\n        emit rejected(campaignId);\n        return campaigns[campaignId].status; \n\n    }\n\n    /**\n    * @notice contribute to the campaign\n    * @dev getting ERC20 token by giving the fiat currency in msg.value\n    * @param campaignId helping to find and contribute against the campaign by this id \n    * @param tokens How many token user want's to buy against the fiat currency\n    * @return bool return true if the contribution get success\n    */\n\n    function contribute(uint256 campaignId, uint256 tokens) external payable isCampaignFound(campaignId) isDeadLinePassed(campaignId) returns(bool) {\n        Campaign storage currentCampaign = campaigns[campaignId];\n        ContributionReceipt storage user = receipts[campaignId][msg.sender];\n        require(msg.value == currentCampaign.pricePerToken * tokens, \"Incorrect amount\");\n        require(currentCampaign.status == campainStatus.APPROVED, \"Not approved\");\n        if(currentCampaign.contribution == 0){\n        require(\n            tokens > 0 &&\n            currentCampaign.contribution + tokens <= currentCampaign.target &&\n            tokens <= currentCampaign.target,\n            \"Invalids contribution.\"\n        );\n        }\n        else\n        {\n            require(tokens > 0 &&\n            currentCampaign.contribution + tokens <= currentCampaign.target,\n            \"Invalid contributions.\");\n        }\n\n        currentCampaign.contribution += tokens;\n\n        ERC20Token(currentCampaign.contractAddress).transfer(currentCampaign.creator,msg.sender,tokens * 10**18);\n        \n        currentCampaign.heldBalance -= tokens;\n        balance[currentCampaign.creator] -= tokens ;\n        balance[msg.sender] += tokens;\n\n        user.tokens +=tokens;\n        user.receivedEth +=msg.value;\n        user.contributer = msg.sender;\n        user.campaignId = campaignId;\n\n        emit contribution(campaignId, currentCampaign.contribution, msg.sender);\n        return true;\n\n    }\n\n    /**\n    * @notice handling the refund\n    * @dev users can call refund if they want their contribution back before deadLine\n    * @param campaignId campaignId helping to find the campaign by this id \n    * @return bool return true if the refund get success\n    */\n\n    function refund(uint256 campaignId, uint256 _amount) external payable isCampaignFound(campaignId) isDeadLinePassed(campaignId) returns (bool) {\n        Campaign storage currentCampaign = campaigns[campaignId];\n        ContributionReceipt storage user = receipts[campaignId][msg.sender];\n        require(user.tokens >= _amount, \"Incorrect amount\");\n        require(address(this).balance >= user.receivedEth, \"contract low balance\");\n\n        ERC20Token(currentCampaign.contractAddress).transfer(msg.sender,currentCampaign.creator,_amount * 10**18);\n        payable(msg.sender).transfer(_amount * currentCampaign.pricePerToken);\n        user.tokens -= _amount;\n        currentCampaign.contribution -= _amount;\n\n        user.receivedEth -= (_amount) * currentCampaign.pricePerToken;\n        currentCampaign.contribution = currentCampaign.contribution;\n        currentCampaign.heldBalance += _amount;\n        balance[currentCampaign.creator] = currentCampaign.heldBalance;\n        balance[msg.sender] -= _amount;\n        emit refunded(campaignId, _amount, msg.sender);\n\n        return true;\n    }\n\n    /**\n    * @notice handling the withDraw\n    * @dev users can call withDraw if campaign deadLine crossed\n    * @param campaignId campaignId helping to find the campaign by this id \n    * @return bool return true if the withDrawal gets success\n    */\n\n    function withDraw(uint256 campaignId) external isCampaignFound(campaignId) returns(bool) {\n        Campaign storage currentCampaign = campaigns[campaignId];\n        require(block.timestamp >= currentCampaign.endDate,\"DeadLine not passed\");\n        require(currentCampaign.creator == msg.sender, \"Not a creator\");\n        payable(msg.sender).transfer(currentCampaign.contribution * currentCampaign.pricePerToken);\n        currentCampaign.withdrawalStatus = true;\n        return true;\n    }\n\n    /**\n     * @notice contribution receipt\n     * @dev to get receipt for the contribution by the id and contributor address\n     * @param campaignId helps to find the campaign agains\n     * @param contributer address of the contributer\n     * @return contributionReceipt returning struct of the contribution receipt\n     */\n    \n    function getContributionReceipt(uint256 campaignId, address contributer) external view returns (ContributionReceipt memory) {\n        return receipts[campaignId][contributer];\n    }\n\n    /**\n     * @notice Get company\n     * @dev get the company details\n     * @param _contractAddress get the company details that are stored against to this contract address\n     * @return company returning the structure of the company\n     */\n\n    function getCompany(address _contractAddress) public view returns (Company memory){\n        return companies[_contractAddress];\n    }\n\n    /**\n     * @notice get campaign\n     * @dev get the campaign, that are stored against to the id\n     * @param campaignId we can check and get the details of the campaign\n     * @return campaign returning the all details of the campaign in structure\n     */\n\n    function getCampaign(uint256 campaignId) public view isCampaignFound(campaignId) returns(Campaign memory){\n        return campaigns[campaignId];\n    }\n\n    /**\n     * @notice get balance\n     * @dev return the balance of the user\n     * @param _address to get the balance, stored against to the address\n     * @return balance returning the balance of the user in uint256 type\n     */\n\n    function getBalance(address _address) external view returns(uint256) {\n        return balance[_address];\n    }\n\n    function ethBalance(address sender) external view returns(uint256) {\n        return sender.balance;\n    }\n\n    function companyDetailsByCampaignId(uint256 campaignId) external view isCampaignFound(campaignId) \n    returns (\n        address,\n        string memory, \n        string memory, \n        uint256,\n        bool\n    ){\n            Campaign memory _campaign = getCampaign(campaignId);\n            Company memory _company = getCompany(_campaign.contractAddress);\n            return (\n                _company.contractAddress,\n                _company.tokenName,\n                _company.tokenSymbol,\n                _company.totalSupply,\n                _campaign.status == campainStatus.APPROVED ? true: false\n            );           \n    }\n}",
  "sourcePath": "/home/neosoft/projects/solidity/crowdFunding/crowdfunding-dao-solidity/contracts/CrowdFunding.sol",
  "compiler": {
    "name": "solc",
    "version": "0.8.17+commit.8df45f5f.Emscripten.clang"
  },
  "schemaVersion": "3.4.11",
  "updatedAt": "2023-04-06T14:25:02.699Z",
  "networkType": "ethereum",
  "devdoc": {
    "details": "All function calls are currently implemented without side effects",
    "events": {
      "approved(uint256)": {
        "details": "this event is emitted when a campaign gets approve by the admin",
        "params": {
          "campaignId": "id of the campaign"
        }
      },
      "campaignCreated(uint256,string,string,string,uint256,string,uint256,uint256,string,uint256)": {
        "details": "This event is emitted when a crowdfunding campaign is made.",
        "params": {
          "_companyName": "name of the company going to create the campaign",
          "_description": "detailed description of the campaign",
          "_pricePerToken": "price per token for eg : 10 NEO tokens == 100INR( here 1 neo is equal to 10 INR)",
          "_target": "goal of the crowd funding",
          "_title": "title of the camapaign",
          "_tokenName": "Name of the token launched by the user",
          "_tokenSymbol": "symbol of the token launched by the user",
          "_totalSupply": "total supply",
          "campaignId": "id of the campaign",
          "deadLine": "End date for the campaign to contribute,"
        }
      },
      "contribution(uint256,uint256,address)": {
        "details": "this event will emit when the contribution was maded by the users",
        "params": {
          "campaignId": "Id of the campaign  ",
          "contributer": "address of the contributer",
          "contribution": "amount of the contribution by the user"
        }
      },
      "refunded(uint256,uint256,address)": {
        "details": "This event will emit when refund is made",
        "params": {
          "campaignId": "Id of the campaign  ",
          "contributer": "address of the contributer",
          "contribution": "amount of the contribution by the user"
        }
      },
      "rejected(uint256)": {
        "details": "this event is emitted when a campaign gets reject by the admin",
        "params": {
          "campaignId": "id of the campaign"
        }
      }
    },
    "kind": "dev",
    "methods": {
      "approveCampaign(uint256)": {
        "details": "admin can approve this campaign",
        "params": {
          "campaignId": "campaign is approved by the admin "
        },
        "returns": {
          "_0": "status returning the enum for the referrence of campaign states"
        }
      },
      "constructor": {
        "details": "Constructor function to set the admin",
        "params": {
          "_admin": "admin of this contract"
        }
      },
      "contribute(uint256,uint256)": {
        "details": "getting ERC20 token by giving the fiat currency in msg.value",
        "params": {
          "campaignId": "helping to find and contribute against the campaign by this id ",
          "tokens": "How many token user want's to buy against the fiat currency"
        },
        "returns": {
          "_0": "bool return true if the contribution get success"
        }
      },
      "createCampaign(string,string,string,uint256,string,uint256,uint256,string,uint256)": {
        "details": "It will create a new ERC20 token",
        "params": {
          "_companyName": "name of the comapany",
          "_description": "Description of the campaign",
          "_pricePerToken": "Campaign creator can decide price per token would be fixed cost",
          "_target": "Goal of this campaign ",
          "_title": "Title of the campaign",
          "_tokenName": "Name of the ERC20 Token",
          "_tokenSymbol": "Symbol of the ERC20 token",
          "_totalSupply": "no of token wants to launch by campaign creator*",
          "deadLine": "End date for the campaign"
        }
      },
      "getBalance(address)": {
        "details": "return the balance of the user",
        "params": {
          "_address": "to get the balance, stored against to the address"
        },
        "returns": {
          "_0": "balance returning the balance of the user in uint256 type"
        }
      },
      "getCampaign(uint256)": {
        "details": "get the campaign, that are stored against to the id",
        "params": {
          "campaignId": "we can check and get the details of the campaign"
        },
        "returns": {
          "_0": "campaign returning the all details of the campaign in structure"
        }
      },
      "getCompany(address)": {
        "details": "get the company details",
        "params": {
          "_contractAddress": "get the company details that are stored against to this contract address"
        },
        "returns": {
          "_0": "company returning the structure of the company"
        }
      },
      "getContributionReceipt(uint256,address)": {
        "details": "to get receipt for the contribution by the id and contributor address",
        "params": {
          "campaignId": "helps to find the campaign agains",
          "contributer": "address of the contributer"
        },
        "returns": {
          "_0": "contributionReceipt returning struct of the contribution receipt"
        }
      },
      "refund(uint256,uint256)": {
        "details": "users can call refund if they want their contribution back before deadLine",
        "params": {
          "campaignId": "campaignId helping to find the campaign by this id "
        },
        "returns": {
          "_0": "bool return true if the refund get success"
        }
      },
      "rejectCampaign(uint256)": {
        "details": "admin can reject this campaign",
        "params": {
          "campaignId": "campaign is rejected by the admin by the help of this id "
        },
        "returns": {
          "_0": "status returning the enum for the referrence of campaign states"
        }
      },
      "withDraw(uint256)": {
        "details": "users can call withDraw if campaign deadLine crossed",
        "params": {
          "campaignId": "campaignId helping to find the campaign by this id "
        },
        "returns": {
          "_0": "bool return true if the withDrawal gets success"
        }
      }
    },
    "title": "CrowdFudndingDao",
    "version": 1
  },
  "userdoc": {
    "events": {
      "approved(uint256)": {
        "notice": "approval of the campaign"
      },
      "campaignCreated(uint256,string,string,string,uint256,string,uint256,uint256,string,uint256)": {
        "notice": "event for campaign creation"
      },
      "contribution(uint256,uint256,address)": {
        "notice": "event for contribution"
      },
      "refunded(uint256,uint256,address)": {
        "notice": "refund request against the contribution "
      },
      "rejected(uint256)": {
        "notice": "rejection of the campaign"
      }
    },
    "kind": "user",
    "methods": {
      "approveCampaign(uint256)": {
        "notice": "Approve  campaign"
      },
      "contribute(uint256,uint256)": {
        "notice": "contribute to the campaign"
      },
      "createCampaign(string,string,string,uint256,string,uint256,uint256,string,uint256)": {
        "notice": "To create the new campaign"
      },
      "getBalance(address)": {
        "notice": "get balance"
      },
      "getCampaign(uint256)": {
        "notice": "get campaign"
      },
      "getCompany(address)": {
        "notice": "Get company"
      },
      "getContributionReceipt(uint256,address)": {
        "notice": "contribution receipt"
      },
      "refund(uint256,uint256)": {
        "notice": "handling the refund"
      },
      "rejectCampaign(uint256)": {
        "notice": "Reject campaign"
      },
      "withDraw(uint256)": {
        "notice": "handling the withDraw"
      }
    },
    "notice": "You can use this contract for mint a new ERC20 based INRtoken",
    "version": 1
  }
}