{
  "contractName": "CrowdFunding",
  "abi": [
    {
      "inputs": [
        {
          "internalType": "address",
          "name": "_admin",
          "type": "address"
        }
      ],
      "stateMutability": "nonpayable",
      "type": "constructor"
    },
    {
      "anonymous": false,
      "inputs": [
        {
          "indexed": true,
          "internalType": "uint256",
          "name": "campaignId",
          "type": "uint256"
        }
      ],
      "name": "approved",
      "type": "event"
    },
    {
      "anonymous": false,
      "inputs": [
        {
          "indexed": true,
          "internalType": "uint256",
          "name": "campaignId",
          "type": "uint256"
        },
        {
          "indexed": false,
          "internalType": "string",
          "name": "_companyName",
          "type": "string"
        },
        {
          "indexed": false,
          "internalType": "string",
          "name": "_title",
          "type": "string"
        },
        {
          "indexed": false,
          "internalType": "string",
          "name": "_description",
          "type": "string"
        },
        {
          "indexed": true,
          "internalType": "uint256",
          "name": "_pricePerToken",
          "type": "uint256"
        },
        {
          "indexed": false,
          "internalType": "string",
          "name": "_tokenName",
          "type": "string"
        },
        {
          "indexed": true,
          "internalType": "uint256",
          "name": "deadLine",
          "type": "uint256"
        },
        {
          "indexed": false,
          "internalType": "uint256",
          "name": "_target",
          "type": "uint256"
        },
        {
          "indexed": false,
          "internalType": "string",
          "name": "_tokenSymbol",
          "type": "string"
        },
        {
          "indexed": false,
          "internalType": "uint256",
          "name": "_totalSupply",
          "type": "uint256"
        }
      ],
      "name": "campaignCreated",
      "type": "event"
    },
    {
      "anonymous": false,
      "inputs": [
        {
          "indexed": true,
          "internalType": "uint256",
          "name": "campaignId",
          "type": "uint256"
        },
        {
          "indexed": true,
          "internalType": "uint256",
          "name": "contribution",
          "type": "uint256"
        },
        {
          "indexed": true,
          "internalType": "address",
          "name": "contributer",
          "type": "address"
        }
      ],
      "name": "contribution",
      "type": "event"
    },
    {
      "anonymous": false,
      "inputs": [
        {
          "indexed": true,
          "internalType": "uint256",
          "name": "campaignId",
          "type": "uint256"
        },
        {
          "indexed": true,
          "internalType": "uint256",
          "name": "contribution",
          "type": "uint256"
        },
        {
          "indexed": true,
          "internalType": "address",
          "name": "contributer",
          "type": "address"
        }
      ],
      "name": "refunded",
      "type": "event"
    },
    {
      "anonymous": false,
      "inputs": [
        {
          "indexed": true,
          "internalType": "uint256",
          "name": "campaignId",
          "type": "uint256"
        }
      ],
      "name": "rejected",
      "type": "event"
    },
    {
      "inputs": [],
      "name": "admin",
      "outputs": [
        {
          "internalType": "address",
          "name": "",
          "type": "address"
        }
      ],
      "stateMutability": "view",
      "type": "function",
      "constant": true
    },
    {
      "inputs": [],
      "name": "campaignCount",
      "outputs": [
        {
          "internalType": "uint256",
          "name": "",
          "type": "uint256"
        }
      ],
      "stateMutability": "view",
      "type": "function",
      "constant": true
    },
    {
      "inputs": [
        {
          "internalType": "string",
          "name": "_companyName",
          "type": "string"
        },
        {
          "internalType": "string",
          "name": "_title",
          "type": "string"
        },
        {
          "internalType": "string",
          "name": "_description",
          "type": "string"
        },
        {
          "internalType": "uint8",
          "name": "_pricePerToken",
          "type": "uint8"
        },
        {
          "internalType": "string",
          "name": "_tokenName",
          "type": "string"
        },
        {
          "internalType": "uint256",
          "name": "deadLine",
          "type": "uint256"
        },
        {
          "internalType": "uint256",
          "name": "_target",
          "type": "uint256"
        },
        {
          "internalType": "string",
          "name": "_tokenSymbol",
          "type": "string"
        },
        {
          "internalType": "uint256",
          "name": "_totalSupply",
          "type": "uint256"
        }
      ],
      "name": "createCampaign",
      "outputs": [],
      "stateMutability": "nonpayable",
      "type": "function"
    },
    {
      "inputs": [
        {
          "internalType": "uint256",
          "name": "campaignId",
          "type": "uint256"
        }
      ],
      "name": "approveCampaign",
      "outputs": [
        {
          "internalType": "enum CrowdFunding.campainStatus",
          "name": "",
          "type": "uint8"
        }
      ],
      "stateMutability": "nonpayable",
      "type": "function"
    },
    {
      "inputs": [
        {
          "internalType": "uint256",
          "name": "campaignId",
          "type": "uint256"
        }
      ],
      "name": "rejectCampaign",
      "outputs": [
        {
          "internalType": "enum CrowdFunding.campainStatus",
          "name": "",
          "type": "uint8"
        }
      ],
      "stateMutability": "nonpayable",
      "type": "function"
    },
    {
      "inputs": [
        {
          "internalType": "uint256",
          "name": "campaignId",
          "type": "uint256"
        },
        {
          "internalType": "uint256",
          "name": "amount",
          "type": "uint256"
        }
      ],
      "name": "contribute",
      "outputs": [
        {
          "internalType": "bool",
          "name": "",
          "type": "bool"
        }
      ],
      "stateMutability": "payable",
      "type": "function",
      "payable": true
    },
    {
      "inputs": [
        {
          "internalType": "uint256",
          "name": "campaignId",
          "type": "uint256"
        },
        {
          "internalType": "address",
          "name": "_address",
          "type": "address"
        },
        {
          "internalType": "uint256",
          "name": "_amount",
          "type": "uint256"
        }
      ],
      "name": "refund",
      "outputs": [
        {
          "internalType": "bool",
          "name": "",
          "type": "bool"
        }
      ],
      "stateMutability": "nonpayable",
      "type": "function"
    },
    {
      "inputs": [
        {
          "internalType": "uint256",
          "name": "campaignId",
          "type": "uint256"
        },
        {
          "internalType": "address",
          "name": "contributer",
          "type": "address"
        }
      ],
      "name": "getContributionReceipt",
      "outputs": [
        {
          "components": [
            {
              "internalType": "address",
              "name": "contributer",
              "type": "address"
            },
            {
              "internalType": "uint256",
              "name": "campaignId",
              "type": "uint256"
            },
            {
              "internalType": "uint256",
              "name": "amount",
              "type": "uint256"
            }
          ],
          "internalType": "struct CrowdFunding.ContributionReceipt",
          "name": "",
          "type": "tuple"
        }
      ],
      "stateMutability": "view",
      "type": "function",
      "constant": true
    },
    {
      "inputs": [
        {
          "internalType": "address",
          "name": "_contractAddress",
          "type": "address"
        }
      ],
      "name": "getCompany",
      "outputs": [
        {
          "components": [
            {
              "internalType": "string",
              "name": "companyName",
              "type": "string"
            },
            {
              "internalType": "string",
              "name": "tokenSymbol",
              "type": "string"
            },
            {
              "internalType": "string",
              "name": "tokenName",
              "type": "string"
            },
            {
              "internalType": "address",
              "name": "contractAddress",
              "type": "address"
            },
            {
              "internalType": "uint256",
              "name": "totalSupply",
              "type": "uint256"
            }
          ],
          "internalType": "struct CrowdFunding.Company",
          "name": "",
          "type": "tuple"
        }
      ],
      "stateMutability": "view",
      "type": "function",
      "constant": true
    },
    {
      "inputs": [
        {
          "internalType": "uint256",
          "name": "campaignId",
          "type": "uint256"
        }
      ],
      "name": "getCampaign",
      "outputs": [
        {
          "components": [
            {
              "internalType": "address",
              "name": "contractAddress",
              "type": "address"
            },
            {
              "internalType": "string",
              "name": "companyName",
              "type": "string"
            },
            {
              "internalType": "string",
              "name": "tokenName",
              "type": "string"
            },
            {
              "internalType": "string",
              "name": "tokenSymbol",
              "type": "string"
            },
            {
              "internalType": "uint256",
              "name": "campaignId",
              "type": "uint256"
            },
            {
              "internalType": "address",
              "name": "creator",
              "type": "address"
            },
            {
              "internalType": "string",
              "name": "campaignTitle",
              "type": "string"
            },
            {
              "internalType": "string",
              "name": "campaignDescription",
              "type": "string"
            },
            {
              "internalType": "uint256",
              "name": "pricePerToken",
              "type": "uint256"
            },
            {
              "internalType": "uint256",
              "name": "target",
              "type": "uint256"
            },
            {
              "internalType": "uint256",
              "name": "contribution",
              "type": "uint256"
            },
            {
              "internalType": "uint256",
              "name": "heldBalance",
              "type": "uint256"
            },
            {
              "internalType": "uint256",
              "name": "startDate",
              "type": "uint256"
            },
            {
              "internalType": "uint256",
              "name": "endDate",
              "type": "uint256"
            },
            {
              "internalType": "enum CrowdFunding.campainStatus",
              "name": "status",
              "type": "uint8"
            }
          ],
          "internalType": "struct CrowdFunding.Campaign",
          "name": "",
          "type": "tuple"
        }
      ],
      "stateMutability": "view",
      "type": "function",
      "constant": true
    },
    {
      "inputs": [
        {
          "internalType": "address",
          "name": "_address",
          "type": "address"
        }
      ],
      "name": "getBalance",
      "outputs": [
        {
          "internalType": "uint256",
          "name": "",
          "type": "uint256"
        }
      ],
      "stateMutability": "view",
      "type": "function",
      "constant": true
    },
    {
      "inputs": [
        {
          "internalType": "uint256",
          "name": "campaignId",
          "type": "uint256"
        }
      ],
      "name": "companyDetailsByCampaignId",
      "outputs": [
        {
          "internalType": "address",
          "name": "",
          "type": "address"
        },
        {
          "internalType": "string",
          "name": "",
          "type": "string"
        },
        {
          "internalType": "string",
          "name": "",
          "type": "string"
        },
        {
          "internalType": "uint256",
          "name": "",
          "type": "uint256"
        }
      ],
      "stateMutability": "view",
      "type": "function",
      "constant": true
    }
  ],
  "bytecode": "0x60806040523480156200001157600080fd5b506040516200609a3803806200609a8339818101604052810190620000379190620000e8565b806000806101000a81548173ffffffffffffffffffffffffffffffffffffffff021916908373ffffffffffffffffffffffffffffffffffffffff160217905550506200011a565b600080fd5b600073ffffffffffffffffffffffffffffffffffffffff82169050919050565b6000620000b08262000083565b9050919050565b620000c281620000a3565b8114620000ce57600080fd5b50565b600081519050620000e281620000b7565b92915050565b6000602082840312156200010157620001006200007e565b5b60006200011184828501620000d1565b91505092915050565b615f70806200012a6000396000f3fe608060405260043610620000b65760003560e01c80638c590917116200006d5780638c5909171462000229578063c75bc794146200025f578063e796a6eb14620002a6578063ee4e1b5314620002ea578063f851a440146200032e578063f8b2cb4f146200035e57620000b6565b8063034d09da14620000bb5780632f38907014620000ff5780634bf20ca4146200012d5780635598f8cc146200017157806362bc56e614620001b55780637274e30d14620001f9575b600080fd5b348015620000c857600080fd5b50620000e76004803603810190620000e191906200271e565b620003a2565b604051620000f69190620027d0565b60405180910390f35b3480156200010c57600080fd5b506200012b60048036038101906200012591906200298d565b620007f8565b005b3480156200013a57600080fd5b5062000159600480360381019062000153919062002b6c565b62000dae565b60405162000168919062002c1d565b60405180910390f35b3480156200017e57600080fd5b506200019d60048036038101906200019791906200271e565b62000e85565b604051620001ac919062002e51565b60405180910390f35b348015620001c257600080fd5b50620001e16004803603810190620001db919062002e75565b6200133f565b604051620001f0919062002f35565b60405180910390f35b3480156200020657600080fd5b5062000211620015c8565b60405162000220919062002f6a565b60405180910390f35b62000247600480360381019062000241919062002f87565b620015ce565b60405162000256919062002feb565b60405180910390f35b3480156200026c57600080fd5b506200028b60048036038101906200028591906200271e565b62001cbe565b6040516200029d94939291906200306b565b60405180910390f35b348015620002b357600080fd5b50620002d26004803603810190620002cc9190620030c6565b62001d0b565b604051620002e1919062002feb565b60405180910390f35b348015620002f757600080fd5b506200031660048036038101906200031091906200271e565b620020cb565b604051620003259190620027d0565b60405180910390f35b3480156200033b57600080fd5b506200034662002521565b60405162000355919062003122565b60405180910390f35b3480156200036b57600080fd5b506200038a600480360381019062000384919062002e75565b62002545565b60405162000399919062002f6a565b60405180910390f35b60003373ffffffffffffffffffffffffffffffffffffffff1660008054906101000a900473ffffffffffffffffffffffffffffffffffffffff1673ffffffffffffffffffffffffffffffffffffffff161462000435576040517f08c379a00000000000000000000000000000000000000000000000000000000081526004016200042c906200318f565b60405180910390fd5b8160025410158015620004485750600082115b6200048a576040517f08c379a0000000000000000000000000000000000000000000000000000000008152600401620004819062003201565b60405180910390fd5b600060036000848152602001908152602001600020905060006002811115620004b857620004b762002750565b5b81600e0160009054906101000a900460ff166002811115620004df57620004de62002750565b5b0362000522576040517f08c379a0000000000000000000000000000000000000000000000000000000008152600401620005199062003273565b60405180910390fd5b6001600281111562000539576200053862002750565b5b81600e0160009054906101000a900460ff16600281111562000560576200055f62002750565b5b03620005a3576040517f08c379a00000000000000000000000000000000000000000000000000000000081526004016200059a90620032e5565b60405180910390fd5b600181600e0160006101000a81548160ff02191690836002811115620005ce57620005cd62002750565b5b021790555080600360008581526020019081526020016000206000820160009054906101000a900473ffffffffffffffffffffffffffffffffffffffff168160000160006101000a81548173ffffffffffffffffffffffffffffffffffffffff021916908373ffffffffffffffffffffffffffffffffffffffff1602179055506001820181600101908162000664919062003555565b50600282018160020190816200067b919062003555565b506003820181600301908162000692919062003555565b50600482015481600401556005820160009054906101000a900473ffffffffffffffffffffffffffffffffffffffff168160050160006101000a81548173ffffffffffffffffffffffffffffffffffffffff021916908373ffffffffffffffffffffffffffffffffffffffff160217905550600682018160060190816200071a919062003555565b506007820181600701908162000731919062003555565b506008820154816008015560098201548160090155600a82015481600a0155600b82015481600b0155600c82015481600c0155600d82015481600d0155600e820160009054906101000a900460ff1681600e0160006101000a81548160ff02191690836002811115620007a957620007a862002750565b5b0217905550905050827f8c9878cc57a61b734d09368704b49894d5fb6b8f68f9cb352054ebe5b15a49e860405160405180910390a280600e0160009054906101000a900460ff16915050919050565b60008054906101000a900473ffffffffffffffffffffffffffffffffffffffff1673ffffffffffffffffffffffffffffffffffffffff163373ffffffffffffffffffffffffffffffffffffffff160362000889576040517f08c379a00000000000000000000000000000000000000000000000000000000081526004016200088090620036a6565b60405180910390fd5b6000858383336040516200089d906200258e565b620008ac9493929190620036c8565b604051809103906000f080158015620008c9573d6000803e3d6000fd5b50905080600160006101000a81548173ffffffffffffffffffffffffffffffffffffffff021916908373ffffffffffffffffffffffffffffffffffffffff16021790555060026000815480929190620009229062003752565b91905055506000604051806101e001604052808373ffffffffffffffffffffffffffffffffffffffff1681526020018c815260200188815260200185815260200160025481526020013373ffffffffffffffffffffffffffffffffffffffff1681526020018b81526020018a81526020018960ff16815260200186815260200160008152602001670de0b6b3a764000085620009bf91906200379f565b8152602001428152602001878152602001600280811115620009e657620009e562002750565b5b815250905080600360008360800151815260200190815260200160002060008201518160000160006101000a81548173ffffffffffffffffffffffffffffffffffffffff021916908373ffffffffffffffffffffffffffffffffffffffff160217905550602082015181600101908162000a619190620037ea565b50604082015181600201908162000a799190620037ea565b50606082015181600301908162000a919190620037ea565b506080820151816004015560a08201518160050160006101000a81548173ffffffffffffffffffffffffffffffffffffffff021916908373ffffffffffffffffffffffffffffffffffffffff16021790555060c082015181600601908162000afa9190620037ea565b5060e082015181600701908162000b129190620037ea565b506101008201518160080155610120820151816009015561014082015181600a015561016082015181600b015561018082015181600c01556101a082015181600d01556101c082015181600e0160006101000a81548160ff0219169083600281111562000b845762000b8362002750565b5b0217905550905050806101600151600660008360a0015173ffffffffffffffffffffffffffffffffffffffff1673ffffffffffffffffffffffffffffffffffffffff1681526020019081526020016000208190555060006040518060a001604052808d8152602001868152602001898152602001600160009054906101000a900473ffffffffffffffffffffffffffffffffffffffff1673ffffffffffffffffffffffffffffffffffffffff168152602001670de0b6b3a76400008662000c4c91906200379f565b815250905080600460008573ffffffffffffffffffffffffffffffffffffffff1673ffffffffffffffffffffffffffffffffffffffff168152602001908152602001600020600082015181600001908162000ca89190620037ea565b50602082015181600101908162000cc09190620037ea565b50604082015181600201908162000cd89190620037ea565b5060608201518160030160006101000a81548173ffffffffffffffffffffffffffffffffffffffff021916908373ffffffffffffffffffffffffffffffffffffffff16021790555060808201518160040155905050816101a0015182610100015183608001517f2ae28cd24d500e514d5bccc406e8db4194cdbfceec1128ae2246a45b8ccb244085602001518660c001518760e0015188604001518961012001518a606001518a6080015160405162000d989796959493929190620038d1565b60405180910390a4505050505050505050505050565b62000db86200259c565b6005600084815260200190815260200160002060008373ffffffffffffffffffffffffffffffffffffffff1673ffffffffffffffffffffffffffffffffffffffff1681526020019081526020016000206040518060600160405290816000820160009054906101000a900473ffffffffffffffffffffffffffffffffffffffff1673ffffffffffffffffffffffffffffffffffffffff1673ffffffffffffffffffffffffffffffffffffffff16815260200160018201548152602001600282015481525050905092915050565b62000e8f620025d3565b816002541015801562000ea25750600082115b62000ee4576040517f08c379a000000000000000000000000000000000000000000000000000000000815260040162000edb9062003201565b60405180910390fd5b60036000838152602001908152602001600020604051806101e00160405290816000820160009054906101000a900473ffffffffffffffffffffffffffffffffffffffff1673ffffffffffffffffffffffffffffffffffffffff1673ffffffffffffffffffffffffffffffffffffffff16815260200160018201805462000f6b9062003336565b80601f016020809104026020016040519081016040528092919081815260200182805462000f999062003336565b801562000fea5780601f1062000fbe5761010080835404028352916020019162000fea565b820191906000526020600020905b81548152906001019060200180831162000fcc57829003601f168201915b50505050508152602001600282018054620010059062003336565b80601f0160208091040260200160405190810160405280929190818152602001828054620010339062003336565b8015620010845780601f10620010585761010080835404028352916020019162001084565b820191906000526020600020905b8154815290600101906020018083116200106657829003601f168201915b505050505081526020016003820180546200109f9062003336565b80601f0160208091040260200160405190810160405280929190818152602001828054620010cd9062003336565b80156200111e5780601f10620010f2576101008083540402835291602001916200111e565b820191906000526020600020905b8154815290600101906020018083116200110057829003601f168201915b50505050508152602001600482015481526020016005820160009054906101000a900473ffffffffffffffffffffffffffffffffffffffff1673ffffffffffffffffffffffffffffffffffffffff1673ffffffffffffffffffffffffffffffffffffffff168152602001600682018054620011999062003336565b80601f0160208091040260200160405190810160405280929190818152602001828054620011c79062003336565b8015620012185780601f10620011ec5761010080835404028352916020019162001218565b820191906000526020600020905b815481529060010190602001808311620011fa57829003601f168201915b50505050508152602001600782018054620012339062003336565b80601f0160208091040260200160405190810160405280929190818152602001828054620012619062003336565b8015620012b25780601f106200128657610100808354040283529160200191620012b2565b820191906000526020600020905b8154815290600101906020018083116200129457829003601f168201915b505050505081526020016008820154815260200160098201548152602001600a8201548152602001600b8201548152602001600c8201548152602001600d8201548152602001600e820160009054906101000a900460ff1660028111156200131f576200131e62002750565b5b600281111562001334576200133362002750565b5b815250509050919050565b620013496200268a565b600460008373ffffffffffffffffffffffffffffffffffffffff1673ffffffffffffffffffffffffffffffffffffffff1681526020019081526020016000206040518060a0016040529081600082018054620013a59062003336565b80601f0160208091040260200160405190810160405280929190818152602001828054620013d39062003336565b8015620014245780601f10620013f85761010080835404028352916020019162001424565b820191906000526020600020905b8154815290600101906020018083116200140657829003601f168201915b505050505081526020016001820180546200143f9062003336565b80601f01602080910402602001604051908101604052809291908181526020018280546200146d9062003336565b8015620014be5780601f106200149257610100808354040283529160200191620014be565b820191906000526020600020905b815481529060010190602001808311620014a057829003601f168201915b50505050508152602001600282018054620014d99062003336565b80601f0160208091040260200160405190810160405280929190818152602001828054620015079062003336565b8015620015585780601f106200152c5761010080835404028352916020019162001558565b820191906000526020600020905b8154815290600101906020018083116200153a57829003601f168201915b505050505081526020016003820160009054906101000a900473ffffffffffffffffffffffffffffffffffffffff1673ffffffffffffffffffffffffffffffffffffffff1673ffffffffffffffffffffffffffffffffffffffff1681526020016004820154815250509050919050565b60025481565b60008260025410158015620015e35750600083115b62001625576040517f08c379a00000000000000000000000000000000000000000000000000000000081526004016200161c9062003201565b60405180910390fd5b60006003600085815260200190815260200160002090504281600d0154101562001686576040517f08c379a00000000000000000000000000000000000000000000000000000000081526004016200167d90620039c1565b60405180910390fd5b8281600801546200169891906200379f565b3414620016dc576040517f08c379a0000000000000000000000000000000000000000000000000000000008152600401620016d39062003a33565b60405180910390fd5b60006002811115620016f357620016f262002750565b5b81600e0160009054906101000a900460ff1660028111156200171a576200171962002750565b5b146200175d576040517f08c379a0000000000000000000000000000000000000000000000000000000008152600401620017549062003aa5565b60405180910390fd5b80600a015481600901541015620017ab576040517f08c379a0000000000000000000000000000000000000000000000000000000008152600401620017a29062003b17565b60405180910390fd5b8281600a016000828254620017c1919062003b39565b9250508190555080600360008681526020019081526020016000206000820160009054906101000a900473ffffffffffffffffffffffffffffffffffffffff168160000160006101000a81548173ffffffffffffffffffffffffffffffffffffffff021916908373ffffffffffffffffffffffffffffffffffffffff1602179055506001820181600101908162001859919062003555565b506002820181600201908162001870919062003555565b506003820181600301908162001887919062003555565b50600482015481600401556005820160009054906101000a900473ffffffffffffffffffffffffffffffffffffffff168160050160006101000a81548173ffffffffffffffffffffffffffffffffffffffff021916908373ffffffffffffffffffffffffffffffffffffffff160217905550600682018160060190816200190f919062003555565b506007820181600701908162001926919062003555565b506008820154816008015560098201548160090155600a82015481600a0155600b82015481600b0155600c82015481600c0155600d82015481600d0155600e820160009054906101000a900460ff1681600e0160006101000a81548160ff021916908360028111156200199e576200199d62002750565b5b02179055509050506000816008015434620019ba919062003ba3565b9050600160009054906101000a900473ffffffffffffffffffffffffffffffffffffffff1673ffffffffffffffffffffffffffffffffffffffff166340c10f1933670de0b6b3a76400008462001a1191906200379f565b6040518363ffffffff1660e01b815260040162001a3092919062003bdb565b600060405180830381600087803b15801562001a4b57600080fd5b505af115801562001a60573d6000803e3d6000fd5b50505050670de0b6b3a76400008162001a7a91906200379f565b82600b01600082825462001a8f919062003c08565b92505081905550670de0b6b3a76400008162001aac91906200379f565b600660008460050160009054906101000a900473ffffffffffffffffffffffffffffffffffffffff1673ffffffffffffffffffffffffffffffffffffffff1673ffffffffffffffffffffffffffffffffffffffff168152602001908152602001600020600082825462001b20919062003c08565b92505081905550670de0b6b3a76400008162001b3d91906200379f565b600660003373ffffffffffffffffffffffffffffffffffffffff1673ffffffffffffffffffffffffffffffffffffffff16815260200190815260200160002081905550600060405180606001604052803373ffffffffffffffffffffffffffffffffffffffff168152602001878152602001348152509050806005600088815260200190815260200160002060003373ffffffffffffffffffffffffffffffffffffffff1673ffffffffffffffffffffffffffffffffffffffff16815260200190815260200160002060008201518160000160006101000a81548173ffffffffffffffffffffffffffffffffffffffff021916908373ffffffffffffffffffffffffffffffffffffffff1602179055506020820151816001015560408201518160020155905050806000015173ffffffffffffffffffffffffffffffffffffffff1683600a0154877fc84cdef8ffed2c03b52b412accc6d5b91af9eb50c8480fdfddd078846470b2d060405160405180910390a46001935050505092915050565b600060608060008062001cd18662000e85565b9050600062001ce482600001516200133f565b90508060600151816040015182602001518360800151955095509550955050509193509193565b6000836002541015801562001d205750600084115b62001d62576040517f08c379a000000000000000000000000000000000000000000000000000000000815260040162001d599062003c93565b60405180910390fd5b60006003600086815260200190815260200160002090504281600d0154101562001dc3576040517f08c379a000000000000000000000000000000000000000000000000000000000815260040162001dba9062003d2b565b60405180910390fd5b60006005600087815260200190815260200160002060008673ffffffffffffffffffffffffffffffffffffffff1673ffffffffffffffffffffffffffffffffffffffff16815260200190815260200160002090508381600201541462001e60576040517f08c379a000000000000000000000000000000000000000000000000000000000815260040162001e579062003a33565b60405180910390fd5b8381600201600082825462001e76919062003c08565b92505081905550806005600088815260200190815260200160002060008773ffffffffffffffffffffffffffffffffffffffff1673ffffffffffffffffffffffffffffffffffffffff1681526020019081526020016000206000820160009054906101000a900473ffffffffffffffffffffffffffffffffffffffff168160000160006101000a81548173ffffffffffffffffffffffffffffffffffffffff021916908373ffffffffffffffffffffffffffffffffffffffff1602179055506001820154816001015560028201548160020155905050670de0b6b3a764000082600801548562001f67919062003ba3565b62001f7391906200379f565b82600b01600082825462001f88919062003b39565b9250508190555081600b0154600660008460050160009054906101000a900473ffffffffffffffffffffffffffffffffffffffff1673ffffffffffffffffffffffffffffffffffffffff1673ffffffffffffffffffffffffffffffffffffffff16815260200190815260200160002081905550670de0b6b3a764000082600801548562002016919062003ba3565b6200202291906200379f565b600660008773ffffffffffffffffffffffffffffffffffffffff1673ffffffffffffffffffffffffffffffffffffffff168152602001908152602001600020600082825462002072919062003c08565b925050819055503373ffffffffffffffffffffffffffffffffffffffff1684877f05d2f1712ee9236ad359917514636b645f2a01960eefea50967f66d9cb443cde60405160405180910390a46001925050509392505050565b60003373ffffffffffffffffffffffffffffffffffffffff1660008054906101000a900473ffffffffffffffffffffffffffffffffffffffff1673ffffffffffffffffffffffffffffffffffffffff16146200215e576040517f08c379a000000000000000000000000000000000000000000000000000000000815260040162002155906200318f565b60405180910390fd5b8160025410158015620021715750600082115b620021b3576040517f08c379a0000000000000000000000000000000000000000000000000000000008152600401620021aa9062003201565b60405180910390fd5b600060036000848152602001908152602001600020905060006002811115620021e157620021e062002750565b5b81600e0160009054906101000a900460ff16600281111562002208576200220762002750565b5b036200224b576040517f08c379a0000000000000000000000000000000000000000000000000000000008152600401620022429062003273565b60405180910390fd5b6001600281111562002262576200226162002750565b5b81600e0160009054906101000a900460ff16600281111562002289576200228862002750565b5b03620022cc576040517f08c379a0000000000000000000000000000000000000000000000000000000008152600401620022c390620032e5565b60405180910390fd5b600081600e0160006101000a81548160ff02191690836002811115620022f757620022f662002750565b5b021790555080600360008581526020019081526020016000206000820160009054906101000a900473ffffffffffffffffffffffffffffffffffffffff168160000160006101000a81548173ffffffffffffffffffffffffffffffffffffffff021916908373ffffffffffffffffffffffffffffffffffffffff160217905550600182018160010190816200238d919062003555565b5060028201816002019081620023a4919062003555565b5060038201816003019081620023bb919062003555565b50600482015481600401556005820160009054906101000a900473ffffffffffffffffffffffffffffffffffffffff168160050160006101000a81548173ffffffffffffffffffffffffffffffffffffffff021916908373ffffffffffffffffffffffffffffffffffffffff1602179055506006820181600601908162002443919062003555565b50600782018160070190816200245a919062003555565b506008820154816008015560098201548160090155600a82015481600a0155600b82015481600b0155600c82015481600c0155600d82015481600d0155600e820160009054906101000a900460ff1681600e0160006101000a81548160ff02191690836002811115620024d257620024d162002750565b5b0217905550905050827f7d4061e68fab364906497bb959d95ad3f052a3978fed6ce9942a2b8f737aae5460405160405180910390a280600e0160009054906101000a900460ff16915050919050565b60008054906101000a900473ffffffffffffffffffffffffffffffffffffffff1681565b6000600660008373ffffffffffffffffffffffffffffffffffffffff1673ffffffffffffffffffffffffffffffffffffffff168152602001908152602001600020549050919050565b6121ed8062003d4e83390190565b6040518060600160405280600073ffffffffffffffffffffffffffffffffffffffff16815260200160008152602001600081525090565b604051806101e00160405280600073ffffffffffffffffffffffffffffffffffffffff16815260200160608152602001606081526020016060815260200160008152602001600073ffffffffffffffffffffffffffffffffffffffff16815260200160608152602001606081526020016000815260200160008152602001600081526020016000815260200160008152602001600081526020016000600281111562002684576200268362002750565b5b81525090565b6040518060a00160405280606081526020016060815260200160608152602001600073ffffffffffffffffffffffffffffffffffffffff168152602001600081525090565b6000604051905090565b600080fd5b600080fd5b6000819050919050565b620026f881620026e3565b81146200270457600080fd5b50565b6000813590506200271881620026ed565b92915050565b600060208284031215620027375762002736620026d9565b5b6000620027478482850162002707565b91505092915050565b7f4e487b7100000000000000000000000000000000000000000000000000000000600052602160045260246000fd5b6003811062002793576200279262002750565b5b50565b6000819050620027a6826200277f565b919050565b6000620027b88262002796565b9050919050565b620027ca81620027ab565b82525050565b6000602082019050620027e76000830184620027bf565b92915050565b600080fd5b600080fd5b6000601f19601f8301169050919050565b7f4e487b7100000000000000000000000000000000000000000000000000000000600052604160045260246000fd5b6200284282620027f7565b810181811067ffffffffffffffff8211171562002864576200286362002808565b5b80604052505050565b600062002879620026cf565b905062002887828262002837565b919050565b600067ffffffffffffffff821115620028aa57620028a962002808565b5b620028b582620027f7565b9050602081019050919050565b82818337600083830152505050565b6000620028e8620028e2846200288c565b6200286d565b905082815260208101848484011115620029075762002906620027f2565b5b62002914848285620028c2565b509392505050565b600082601f830112620029345762002933620027ed565b5b813562002946848260208601620028d1565b91505092915050565b600060ff82169050919050565b62002967816200294f565b81146200297357600080fd5b50565b60008135905062002987816200295c565b92915050565b60008060008060008060008060006101208a8c031215620029b357620029b2620026d9565b5b60008a013567ffffffffffffffff811115620029d457620029d3620026de565b5b620029e28c828d016200291c565b99505060208a013567ffffffffffffffff81111562002a065762002a05620026de565b5b62002a148c828d016200291c565b98505060408a013567ffffffffffffffff81111562002a385762002a37620026de565b5b62002a468c828d016200291c565b975050606062002a598c828d0162002976565b96505060808a013567ffffffffffffffff81111562002a7d5762002a7c620026de565b5b62002a8b8c828d016200291c565b95505060a062002a9e8c828d0162002707565b94505060c062002ab18c828d0162002707565b93505060e08a013567ffffffffffffffff81111562002ad55762002ad4620026de565b5b62002ae38c828d016200291c565b92505061010062002af78c828d0162002707565b9150509295985092959850929598565b600073ffffffffffffffffffffffffffffffffffffffff82169050919050565b600062002b348262002b07565b9050919050565b62002b468162002b27565b811462002b5257600080fd5b50565b60008135905062002b668162002b3b565b92915050565b6000806040838503121562002b865762002b85620026d9565b5b600062002b968582860162002707565b925050602062002ba98582860162002b55565b9150509250929050565b62002bbe8162002b27565b82525050565b62002bcf81620026e3565b82525050565b60608201600082015162002bed600085018262002bb3565b50602082015162002c02602085018262002bc4565b50604082015162002c17604085018262002bc4565b50505050565b600060608201905062002c34600083018462002bd5565b92915050565b600081519050919050565b600082825260208201905092915050565b60005b8381101562002c7657808201518184015260208101905062002c59565b60008484015250505050565b600062002c8f8262002c3a565b62002c9b818562002c45565b935062002cad81856020860162002c56565b62002cb881620027f7565b840191505092915050565b62002cce81620027ab565b82525050565b60006101e08301600083015162002cef600086018262002bb3565b506020830151848203602086015262002d09828262002c82565b9150506040830151848203604086015262002d25828262002c82565b9150506060830151848203606086015262002d41828262002c82565b915050608083015162002d58608086018262002bc4565b5060a083015162002d6d60a086018262002bb3565b5060c083015184820360c086015262002d87828262002c82565b91505060e083015184820360e086015262002da3828262002c82565b91505061010083015162002dbc61010086018262002bc4565b5061012083015162002dd361012086018262002bc4565b5061014083015162002dea61014086018262002bc4565b5061016083015162002e0161016086018262002bc4565b5061018083015162002e1861018086018262002bc4565b506101a083015162002e2f6101a086018262002bc4565b506101c083015162002e466101c086018262002cc3565b508091505092915050565b6000602082019050818103600083015262002e6d818462002cd4565b905092915050565b60006020828403121562002e8e5762002e8d620026d9565b5b600062002e9e8482850162002b55565b91505092915050565b600060a083016000830151848203600086015262002ec6828262002c82565b9150506020830151848203602086015262002ee2828262002c82565b9150506040830151848203604086015262002efe828262002c82565b915050606083015162002f15606086018262002bb3565b50608083015162002f2a608086018262002bc4565b508091505092915050565b6000602082019050818103600083015262002f51818462002ea7565b905092915050565b62002f6481620026e3565b82525050565b600060208201905062002f81600083018462002f59565b92915050565b6000806040838503121562002fa15762002fa0620026d9565b5b600062002fb18582860162002707565b925050602062002fc48582860162002707565b9150509250929050565b60008115159050919050565b62002fe58162002fce565b82525050565b600060208201905062003002600083018462002fda565b92915050565b620030138162002b27565b82525050565b600082825260208201905092915050565b6000620030378262002c3a565b62003043818562003019565b93506200305581856020860162002c56565b6200306081620027f7565b840191505092915050565b600060808201905062003082600083018762003008565b81810360208301526200309681866200302a565b90508181036040830152620030ac81856200302a565b9050620030bd606083018462002f59565b95945050505050565b600080600060608486031215620030e257620030e1620026d9565b5b6000620030f28682870162002707565b9350506020620031058682870162002b55565b9250506040620031188682870162002707565b9150509250925092565b600060208201905062003139600083018462003008565b92915050565b7f4f6e6c792061646d696e00000000000000000000000000000000000000000000600082015250565b600062003177600a8362003019565b915062003184826200313f565b602082019050919050565b60006020820190508181036000830152620031aa8162003168565b9050919050565b7f4e6f2063616d706169676e000000000000000000000000000000000000000000600082015250565b6000620031e9600b8362003019565b9150620031f682620031b1565b602082019050919050565b600060208201905081810360008301526200321c81620031da565b9050919050565b7f416c726561647920617070726f76656400000000000000000000000000000000600082015250565b60006200325b60108362003019565b9150620032688262003223565b602082019050919050565b600060208201905081810360008301526200328e816200324c565b9050919050565b7f416c72656164792072656a656374656400000000000000000000000000000000600082015250565b6000620032cd60108362003019565b9150620032da8262003295565b602082019050919050565b600060208201905081810360008301526200330081620032be565b9050919050565b7f4e487b7100000000000000000000000000000000000000000000000000000000600052602260045260246000fd5b600060028204905060018216806200334f57607f821691505b60208210810362003365576200336462003307565b5b50919050565b6000815490506200337c8162003336565b9050919050565b60008190508160005260206000209050919050565b60006020601f8301049050919050565b600082821b905092915050565b600060088302620033e77fffffffffffffffffffffffffffffffffffffffffffffffffffffffffffffffff82620033a8565b620033f38683620033a8565b95508019841693508086168417925050509392505050565b6000819050919050565b600062003436620034306200342a84620026e3565b6200340b565b620026e3565b9050919050565b6000819050919050565b620034528362003415565b6200346a62003461826200343d565b848454620033b5565b825550505050565b600090565b6200348162003472565b6200348e81848462003447565b505050565b5b81811015620034b657620034aa60008262003477565b60018101905062003494565b5050565b601f8211156200350557620034cf8162003383565b620034da8462003398565b81016020851015620034ea578190505b62003502620034f98562003398565b83018262003493565b50505b505050565b600082821c905092915050565b60006200352a600019846008026200350a565b1980831691505092915050565b600062003545838362003517565b9150826002028217905092915050565b8181036200356557505062003654565b62003570826200336b565b67ffffffffffffffff8111156200358c576200358b62002808565b5b62003598825462003336565b620035a5828285620034ba565b6000601f831160018114620035d95760008415620035c4578287015490505b620035d0858262003537565b8655506200364d565b601f198416620035e98762003383565b9650620035f68662003383565b60005b828110156200362057848901548255600182019150600185019450602081019050620035f9565b868310156200364057848901546200363c601f89168262003517565b8355505b6001600288020188555050505b5050505050505b565b7f41646d696e2063616e2774000000000000000000000000000000000000000000600082015250565b60006200368e600b8362003019565b91506200369b8262003656565b602082019050919050565b60006020820190508181036000830152620036c1816200367f565b9050919050565b60006080820190508181036000830152620036e481876200302a565b90508181036020830152620036fa81866200302a565b90506200370b604083018562002f59565b6200371a606083018462003008565b95945050505050565b7f4e487b7100000000000000000000000000000000000000000000000000000000600052601160045260246000fd5b60006200375f82620026e3565b91507fffffffffffffffffffffffffffffffffffffffffffffffffffffffffffffffff820362003794576200379362003723565b5b600182019050919050565b6000620037ac82620026e3565b9150620037b983620026e3565b9250828202620037c981620026e3565b91508282048414831517620037e357620037e262003723565b5b5092915050565b620037f58262002c3a565b67ffffffffffffffff81111562003811576200381062002808565b5b6200381d825462003336565b6200382a828285620034ba565b600060209050601f8311600181146200386257600084156200384d578287015190505b62003859858262003537565b865550620038c9565b601f198416620038728662003383565b60005b828110156200389c5784890151825560018201915060208501945060208101905062003875565b86831015620038bc5784890151620038b8601f89168262003517565b8355505b6001600288020188555050505b505050505050565b600060e0820190508181036000830152620038ed818a6200302a565b905081810360208301526200390381896200302a565b905081810360408301526200391981886200302a565b905081810360608301526200392f81876200302a565b905062003940608083018662002f59565b81810360a08301526200395481856200302a565b90506200396560c083018462002f59565b98975050505050505050565b7f446561644c696e65207061737365640000000000000000000000000000000000600082015250565b6000620039a9600f8362003019565b9150620039b68262003971565b602082019050919050565b60006020820190508181036000830152620039dc816200399a565b9050919050565b7f496e636f727265637420616d6f756e7400000000000000000000000000000000600082015250565b600062003a1b60108362003019565b915062003a2882620039e3565b602082019050919050565b6000602082019050818103600083015262003a4e8162003a0c565b9050919050565b7f4e6f7420617070726f7665640000000000000000000000000000000000000000600082015250565b600062003a8d600c8362003019565b915062003a9a8262003a55565b602082019050919050565b6000602082019050818103600083015262003ac08162003a7e565b9050919050565b7f5461726765742072656163686564000000000000000000000000000000000000600082015250565b600062003aff600e8362003019565b915062003b0c8262003ac7565b602082019050919050565b6000602082019050818103600083015262003b328162003af0565b9050919050565b600062003b4682620026e3565b915062003b5383620026e3565b925082820190508082111562003b6e5762003b6d62003723565b5b92915050565b7f4e487b7100000000000000000000000000000000000000000000000000000000600052601260045260246000fd5b600062003bb082620026e3565b915062003bbd83620026e3565b92508262003bd05762003bcf62003b74565b5b828204905092915050565b600060408201905062003bf2600083018562003008565b62003c01602083018462002f59565b9392505050565b600062003c1582620026e3565b915062003c2283620026e3565b925082820390508181111562003c3d5762003c3c62003723565b5b92915050565b7f4e6f2063616d706169676e20666f756e64000000000000000000000000000000600082015250565b600062003c7b60118362003019565b915062003c888262003c43565b602082019050919050565b6000602082019050818103600083015262003cae8162003c6c565b9050919050565b7f446561644c696e652070617373656420596f752063616e27742072616973652060008201527f726566756e642072657175657374000000000000000000000000000000000000602082015250565b600062003d13602e8362003019565b915062003d208262003cb5565b604082019050919050565b6000602082019050818103600083015262003d468162003d04565b905091905056fe60806040523480156200001157600080fd5b50604051620021ed380380620021ed8339818101604052810190620000379190620004a2565b838381600390816200004a919062000793565b5080600490816200005c919062000793565b5050506200008d816012600a620000749190620009fd565b8462000081919062000a4e565b620000ee60201b60201c565b6200009d6200025b60201b60201c565b60068190555033600760006101000a81548173ffffffffffffffffffffffffffffffffffffffff021916908373ffffffffffffffffffffffffffffffffffffffff1602179055505050505062000b85565b600073ffffffffffffffffffffffffffffffffffffffff168273ffffffffffffffffffffffffffffffffffffffff160362000160576040517f08c379a0000000000000000000000000000000000000000000000000000000008152600401620001579062000afa565b60405180910390fd5b62000174600083836200026560201b60201c565b806002600082825462000188919062000b1c565b92505081905550806000808473ffffffffffffffffffffffffffffffffffffffff1673ffffffffffffffffffffffffffffffffffffffff168152602001908152602001600020600082825401925050819055508173ffffffffffffffffffffffffffffffffffffffff16600073ffffffffffffffffffffffffffffffffffffffff167fddf252ad1be2c89b69c2b068fc378daa952ba7f163c4a11628f55a4df523b3ef836040516200023b919062000b68565b60405180910390a362000257600083836200026a60201b60201c565b5050565b6000600254905090565b505050565b505050565b6000604051905090565b600080fd5b600080fd5b600080fd5b600080fd5b6000601f19601f8301169050919050565b7f4e487b7100000000000000000000000000000000000000000000000000000000600052604160045260246000fd5b620002d8826200028d565b810181811067ffffffffffffffff82111715620002fa57620002f96200029e565b5b80604052505050565b60006200030f6200026f565b90506200031d8282620002cd565b919050565b600067ffffffffffffffff82111562000340576200033f6200029e565b5b6200034b826200028d565b9050602081019050919050565b60005b83811015620003785780820151818401526020810190506200035b565b60008484015250505050565b60006200039b620003958462000322565b62000303565b905082815260208101848484011115620003ba57620003b962000288565b5b620003c784828562000358565b509392505050565b600082601f830112620003e757620003e662000283565b5b8151620003f984826020860162000384565b91505092915050565b6000819050919050565b620004178162000402565b81146200042357600080fd5b50565b60008151905062000437816200040c565b92915050565b600073ffffffffffffffffffffffffffffffffffffffff82169050919050565b60006200046a826200043d565b9050919050565b6200047c816200045d565b81146200048857600080fd5b50565b6000815190506200049c8162000471565b92915050565b60008060008060808587031215620004bf57620004be62000279565b5b600085015167ffffffffffffffff811115620004e057620004df6200027e565b5b620004ee87828801620003cf565b945050602085015167ffffffffffffffff8111156200051257620005116200027e565b5b6200052087828801620003cf565b9350506040620005338782880162000426565b925050606062000546878288016200048b565b91505092959194509250565b600081519050919050565b7f4e487b7100000000000000000000000000000000000000000000000000000000600052602260045260246000fd5b60006002820490506001821680620005a557607f821691505b602082108103620005bb57620005ba6200055d565b5b50919050565b60008190508160005260206000209050919050565b60006020601f8301049050919050565b600082821b905092915050565b600060088302620006257fffffffffffffffffffffffffffffffffffffffffffffffffffffffffffffffff82620005e6565b620006318683620005e6565b95508019841693508086168417925050509392505050565b6000819050919050565b6000620006746200066e620006688462000402565b62000649565b62000402565b9050919050565b6000819050919050565b620006908362000653565b620006a86200069f826200067b565b848454620005f3565b825550505050565b600090565b620006bf620006b0565b620006cc81848462000685565b505050565b5b81811015620006f457620006e8600082620006b5565b600181019050620006d2565b5050565b601f82111562000743576200070d81620005c1565b6200071884620005d6565b8101602085101562000728578190505b620007406200073785620005d6565b830182620006d1565b50505b505050565b600082821c905092915050565b6000620007686000198460080262000748565b1980831691505092915050565b600062000783838362000755565b9150826002028217905092915050565b6200079e8262000552565b67ffffffffffffffff811115620007ba57620007b96200029e565b5b620007c682546200058c565b620007d3828285620006f8565b600060209050601f8311600181146200080b5760008415620007f6578287015190505b62000802858262000775565b86555062000872565b601f1984166200081b86620005c1565b60005b8281101562000845578489015182556001820191506020850194506020810190506200081e565b8683101562000865578489015162000861601f89168262000755565b8355505b6001600288020188555050505b505050505050565b7f4e487b7100000000000000000000000000000000000000000000000000000000600052601160045260246000fd5b60008160011c9050919050565b6000808291508390505b60018511156200090857808604811115620008e057620008df6200087a565b5b6001851615620008f05780820291505b80810290506200090085620008a9565b9450620008c0565b94509492505050565b600082620009235760019050620009f6565b81620009335760009050620009f6565b81600181146200094c576002811462000957576200098d565b6001915050620009f6565b60ff8411156200096c576200096b6200087a565b5b8360020a9150848211156200098657620009856200087a565b5b50620009f6565b5060208310610133831016604e8410600b8410161715620009c75782820a905083811115620009c157620009c06200087a565b5b620009f6565b620009d68484846001620008b6565b92509050818404811115620009f057620009ef6200087a565b5b81810290505b9392505050565b600062000a0a8262000402565b915062000a178362000402565b925062000a467fffffffffffffffffffffffffffffffffffffffffffffffffffffffffffffffff848462000911565b905092915050565b600062000a5b8262000402565b915062000a688362000402565b925082820262000a788162000402565b9150828204841483151762000a925762000a916200087a565b5b5092915050565b600082825260208201905092915050565b7f45524332303a206d696e7420746f20746865207a65726f206164647265737300600082015250565b600062000ae2601f8362000a99565b915062000aef8262000aaa565b602082019050919050565b6000602082019050818103600083015262000b158162000ad3565b9050919050565b600062000b298262000402565b915062000b368362000402565b925082820190508082111562000b515762000b506200087a565b5b92915050565b62000b628162000402565b82525050565b600060208201905062000b7f600083018462000b57565b92915050565b6116588062000b956000396000f3fe608060405234801561001057600080fd5b50600436106100ea5760003560e01c806340c10f191161008c57806395d89b411161006657806395d89b4114610273578063a457c2d714610291578063a9059cbb146102c1578063dd62ed3e146102f1576100ea565b806340c10f19146101f7578063681161771461021357806370a0823114610243576100ea565b80631bbc4b83116100c85780631bbc4b831461015b57806323b872dd14610179578063313ce567146101a957806339509351146101c7576100ea565b806306fdde03146100ef578063095ea7b31461010d57806318160ddd1461013d575b600080fd5b6100f7610321565b6040516101049190610de3565b60405180910390f35b61012760048036038101906101229190610e9e565b6103b3565b6040516101349190610ef9565b60405180910390f35b6101456103d6565b6040516101529190610f23565b60405180910390f35b6101636103e0565b6040516101709190610f9d565b60405180910390f35b610193600480360381019061018e9190610fb8565b610406565b6040516101a09190610ef9565b60405180910390f35b6101b1610435565b6040516101be9190611027565b60405180910390f35b6101e160048036038101906101dc9190610e9e565b61043e565b6040516101ee9190610ef9565b60405180910390f35b610211600480360381019061020c9190610e9e565b610475565b005b61022d60048036038101906102289190611042565b610513565b60405161023a9190610f23565b60405180910390f35b61025d60048036038101906102589190611042565b610525565b60405161026a9190610f23565b60405180910390f35b61027b61056d565b6040516102889190610de3565b60405180910390f35b6102ab60048036038101906102a69190610e9e565b6105ff565b6040516102b89190610ef9565b60405180910390f35b6102db60048036038101906102d69190610e9e565b610676565b6040516102e89190610ef9565b60405180910390f35b61030b6004803603810190610306919061106f565b610699565b6040516103189190610f23565b60405180910390f35b606060038054610330906110de565b80601f016020809104026020016040519081016040528092919081815260200182805461035c906110de565b80156103a95780601f1061037e576101008083540402835291602001916103a9565b820191906000526020600020905b81548152906001019060200180831161038c57829003601f168201915b5050505050905090565b6000806103be610720565b90506103cb818585610728565b600191505092915050565b6000600254905090565b600560009054906101000a900473ffffffffffffffffffffffffffffffffffffffff1681565b600080610411610720565b905061041e8582856108f1565b61042985858561097d565b60019150509392505050565b60006012905090565b600080610449610720565b905061046a81858561045b8589610699565b610465919061113e565b610728565b600191505092915050565b600760009054906101000a900473ffffffffffffffffffffffffffffffffffffffff1673ffffffffffffffffffffffffffffffffffffffff163373ffffffffffffffffffffffffffffffffffffffff1614610505576040517f08c379a00000000000000000000000000000000000000000000000000000000081526004016104fc906111be565b60405180910390fd5b61050f8282610bf3565b5050565b600061051e82610525565b9050919050565b60008060008373ffffffffffffffffffffffffffffffffffffffff1673ffffffffffffffffffffffffffffffffffffffff168152602001908152602001600020549050919050565b60606004805461057c906110de565b80601f01602080910402602001604051908101604052809291908181526020018280546105a8906110de565b80156105f55780601f106105ca576101008083540402835291602001916105f5565b820191906000526020600020905b8154815290600101906020018083116105d857829003601f168201915b5050505050905090565b60008061060a610720565b905060006106188286610699565b90508381101561065d576040517f08c379a000000000000000000000000000000000000000000000000000000000815260040161065490611250565b60405180910390fd5b61066a8286868403610728565b60019250505092915050565b600080610681610720565b905061068e81858561097d565b600191505092915050565b6000600160008473ffffffffffffffffffffffffffffffffffffffff1673ffffffffffffffffffffffffffffffffffffffff16815260200190815260200160002060008373ffffffffffffffffffffffffffffffffffffffff1673ffffffffffffffffffffffffffffffffffffffff16815260200190815260200160002054905092915050565b600033905090565b600073ffffffffffffffffffffffffffffffffffffffff168373ffffffffffffffffffffffffffffffffffffffff1603610797576040517f08c379a000000000000000000000000000000000000000000000000000000000815260040161078e906112e2565b60405180910390fd5b600073ffffffffffffffffffffffffffffffffffffffff168273ffffffffffffffffffffffffffffffffffffffff1603610806576040517f08c379a00000000000000000000000000000000000000000000000000000000081526004016107fd90611374565b60405180910390fd5b80600160008573ffffffffffffffffffffffffffffffffffffffff1673ffffffffffffffffffffffffffffffffffffffff16815260200190815260200160002060008473ffffffffffffffffffffffffffffffffffffffff1673ffffffffffffffffffffffffffffffffffffffff168152602001908152602001600020819055508173ffffffffffffffffffffffffffffffffffffffff168373ffffffffffffffffffffffffffffffffffffffff167f8c5be1e5ebec7d5bd14f71427d1e84f3dd0314c0f7b2291e5b200ac8c7c3b925836040516108e49190610f23565b60405180910390a3505050565b60006108fd8484610699565b90507fffffffffffffffffffffffffffffffffffffffffffffffffffffffffffffffff81146109775781811015610969576040517f08c379a0000000000000000000000000000000000000000000000000000000008152600401610960906113e0565b60405180910390fd5b6109768484848403610728565b5b50505050565b600073ffffffffffffffffffffffffffffffffffffffff168373ffffffffffffffffffffffffffffffffffffffff16036109ec576040517f08c379a00000000000000000000000000000000000000000000000000000000081526004016109e390611472565b60405180910390fd5b600073ffffffffffffffffffffffffffffffffffffffff168273ffffffffffffffffffffffffffffffffffffffff1603610a5b576040517f08c379a0000000000000000000000000000000000000000000000000000000008152600401610a5290611504565b60405180910390fd5b610a66838383610d49565b60008060008573ffffffffffffffffffffffffffffffffffffffff1673ffffffffffffffffffffffffffffffffffffffff16815260200190815260200160002054905081811015610aec576040517f08c379a0000000000000000000000000000000000000000000000000000000008152600401610ae390611596565b60405180910390fd5b8181036000808673ffffffffffffffffffffffffffffffffffffffff1673ffffffffffffffffffffffffffffffffffffffff16815260200190815260200160002081905550816000808573ffffffffffffffffffffffffffffffffffffffff1673ffffffffffffffffffffffffffffffffffffffff168152602001908152602001600020600082825401925050819055508273ffffffffffffffffffffffffffffffffffffffff168473ffffffffffffffffffffffffffffffffffffffff167fddf252ad1be2c89b69c2b068fc378daa952ba7f163c4a11628f55a4df523b3ef84604051610bda9190610f23565b60405180910390a3610bed848484610d4e565b50505050565b600073ffffffffffffffffffffffffffffffffffffffff168273ffffffffffffffffffffffffffffffffffffffff1603610c62576040517f08c379a0000000000000000000000000000000000000000000000000000000008152600401610c5990611602565b60405180910390fd5b610c6e60008383610d49565b8060026000828254610c80919061113e565b92505081905550806000808473ffffffffffffffffffffffffffffffffffffffff1673ffffffffffffffffffffffffffffffffffffffff168152602001908152602001600020600082825401925050819055508173ffffffffffffffffffffffffffffffffffffffff16600073ffffffffffffffffffffffffffffffffffffffff167fddf252ad1be2c89b69c2b068fc378daa952ba7f163c4a11628f55a4df523b3ef83604051610d319190610f23565b60405180910390a3610d4560008383610d4e565b5050565b505050565b505050565b600081519050919050565b600082825260208201905092915050565b60005b83811015610d8d578082015181840152602081019050610d72565b60008484015250505050565b6000601f19601f8301169050919050565b6000610db582610d53565b610dbf8185610d5e565b9350610dcf818560208601610d6f565b610dd881610d99565b840191505092915050565b60006020820190508181036000830152610dfd8184610daa565b905092915050565b600080fd5b600073ffffffffffffffffffffffffffffffffffffffff82169050919050565b6000610e3582610e0a565b9050919050565b610e4581610e2a565b8114610e5057600080fd5b50565b600081359050610e6281610e3c565b92915050565b6000819050919050565b610e7b81610e68565b8114610e8657600080fd5b50565b600081359050610e9881610e72565b92915050565b60008060408385031215610eb557610eb4610e05565b5b6000610ec385828601610e53565b9250506020610ed485828601610e89565b9150509250929050565b60008115159050919050565b610ef381610ede565b82525050565b6000602082019050610f0e6000830184610eea565b92915050565b610f1d81610e68565b82525050565b6000602082019050610f386000830184610f14565b92915050565b6000819050919050565b6000610f63610f5e610f5984610e0a565b610f3e565b610e0a565b9050919050565b6000610f7582610f48565b9050919050565b6000610f8782610f6a565b9050919050565b610f9781610f7c565b82525050565b6000602082019050610fb26000830184610f8e565b92915050565b600080600060608486031215610fd157610fd0610e05565b5b6000610fdf86828701610e53565b9350506020610ff086828701610e53565b925050604061100186828701610e89565b9150509250925092565b600060ff82169050919050565b6110218161100b565b82525050565b600060208201905061103c6000830184611018565b92915050565b60006020828403121561105857611057610e05565b5b600061106684828501610e53565b91505092915050565b6000806040838503121561108657611085610e05565b5b600061109485828601610e53565b92505060206110a585828601610e53565b9150509250929050565b7f4e487b7100000000000000000000000000000000000000000000000000000000600052602260045260246000fd5b600060028204905060018216806110f657607f821691505b602082108103611109576111086110af565b5b50919050565b7f4e487b7100000000000000000000000000000000000000000000000000000000600052601160045260246000fd5b600061114982610e68565b915061115483610e68565b925082820190508082111561116c5761116b61110f565b5b92915050565b7f436f6e7472616374204f776e65722063616e206f6e6c7920446f207468697300600082015250565b60006111a8601f83610d5e565b91506111b382611172565b602082019050919050565b600060208201905081810360008301526111d78161119b565b9050919050565b7f45524332303a2064656372656173656420616c6c6f77616e63652062656c6f7760008201527f207a65726f000000000000000000000000000000000000000000000000000000602082015250565b600061123a602583610d5e565b9150611245826111de565b604082019050919050565b600060208201905081810360008301526112698161122d565b9050919050565b7f45524332303a20617070726f76652066726f6d20746865207a65726f2061646460008201527f7265737300000000000000000000000000000000000000000000000000000000602082015250565b60006112cc602483610d5e565b91506112d782611270565b604082019050919050565b600060208201905081810360008301526112fb816112bf565b9050919050565b7f45524332303a20617070726f766520746f20746865207a65726f20616464726560008201527f7373000000000000000000000000000000000000000000000000000000000000602082015250565b600061135e602283610d5e565b915061136982611302565b604082019050919050565b6000602082019050818103600083015261138d81611351565b9050919050565b7f45524332303a20696e73756666696369656e7420616c6c6f77616e6365000000600082015250565b60006113ca601d83610d5e565b91506113d582611394565b602082019050919050565b600060208201905081810360008301526113f9816113bd565b9050919050565b7f45524332303a207472616e736665722066726f6d20746865207a65726f20616460008201527f6472657373000000000000000000000000000000000000000000000000000000602082015250565b600061145c602583610d5e565b915061146782611400565b604082019050919050565b6000602082019050818103600083015261148b8161144f565b9050919050565b7f45524332303a207472616e7366657220746f20746865207a65726f206164647260008201527f6573730000000000000000000000000000000000000000000000000000000000602082015250565b60006114ee602383610d5e565b91506114f982611492565b604082019050919050565b6000602082019050818103600083015261151d816114e1565b9050919050565b7f45524332303a207472616e7366657220616d6f756e742065786365656473206260008201527f616c616e63650000000000000000000000000000000000000000000000000000602082015250565b6000611580602683610d5e565b915061158b82611524565b604082019050919050565b600060208201905081810360008301526115af81611573565b9050919050565b7f45524332303a206d696e7420746f20746865207a65726f206164647265737300600082015250565b60006115ec601f83610d5e565b91506115f7826115b6565b602082019050919050565b6000602082019050818103600083015261161b816115df565b905091905056fea2646970667358221220d028ccd210c6bf20df4f3506400689053a228b1300260bf8a00e64210366c1f464736f6c63430008110033a2646970667358221220779f5448a101c1374d67e460e9650156446d299b3120038b7d852b7e3399759664736f6c63430008110033",
  "immutableReferences": {},
  "source": "// SPDX-License-Identifier: UNLICENSED\npragma solidity ^0.8;\n\nimport \"./ERC20.sol\";\n\n/// @title CrowdFudndingDao\n/// @author \n/// @notice You can use this contract for mint a new ERC20 based INRtoken\n/// @dev All function calls are currently implemented without side effects\n\ncontract CrowdFunding{\n    //State Variables\n    address public admin;\n    ERC20Token private token;\n\n    /**\n    * @dev Constructor function to set the admin\n    * @param _admin admin of this contract\n    */\n\n    constructor (address _admin) {\n        admin = _admin;\n    }\n\n    modifier onlyAdmin() {\n        require(admin == msg.sender,\"Only admin\");\n        _;\n    }\n\n    uint256 public campaignCount;\n    \n    struct Campaign{\n        // contract address\n        address contractAddress;\n        // Company Name\n        string companyName;\n        // Name of the token\n        string tokenName;\n        // Symbol of the token\n        string tokenSymbol;\n        // Id of the Campaign\n        uint campaignId;\n        // Creator of the campaign\n        address creator;\n        // Title of the campaign\n        string campaignTitle;\n        // Campaign Description\n        string campaignDescription;\n        // pricePer token fixed by the user\n        uint256 pricePerToken;\n        // required fund\n        uint256 target;\n        // total contribution received\n        uint256 contribution;\n        // totalHeld Balance\n        uint256 heldBalance;\n        // Campaign Start Date\n        uint256 startDate;\n        // Campaign End Date\n        uint256 endDate;\n        // Status of the campaign\n        campainStatus status;\n    }\n\n    struct Company {\n        // Name of the company\n        string companyName;\n        // Token symbol created by the company\n        string tokenSymbol;\n        // Token name created by the company\n        string tokenName;\n        // Contract address against the company's campaign\n        address contractAddress;\n        // Total supply\n        uint256 totalSupply;\n    }\n\n    struct ContributionReceipt{\n        // address of the contributer\n        address contributer;\n        // Id of the camapign \n        uint256 campaignId;\n        // Amount of contribution\n        uint256 amount;\n    }\n\n    /**\n     * @notice event for campaign creation\n     * @dev This event is emitted when a crowdfunding campaign is made.\n     * @param campaignId id of the campaign\n     * @param _companyName name of the company going to create the campaign\n     * @param _title title of the camapaign\n     * @param _description detailed description of the campaign\n     * @param _pricePerToken price per token for eg : 10 NEO tokens == 100INR( here 1 neo is equal to 10 INR)\n     * @param _tokenName Name of the token launched by the user\n     * @param deadLine End date for the campaign to contribute,\n     * @param _target goal of the crowd funding\n     * @param _tokenSymbol symbol of the token launched by the user\n     * @param _totalSupply total supply\n     */\n\n\n    event campaignCreated(\n        uint256 indexed campaignId,\n        string _companyName,\n        string _title,\n        string _description,\n        uint256 indexed _pricePerToken,\n        string _tokenName,\n        uint256 indexed deadLine,\n        uint256 _target,\n        string _tokenSymbol,\n        uint256 _totalSupply\n    );\n\n    /**\n     * @notice approval of the campaign\n     * @dev this event is emitted when a campaign gets approve by the admin\n     * @param campaignId id of the campaign\n     */\n\n    event approved(uint256 indexed campaignId);\n\n    /**\n     * @notice rejection of the campaign\n     * @dev this event is emitted when a campaign gets reject by the admin\n     * @param campaignId id of the campaign\n     */\n\n    event rejected(uint256 indexed campaignId);\n\n    /**\n     * @notice event for contribution\n     * @dev this event will emit when the contribution was maded by the users\n     * @param campaignId Id of the campaign  \n     * @param contribution amount of the contribution by the user\n     * @param contributer address of the contributer\n     */\n\n    event contribution(uint256 indexed campaignId, uint256 indexed contribution, address indexed contributer);\n\n    /**\n     * @notice refund request against the contribution \n     * @dev This event will emit when refund is made\n     * @param campaignId Id of the campaign  \n     * @param contribution amount of the contribution by the user\n     * @param contributer address of the contributer\n     */\n\n    event refunded(uint256 indexed campaignId, uint256 indexed contribution, address indexed contributer);\n\n\n\n    \n    enum campainStatus {APPROVED,REJECTED,PENDING}\n\n    mapping (uint256 => Campaign) campaigns;\n\n    mapping(address => Company) companies;\n    mapping (uint256 => mapping(address => ContributionReceipt)) receipts;\n    mapping (address => uint256) balance;\n\n    /**\n    * @notice To create the new campaign\n    * @dev It will create a new ERC20 token\n    * @param _companyName name of the comapany\n    * @param _title Title of the campaign\n    * @param _description Description of the campaign\n    * @param _pricePerToken Campaign creator can decide price per token would be fixed cost\n    * @param _tokenName Name of the ERC20 Token\n    * @param _tokenSymbol Symbol of the ERC20 token\n    * @param deadLine End date for the campaign\n    * @param _target Goal of this campaign \n    * @param _totalSupply no of token wants to launch by campaign creator\n    **/\n\n    function createCampaign(\n        string memory _companyName,\n        string memory _title,\n        string memory _description,\n        uint8 _pricePerToken,\n        string memory _tokenName,\n        uint256 deadLine,\n        uint256 _target,\n        string memory _tokenSymbol,\n        uint256 _totalSupply\n    ) external {\n        require(msg.sender != admin, \"Admin can't\");\n        address newContract = address(new ERC20Token(_tokenName, _tokenSymbol, _totalSupply, msg.sender));\n        token = ERC20Token(newContract);\n        campaignCount++;\n        Campaign memory campaign  = Campaign({\n        contractAddress : newContract,\n        companyName: _companyName,\n        tokenName: _tokenName,\n        tokenSymbol : _tokenSymbol,\n        campaignId: campaignCount, \n        creator: msg.sender,\n        campaignTitle: _title,\n        campaignDescription: _description,\n        pricePerToken: _pricePerToken,\n        target: _target,\n        heldBalance: _totalSupply *10**18,\n        startDate: block.timestamp,\n        endDate: deadLine,\n        contribution: 0,\n        status: campainStatus.PENDING\n        });\n\n        campaigns[campaign.campaignId] = campaign;\n        balance[campaign.creator] = campaign.heldBalance;\n\n        Company memory _company = Company({\n            companyName: _companyName,\n            tokenSymbol : _tokenSymbol,\n            contractAddress : address(token),\n            tokenName: _tokenName,\n            totalSupply : _totalSupply * 10 ** 18\n        });\n        companies[newContract] = _company;\n\n        emit campaignCreated(\n            campaign.campaignId, \n            campaign.companyName,\n            campaign.campaignTitle,\n            campaign.campaignDescription,\n            campaign.pricePerToken,\n            campaign.tokenName,\n            campaign.endDate,\n            campaign.target,\n            campaign.tokenSymbol,\n            _company.totalSupply\n            );\n    }\n\n    /**\n    * @notice Approve  campaign\n    * @dev admin can approve this campaign\n    * @param campaignId campaign is approved by the admin \n    * @return status returning the enum for the referrence of campaign states\n    */\n\n    function approveCampaign(uint campaignId) external onlyAdmin returns(campainStatus)  {\n        \n        require(campaignCount >= campaignId && campaignId > 0,\"No campaign\");\n        Campaign storage currentCampaign = campaigns[campaignId];\n        require(currentCampaign.status != campainStatus.APPROVED,\"Already approved\");\n        require(currentCampaign.status != campainStatus.REJECTED,\"Already rejected\");\n        currentCampaign.status = campainStatus.APPROVED;\n        campaigns[campaignId] = currentCampaign;\n\n        emit approved(campaignId);\n        return currentCampaign.status; \n    }\n\n    /**\n    * @notice Reject campaign\n    * @dev admin can reject this campaign\n    * @param campaignId campaign is rejected by the admin by the help of this id \n    * @return status returning the enum for the referrence of campaign states\n    */\n\n    function rejectCampaign(uint campaignId) external onlyAdmin returns(campainStatus)  {\n        \n        require(campaignCount >= campaignId && campaignId > 0,\"No campaign\");\n        Campaign storage currentCampaign = campaigns[campaignId];\n        require(currentCampaign.status != campainStatus.APPROVED,\"Already approved\");\n        require(currentCampaign.status != campainStatus.REJECTED,\"Already rejected\");\n        currentCampaign.status = campainStatus.REJECTED;\n        campaigns[campaignId] = currentCampaign;\n        \n        emit rejected(campaignId);\n        return currentCampaign.status; \n\n    }\n\n    /**\n    * @notice contribute to the campaign\n    * @dev getting ERC20 token by giving the fiat currency in msg.value\n    * @param campaignId helping to find and contribute against the campaign by this id \n    * @param amount How many token user want's to buy against the fiat currency\n    * @return bool return true if the contribution get success\n    */\n\n    function contribute(uint256 campaignId, uint256 amount) external payable returns(bool){\n        require(campaignCount >= campaignId && campaignId > 0,\"No campaign\");\n        Campaign storage currentCampaign = campaigns[campaignId];\n        require(currentCampaign.endDate >= block.timestamp,\"DeadLine passed\");\n        require(msg.value == currentCampaign.pricePerToken * amount, \"Incorrect amount\");\n        require(currentCampaign.status == campainStatus.APPROVED, \"Not approved\");\n        require(currentCampaign.target >= currentCampaign.contribution,\"Target reached\");\n\n        currentCampaign.contribution += amount;\n        campaigns[campaignId] = currentCampaign;\n        uint256 transferToken = msg.value/currentCampaign.pricePerToken;\n\n        token.mint(msg.sender,transferToken*10**18);\n\n        currentCampaign.heldBalance -= transferToken *10**18;\n        balance[currentCampaign.creator] -= transferToken *10**18;\n        balance[msg.sender] = transferToken*10**18;\n\n        ContributionReceipt memory _contributer = ContributionReceipt({\n                contributer : msg.sender,\n                amount: msg.value,\n                campaignId:campaignId\n        });\n\n        receipts[campaignId][msg.sender] = _contributer;\n\n        emit contribution(campaignId, currentCampaign.contribution, _contributer.contributer);\n        return true;\n\n    }\n\n    /**\n    * @notice handling the refund\n    * @dev users can call refund if they want their contribution back before deadLine\n    * @param campaignId campaignId helping to find the campaign by this id \n    * @return bool return true if the refund get success\n    */\n\n    function refund(uint256 campaignId, address _address, uint256 _amount) external returns (bool) {\n        require(campaignCount >= campaignId && campaignId > 0,\"No campaign found\");\n\n        Campaign storage currentCampaign = campaigns[campaignId];\n        \n        require(currentCampaign.endDate >= block.timestamp,\"DeadLine passed You can't raise refund request\");\n        ContributionReceipt storage user = receipts[campaignId][_address];\n        require(user.amount == _amount, \"Incorrect amount\");\n        user.amount -= _amount;\n\n        receipts[campaignId][_address] = user;\n        currentCampaign.heldBalance += (_amount/currentCampaign.pricePerToken) * (10 ** 18);\n        balance[currentCampaign.creator] = currentCampaign.heldBalance;\n        balance[_address] -= (_amount/currentCampaign.pricePerToken) * 10 **18;\n        emit refunded(campaignId, _amount, msg.sender);\n\n        return true;\n    }\n\n    /**\n     * @notice contribution receipt\n     * @dev to get receipt for the contribution by the id and contributor address\n     * @param campaignId helps to find the campaign agains\n     * @param contributer address of the contributer\n     * @return contributionReceipt returning struct of the contribution receipt\n     */\n    \n    function getContributionReceipt(uint256 campaignId, address contributer) external view returns (ContributionReceipt memory) {\n        return receipts[campaignId][contributer];\n    }\n\n    /**\n     * @notice Get company\n     * @dev get the company details\n     * @param _contractAddress get the company details that are stored against to this contract address\n     * @return company returning the structure of the company\n     */\n\n    function getCompany(address _contractAddress) public view returns (Company memory){\n        return companies[_contractAddress];\n    }\n\n    /**\n     * @notice get campaign\n     * @dev get the campaign, that are stored against to the id\n     * @param campaignId we can check and get the details of the campaign\n     * @return campaign returning the all details of the campaign in structure\n     */\n\n    function getCampaign(uint256 campaignId) public view returns(Campaign memory){\n        require(campaignCount >= campaignId && campaignId > 0,\"No campaign\");\n        return campaigns[campaignId];\n    }\n\n    /**\n     * @notice get balance\n     * @dev return the balance of the user\n     * @param _address to get the balance, stored against to the address\n     * @return balance returning the balance of the user in uint256 type\n     */\n\n    function getBalance(address _address) external view returns(uint256) {\n        return balance[_address];\n    }\n\n    function companyDetailsByCampaignId(uint256 campaignId) external view returns (\n        address,\n        string memory, \n        string memory, \n        uint256\n    ){\n            Campaign memory _campaign = getCampaign(campaignId);\n            Company memory _company = getCompany(_campaign.contractAddress);\n            return (\n                _company.contractAddress,\n                _company.tokenName,\n                _company.tokenSymbol,\n                _company.totalSupply\n            );           \n    }\n}\n",
  "sourcePath": "/home/neosoft/projects/solidity/crowdFunding/crowdfunding-dao-solidity/contracts/CrowdFunding.sol",
  "compiler": {
    "name": "solc",
    "version": "0.8.17+commit.8df45f5f.Emscripten.clang"
  },
  "schemaVersion": "3.4.10",
  "updatedAt": "2023-02-15T08:42:37.971Z",
  "networkType": "ethereum",
  "devdoc": {
    "details": "All function calls are currently implemented without side effects",
    "events": {
      "approved(uint256)": {
        "details": "this event is emitted when a campaign gets approve by the admin",
        "params": {
          "campaignId": "id of the campaign"
        }
      },
      "campaignCreated(uint256,string,string,string,uint256,string,uint256,uint256,string,uint256)": {
        "details": "This event is emitted when a crowdfunding campaign is made.",
        "params": {
          "_companyName": "name of the company going to create the campaign",
          "_description": "detailed description of the campaign",
          "_pricePerToken": "price per token for eg : 10 NEO tokens == 100INR( here 1 neo is equal to 10 INR)",
          "_target": "goal of the crowd funding",
          "_title": "title of the camapaign",
          "_tokenName": "Name of the token launched by the user",
          "_tokenSymbol": "symbol of the token launched by the user",
          "_totalSupply": "total supply",
          "campaignId": "id of the campaign",
          "deadLine": "End date for the campaign to contribute,"
        }
      },
      "contribution(uint256,uint256,address)": {
        "details": "this event will emit when the contribution was maded by the users",
        "params": {
          "campaignId": "Id of the campaign  ",
          "contributer": "address of the contributer",
          "contribution": "amount of the contribution by the user"
        }
      },
      "refunded(uint256,uint256,address)": {
        "details": "This event will emit when refund is made",
        "params": {
          "campaignId": "Id of the campaign  ",
          "contributer": "address of the contributer",
          "contribution": "amount of the contribution by the user"
        }
      },
      "rejected(uint256)": {
        "details": "this event is emitted when a campaign gets reject by the admin",
        "params": {
          "campaignId": "id of the campaign"
        }
      }
    },
    "kind": "dev",
    "methods": {
      "approveCampaign(uint256)": {
        "details": "admin can approve this campaign",
        "params": {
          "campaignId": "campaign is approved by the admin "
        },
        "returns": {
          "_0": "status returning the enum for the referrence of campaign states"
        }
      },
      "constructor": {
        "details": "Constructor function to set the admin",
        "params": {
          "_admin": "admin of this contract"
        }
      },
      "contribute(uint256,uint256)": {
        "details": "getting ERC20 token by giving the fiat currency in msg.value",
        "params": {
          "amount": "How many token user want's to buy against the fiat currency",
          "campaignId": "helping to find and contribute against the campaign by this id "
        },
        "returns": {
          "_0": "bool return true if the contribution get success"
        }
      },
      "createCampaign(string,string,string,uint8,string,uint256,uint256,string,uint256)": {
        "details": "It will create a new ERC20 token",
        "params": {
          "_companyName": "name of the comapany",
          "_description": "Description of the campaign",
          "_pricePerToken": "Campaign creator can decide price per token would be fixed cost",
          "_target": "Goal of this campaign ",
          "_title": "Title of the campaign",
          "_tokenName": "Name of the ERC20 Token",
          "_tokenSymbol": "Symbol of the ERC20 token",
          "_totalSupply": "no of token wants to launch by campaign creator*",
          "deadLine": "End date for the campaign"
        }
      },
      "getBalance(address)": {
        "details": "return the balance of the user",
        "params": {
          "_address": "to get the balance, stored against to the address"
        },
        "returns": {
          "_0": "balance returning the balance of the user in uint256 type"
        }
      },
      "getCampaign(uint256)": {
        "details": "get the campaign, that are stored against to the id",
        "params": {
          "campaignId": "we can check and get the details of the campaign"
        },
        "returns": {
          "_0": "campaign returning the all details of the campaign in structure"
        }
      },
      "getCompany(address)": {
        "details": "get the company details",
        "params": {
          "_contractAddress": "get the company details that are stored against to this contract address"
        },
        "returns": {
          "_0": "company returning the structure of the company"
        }
      },
      "getContributionReceipt(uint256,address)": {
        "details": "to get receipt for the contribution by the id and contributor address",
        "params": {
          "campaignId": "helps to find the campaign agains",
          "contributer": "address of the contributer"
        },
        "returns": {
          "_0": "contributionReceipt returning struct of the contribution receipt"
        }
      },
      "refund(uint256,address,uint256)": {
        "details": "users can call refund if they want their contribution back before deadLine",
        "params": {
          "campaignId": "campaignId helping to find the campaign by this id "
        },
        "returns": {
          "_0": "bool return true if the refund get success"
        }
      },
      "rejectCampaign(uint256)": {
        "details": "admin can reject this campaign",
        "params": {
          "campaignId": "campaign is rejected by the admin by the help of this id "
        },
        "returns": {
          "_0": "status returning the enum for the referrence of campaign states"
        }
      }
    },
    "title": "CrowdFudndingDao",
    "version": 1
  },
  "userdoc": {
    "events": {
      "approved(uint256)": {
        "notice": "approval of the campaign"
      },
      "campaignCreated(uint256,string,string,string,uint256,string,uint256,uint256,string,uint256)": {
        "notice": "event for campaign creation"
      },
      "contribution(uint256,uint256,address)": {
        "notice": "event for contribution"
      },
      "refunded(uint256,uint256,address)": {
        "notice": "refund request against the contribution "
      },
      "rejected(uint256)": {
        "notice": "rejection of the campaign"
      }
    },
    "kind": "user",
    "methods": {
      "approveCampaign(uint256)": {
        "notice": "Approve  campaign"
      },
      "contribute(uint256,uint256)": {
        "notice": "contribute to the campaign"
      },
      "createCampaign(string,string,string,uint8,string,uint256,uint256,string,uint256)": {
        "notice": "To create the new campaign"
      },
      "getBalance(address)": {
        "notice": "get balance"
      },
      "getCampaign(uint256)": {
        "notice": "get campaign"
      },
      "getCompany(address)": {
        "notice": "Get company"
      },
      "getContributionReceipt(uint256,address)": {
        "notice": "contribution receipt"
      },
      "refund(uint256,address,uint256)": {
        "notice": "handling the refund"
      },
      "rejectCampaign(uint256)": {
        "notice": "Reject campaign"
      }
    },
    "notice": "You can use this contract for mint a new ERC20 based INRtoken",
    "version": 1
  }
}