{
  "contractName": "Dao",
  "abi": [
    {
      "inputs": [
        {
          "internalType": "address",
          "name": "addr",
          "type": "address"
        }
      ],
      "stateMutability": "nonpayable",
      "type": "constructor"
    },
    {
      "anonymous": false,
      "inputs": [
        {
          "indexed": false,
          "internalType": "uint256",
          "name": "id",
          "type": "uint256"
        },
        {
          "indexed": false,
          "internalType": "address",
          "name": "proposer",
          "type": "address"
        },
        {
          "indexed": false,
          "internalType": "string",
          "name": "description",
          "type": "string"
        },
        {
          "indexed": false,
          "internalType": "string",
          "name": "title",
          "type": "string"
        }
      ],
      "name": "ProposalCreated",
      "type": "event"
    },
    {
      "anonymous": false,
      "inputs": [
        {
          "indexed": false,
          "internalType": "address",
          "name": "voter",
          "type": "address"
        },
        {
          "indexed": false,
          "internalType": "uint256",
          "name": "proposalId",
          "type": "uint256"
        },
        {
          "indexed": false,
          "internalType": "bool",
          "name": "support",
          "type": "bool"
        }
      ],
      "name": "VoteCast",
      "type": "event"
    },
    {
      "inputs": [],
      "name": "contractAddr",
      "outputs": [
        {
          "internalType": "address",
          "name": "",
          "type": "address"
        }
      ],
      "stateMutability": "view",
      "type": "function",
      "constant": true
    },
    {
      "inputs": [],
      "name": "equityToVote",
      "outputs": [
        {
          "internalType": "uint8",
          "name": "",
          "type": "uint8"
        }
      ],
      "stateMutability": "view",
      "type": "function",
      "constant": true
    },
    {
      "inputs": [],
      "name": "name",
      "outputs": [
        {
          "internalType": "string",
          "name": "",
          "type": "string"
        }
      ],
      "stateMutability": "view",
      "type": "function",
      "constant": true
    },
    {
      "inputs": [],
      "name": "proposalCount",
      "outputs": [
        {
          "internalType": "uint256",
          "name": "",
          "type": "uint256"
        }
      ],
      "stateMutability": "view",
      "type": "function",
      "constant": true
    },
    {
      "inputs": [
        {
          "internalType": "uint256",
          "name": "",
          "type": "uint256"
        },
        {
          "internalType": "uint256",
          "name": "",
          "type": "uint256"
        }
      ],
      "name": "proposals",
      "outputs": [
        {
          "internalType": "uint256",
          "name": "id",
          "type": "uint256"
        },
        {
          "internalType": "address",
          "name": "proposer",
          "type": "address"
        },
        {
          "internalType": "uint256",
          "name": "favorVotes",
          "type": "uint256"
        },
        {
          "internalType": "uint256",
          "name": "againstVotes",
          "type": "uint256"
        },
        {
          "internalType": "bool",
          "name": "announced",
          "type": "bool"
        },
        {
          "internalType": "uint256",
          "name": "voterCount",
          "type": "uint256"
        },
        {
          "internalType": "string",
          "name": "description",
          "type": "string"
        },
        {
          "internalType": "string",
          "name": "title",
          "type": "string"
        },
        {
          "internalType": "uint256",
          "name": "dateOfCreation",
          "type": "uint256"
        },
        {
          "internalType": "uint256",
          "name": "deadLine",
          "type": "uint256"
        },
        {
          "internalType": "address",
          "name": "proposalCreatedUnder",
          "type": "address"
        },
        {
          "internalType": "enum Dao.ProposalState",
          "name": "res",
          "type": "uint8"
        }
      ],
      "stateMutability": "view",
      "type": "function",
      "constant": true
    },
    {
      "inputs": [],
      "name": "symbol",
      "outputs": [
        {
          "internalType": "string",
          "name": "",
          "type": "string"
        }
      ],
      "stateMutability": "view",
      "type": "function",
      "constant": true
    },
    {
      "inputs": [],
      "name": "toVotePercentage",
      "outputs": [
        {
          "internalType": "uint8",
          "name": "",
          "type": "uint8"
        }
      ],
      "stateMutability": "view",
      "type": "function",
      "constant": true
    },
    {
      "inputs": [
        {
          "internalType": "string",
          "name": "proposalTitle",
          "type": "string"
        },
        {
          "internalType": "string",
          "name": "proposalDescription",
          "type": "string"
        },
        {
          "internalType": "uint256",
          "name": "campaignId",
          "type": "uint256"
        },
        {
          "internalType": "uint256",
          "name": "endDate",
          "type": "uint256"
        },
        {
          "internalType": "address",
          "name": "tokenAddress",
          "type": "address"
        }
      ],
      "name": "createProposal",
      "outputs": [],
      "stateMutability": "nonpayable",
      "type": "function"
    },
    {
      "inputs": [
        {
          "internalType": "uint256",
          "name": "proposalId",
          "type": "uint256"
        },
        {
          "internalType": "address",
          "name": "voter",
          "type": "address"
        }
      ],
      "name": "getReceipt",
      "outputs": [
        {
          "components": [
            {
              "internalType": "bool",
              "name": "isVoted",
              "type": "bool"
            },
            {
              "internalType": "bool",
              "name": "isSupport",
              "type": "bool"
            },
            {
              "internalType": "uint256",
              "name": "votes",
              "type": "uint256"
            }
          ],
          "internalType": "struct Dao.VoteReceipt",
          "name": "",
          "type": "tuple"
        }
      ],
      "stateMutability": "view",
      "type": "function",
      "constant": true
    },
    {
      "inputs": [
        {
          "internalType": "address",
          "name": "addr",
          "type": "address"
        }
      ],
      "name": "bal",
      "outputs": [
        {
          "internalType": "uint256",
          "name": "",
          "type": "uint256"
        }
      ],
      "stateMutability": "view",
      "type": "function",
      "constant": true
    },
    {
      "inputs": [
        {
          "internalType": "uint256",
          "name": "proposalId",
          "type": "uint256"
        },
        {
          "internalType": "uint256",
          "name": "campaignId",
          "type": "uint256"
        }
      ],
      "name": "stateOfTheProposal",
      "outputs": [
        {
          "internalType": "enum Dao.ProposalState",
          "name": "",
          "type": "uint8"
        }
      ],
      "stateMutability": "nonpayable",
      "type": "function"
    },
    {
      "inputs": [
        {
          "internalType": "uint256",
          "name": "proposalId",
          "type": "uint256"
        },
        {
          "internalType": "bool",
          "name": "vote",
          "type": "bool"
        },
        {
          "internalType": "uint256",
          "name": "campaignId",
          "type": "uint256"
        },
        {
          "internalType": "address",
          "name": "tokenAddress",
          "type": "address"
        }
      ],
      "name": "voteToProposal",
      "outputs": [],
      "stateMutability": "nonpayable",
      "type": "function"
    },
    {
      "inputs": [
        {
          "internalType": "uint256",
          "name": "proposalId",
          "type": "uint256"
        },
        {
          "internalType": "uint256",
          "name": "campaignId",
          "type": "uint256"
        }
      ],
      "name": "proposalResult",
      "outputs": [],
      "stateMutability": "nonpayable",
      "type": "function"
    },
    {
      "inputs": [
        {
          "internalType": "uint256",
          "name": "proposalId",
          "type": "uint256"
        },
        {
          "internalType": "uint256",
          "name": "campaignId",
          "type": "uint256"
        }
      ],
      "name": "getVotes",
      "outputs": [
        {
          "components": [
            {
              "internalType": "address",
              "name": "voterAddress",
              "type": "address"
            },
            {
              "internalType": "bool",
              "name": "support",
              "type": "bool"
            },
            {
              "internalType": "uint256",
              "name": "votes",
              "type": "uint256"
            }
          ],
          "internalType": "struct Dao.Vote[]",
          "name": "",
          "type": "tuple[]"
        }
      ],
      "stateMutability": "view",
      "type": "function",
      "constant": true
    }
  ],
  "bytecode": "0x6080604052600a600560006101000a81548160ff021916908360ff16021790555060058060016101000a81548160ff021916908360ff1602179055503480156200004857600080fd5b5060405162002e9f38038062002e9f83398181016040528101906200006e91906200011f565b806000806101000a81548173ffffffffffffffffffffffffffffffffffffffff021916908373ffffffffffffffffffffffffffffffffffffffff1602179055505062000151565b600080fd5b600073ffffffffffffffffffffffffffffffffffffffff82169050919050565b6000620000e782620000ba565b9050919050565b620000f981620000da565b81146200010557600080fd5b50565b6000815190506200011981620000ee565b92915050565b600060208284031215620001385762000137620000b5565b5b6000620001488482850162000108565b91505092915050565b612d3e80620001616000396000f3fe608060405234801561001057600080fd5b5060043610610107576000357c010000000000000000000000000000000000000000000000000000000090048063419c6f8d116100a957806395d89b411161008357806395d89b4114610268578063c2cfee2714610286578063da35c664146102c1578063e23a9a52146102df57610107565b8063419c6f8d146101ec5780635580f72a1461020857806391f366331461023857610107565b80630c172a90116100e55780630c172a901461017657806315a5d9d8146101945780631dbc1f9d146101b257806330ce59c3146101d057610107565b806304e1fff91461010c57806306fdde0314610128578063087c4a3914610146575b600080fd5b61012660048036038101906101219190611b58565b61030f565b005b61013061081f565b60405161013d9190611c4f565b60405180910390f35b610160600480360381019061015b9190611c71565b6108ad565b60405161016d9190611d28565b60405180910390f35b61017e610c25565b60405161018b9190611d5f565b60405180910390f35b61019c610c38565b6040516101a99190611d89565b60405180910390f35b6101ba610c5e565b6040516101c79190611d5f565b60405180910390f35b6101ea60048036038101906101e59190611ed9565b610c71565b005b61020660048036038101906102019190611c71565b61117a565b005b610222600480360381019061021d9190611f8c565b611398565b60405161022f9190611fc8565b60405180910390f35b610252600480360381019061024d9190611c71565b611458565b60405161025f9190612101565b60405180910390f35b6102706116d8565b60405161027d9190611c4f565b60405180910390f35b6102a0600480360381019061029b9190611c71565b611766565b6040516102b89c9b9a99989796959493929190612132565b60405180910390f35b6102c961193d565b6040516102d69190611fc8565b60405180910390f35b6102f960048036038101906102f491906121fa565b611943565b604051610306919061227c565b60405180910390f35b83826000600b600083815260200190815260200160002060008481526020019081526020016000209050826008541015801561034b5750600083115b801561035a5750828160000154145b610399576040517f08c379a0000000000000000000000000000000000000000000000000000000008152600401610390906122e3565b60405180910390fd5b6007548473ffffffffffffffffffffffffffffffffffffffff166370a08231336040518263ffffffff167c01000000000000000000000000000000000000000000000000000000000281526004016103f19190611d89565b602060405180830381865afa15801561040e573d6000803e3d6000fd5b505050506040513d601f19601f820116820180604052508101906104329190612318565b1015610473576040517f08c379a000000000000000000000000000000000000000000000000000000000815260040161046a90612391565b60405180910390fd5b6000600b60008781526020019081526020016000206000898152602001908152602001600020905080600901544211156104e2576040517f08c379a00000000000000000000000000000000000000000000000000000000081526004016104d9906123fd565b60405180910390fd5b6000600960003373ffffffffffffffffffffffffffffffffffffffff1673ffffffffffffffffffffffffffffffffffffffff168152602001908152602001600020541015610565576040517f08c379a000000000000000000000000000000000000000000000000000000000815260040161055c90612469565b60405180910390fd5b6000600c60008a815260200190815260200160002060003373ffffffffffffffffffffffffffffffffffffffff1673ffffffffffffffffffffffffffffffffffffffff1681526020019081526020016000209050600015158160000160009054906101000a900460ff16151514610611576040517f08c379a0000000000000000000000000000000000000000000000000000000008152600401610608906124d5565b60405180910390fd5b60018160000160006101000a81548160ff021916908315150217905550878160000160016101000a81548160ff0219169083151502179055506001816001018190555033600d60008b815260200190815260200160002060008460050154815260200190815260200160002060006101000a81548173ffffffffffffffffffffffffffffffffffffffff021916908373ffffffffffffffffffffffffffffffffffffffff1602179055508160050160008154809291906106d090612524565b91905055508715610700576106f3600183600201546119ee90919063ffffffff16565b8260020181905550610721565b610718600183600301546119ee90919063ffffffff16565b82600301819055505b80600c60008b815260200190815260200160002060003373ffffffffffffffffffffffffffffffffffffffff1673ffffffffffffffffffffffffffffffffffffffff1681526020019081526020016000206000820160009054906101000a900460ff168160000160006101000a81548160ff0219169083151502179055506000820160019054906101000a900460ff168160000160016101000a81548160ff021916908315150217905550600182015481600101559050507fd356173ae8eeea8691aee4c1be712c314a975a3d43ebc48b08ca54d0dac91228338a8a60405161080c9392919061256c565b60405180910390a1505050505050505050565b6002805461082c906125d2565b80601f0160208091040260200160405190810160405280929190818152602001828054610858906125d2565b80156108a55780601f1061087a576101008083540402835291602001916108a5565b820191906000526020600020905b81548152906001019060200180831161088857829003601f168201915b505050505081565b600082826000600b60008381526020019081526020016000206000848152602001908152602001600020905082600854101580156108eb5750600083115b80156108fa5750828160000154145b610939576040517f08c379a0000000000000000000000000000000000000000000000000000000008152600401610930906122e3565b60405180910390fd5b6000806000600b600089815260200190815260200160002060008a815260200190815260200160002090508060040160009054906101000a900460ff1615610c145760005b8160050154811015610b99576000600c60008c81526020019081526020016000206000600d60008e8152602001908152602001600020600085815260200190815260200160002060009054906101000a900473ffffffffffffffffffffffffffffffffffffffff1673ffffffffffffffffffffffffffffffffffffffff1673ffffffffffffffffffffffffffffffffffffffff1681526020019081526020016000209050600115158160000160019054906101000a900460ff16151503610ad55760096000600d60008e8152602001908152602001600020600085815260200190815260200160002060009054906101000a900473ffffffffffffffffffffffffffffffffffffffff1673ffffffffffffffffffffffffffffffffffffffff1673ffffffffffffffffffffffffffffffffffffffff1681526020019081526020016000205485610ace9190612603565b9450610b85565b600015158160000160019054906101000a900460ff16151503610b845760096000600d60008e8152602001908152602001600020600085815260200190815260200160002060009054906101000a900473ffffffffffffffffffffffffffffffffffffffff1673ffffffffffffffffffffffffffffffffffffffff1673ffffffffffffffffffffffffffffffffffffffff1681526020019081526020016000205484610b819190612603565b93505b5b508080610b9190612524565b91505061097e565b5081831115610bdb57600181600a0160146101000a81548160ff02191690836002811115610bca57610bc9611cb1565b5b021790555060019650505050610c1c565b600281600a0160146101000a81548160ff02191690836002811115610c0357610c02611cb1565b5b021790555060029650505050610c1c565b600096505050505b50505092915050565b600560009054906101000a900460ff1681565b600160009054906101000a900473ffffffffffffffffffffffffffffffffffffffff1681565b600560019054906101000a900460ff1681565b60008054906101000a900473ffffffffffffffffffffffffffffffffffffffff1673ffffffffffffffffffffffffffffffffffffffff1663c75bc794846040518263ffffffff167c0100000000000000000000000000000000000000000000000000000000028152600401610ce69190611fc8565b600060405180830381865afa158015610d03573d6000803e3d6000fd5b505050506040513d6000823e3d601f19601f82011682018060405250810190610d2c91906126bc565b600160006002600060036000600460008891905055879190509081610d51919061290d565b50869190509081610d62919061290d565b508591906101000a81548173ffffffffffffffffffffffffffffffffffffffff021916908373ffffffffffffffffffffffffffffffffffffffff160217905550505050506064600560009054906101000a900460ff1660ff16600454610dc891906129df565b610dd29190612a50565b6006819055506064600560019054906101000a900460ff1660ff16600454610dfa91906129df565b610e049190612a50565b6007819055506006548173ffffffffffffffffffffffffffffffffffffffff166370a08231336040518263ffffffff167c0100000000000000000000000000000000000000000000000000000000028152600401610e629190611d89565b602060405180830381865afa158015610e7f573d6000803e3d6000fd5b505050506040513d601f19601f82011682018060405250810190610ea39190612318565b1015610ee4576040517f08c379a0000000000000000000000000000000000000000000000000000000008152600401610edb90612acd565b60405180910390fd5b60086000815480929190610ef790612524565b9190505550600060405180610180016040528060085481526020013373ffffffffffffffffffffffffffffffffffffffff168152602001600081526020016000815260200160001515815260200160008152602001868152602001878152602001428152602001848152602001600160009054906101000a900473ffffffffffffffffffffffffffffffffffffffff1673ffffffffffffffffffffffffffffffffffffffff16815260200160006002811115610fb657610fb5611cb1565b5b815250905080600b60008681526020019081526020016000206000836000015181526020019081526020016000206000820151816000015560208201518160010160006101000a81548173ffffffffffffffffffffffffffffffffffffffff021916908373ffffffffffffffffffffffffffffffffffffffff160217905550604082015181600201556060820151816003015560808201518160040160006101000a81548160ff02191690831515021790555060a0820151816005015560c0820151816006019081611088919061290d565b5060e082015181600701908161109e919061290d565b506101008201518160080155610120820151816009015561014082015181600a0160006101000a81548173ffffffffffffffffffffffffffffffffffffffff021916908373ffffffffffffffffffffffffffffffffffffffff16021790555061016082015181600a0160146101000a81548160ff0219169083600281111561112957611128611cb1565b5b02179055509050507fe1a39bb955c12c02b24074e4d2e09a80ed84a64ce9b4454b47456e8a26f96e75816000015133878960405161116a9493929190612aed565b60405180910390a1505050505050565b81816000600b60008381526020019081526020016000206000848152602001908152602001600020905082600854101580156111b65750600083115b80156111c55750828160000154145b611204576040517f08c379a00000000000000000000000000000000000000000000000000000000081526004016111fb906122e3565b60405180910390fd5b60006112108633611943565b905060011515816000015115151461125d576040517f08c379a000000000000000000000000000000000000000000000000000000000815260040161125490612b8c565b60405180910390fd5b6000600b600087815260200190815260200160002060008881526020019081526020016000209050806009015442116112cb576040517f08c379a00000000000000000000000000000000000000000000000000000000081526004016112c290612c1e565b60405180910390fd5b60006112d788886108ad565b9050600160028111156112ed576112ec611cb1565b5b816002811115611300576112ff611cb1565b5b14158015611332575060028081111561131c5761131b611cb1565b5b81600281111561132f5761132e611cb1565b5b14155b611371576040517f08c379a000000000000000000000000000000000000000000000000000000000815260040161136890612c8a565b60405180910390fd5b60018260040160006101000a81548160ff0219169083151502179055505050505050505050565b60008060009054906101000a900473ffffffffffffffffffffffffffffffffffffffff1673ffffffffffffffffffffffffffffffffffffffff1663f8b2cb4f836040518263ffffffff167c01000000000000000000000000000000000000000000000000000000000281526004016114109190611d89565b602060405180830381865afa15801561142d573d6000803e3d6000fd5b505050506040513d601f19601f820116820180604052508101906114519190612318565b9050919050565b60606000600b6000848152602001908152602001600020600085815260200190815260200160002060050154905060008167ffffffffffffffff8111156114a2576114a1611dae565b5b6040519080825280602002602001820160405280156114db57816020015b6114c8611a1a565b8152602001906001900390816114c05790505b50905060005b828110156116cc576040518060600160405280600d6000898152602001908152602001600020600084815260200190815260200160002060009054906101000a900473ffffffffffffffffffffffffffffffffffffffff1673ffffffffffffffffffffffffffffffffffffffff168152602001600c60008981526020019081526020016000206000600d60008b8152602001908152602001600020600086815260200190815260200160002060009054906101000a900473ffffffffffffffffffffffffffffffffffffffff1673ffffffffffffffffffffffffffffffffffffffff1673ffffffffffffffffffffffffffffffffffffffff16815260200190815260200160002060000160019054906101000a900460ff1615158152602001600c60008981526020019081526020016000206000600d60008b8152602001908152602001600020600086815260200190815260200160002060009054906101000a900473ffffffffffffffffffffffffffffffffffffffff1673ffffffffffffffffffffffffffffffffffffffff1673ffffffffffffffffffffffffffffffffffffffff168152602001908152602001600020600101548152508282815181106116ae576116ad612caa565b5b602002602001018190525080806116c490612524565b9150506114e1565b50809250505092915050565b600380546116e5906125d2565b80601f0160208091040260200160405190810160405280929190818152602001828054611711906125d2565b801561175e5780601f106117335761010080835404028352916020019161175e565b820191906000526020600020905b81548152906001019060200180831161174157829003601f168201915b505050505081565b600b602052816000526040600020602052806000526040600020600091509150508060000154908060010160009054906101000a900473ffffffffffffffffffffffffffffffffffffffff16908060020154908060030154908060040160009054906101000a900460ff16908060050154908060060180546117e7906125d2565b80601f0160208091040260200160405190810160405280929190818152602001828054611813906125d2565b80156118605780601f1061183557610100808354040283529160200191611860565b820191906000526020600020905b81548152906001019060200180831161184357829003601f168201915b505050505090806007018054611875906125d2565b80601f01602080910402602001604051908101604052809291908181526020018280546118a1906125d2565b80156118ee5780601f106118c3576101008083540402835291602001916118ee565b820191906000526020600020905b8154815290600101906020018083116118d157829003601f168201915b50505050509080600801549080600901549080600a0160009054906101000a900473ffffffffffffffffffffffffffffffffffffffff169080600a0160149054906101000a900460ff1690508c565b60085481565b61194b611a53565b600c600084815260200190815260200160002060008373ffffffffffffffffffffffffffffffffffffffff1673ffffffffffffffffffffffffffffffffffffffff1681526020019081526020016000206040518060600160405290816000820160009054906101000a900460ff161515151581526020016000820160019054906101000a900460ff16151515158152602001600182015481525050905092915050565b60008082846119fd9190612603565b905083811015611a1057611a0f612cd9565b5b8091505092915050565b6040518060600160405280600073ffffffffffffffffffffffffffffffffffffffff168152602001600015158152602001600081525090565b6040518060600160405280600015158152602001600015158152602001600081525090565b6000604051905090565b600080fd5b600080fd5b6000819050919050565b611a9f81611a8c565b8114611aaa57600080fd5b50565b600081359050611abc81611a96565b92915050565b60008115159050919050565b611ad781611ac2565b8114611ae257600080fd5b50565b600081359050611af481611ace565b92915050565b600073ffffffffffffffffffffffffffffffffffffffff82169050919050565b6000611b2582611afa565b9050919050565b611b3581611b1a565b8114611b4057600080fd5b50565b600081359050611b5281611b2c565b92915050565b60008060008060808587031215611b7257611b71611a82565b5b6000611b8087828801611aad565b9450506020611b9187828801611ae5565b9350506040611ba287828801611aad565b9250506060611bb387828801611b43565b91505092959194509250565b600081519050919050565b600082825260208201905092915050565b60005b83811015611bf9578082015181840152602081019050611bde565b60008484015250505050565b6000601f19601f8301169050919050565b6000611c2182611bbf565b611c2b8185611bca565b9350611c3b818560208601611bdb565b611c4481611c05565b840191505092915050565b60006020820190508181036000830152611c698184611c16565b905092915050565b60008060408385031215611c8857611c87611a82565b5b6000611c9685828601611aad565b9250506020611ca785828601611aad565b9150509250929050565b7f4e487b7100000000000000000000000000000000000000000000000000000000600052602160045260246000fd5b60038110611cf157611cf0611cb1565b5b50565b6000819050611d0282611ce0565b919050565b6000611d1282611cf4565b9050919050565b611d2281611d07565b82525050565b6000602082019050611d3d6000830184611d19565b92915050565b600060ff82169050919050565b611d5981611d43565b82525050565b6000602082019050611d746000830184611d50565b92915050565b611d8381611b1a565b82525050565b6000602082019050611d9e6000830184611d7a565b92915050565b600080fd5b600080fd5b7f4e487b7100000000000000000000000000000000000000000000000000000000600052604160045260246000fd5b611de682611c05565b810181811067ffffffffffffffff82111715611e0557611e04611dae565b5b80604052505050565b6000611e18611a78565b9050611e248282611ddd565b919050565b600067ffffffffffffffff821115611e4457611e43611dae565b5b611e4d82611c05565b9050602081019050919050565b82818337600083830152505050565b6000611e7c611e7784611e29565b611e0e565b905082815260208101848484011115611e9857611e97611da9565b5b611ea3848285611e5a565b509392505050565b600082601f830112611ec057611ebf611da4565b5b8135611ed0848260208601611e69565b91505092915050565b600080600080600060a08688031215611ef557611ef4611a82565b5b600086013567ffffffffffffffff811115611f1357611f12611a87565b5b611f1f88828901611eab565b955050602086013567ffffffffffffffff811115611f4057611f3f611a87565b5b611f4c88828901611eab565b9450506040611f5d88828901611aad565b9350506060611f6e88828901611aad565b9250506080611f7f88828901611b43565b9150509295509295909350565b600060208284031215611fa257611fa1611a82565b5b6000611fb084828501611b43565b91505092915050565b611fc281611a8c565b82525050565b6000602082019050611fdd6000830184611fb9565b92915050565b600081519050919050565b600082825260208201905092915050565b6000819050602082019050919050565b61201881611b1a565b82525050565b61202781611ac2565b82525050565b61203681611a8c565b82525050565b606082016000820151612052600085018261200f565b506020820151612065602085018261201e565b506040820151612078604085018261202d565b50505050565b600061208a838361203c565b60608301905092915050565b6000602082019050919050565b60006120ae82611fe3565b6120b88185611fee565b93506120c383611fff565b8060005b838110156120f45781516120db888261207e565b97506120e683612096565b9250506001810190506120c7565b5085935050505092915050565b6000602082019050818103600083015261211b81846120a3565b905092915050565b61212c81611ac2565b82525050565b600061018082019050612148600083018f611fb9565b612155602083018e611d7a565b612162604083018d611fb9565b61216f606083018c611fb9565b61217c608083018b612123565b61218960a083018a611fb9565b81810360c083015261219b8189611c16565b905081810360e08301526121af8188611c16565b90506121bf610100830187611fb9565b6121cd610120830186611fb9565b6121db610140830185611d7a565b6121e9610160830184611d19565b9d9c50505050505050505050505050565b6000806040838503121561221157612210611a82565b5b600061221f85828601611aad565b925050602061223085828601611b43565b9150509250929050565b606082016000820151612250600085018261201e565b506020820151612263602085018261201e565b506040820151612276604085018261202d565b50505050565b6000606082019050612291600083018461223a565b92915050565b7f696e76616c696420696400000000000000000000000000000000000000000000600082015250565b60006122cd600a83611bca565b91506122d882612297565b602082019050919050565b600060208201905081810360008301526122fc816122c0565b9050919050565b60008151905061231281611a96565b92915050565b60006020828403121561232e5761232d611a82565b5b600061233c84828501612303565b91505092915050565b7f3525207374616b65206e65656400000000000000000000000000000000000000600082015250565b600061237b600d83611bca565b915061238682612345565b602082019050919050565b600060208201905081810360008301526123aa8161236e565b9050919050565b7f566f74696e6720706572696f6420656e64656400000000000000000000000000600082015250565b60006123e7601383611bca565b91506123f2826123b1565b602082019050919050565b60006020820190508181036000830152612416816123da565b9050919050565b7f496e73756666696369656e7420746f6b656e0000000000000000000000000000600082015250565b6000612453601283611bca565b915061245e8261241d565b602082019050919050565b6000602082019050818103600083015261248281612446565b9050919050565b7f766f7465206475626c6963617465000000000000000000000000000000000000600082015250565b60006124bf600e83611bca565b91506124ca82612489565b602082019050919050565b600060208201905081810360008301526124ee816124b2565b9050919050565b7f4e487b7100000000000000000000000000000000000000000000000000000000600052601160045260246000fd5b600061252f82611a8c565b91507fffffffffffffffffffffffffffffffffffffffffffffffffffffffffffffffff8203612561576125606124f5565b5b600182019050919050565b60006060820190506125816000830186611d7a565b61258e6020830185611fb9565b61259b6040830184612123565b949350505050565b7f4e487b7100000000000000000000000000000000000000000000000000000000600052602260045260246000fd5b600060028204905060018216806125ea57607f821691505b6020821081036125fd576125fc6125a3565b5b50919050565b600061260e82611a8c565b915061261983611a8c565b9250828201905080821115612631576126306124f5565b5b92915050565b60008151905061264681611b2c565b92915050565b600061265f61265a84611e29565b611e0e565b90508281526020810184848401111561267b5761267a611da9565b5b612686848285611bdb565b509392505050565b600082601f8301126126a3576126a2611da4565b5b81516126b384826020860161264c565b91505092915050565b600080600080608085870312156126d6576126d5611a82565b5b60006126e487828801612637565b945050602085015167ffffffffffffffff81111561270557612704611a87565b5b6127118782880161268e565b935050604085015167ffffffffffffffff81111561273257612731611a87565b5b61273e8782880161268e565b925050606061274f87828801612303565b91505092959194509250565b60008190508160005260206000209050919050565b60006020601f8301049050919050565b60008160020a8302905092915050565b6000600883026127c07fffffffffffffffffffffffffffffffffffffffffffffffffffffffffffffffff82612780565b6127ca8683612780565b95508019841693508086168417925050509392505050565b6000819050919050565b60006128076128026127fd84611a8c565b6127e2565b611a8c565b9050919050565b6000819050919050565b612821836127ec565b61283561282d8261280e565b848454612790565b825550505050565b600090565b61284a61283d565b612855818484612818565b505050565b5b818110156128795761286e600082612842565b60018101905061285b565b5050565b601f8211156128be5761288f8161275b565b61289884612770565b810160208510156128a7578190505b6128bb6128b385612770565b83018261285a565b50505b505050565b60008160020a8304905092915050565b60006128e4600019846008026128c3565b1980831691505092915050565b60006128fd83836128d3565b9150826002028217905092915050565b61291682611bbf565b67ffffffffffffffff81111561292f5761292e611dae565b5b61293982546125d2565b61294482828561287d565b600060209050601f8311600181146129775760008415612965578287015190505b61296f85826128f1565b8655506129d7565b601f1984166129858661275b565b60005b828110156129ad57848901518255600182019150602085019450602081019050612988565b868310156129ca57848901516129c6601f8916826128d3565b8355505b6001600288020188555050505b505050505050565b60006129ea82611a8c565b91506129f583611a8c565b9250828202612a0381611a8c565b91508282048414831517612a1a57612a196124f5565b5b5092915050565b7f4e487b7100000000000000000000000000000000000000000000000000000000600052601260045260246000fd5b6000612a5b82611a8c565b9150612a6683611a8c565b925082612a7657612a75612a21565b5b828204905092915050565b7f313025207374616b65206e656564000000000000000000000000000000000000600082015250565b6000612ab7600e83611bca565b9150612ac282612a81565b602082019050919050565b60006020820190508181036000830152612ae681612aaa565b9050919050565b6000608082019050612b026000830187611fb9565b612b0f6020830186611d7a565b8181036040830152612b218185611c16565b90508181036060830152612b358184611c16565b905095945050505050565b7f4e6f7420706172746963697061746520696e2042616c6c6f7400000000000000600082015250565b6000612b76601983611bca565b9150612b8182612b40565b602082019050919050565b60006020820190508181036000830152612ba581612b69565b9050919050565b7f70726f706f73616c526573756c743a20446561644c696e6520686173206e6f7460008201527f2079657420706173736564000000000000000000000000000000000000000000602082015250565b6000612c08602b83611bca565b9150612c1382612bac565b604082019050919050565b60006020820190508181036000830152612c3781612bfb565b9050919050565b7f616c7265616479204465636c6172656400000000000000000000000000000000600082015250565b6000612c74601083611bca565b9150612c7f82612c3e565b602082019050919050565b60006020820190508181036000830152612ca381612c67565b9050919050565b7f4e487b7100000000000000000000000000000000000000000000000000000000600052603260045260246000fd5b7f4e487b7100000000000000000000000000000000000000000000000000000000600052600160045260246000fdfea26469706673582212204e8121bd1cfcdd569168d22b582b0acaac163deb44203926faf42f74f7ce353664736f6c63430008110033",
  "immutableReferences": {},
  "source": "// SPDX-License-Identifier: MIT\npragma solidity ^0.8.6;\nimport \"./CrowdFunding.sol\";\nimport \"@openzeppelin/contracts/token/ERC20/ERC20.sol\";\n\ncontract Dao{\n    CrowdFunding instance;\n    address public contractAddr;\n    string public name;\n    string public symbol;\n    uint256 _totalSupply;\n    // minimum required tokens to creating proposal\n    uint8 public toVotePercentage = 10;\n    uint8 public equityToVote = 5;\n    uint256 minReqTokenCreateProposal;\n    uint256 minReqTokenToVoteProposal;\n\n    uint256 public proposalCount;\n\n    mapping(address => uint256) balances;\n    mapping(address => mapping(address => uint256)) allowed;\n\n\n    using SafeMath for uint256;\n\n    constructor(address addr) {\n        instance = CrowdFunding(addr);\n    }\n\n    modifier isProposalFound(uint256 proposalId, uint256 campaignId) {\n        Proposal storage proposal = proposals[campaignId][proposalId];\n        require(\n            proposalCount >= proposalId && proposalId > 0 && proposal.id == proposalId,\n            \"invalid id\"\n        );\n        _;\n    }\n\n    /// @notice Detailed feilds of proposal\n    struct Proposal {\n        //  proposal Id\n        uint256 id;\n        //  owner of the proposal\n        address proposer;\n        //  favor votes of the proposal\n        uint256 favorVotes;\n        //  against votes of the proposal\n        uint256 againstVotes;\n        //  announced = true if the proposal if announced\n        bool announced;\n        // total No.of voters\n        uint256 voterCount;\n        // description  of the proposal\n        string description;\n        // title  of the proposal\n        string title;\n        // proposal created Date\n        uint256 dateOfCreation;\n        // deadLine of the proposal for vote\n        uint256 deadLine;\n        // Contract address of the company\n        address proposalCreatedUnder;\n        // set the proposal is passed or rejected status by Enum        \n        ProposalState res;\n    }\n    /// @notice receipt record for a voters\n    struct VoteReceipt {\n        //  Whether Voted or Not\n        bool isVoted;\n        //  whether vote for favor or against\n        bool isSupport;\n        //  Vote Count\n        uint256 votes;\n    }\n\n     struct Vote {\n        address voterAddress;\n        bool support;\n        uint256 votes;\n    }\n\n    // The official record of all proposals ever proposed\n    // CAMPAIGNID => PROPOSALID => PROPOSAL\n    mapping(uint256 =>mapping(uint256=> Proposal)) public proposals;\n\n    // To store receipts of all voters on all proposals\n    // proposalId => (voterAddress => VoteReceipt)\n    mapping(uint256 => mapping(address => VoteReceipt)) voterReceipts;\n\n    // To store all voters on all proposals\n    // proposalId => (voterIndex => voterAddress)\n    mapping(uint256 => mapping(uint256 => address)) voters;\n\n    /// @notice Possible states that a proposal may be in\n    enum ProposalState {ACTIVE, ACCEPTED, REJECTED}\n\n    /// @notice An event emitted when a new proposal is created\n    event ProposalCreated( uint256 id, address proposer, string description, string title);\n\n    /// @notice An event emitted when a vote has been cast on a proposal\n    event VoteCast(address voter, uint256 proposalId, bool support);\n\n    function createProposal(\n        string memory proposalTitle, \n        string memory proposalDescription, \n        uint256 campaignId, \n        uint256 endDate, \n        address tokenAddress\n        ) external{\n        \n        (contractAddr, \n        name, \n        symbol, \n        _totalSupply\n        ) = instance.companyDetailsByCampaignId(campaignId);\n        minReqTokenCreateProposal = (_totalSupply * toVotePercentage / 100);\n        minReqTokenToVoteProposal = (_totalSupply * equityToVote / 100); \n        require (ERC20(tokenAddress).balanceOf(msg.sender)>= minReqTokenCreateProposal, \"10% stake need\");\n        \n        proposalCount++;\n        Proposal memory newProposal = Proposal({\n            id: proposalCount,\n            proposer: msg.sender,\n            favorVotes: 0,\n            againstVotes: 0,\n            announced: false,\n            voterCount: 0,\n            description: proposalDescription,\n            title: proposalTitle,\n            dateOfCreation: block.timestamp,\n            deadLine : endDate,\n            proposalCreatedUnder :contractAddr,\n            res: ProposalState.ACTIVE\n        });\n\n        proposals[campaignId][newProposal.id] = newProposal;\n        emit ProposalCreated(\n            newProposal.id,\n            msg.sender,\n            proposalDescription,\n            proposalTitle\n        );\n    }\n\n    function getReceipt(uint256 proposalId, address voter) public view returns (VoteReceipt memory) {\n        return voterReceipts[proposalId][voter];\n    }\n\n    function bal(address addr) view external returns(uint256){\n        return instance.getBalance(addr);\n    }\n\n    function stateOfTheProposal(uint256 proposalId, uint256 campaignId) public isProposalFound(proposalId,campaignId) returns (ProposalState) {\n        uint256 totalAmountOfPassVoters;\n        uint256 totalAmountOfRejectVoters;\n        Proposal storage proposal = proposals[campaignId][proposalId];\n        if (proposal.announced) {\n            for (uint256 i = 0; i < proposal.voterCount; i++) {\n                VoteReceipt storage receipt = voterReceipts[proposalId][\n                    voters[proposalId][i]\n                ];\n                if (receipt.isSupport == true) {\n                    totalAmountOfPassVoters += balances[voters[proposalId][i]];\n                } else if (receipt.isSupport == false) {\n                    totalAmountOfRejectVoters += balances[voters[proposalId][i]];\n                }\n            }\n            if (totalAmountOfPassVoters > totalAmountOfRejectVoters) {\n                proposal.res = ProposalState.ACCEPTED;\n                return ProposalState.ACCEPTED;\n            } else {\n                proposal.res = ProposalState.REJECTED;\n                return ProposalState.REJECTED;\n            }\n        } else {\n            return ProposalState.ACTIVE;\n        }\n    }\n\n    function voteToProposal(uint256 proposalId, bool vote, uint256 campaignId, address tokenAddress) isProposalFound(proposalId,campaignId) external{\n        require(ERC20(tokenAddress).balanceOf(msg.sender) >= minReqTokenToVoteProposal, \"5% stake need\");\n        Proposal storage proposal = proposals[campaignId][proposalId];\n        require(\n            block.timestamp <= proposal.deadLine,\n            \"Voting period ended\"\n        );\n        require(\n            balances[msg.sender] >= 0,\n            \"Insufficient token\"\n        );\n        VoteReceipt storage receipt = voterReceipts[proposalId][msg.sender];\n        require((receipt.isVoted == false), \"vote dublicate\");\n\n        receipt.isVoted = true;\n        receipt.isSupport = vote;\n        receipt.votes = 1;\n        voters[proposalId][proposal.voterCount] = msg.sender;\n        proposal.voterCount++;\n        if (vote) {\n            proposal.favorVotes = proposal.favorVotes.add(1);\n        } else {\n            proposal.againstVotes = proposal.againstVotes.add(1);\n        }\n        voterReceipts[proposalId][msg.sender] = receipt;\n        emit VoteCast(msg.sender, proposalId, vote);\n    }\n\n    function proposalResult(uint256 proposalId, uint256 campaignId) external isProposalFound(proposalId,campaignId) {\n\n        VoteReceipt memory _voterReceipt = getReceipt(proposalId, msg.sender);\n        require(_voterReceipt.isVoted == true, \"Not participate in Ballot\" );\n\n        Proposal storage proposal = proposals[campaignId][proposalId];\n        require(block.timestamp > proposal.deadLine,\"proposalResult: DeadLine has not yet passed\");\n\n        ProposalState _ProposalState = stateOfTheProposal(proposalId,campaignId);\n        require(\n            _ProposalState != ProposalState.ACCEPTED &&_ProposalState != ProposalState.REJECTED,\n            \"already Declared\"\n        );\n        proposal.announced = true;\n    }\n\n    function getVotes(uint256 proposalId, uint256 campaignId) public view returns (Vote[] memory) {\n        uint256 voterCount = proposals[campaignId][proposalId].voterCount;\n        Vote[] memory votes = new Vote[](voterCount);\n        for (uint256 i = 0; i < voterCount; i++) {\n            votes[i] = Vote(\n                voters[proposalId][i],\n                voterReceipts[proposalId][voters[proposalId][i]].isSupport,\n                voterReceipts[proposalId][voters[proposalId][i]].votes\n            );\n        }\n        return votes;\n    }\n}\n\nlibrary SafeMath {\n    function add(uint256 a, uint256 b) internal pure returns (uint256) {\n        uint256 c = a + b;\n        assert(c >= a);\n        return c;\n    }\n}",
  "sourcePath": "/home/neosoft/projects/solidity/crowdFunding/crowdfunding-dao-solidity/contracts/Dao.sol",
  "compiler": {
    "name": "solc",
    "version": "0.8.17+commit.8df45f5f.Emscripten.clang"
  },
  "schemaVersion": "3.4.11",
  "updatedAt": "2023-03-09T20:03:15.130Z",
  "networkType": "ethereum",
  "devdoc": {
    "kind": "dev",
    "methods": {},
    "version": 1
  },
  "userdoc": {
    "events": {
      "ProposalCreated(uint256,address,string,string)": {
        "notice": "An event emitted when a new proposal is created"
      },
      "VoteCast(address,uint256,bool)": {
        "notice": "An event emitted when a vote has been cast on a proposal"
      }
    },
    "kind": "user",
    "methods": {},
    "version": 1
  }
}