{
  "contractName": "Dao",
  "abi": [
    {
      "inputs": [
        {
          "internalType": "address",
          "name": "addr",
          "type": "address"
        }
      ],
      "stateMutability": "nonpayable",
      "type": "constructor"
    },
    {
      "anonymous": false,
      "inputs": [
        {
          "indexed": false,
          "internalType": "uint256",
          "name": "id",
          "type": "uint256"
        },
        {
          "indexed": false,
          "internalType": "address",
          "name": "proposer",
          "type": "address"
        },
        {
          "indexed": false,
          "internalType": "string",
          "name": "description",
          "type": "string"
        },
        {
          "indexed": false,
          "internalType": "string",
          "name": "title",
          "type": "string"
        }
      ],
      "name": "ProposalCreated",
      "type": "event"
    },
    {
      "anonymous": false,
      "inputs": [
        {
          "indexed": false,
          "internalType": "address",
          "name": "voter",
          "type": "address"
        },
        {
          "indexed": false,
          "internalType": "uint256",
          "name": "proposalId",
          "type": "uint256"
        },
        {
          "indexed": false,
          "internalType": "bool",
          "name": "support",
          "type": "bool"
        }
      ],
      "name": "VoteCast",
      "type": "event"
    },
    {
      "inputs": [],
      "name": "contractAddr",
      "outputs": [
        {
          "internalType": "address",
          "name": "",
          "type": "address"
        }
      ],
      "stateMutability": "view",
      "type": "function",
      "constant": true
    },
    {
      "inputs": [],
      "name": "equityToVote",
      "outputs": [
        {
          "internalType": "uint8",
          "name": "",
          "type": "uint8"
        }
      ],
      "stateMutability": "view",
      "type": "function",
      "constant": true
    },
    {
      "inputs": [],
      "name": "name",
      "outputs": [
        {
          "internalType": "string",
          "name": "",
          "type": "string"
        }
      ],
      "stateMutability": "view",
      "type": "function",
      "constant": true
    },
    {
      "inputs": [],
      "name": "proposalCount",
      "outputs": [
        {
          "internalType": "uint256",
          "name": "",
          "type": "uint256"
        }
      ],
      "stateMutability": "view",
      "type": "function",
      "constant": true
    },
    {
      "inputs": [
        {
          "internalType": "uint256",
          "name": "",
          "type": "uint256"
        },
        {
          "internalType": "uint256",
          "name": "",
          "type": "uint256"
        }
      ],
      "name": "proposals",
      "outputs": [
        {
          "internalType": "uint256",
          "name": "id",
          "type": "uint256"
        },
        {
          "internalType": "address",
          "name": "proposer",
          "type": "address"
        },
        {
          "internalType": "uint256",
          "name": "favorVotes",
          "type": "uint256"
        },
        {
          "internalType": "uint256",
          "name": "againstVotes",
          "type": "uint256"
        },
        {
          "internalType": "bool",
          "name": "announced",
          "type": "bool"
        },
        {
          "internalType": "uint256",
          "name": "voterCount",
          "type": "uint256"
        },
        {
          "internalType": "string",
          "name": "description",
          "type": "string"
        },
        {
          "internalType": "string",
          "name": "title",
          "type": "string"
        },
        {
          "internalType": "uint256",
          "name": "dateOfCreation",
          "type": "uint256"
        },
        {
          "internalType": "uint256",
          "name": "deadLine",
          "type": "uint256"
        },
        {
          "internalType": "address",
          "name": "proposalCreatedUnder",
          "type": "address"
        },
        {
          "internalType": "enum Dao.ProposalState",
          "name": "res",
          "type": "uint8"
        }
      ],
      "stateMutability": "view",
      "type": "function",
      "constant": true
    },
    {
      "inputs": [],
      "name": "symbol",
      "outputs": [
        {
          "internalType": "string",
          "name": "",
          "type": "string"
        }
      ],
      "stateMutability": "view",
      "type": "function",
      "constant": true
    },
    {
      "inputs": [],
      "name": "toVotePercentage",
      "outputs": [
        {
          "internalType": "uint8",
          "name": "",
          "type": "uint8"
        }
      ],
      "stateMutability": "view",
      "type": "function",
      "constant": true
    },
    {
      "inputs": [
        {
          "internalType": "string",
          "name": "proposalTitle",
          "type": "string"
        },
        {
          "internalType": "string",
          "name": "proposalDescription",
          "type": "string"
        },
        {
          "internalType": "uint256",
          "name": "campaignId",
          "type": "uint256"
        },
        {
          "internalType": "uint256",
          "name": "endDate",
          "type": "uint256"
        },
        {
          "internalType": "address",
          "name": "tokenAddress",
          "type": "address"
        }
      ],
      "name": "createProposal",
      "outputs": [],
      "stateMutability": "nonpayable",
      "type": "function"
    },
    {
      "inputs": [
        {
          "internalType": "uint256",
          "name": "proposalId",
          "type": "uint256"
        },
        {
          "internalType": "address",
          "name": "voter",
          "type": "address"
        }
      ],
      "name": "getReceipt",
      "outputs": [
        {
          "components": [
            {
              "internalType": "bool",
              "name": "isVoted",
              "type": "bool"
            },
            {
              "internalType": "bool",
              "name": "isSupport",
              "type": "bool"
            },
            {
              "internalType": "uint256",
              "name": "votes",
              "type": "uint256"
            }
          ],
          "internalType": "struct Dao.VoteReceipt",
          "name": "",
          "type": "tuple"
        }
      ],
      "stateMutability": "view",
      "type": "function",
      "constant": true
    },
    {
      "inputs": [
        {
          "internalType": "uint256",
          "name": "proposalId",
          "type": "uint256"
        },
        {
          "internalType": "uint256",
          "name": "campaignId",
          "type": "uint256"
        }
      ],
      "name": "stateOfTheProposal",
      "outputs": [
        {
          "internalType": "enum Dao.ProposalState",
          "name": "",
          "type": "uint8"
        }
      ],
      "stateMutability": "nonpayable",
      "type": "function"
    },
    {
      "inputs": [
        {
          "internalType": "uint256",
          "name": "proposalId",
          "type": "uint256"
        },
        {
          "internalType": "bool",
          "name": "vote",
          "type": "bool"
        },
        {
          "internalType": "uint256",
          "name": "campaignId",
          "type": "uint256"
        },
        {
          "internalType": "address",
          "name": "tokenAddress",
          "type": "address"
        }
      ],
      "name": "voteToProposal",
      "outputs": [],
      "stateMutability": "nonpayable",
      "type": "function"
    },
    {
      "inputs": [
        {
          "internalType": "uint256",
          "name": "proposalId",
          "type": "uint256"
        },
        {
          "internalType": "uint256",
          "name": "campaignId",
          "type": "uint256"
        }
      ],
      "name": "proposalResult",
      "outputs": [],
      "stateMutability": "nonpayable",
      "type": "function"
    },
    {
      "inputs": [
        {
          "internalType": "uint256",
          "name": "proposalId",
          "type": "uint256"
        },
        {
          "internalType": "uint256",
          "name": "campaignId",
          "type": "uint256"
        }
      ],
      "name": "getVotes",
      "outputs": [
        {
          "components": [
            {
              "internalType": "address",
              "name": "voterAddress",
              "type": "address"
            },
            {
              "internalType": "bool",
              "name": "support",
              "type": "bool"
            },
            {
              "internalType": "uint256",
              "name": "votes",
              "type": "uint256"
            }
          ],
          "internalType": "struct Dao.Vote[]",
          "name": "",
          "type": "tuple[]"
        }
      ],
      "stateMutability": "view",
      "type": "function",
      "constant": true
    }
  ],
  "bytecode": "0x6080604052600a600560016101000a81548160ff021916908360ff16021790555060058060026101000a81548160ff021916908360ff1602179055503480156200004857600080fd5b506040516200300e3803806200300e83398181016040528101906200006e91906200011f565b806000806101000a81548173ffffffffffffffffffffffffffffffffffffffff021916908373ffffffffffffffffffffffffffffffffffffffff1602179055505062000151565b600080fd5b600073ffffffffffffffffffffffffffffffffffffffff82169050919050565b6000620000e782620000ba565b9050919050565b620000f981620000da565b81146200010557600080fd5b50565b6000815190506200011981620000ee565b92915050565b600060208284031215620001385762000137620000b5565b5b6000620001488482850162000108565b91505092915050565b612ead80620001616000396000f3fe608060405234801561001057600080fd5b50600436106100ec576000357c01000000000000000000000000000000000000000000000000000000009004806330ce59c3116100a957806395d89b411161008357806395d89b411461021d578063c2cfee271461023b578063da35c66414610276578063e23a9a5214610294576100ec565b806330ce59c3146101b5578063419c6f8d146101d157806391f36633146101ed576100ec565b806304e1fff9146100f157806306fdde031461010d578063087c4a391461012b5780630c172a901461015b57806315a5d9d8146101795780631dbc1f9d14610197575b600080fd5b61010b60048036038101906101069190611bcd565b6102c4565b005b6101156107e7565b6040516101229190611cc4565b60405180910390f35b61014560048036038101906101409190611ce6565b610875565b6040516101529190611d9d565b60405180910390f35b610163610b29565b6040516101709190611dd4565b60405180910390f35b610181610b3c565b60405161018e9190611dfe565b60405180910390f35b61019f610b62565b6040516101ac9190611dd4565b60405180910390f35b6101cf60048036038101906101ca9190611f4e565b610b75565b005b6101eb60048036038101906101e69190611ce6565b611146565b005b61020760048036038101906102029190611ce6565b6114cd565b604051610214919061211f565b60405180910390f35b61022561174d565b6040516102329190611cc4565b60405180910390f35b61025560048036038101906102509190611ce6565b6117db565b60405161026d9c9b9a9998979695949392919061215f565b60405180910390f35b61027e6119b2565b60405161028b9190612227565b60405180910390f35b6102ae60048036038101906102a99190612242565b6119b8565b6040516102bb91906122c4565b60405180910390f35b83826000600b60008381526020019081526020016000206000848152602001908152602001600020905082600854101580156103005750600083115b801561030f5750828160000154145b61034e576040517f08c379a00000000000000000000000000000000000000000000000000000000081526004016103459061232b565b60405180910390fd5b670de0b6b3a7640000600754610364919061237a565b8473ffffffffffffffffffffffffffffffffffffffff166370a08231336040518263ffffffff167c01000000000000000000000000000000000000000000000000000000000281526004016103b99190611dfe565b602060405180830381865afa1580156103d6573d6000803e3d6000fd5b505050506040513d601f19601f820116820180604052508101906103fa91906123d1565b101561043b576040517f08c379a00000000000000000000000000000000000000000000000000000000081526004016104329061244a565b60405180910390fd5b6000600b60008781526020019081526020016000206000898152602001908152602001600020905080600901544211156104aa576040517f08c379a00000000000000000000000000000000000000000000000000000000081526004016104a1906124b6565b60405180910390fd5b6000600960003373ffffffffffffffffffffffffffffffffffffffff1673ffffffffffffffffffffffffffffffffffffffff16815260200190815260200160002054101561052d576040517f08c379a000000000000000000000000000000000000000000000000000000000815260040161052490612522565b60405180910390fd5b6000600c60008a815260200190815260200160002060003373ffffffffffffffffffffffffffffffffffffffff1673ffffffffffffffffffffffffffffffffffffffff1681526020019081526020016000209050600015158160000160009054906101000a900460ff161515146105d9576040517f08c379a00000000000000000000000000000000000000000000000000000000081526004016105d09061258e565b60405180910390fd5b60018160000160006101000a81548160ff021916908315150217905550878160000160016101000a81548160ff0219169083151502179055506001816001018190555033600d60008b815260200190815260200160002060008460050154815260200190815260200160002060006101000a81548173ffffffffffffffffffffffffffffffffffffffff021916908373ffffffffffffffffffffffffffffffffffffffff160217905550816005016000815480929190610698906125ae565b919050555087156106c8576106bb60018360020154611a6390919063ffffffff16565b82600201819055506106e9565b6106e060018360030154611a6390919063ffffffff16565b82600301819055505b80600c60008b815260200190815260200160002060003373ffffffffffffffffffffffffffffffffffffffff1673ffffffffffffffffffffffffffffffffffffffff1681526020019081526020016000206000820160009054906101000a900460ff168160000160006101000a81548160ff0219169083151502179055506000820160019054906101000a900460ff168160000160016101000a81548160ff021916908315150217905550600182015481600101559050507fd356173ae8eeea8691aee4c1be712c314a975a3d43ebc48b08ca54d0dac91228338a8a6040516107d4939291906125f6565b60405180910390a1505050505050505050565b600280546107f49061265c565b80601f01602080910402602001604051908101604052809291908181526020018280546108209061265c565b801561086d5780601f106108425761010080835404028352916020019161086d565b820191906000526020600020905b81548152906001019060200180831161085057829003601f168201915b505050505081565b600082826000600b60008381526020019081526020016000206000848152602001908152602001600020905082600854101580156108b35750600083115b80156108c25750828160000154145b610901576040517f08c379a00000000000000000000000000000000000000000000000000000000081526004016108f89061232b565b60405180910390fd5b6000806000600b600089815260200190815260200160002060008a815260200190815260200160002090508060040160009054906101000a900460ff1615610b185760005b8160050154811015610a5d576000600c60008c81526020019081526020016000206000600d60008e8152602001908152602001600020600085815260200190815260200160002060009054906101000a900473ffffffffffffffffffffffffffffffffffffffff1673ffffffffffffffffffffffffffffffffffffffff1673ffffffffffffffffffffffffffffffffffffffff1681526020019081526020016000209050600115158160000160019054906101000a900460ff16151503610a1b57600185610a14919061268d565b9450610a49565b600015158160000160019054906101000a900460ff16151503610a4857600184610a45919061268d565b93505b5b508080610a55906125ae565b915050610946565b50818303610a9e57600381600a0160146101000a81548160ff02191690836003811115610a8d57610a8c611d26565b5b021790555060039650505050610b20565b81831115610adf57600181600a0160146101000a81548160ff02191690836003811115610ace57610acd611d26565b5b021790555060019650505050610b20565b600281600a0160146101000a81548160ff02191690836003811115610b0757610b06611d26565b5b021790555060029650505050610b20565b600096505050505b50505092915050565b600560019054906101000a900460ff1681565b600160009054906101000a900473ffffffffffffffffffffffffffffffffffffffff1681565b600560029054906101000a900460ff1681565b60008054906101000a900473ffffffffffffffffffffffffffffffffffffffff1673ffffffffffffffffffffffffffffffffffffffff1663c75bc794846040518263ffffffff167c0100000000000000000000000000000000000000000000000000000000028152600401610bea9190612227565b600060405180830381865afa158015610c07573d6000803e3d6000fd5b505050506040513d6000823e3d601f19601f82011682018060405250810190610c30919061275b565b60016000600260006003600060046000600560008a91906101000a81548160ff0219169083151502179055508991905055889190509081610c7191906129c0565b50879190509081610c8291906129c0565b508691906101000a81548173ffffffffffffffffffffffffffffffffffffffff021916908373ffffffffffffffffffffffffffffffffffffffff16021790555050505050506064600560019054906101000a900460ff1660ff16600454610ce9919061237a565b610cf39190612ac1565b6006819055506064600560029054906101000a900460ff1660ff16600454610d1b919061237a565b610d259190612ac1565b60078190555060011515600560009054906101000a900460ff16151514610d81576040517f08c379a0000000000000000000000000000000000000000000000000000000008152600401610d7890612b3e565b60405180910390fd5b814210610dc3576040517f08c379a0000000000000000000000000000000000000000000000000000000008152600401610dba90612bd0565b60405180910390fd5b670de0b6b3a7640000600654610dd9919061237a565b8173ffffffffffffffffffffffffffffffffffffffff166370a08231336040518263ffffffff167c0100000000000000000000000000000000000000000000000000000000028152600401610e2e9190611dfe565b602060405180830381865afa158015610e4b573d6000803e3d6000fd5b505050506040513d601f19601f82011682018060405250810190610e6f91906123d1565b1015610eb0576040517f08c379a0000000000000000000000000000000000000000000000000000000008152600401610ea790612c3c565b60405180910390fd5b60086000815480929190610ec3906125ae565b9190505550600060405180610180016040528060085481526020013373ffffffffffffffffffffffffffffffffffffffff168152602001600081526020016000815260200160001515815260200160008152602001868152602001878152602001428152602001848152602001600160009054906101000a900473ffffffffffffffffffffffffffffffffffffffff1673ffffffffffffffffffffffffffffffffffffffff16815260200160006003811115610f8257610f81611d26565b5b815250905080600b60008681526020019081526020016000206000836000015181526020019081526020016000206000820151816000015560208201518160010160006101000a81548173ffffffffffffffffffffffffffffffffffffffff021916908373ffffffffffffffffffffffffffffffffffffffff160217905550604082015181600201556060820151816003015560808201518160040160006101000a81548160ff02191690831515021790555060a0820151816005015560c082015181600601908161105491906129c0565b5060e082015181600701908161106a91906129c0565b506101008201518160080155610120820151816009015561014082015181600a0160006101000a81548173ffffffffffffffffffffffffffffffffffffffff021916908373ffffffffffffffffffffffffffffffffffffffff16021790555061016082015181600a0160146101000a81548160ff021916908360038111156110f5576110f4611d26565b5b02179055509050507fe1a39bb955c12c02b24074e4d2e09a80ed84a64ce9b4454b47456e8a26f96e7581600001513387896040516111369493929190612c5c565b60405180910390a1505050505050565b81816000600b60008381526020019081526020016000206000848152602001908152602001600020905082600854101580156111825750600083115b80156111915750828160000154145b6111d0576040517f08c379a00000000000000000000000000000000000000000000000000000000081526004016111c79061232b565b60405180910390fd5b6000600b600086815260200190815260200160002060008781526020019081526020016000209050600061120487336119b8565b90503373ffffffffffffffffffffffffffffffffffffffff168260010160009054906101000a900473ffffffffffffffffffffffffffffffffffffffff1673ffffffffffffffffffffffffffffffffffffffff160361136d57816009015442116112a3576040517f08c379a000000000000000000000000000000000000000000000000000000000815260040161129a90612d21565b60405180910390fd5b60006112af8888610875565b9050600160038111156112c5576112c4611d26565b5b8160038111156112d8576112d7611d26565b5b1415801561130b5750600260038111156112f5576112f4611d26565b5b81600381111561130857611307611d26565b5b14155b61134a576040517f08c379a000000000000000000000000000000000000000000000000000000000815260040161134190612d8d565b60405180910390fd5b60018360040160006101000a81548160ff021916908315150217905550506114c4565b6001151581600001511515146113b8576040517f08c379a00000000000000000000000000000000000000000000000000000000081526004016113af90612df9565b60405180910390fd5b816009015442116113fe576040517f08c379a00000000000000000000000000000000000000000000000000000000081526004016113f590612d21565b60405180910390fd5b600061140a8888610875565b9050600160038111156114205761141f611d26565b5b81600381111561143357611432611d26565b5b141580156114665750600260038111156114505761144f611d26565b5b81600381111561146357611462611d26565b5b14155b6114a5576040517f08c379a000000000000000000000000000000000000000000000000000000000815260040161149c90612d8d565b60405180910390fd5b60018360040160006101000a81548160ff021916908315150217905550505b50505050505050565b60606000600b6000848152602001908152602001600020600085815260200190815260200160002060050154905060008167ffffffffffffffff81111561151757611516611e23565b5b60405190808252806020026020018201604052801561155057816020015b61153d611a8f565b8152602001906001900390816115355790505b50905060005b82811015611741576040518060600160405280600d6000898152602001908152602001600020600084815260200190815260200160002060009054906101000a900473ffffffffffffffffffffffffffffffffffffffff1673ffffffffffffffffffffffffffffffffffffffff168152602001600c60008981526020019081526020016000206000600d60008b8152602001908152602001600020600086815260200190815260200160002060009054906101000a900473ffffffffffffffffffffffffffffffffffffffff1673ffffffffffffffffffffffffffffffffffffffff1673ffffffffffffffffffffffffffffffffffffffff16815260200190815260200160002060000160019054906101000a900460ff1615158152602001600c60008981526020019081526020016000206000600d60008b8152602001908152602001600020600086815260200190815260200160002060009054906101000a900473ffffffffffffffffffffffffffffffffffffffff1673ffffffffffffffffffffffffffffffffffffffff1673ffffffffffffffffffffffffffffffffffffffff1681526020019081526020016000206001015481525082828151811061172357611722612e19565b5b60200260200101819052508080611739906125ae565b915050611556565b50809250505092915050565b6003805461175a9061265c565b80601f01602080910402602001604051908101604052809291908181526020018280546117869061265c565b80156117d35780601f106117a8576101008083540402835291602001916117d3565b820191906000526020600020905b8154815290600101906020018083116117b657829003601f168201915b505050505081565b600b602052816000526040600020602052806000526040600020600091509150508060000154908060010160009054906101000a900473ffffffffffffffffffffffffffffffffffffffff16908060020154908060030154908060040160009054906101000a900460ff169080600501549080600601805461185c9061265c565b80601f01602080910402602001604051908101604052809291908181526020018280546118889061265c565b80156118d55780601f106118aa576101008083540402835291602001916118d5565b820191906000526020600020905b8154815290600101906020018083116118b857829003601f168201915b5050505050908060070180546118ea9061265c565b80601f01602080910402602001604051908101604052809291908181526020018280546119169061265c565b80156119635780601f1061193857610100808354040283529160200191611963565b820191906000526020600020905b81548152906001019060200180831161194657829003601f168201915b50505050509080600801549080600901549080600a0160009054906101000a900473ffffffffffffffffffffffffffffffffffffffff169080600a0160149054906101000a900460ff1690508c565b60085481565b6119c0611ac8565b600c600084815260200190815260200160002060008373ffffffffffffffffffffffffffffffffffffffff1673ffffffffffffffffffffffffffffffffffffffff1681526020019081526020016000206040518060600160405290816000820160009054906101000a900460ff161515151581526020016000820160019054906101000a900460ff16151515158152602001600182015481525050905092915050565b6000808284611a72919061268d565b905083811015611a8557611a84612e48565b5b8091505092915050565b6040518060600160405280600073ffffffffffffffffffffffffffffffffffffffff168152602001600015158152602001600081525090565b6040518060600160405280600015158152602001600015158152602001600081525090565b6000604051905090565b600080fd5b600080fd5b6000819050919050565b611b1481611b01565b8114611b1f57600080fd5b50565b600081359050611b3181611b0b565b92915050565b60008115159050919050565b611b4c81611b37565b8114611b5757600080fd5b50565b600081359050611b6981611b43565b92915050565b600073ffffffffffffffffffffffffffffffffffffffff82169050919050565b6000611b9a82611b6f565b9050919050565b611baa81611b8f565b8114611bb557600080fd5b50565b600081359050611bc781611ba1565b92915050565b60008060008060808587031215611be757611be6611af7565b5b6000611bf587828801611b22565b9450506020611c0687828801611b5a565b9350506040611c1787828801611b22565b9250506060611c2887828801611bb8565b91505092959194509250565b600081519050919050565b600082825260208201905092915050565b60005b83811015611c6e578082015181840152602081019050611c53565b60008484015250505050565b6000601f19601f8301169050919050565b6000611c9682611c34565b611ca08185611c3f565b9350611cb0818560208601611c50565b611cb981611c7a565b840191505092915050565b60006020820190508181036000830152611cde8184611c8b565b905092915050565b60008060408385031215611cfd57611cfc611af7565b5b6000611d0b85828601611b22565b9250506020611d1c85828601611b22565b9150509250929050565b7f4e487b7100000000000000000000000000000000000000000000000000000000600052602160045260246000fd5b60048110611d6657611d65611d26565b5b50565b6000819050611d7782611d55565b919050565b6000611d8782611d69565b9050919050565b611d9781611d7c565b82525050565b6000602082019050611db26000830184611d8e565b92915050565b600060ff82169050919050565b611dce81611db8565b82525050565b6000602082019050611de96000830184611dc5565b92915050565b611df881611b8f565b82525050565b6000602082019050611e136000830184611def565b92915050565b600080fd5b600080fd5b7f4e487b7100000000000000000000000000000000000000000000000000000000600052604160045260246000fd5b611e5b82611c7a565b810181811067ffffffffffffffff82111715611e7a57611e79611e23565b5b80604052505050565b6000611e8d611aed565b9050611e998282611e52565b919050565b600067ffffffffffffffff821115611eb957611eb8611e23565b5b611ec282611c7a565b9050602081019050919050565b82818337600083830152505050565b6000611ef1611eec84611e9e565b611e83565b905082815260208101848484011115611f0d57611f0c611e1e565b5b611f18848285611ecf565b509392505050565b600082601f830112611f3557611f34611e19565b5b8135611f45848260208601611ede565b91505092915050565b600080600080600060a08688031215611f6a57611f69611af7565b5b600086013567ffffffffffffffff811115611f8857611f87611afc565b5b611f9488828901611f20565b955050602086013567ffffffffffffffff811115611fb557611fb4611afc565b5b611fc188828901611f20565b9450506040611fd288828901611b22565b9350506060611fe388828901611b22565b9250506080611ff488828901611bb8565b9150509295509295909350565b600081519050919050565b600082825260208201905092915050565b6000819050602082019050919050565b61203681611b8f565b82525050565b61204581611b37565b82525050565b61205481611b01565b82525050565b606082016000820151612070600085018261202d565b506020820151612083602085018261203c565b506040820151612096604085018261204b565b50505050565b60006120a8838361205a565b60608301905092915050565b6000602082019050919050565b60006120cc82612001565b6120d6818561200c565b93506120e18361201d565b8060005b838110156121125781516120f9888261209c565b9750612104836120b4565b9250506001810190506120e5565b5085935050505092915050565b6000602082019050818103600083015261213981846120c1565b905092915050565b61214a81611b01565b82525050565b61215981611b37565b82525050565b600061018082019050612175600083018f612141565b612182602083018e611def565b61218f604083018d612141565b61219c606083018c612141565b6121a9608083018b612150565b6121b660a083018a612141565b81810360c08301526121c88189611c8b565b905081810360e08301526121dc8188611c8b565b90506121ec610100830187612141565b6121fa610120830186612141565b612208610140830185611def565b612216610160830184611d8e565b9d9c50505050505050505050505050565b600060208201905061223c6000830184612141565b92915050565b6000806040838503121561225957612258611af7565b5b600061226785828601611b22565b925050602061227885828601611bb8565b9150509250929050565b606082016000820151612298600085018261203c565b5060208201516122ab602085018261203c565b5060408201516122be604085018261204b565b50505050565b60006060820190506122d96000830184612282565b92915050565b7f696e76616c696420696400000000000000000000000000000000000000000000600082015250565b6000612315600a83611c3f565b9150612320826122df565b602082019050919050565b6000602082019050818103600083015261234481612308565b9050919050565b7f4e487b7100000000000000000000000000000000000000000000000000000000600052601160045260246000fd5b600061238582611b01565b915061239083611b01565b925082820261239e81611b01565b915082820484148315176123b5576123b461234b565b5b5092915050565b6000815190506123cb81611b0b565b92915050565b6000602082840312156123e7576123e6611af7565b5b60006123f5848285016123bc565b91505092915050565b7f3525207374616b65206e65656400000000000000000000000000000000000000600082015250565b6000612434600d83611c3f565b915061243f826123fe565b602082019050919050565b6000602082019050818103600083015261246381612427565b9050919050565b7f566f74696e6720706572696f6420656e64656400000000000000000000000000600082015250565b60006124a0601383611c3f565b91506124ab8261246a565b602082019050919050565b600060208201905081810360008301526124cf81612493565b9050919050565b7f496e73756666696369656e7420746f6b656e0000000000000000000000000000600082015250565b600061250c601283611c3f565b9150612517826124d6565b602082019050919050565b6000602082019050818103600083015261253b816124ff565b9050919050565b7f766f7465206475626c6963617465000000000000000000000000000000000000600082015250565b6000612578600e83611c3f565b915061258382612542565b602082019050919050565b600060208201905081810360008301526125a78161256b565b9050919050565b60006125b982611b01565b91507fffffffffffffffffffffffffffffffffffffffffffffffffffffffffffffffff82036125eb576125ea61234b565b5b600182019050919050565b600060608201905061260b6000830186611def565b6126186020830185612141565b6126256040830184612150565b949350505050565b7f4e487b7100000000000000000000000000000000000000000000000000000000600052602260045260246000fd5b6000600282049050600182168061267457607f821691505b6020821081036126875761268661262d565b5b50919050565b600061269882611b01565b91506126a383611b01565b92508282019050808211156126bb576126ba61234b565b5b92915050565b6000815190506126d081611ba1565b92915050565b60006126e96126e484611e9e565b611e83565b90508281526020810184848401111561270557612704611e1e565b5b612710848285611c50565b509392505050565b600082601f83011261272d5761272c611e19565b5b815161273d8482602086016126d6565b91505092915050565b60008151905061275581611b43565b92915050565b600080600080600060a0868803121561277757612776611af7565b5b6000612785888289016126c1565b955050602086015167ffffffffffffffff8111156127a6576127a5611afc565b5b6127b288828901612718565b945050604086015167ffffffffffffffff8111156127d3576127d2611afc565b5b6127df88828901612718565b93505060606127f0888289016123bc565b925050608061280188828901612746565b9150509295509295909350565b60008190508160005260206000209050919050565b60006020601f8301049050919050565b60008160020a8302905092915050565b6000600883026128737fffffffffffffffffffffffffffffffffffffffffffffffffffffffffffffffff82612833565b61287d8683612833565b95508019841693508086168417925050509392505050565b6000819050919050565b60006128ba6128b56128b084611b01565b612895565b611b01565b9050919050565b6000819050919050565b6128d48361289f565b6128e86128e0826128c1565b848454612843565b825550505050565b600090565b6128fd6128f0565b6129088184846128cb565b505050565b5b8181101561292c576129216000826128f5565b60018101905061290e565b5050565b601f821115612971576129428161280e565b61294b84612823565b8101602085101561295a578190505b61296e61296685612823565b83018261290d565b50505b505050565b60008160020a8304905092915050565b600061299760001984600802612976565b1980831691505092915050565b60006129b08383612986565b9150826002028217905092915050565b6129c982611c34565b67ffffffffffffffff8111156129e2576129e1611e23565b5b6129ec825461265c565b6129f7828285612930565b600060209050601f831160018114612a2a5760008415612a18578287015190505b612a2285826129a4565b865550612a8a565b601f198416612a388661280e565b60005b82811015612a6057848901518255600182019150602085019450602081019050612a3b565b86831015612a7d5784890151612a79601f891682612986565b8355505b6001600288020188555050505b505050505050565b7f4e487b7100000000000000000000000000000000000000000000000000000000600052601260045260246000fd5b6000612acc82611b01565b9150612ad783611b01565b925082612ae757612ae6612a92565b5b828204905092915050565b7f63616d706169676e204e6f7420617070726f7665640000000000000000000000600082015250565b6000612b28601583611c3f565b9150612b3382612af2565b602082019050919050565b60006020820190508181036000830152612b5781612b1b565b9050919050565b7f596f752063616e74206372656174652070726f706f73616c20666f72206f6c6460008201527f6572206461746573000000000000000000000000000000000000000000000000602082015250565b6000612bba602883611c3f565b9150612bc582612b5e565b604082019050919050565b60006020820190508181036000830152612be981612bad565b9050919050565b7f313025207374616b65206e656564000000000000000000000000000000000000600082015250565b6000612c26600e83611c3f565b9150612c3182612bf0565b602082019050919050565b60006020820190508181036000830152612c5581612c19565b9050919050565b6000608082019050612c716000830187612141565b612c7e6020830186611def565b8181036040830152612c908185611c8b565b90508181036060830152612ca48184611c8b565b905095945050505050565b7f70726f706f73616c526573756c743a20446561644c696e6520686173206e6f7460008201527f2079657420706173736564000000000000000000000000000000000000000000602082015250565b6000612d0b602b83611c3f565b9150612d1682612caf565b604082019050919050565b60006020820190508181036000830152612d3a81612cfe565b9050919050565b7f616c7265616479204465636c6172656400000000000000000000000000000000600082015250565b6000612d77601083611c3f565b9150612d8282612d41565b602082019050919050565b60006020820190508181036000830152612da681612d6a565b9050919050565b7f4e6f7420706172746963697061746520696e2042616c6c6f7400000000000000600082015250565b6000612de3601983611c3f565b9150612dee82612dad565b602082019050919050565b60006020820190508181036000830152612e1281612dd6565b9050919050565b7f4e487b7100000000000000000000000000000000000000000000000000000000600052603260045260246000fd5b7f4e487b7100000000000000000000000000000000000000000000000000000000600052600160045260246000fdfea2646970667358221220b7dcc71a5abe9539e5a581d49a1570f243f582065c50e1b5f93099b0c08881fc64736f6c63430008110033",
  "immutableReferences": {},
  "source": "// SPDX-License-Identifier: MIT\npragma solidity ^0.8.6;\nimport \"./CrowdFunding.sol\";\nimport \"@openzeppelin/contracts/token/ERC20/ERC20.sol\";\n\ncontract Dao{\n    CrowdFunding instance;\n    address public contractAddr;\n    string public name;\n    string public symbol;\n    uint256 _totalSupply;\n    bool status;\n    // minimum required tokens to creating proposal\n    uint8 public toVotePercentage = 10;\n    uint8 public equityToVote = 5;\n    uint256 minReqTokenCreateProposal;\n    uint256 minReqTokenToVoteProposal;\n\n    uint256 public proposalCount;\n\n    mapping(address => uint256) balances;\n    mapping(address => mapping(address => uint256)) allowed;\n\n\n    using SafeMath for uint256;\n\n    constructor(address addr) {\n        instance = CrowdFunding(addr);\n    }\n\n    modifier isProposalFound(uint256 proposalId, uint256 campaignId) {\n        Proposal storage proposal = proposals[campaignId][proposalId];\n        require(\n            proposalCount >= proposalId && proposalId > 0 && proposal.id == proposalId,\n            \"invalid id\"\n        );\n        _;\n    }\n\n    /// @notice Detailed feilds of proposal\n    struct Proposal {\n        //  proposal Id\n        uint256 id;\n        //  owner of the proposal\n        address proposer;\n        //  favor votes of the proposal\n        uint256 favorVotes;\n        //  against votes of the proposal\n        uint256 againstVotes;\n        //  announced = true if the proposal if announced\n        bool announced;\n        // total No.of voters\n        uint256 voterCount;\n        // description  of the proposal\n        string description;\n        // title  of the proposal\n        string title;\n        // proposal created Date\n        uint256 dateOfCreation;\n        // deadLine of the proposal for vote\n        uint256 deadLine;\n        // Contract address of the company\n        address proposalCreatedUnder;\n        // set the proposal is passed or rejected status by Enum        \n        ProposalState res;\n    }\n    /// @notice receipt record for a voters\n    struct VoteReceipt {\n        //  Whether Voted or Not\n        bool isVoted;\n        //  whether vote for favor or against\n        bool isSupport;\n        //  Vote Count\n        uint256 votes;\n    }\n\n     struct Vote {\n        address voterAddress;\n        bool support;\n        uint256 votes;\n    }\n\n    // The official record of all proposals ever proposed\n    // CAMPAIGNID => PROPOSALID => PROPOSAL\n    mapping(uint256 =>mapping(uint256=> Proposal)) public proposals;\n\n    // To store receipts of all voters on all proposals\n    // proposalId => (voterAddress => VoteReceipt)\n    mapping(uint256 => mapping(address => VoteReceipt)) voterReceipts;\n\n    // To store all voters on all proposals\n    // proposalId => (voterIndex => voterAddress)\n    mapping(uint256 => mapping(uint256 => address)) voters;\n\n    /// @notice Possible states that a proposal may be in\n    enum ProposalState {ACTIVE, ACCEPTED, REJECTED, DRAW}\n\n    /// @notice An event emitted when a new proposal is created\n    event ProposalCreated( uint256 id, address proposer, string description, string title);\n\n    /// @notice An event emitted when a vote has been cast on a proposal\n    event VoteCast(address voter, uint256 proposalId, bool support);\n\n    function createProposal(\n        string memory proposalTitle, \n        string memory proposalDescription, \n        uint256 campaignId, \n        uint256 endDate, \n        address tokenAddress\n        ) external{\n        \n        (contractAddr, \n        name, \n        symbol, \n        _totalSupply,\n        status\n        ) = instance.companyDetailsByCampaignId(campaignId);\n        minReqTokenCreateProposal = (_totalSupply * toVotePercentage / 100);\n        minReqTokenToVoteProposal = (_totalSupply * equityToVote / 100); \n        require (status == true, \"campaign Not approved\");\n        require (block.timestamp < endDate, \"You cant create proposal for older dates\");\n\n        require (ERC20(tokenAddress).balanceOf(msg.sender)>= minReqTokenCreateProposal * (10 ** 18), \"10% stake need\");\n        \n        proposalCount++;\n        Proposal memory newProposal = Proposal({\n            id: proposalCount,\n            proposer: msg.sender,\n            favorVotes: 0,\n            againstVotes: 0,\n            announced: false,\n            voterCount: 0,\n            description: proposalDescription,\n            title: proposalTitle,\n            dateOfCreation: block.timestamp,\n            deadLine : endDate,\n            proposalCreatedUnder :contractAddr,\n            res: ProposalState.ACTIVE\n        });\n\n        proposals[campaignId][newProposal.id] = newProposal;\n        emit ProposalCreated(\n            newProposal.id,\n            msg.sender,\n            proposalDescription,\n            proposalTitle\n        );\n    }\n\n    function getReceipt(uint256 proposalId, address voter) public view returns (VoteReceipt memory) {\n        return voterReceipts[proposalId][voter];\n    }\n\n    function stateOfTheProposal(uint256 proposalId, uint256 campaignId) public isProposalFound(proposalId,campaignId) returns (ProposalState) {\n        uint256 totalAmountOfPassVoters = 0;\n        uint256 totalAmountOfRejectVoters = 0;\n        Proposal storage proposal = proposals[campaignId][proposalId];\n        if (proposal.announced) {\n            for (uint256 i = 0; i < proposal.voterCount; i++) {\n                VoteReceipt storage receipt = voterReceipts[proposalId][\n                    voters[proposalId][i]\n                ];\n                if (receipt.isSupport == true) {\n                    totalAmountOfPassVoters += 1;\n                } else if (receipt.isSupport == false) {\n                    totalAmountOfRejectVoters += 1;\n                }\n            }\n            if (totalAmountOfPassVoters == totalAmountOfRejectVoters){\n                proposal.res =  ProposalState.DRAW;\n                return ProposalState.DRAW;\n            }\n            if (totalAmountOfPassVoters > totalAmountOfRejectVoters) {\n                proposal.res = ProposalState.ACCEPTED;\n                return ProposalState.ACCEPTED;\n            } else {\n                proposal.res = ProposalState.REJECTED;\n                return ProposalState.REJECTED;\n            }\n        } else {\n            return ProposalState.ACTIVE;\n        }\n    }\n\n    function voteToProposal(uint256 proposalId, bool vote, uint256 campaignId, address tokenAddress) isProposalFound(proposalId,campaignId) external{\n        require(ERC20(tokenAddress).balanceOf(msg.sender) >= minReqTokenToVoteProposal * (10 ** 18), \"5% stake need\");\n        Proposal storage proposal = proposals[campaignId][proposalId];\n        require(\n            block.timestamp <= proposal.deadLine,\n            \"Voting period ended\"\n        );\n        require(\n            balances[msg.sender] >= 0,\n            \"Insufficient token\"\n        );\n        VoteReceipt storage receipt = voterReceipts[proposalId][msg.sender];\n        require((receipt.isVoted == false), \"vote dublicate\");\n\n        receipt.isVoted = true;\n        receipt.isSupport = vote;\n        receipt.votes = 1;\n        voters[proposalId][proposal.voterCount] = msg.sender;\n        proposal.voterCount++;\n        if (vote) {\n            proposal.favorVotes = proposal.favorVotes.add(1);\n        } else {\n            proposal.againstVotes = proposal.againstVotes.add(1);\n        }\n        voterReceipts[proposalId][msg.sender] = receipt;\n        emit VoteCast(msg.sender, proposalId, vote);\n    }\n\n    function proposalResult(uint256 proposalId, uint256 campaignId) external isProposalFound(proposalId,campaignId) {\n\n        Proposal storage proposal = proposals[campaignId][proposalId];\n        VoteReceipt memory _voterReceipt = getReceipt(proposalId, msg.sender);\n        if(proposal.proposer == msg.sender){\n            require(block.timestamp > proposal.deadLine,\"proposalResult: DeadLine has not yet passed\");\n\n            ProposalState _ProposalState = stateOfTheProposal(proposalId,campaignId);\n            require(\n                _ProposalState != ProposalState.ACCEPTED &&_ProposalState != ProposalState.REJECTED,\n                \"already Declared\"\n            );\n            proposal.announced = true;\n        }\n        else{\n            require(_voterReceipt.isVoted == true, \"Not participate in Ballot\" );\n            require(block.timestamp > proposal.deadLine,\"proposalResult: DeadLine has not yet passed\");\n\n            ProposalState _ProposalState = stateOfTheProposal(proposalId,campaignId);\n            require(\n                _ProposalState != ProposalState.ACCEPTED &&_ProposalState != ProposalState.REJECTED,\n                \"already Declared\"\n            );\n            proposal.announced = true;\n        }\n    }\n\n    function getVotes(uint256 proposalId, uint256 campaignId) public view returns (Vote[] memory) {\n        uint256 voterCount = proposals[campaignId][proposalId].voterCount;\n        Vote[] memory votes = new Vote[](voterCount);\n        for (uint256 i = 0; i < voterCount; i++) {\n            votes[i] = Vote(\n                voters[proposalId][i],\n                voterReceipts[proposalId][voters[proposalId][i]].isSupport,\n                voterReceipts[proposalId][voters[proposalId][i]].votes\n            );\n        }\n        return votes;\n    }\n}\n\nlibrary SafeMath {\n    function add(uint256 a, uint256 b) internal pure returns (uint256) {\n        uint256 c = a + b;\n        assert(c >= a);\n        return c;\n    }\n}",
  "sourcePath": "/home/neosoft/projects/solidity/crowdFunding/crowdfunding-dao-solidity/contracts/Dao.sol",
  "compiler": {
    "name": "solc",
    "version": "0.8.17+commit.8df45f5f.Emscripten.clang"
  },
  "schemaVersion": "3.4.11",
  "updatedAt": "2023-03-24T06:24:57.694Z",
  "networkType": "ethereum",
  "devdoc": {
    "kind": "dev",
    "methods": {},
    "version": 1
  },
  "userdoc": {
    "events": {
      "ProposalCreated(uint256,address,string,string)": {
        "notice": "An event emitted when a new proposal is created"
      },
      "VoteCast(address,uint256,bool)": {
        "notice": "An event emitted when a vote has been cast on a proposal"
      }
    },
    "kind": "user",
    "methods": {},
    "version": 1
  }
}