{
  "contractName": "Dao",
  "abi": [
    {
      "inputs": [
        {
          "internalType": "address",
          "name": "addr",
          "type": "address"
        }
      ],
      "stateMutability": "nonpayable",
      "type": "constructor"
    },
    {
      "anonymous": false,
      "inputs": [
        {
          "indexed": false,
          "internalType": "uint256",
          "name": "id",
          "type": "uint256"
        },
        {
          "indexed": false,
          "internalType": "address",
          "name": "proposer",
          "type": "address"
        },
        {
          "indexed": false,
          "internalType": "string",
          "name": "description",
          "type": "string"
        },
        {
          "indexed": false,
          "internalType": "string",
          "name": "title",
          "type": "string"
        }
      ],
      "name": "ProposalCreated",
      "type": "event"
    },
    {
      "anonymous": false,
      "inputs": [
        {
          "indexed": false,
          "internalType": "address",
          "name": "voter",
          "type": "address"
        },
        {
          "indexed": false,
          "internalType": "uint256",
          "name": "proposalId",
          "type": "uint256"
        },
        {
          "indexed": false,
          "internalType": "bool",
          "name": "support",
          "type": "bool"
        }
      ],
      "name": "VoteCast",
      "type": "event"
    },
    {
      "inputs": [],
      "name": "contractAddr",
      "outputs": [
        {
          "internalType": "address",
          "name": "",
          "type": "address"
        }
      ],
      "stateMutability": "view",
      "type": "function",
      "constant": true
    },
    {
      "inputs": [],
      "name": "decimals",
      "outputs": [
        {
          "internalType": "uint8",
          "name": "",
          "type": "uint8"
        }
      ],
      "stateMutability": "view",
      "type": "function",
      "constant": true
    },
    {
      "inputs": [],
      "name": "equityToVote",
      "outputs": [
        {
          "internalType": "uint8",
          "name": "",
          "type": "uint8"
        }
      ],
      "stateMutability": "view",
      "type": "function",
      "constant": true
    },
    {
      "inputs": [],
      "name": "name",
      "outputs": [
        {
          "internalType": "string",
          "name": "",
          "type": "string"
        }
      ],
      "stateMutability": "view",
      "type": "function",
      "constant": true
    },
    {
      "inputs": [],
      "name": "proposalCount",
      "outputs": [
        {
          "internalType": "uint256",
          "name": "",
          "type": "uint256"
        }
      ],
      "stateMutability": "view",
      "type": "function",
      "constant": true
    },
    {
      "inputs": [
        {
          "internalType": "uint256",
          "name": "",
          "type": "uint256"
        }
      ],
      "name": "proposals",
      "outputs": [
        {
          "internalType": "uint256",
          "name": "id",
          "type": "uint256"
        },
        {
          "internalType": "address",
          "name": "proposer",
          "type": "address"
        },
        {
          "internalType": "uint256",
          "name": "favorVotes",
          "type": "uint256"
        },
        {
          "internalType": "uint256",
          "name": "againstVotes",
          "type": "uint256"
        },
        {
          "internalType": "bool",
          "name": "canceled",
          "type": "bool"
        },
        {
          "internalType": "bool",
          "name": "announced",
          "type": "bool"
        },
        {
          "internalType": "uint256",
          "name": "voterCount",
          "type": "uint256"
        },
        {
          "internalType": "string",
          "name": "description",
          "type": "string"
        },
        {
          "internalType": "string",
          "name": "title",
          "type": "string"
        },
        {
          "internalType": "uint256",
          "name": "deadLine",
          "type": "uint256"
        },
        {
          "internalType": "address",
          "name": "proposalCreatedUnder",
          "type": "address"
        },
        {
          "internalType": "enum Dao.ProposalState",
          "name": "res",
          "type": "uint8"
        }
      ],
      "stateMutability": "view",
      "type": "function",
      "constant": true
    },
    {
      "inputs": [],
      "name": "symbol",
      "outputs": [
        {
          "internalType": "string",
          "name": "",
          "type": "string"
        }
      ],
      "stateMutability": "view",
      "type": "function",
      "constant": true
    },
    {
      "inputs": [],
      "name": "toVotePercentage",
      "outputs": [
        {
          "internalType": "uint8",
          "name": "",
          "type": "uint8"
        }
      ],
      "stateMutability": "view",
      "type": "function",
      "constant": true
    },
    {
      "inputs": [
        {
          "internalType": "string",
          "name": "proposalTitle",
          "type": "string"
        },
        {
          "internalType": "string",
          "name": "proposalDescription",
          "type": "string"
        },
        {
          "internalType": "uint256",
          "name": "campaignId",
          "type": "uint256"
        }
      ],
      "name": "createProposal",
      "outputs": [],
      "stateMutability": "nonpayable",
      "type": "function"
    },
    {
      "inputs": [
        {
          "internalType": "uint256",
          "name": "proposalId",
          "type": "uint256"
        },
        {
          "internalType": "address",
          "name": "voter",
          "type": "address"
        }
      ],
      "name": "getReceipt",
      "outputs": [
        {
          "components": [
            {
              "internalType": "bool",
              "name": "isVoted",
              "type": "bool"
            },
            {
              "internalType": "bool",
              "name": "isSupport",
              "type": "bool"
            },
            {
              "internalType": "uint256",
              "name": "votes",
              "type": "uint256"
            }
          ],
          "internalType": "struct Dao.VoteReceipt",
          "name": "",
          "type": "tuple"
        }
      ],
      "stateMutability": "view",
      "type": "function",
      "constant": true
    },
    {
      "inputs": [
        {
          "internalType": "uint256",
          "name": "proposalId",
          "type": "uint256"
        }
      ],
      "name": "stateOfTheProposal",
      "outputs": [
        {
          "internalType": "enum Dao.ProposalState",
          "name": "",
          "type": "uint8"
        }
      ],
      "stateMutability": "nonpayable",
      "type": "function"
    },
    {
      "inputs": [
        {
          "internalType": "uint256",
          "name": "proposalId",
          "type": "uint256"
        },
        {
          "internalType": "bool",
          "name": "vote",
          "type": "bool"
        }
      ],
      "name": "voteToProposal",
      "outputs": [],
      "stateMutability": "nonpayable",
      "type": "function"
    },
    {
      "inputs": [
        {
          "internalType": "uint256",
          "name": "proposalId",
          "type": "uint256"
        }
      ],
      "name": "proposalResult",
      "outputs": [],
      "stateMutability": "nonpayable",
      "type": "function"
    },
    {
      "inputs": [
        {
          "internalType": "uint256",
          "name": "proposalId",
          "type": "uint256"
        }
      ],
      "name": "cancelProposal",
      "outputs": [],
      "stateMutability": "nonpayable",
      "type": "function"
    },
    {
      "inputs": [
        {
          "internalType": "uint256",
          "name": "proposalId",
          "type": "uint256"
        }
      ],
      "name": "getVotes",
      "outputs": [
        {
          "components": [
            {
              "internalType": "address",
              "name": "voterAddress",
              "type": "address"
            },
            {
              "internalType": "bool",
              "name": "support",
              "type": "bool"
            },
            {
              "internalType": "uint256",
              "name": "votes",
              "type": "uint256"
            }
          ],
          "internalType": "struct Dao.Vote[]",
          "name": "",
          "type": "tuple[]"
        }
      ],
      "stateMutability": "view",
      "type": "function",
      "constant": true
    }
  ],
  "bytecode": "0x60806040526012600460006101000a81548160ff021916908360ff160217905550600a600660006101000a81548160ff021916908360ff1602179055506005600660016101000a81548160ff021916908360ff160217905550600460009054906101000a900460ff16600a6200007691906200029b565b600a620000849190620002ec565b6009553480156200009457600080fd5b506040516200335e3803806200335e8339818101604052810190620000ba9190620003a1565b806000806101000a81548173ffffffffffffffffffffffffffffffffffffffff021916908373ffffffffffffffffffffffffffffffffffffffff16021790555050620003d3565b7f4e487b7100000000000000000000000000000000000000000000000000000000600052601160045260246000fd5b60008160011c9050919050565b6000808291508390505b60018511156200018f5780860481111562000167576200016662000101565b5b6001851615620001775780820291505b8081029050620001878562000130565b945062000147565b94509492505050565b600082620001aa57600190506200027d565b81620001ba57600090506200027d565b8160018114620001d35760028114620001de5762000214565b60019150506200027d565b60ff841115620001f357620001f262000101565b5b8360020a9150848211156200020d576200020c62000101565b5b506200027d565b5060208310610133831016604e8410600b84101617156200024e5782820a90508381111562000248576200024762000101565b5b6200027d565b6200025d84848460016200013d565b9250905081840481111562000277576200027662000101565b5b81810290505b9392505050565b6000819050919050565b600060ff82169050919050565b6000620002a88262000284565b9150620002b5836200028e565b9250620002e47fffffffffffffffffffffffffffffffffffffffffffffffffffffffffffffffff848462000198565b905092915050565b6000620002f98262000284565b9150620003068362000284565b9250828202620003168162000284565b9150828204841483151762000330576200032f62000101565b5b5092915050565b600080fd5b600073ffffffffffffffffffffffffffffffffffffffff82169050919050565b600062000369826200033c565b9050919050565b6200037b816200035c565b81146200038757600080fd5b50565b6000815190506200039b8162000370565b92915050565b600060208284031215620003ba57620003b962000337565b5b6000620003ca848285016200038a565b91505092915050565b612f7b80620003e36000396000f3fe608060405234801561001057600080fd5b50600436106100f55760003560e01c8063223d78dd11610097578063da35c66411610066578063da35c6641461026d578063e0a8f6f51461028b578063e23a9a52146102a7578063ff981099146102d7576100f5565b8063223d78dd146101e5578063313ce5671461021557806395d89b4114610233578063d397b4f714610251576100f5565b80630ce0ebf4116100d35780630ce0ebf4146101715780631022b30b1461018d57806315a5d9d8146101a95780631dbc1f9d146101c7576100f5565b8063013cf08b146100fa57806306fdde03146101355780630c172a9014610153575b600080fd5b610114600480360381019061010f919061195d565b610307565b60405161012c9c9b9a99989796959493929190611afc565b60405180910390f35b61013d6104de565b60405161014a9190611bc4565b60405180910390f35b61015b61056c565b6040516101689190611c02565b60405180910390f35b61018b60048036038101906101869190611d52565b61057f565b005b6101a760048036038101906101a2919061195d565b6109f0565b005b6101b1610b86565b6040516101be9190611ddd565b60405180910390f35b6101cf610bac565b6040516101dc9190611c02565b60405180910390f35b6101ff60048036038101906101fa919061195d565b610bbf565b60405161020c9190611df8565b60405180910390f35b61021d610f0c565b60405161022a9190611c02565b60405180910390f35b61023b610f1f565b6040516102489190611bc4565b60405180910390f35b61026b60048036038101906102669190611e3f565b610fad565b005b610275611394565b6040516102829190611e7f565b60405180910390f35b6102a560048036038101906102a0919061195d565b61139a565b005b6102c160048036038101906102bc9190611ec6565b611570565b6040516102ce9190611f66565b60405180910390f35b6102f160048036038101906102ec919061195d565b61161b565b6040516102fe9190612081565b60405180910390f35b600d6020528060005260406000206000915090508060000154908060010160009054906101000a900473ffffffffffffffffffffffffffffffffffffffff16908060020154908060030154908060040160009054906101000a900460ff16908060040160019054906101000a900460ff169080600501549080600601805461038e906120d2565b80601f01602080910402602001604051908101604052809291908181526020018280546103ba906120d2565b80156104075780601f106103dc57610100808354040283529160200191610407565b820191906000526020600020905b8154815290600101906020018083116103ea57829003601f168201915b50505050509080600701805461041c906120d2565b80601f0160208091040260200160405190810160405280929190818152602001828054610448906120d2565b80156104955780601f1061046a57610100808354040283529160200191610495565b820191906000526020600020905b81548152906001019060200180831161047857829003601f168201915b5050505050908060080154908060090160009054906101000a900473ffffffffffffffffffffffffffffffffffffffff16908060090160149054906101000a900460ff1690508c565b600280546104eb906120d2565b80601f0160208091040260200160405190810160405280929190818152602001828054610517906120d2565b80156105645780601f1061053957610100808354040283529160200191610564565b820191906000526020600020905b81548152906001019060200180831161054757829003601f168201915b505050505081565b600660009054906101000a900460ff1681565b60008054906101000a900473ffffffffffffffffffffffffffffffffffffffff1673ffffffffffffffffffffffffffffffffffffffff1663c75bc794826040518263ffffffff1660e01b81526004016105d89190611e7f565b600060405180830381865afa1580156105f5573d6000803e3d6000fd5b505050506040513d6000823e3d601f19601f8201168201806040525081019061061e919061219d565b60016000600260006003600060056000889190505587919050908161064391906123e8565b5086919050908161065491906123e8565b508591906101000a81548173ffffffffffffffffffffffffffffffffffffffff021916908373ffffffffffffffffffffffffffffffffffffffff16021790555050505050600460009054906101000a900460ff16600a6106b4919061261c565b6064600660009054906101000a900460ff1660ff166005546106d69190612667565b6106e091906126d8565b6106ea9190612667565b600781905550600460009054906101000a900460ff16600a61070c919061261c565b6064600660019054906101000a900460ff1660ff1660055461072e9190612667565b61073891906126d8565b6107429190612667565b600881905550600a600081548092919061075b90612709565b91905055506000604051806101800160405280600a5481526020013373ffffffffffffffffffffffffffffffffffffffff16815260200160008152602001600081526020016000151581526020016000151581526020016000815260200184815260200185815260200160b4426107d29190612751565b8152602001600160009054906101000a900473ffffffffffffffffffffffffffffffffffffffff1673ffffffffffffffffffffffffffffffffffffffff1681526020016000600381111561082957610828611a85565b5b815250905080600d6000836000015181526020019081526020016000206000820151816000015560208201518160010160006101000a81548173ffffffffffffffffffffffffffffffffffffffff021916908373ffffffffffffffffffffffffffffffffffffffff160217905550604082015181600201556060820151816003015560808201518160040160006101000a81548160ff02191690831515021790555060a08201518160040160016101000a81548160ff02191690831515021790555060c0820151816005015560e082015181600601908161090a91906123e8565b5061010082015181600701908161092191906123e8565b5061012082015181600801556101408201518160090160006101000a81548173ffffffffffffffffffffffffffffffffffffffff021916908373ffffffffffffffffffffffffffffffffffffffff1602179055506101608201518160090160146101000a81548160ff021916908360038111156109a1576109a0611a85565b5b02179055509050507fe1a39bb955c12c02b24074e4d2e09a80ed84a64ce9b4454b47456e8a26f96e7581600001513385876040516109e29493929190612785565b60405180910390a150505050565b80600a5410158015610a025750600081115b610a41576040517f08c379a0000000000000000000000000000000000000000000000000000000008152600401610a389061284a565b60405180910390fd5b6000600d600083815260200190815260200160002090506000610a6383610bbf565b905060016003811115610a7957610a78611a85565b5b816003811115610a8c57610a8b611a85565b5b03610acc576040517f08c379a0000000000000000000000000000000000000000000000000000000008152600401610ac3906128dc565b60405180910390fd5b60026003811115610ae057610adf611a85565b5b816003811115610af357610af2611a85565b5b14158015610b255750600380811115610b0f57610b0e611a85565b5b816003811115610b2257610b21611a85565b5b14155b610b64576040517f08c379a0000000000000000000000000000000000000000000000000000000008152600401610b5b9061296e565b60405180910390fd5b60018260040160016101000a81548160ff021916908315150217905550505050565b600160009054906101000a900473ffffffffffffffffffffffffffffffffffffffff1681565b600660019054906101000a900460ff1681565b600080600083600a5410158015610bd65750600084115b610c15576040517f08c379a0000000000000000000000000000000000000000000000000000000008152600401610c0c90612a00565b60405180910390fd5b6000600d600086815260200190815260200160002090508060040160009054906101000a900460ff1615610c4f5760019350505050610f07565b8060040160019054906101000a900460ff1615610eff5760005b8160050154811015610e84576000600e60008881526020019081526020016000206000600f60008a8152602001908152602001600020600085815260200190815260200160002060009054906101000a900473ffffffffffffffffffffffffffffffffffffffff1673ffffffffffffffffffffffffffffffffffffffff1673ffffffffffffffffffffffffffffffffffffffff1681526020019081526020016000209050600115158160000160019054906101000a900460ff16151503610dc057600b6000600f60008a8152602001908152602001600020600085815260200190815260200160002060009054906101000a900473ffffffffffffffffffffffffffffffffffffffff1673ffffffffffffffffffffffffffffffffffffffff1673ffffffffffffffffffffffffffffffffffffffff1681526020019081526020016000205485610db99190612751565b9450610e70565b600015158160000160019054906101000a900460ff16151503610e6f57600b6000600f60008a8152602001908152602001600020600085815260200190815260200160002060009054906101000a900473ffffffffffffffffffffffffffffffffffffffff1673ffffffffffffffffffffffffffffffffffffffff1673ffffffffffffffffffffffffffffffffffffffff1681526020019081526020016000205484610e6c9190612751565b93505b5b508080610e7c90612709565b915050610c69565b5081831115610ec65760028160090160146101000a81548160ff02191690836003811115610eb557610eb4611a85565b5b021790555060029350505050610f07565b60038160090160146101000a81548160ff02191690836003811115610eee57610eed611a85565b5b021790555060039350505050610f07565b600093505050505b919050565b600460009054906101000a900460ff1681565b60038054610f2c906120d2565b80601f0160208091040260200160405190810160405280929190818152602001828054610f58906120d2565b8015610fa55780601f10610f7a57610100808354040283529160200191610fa5565b820191906000526020600020905b815481529060010190602001808311610f8857829003601f168201915b505050505081565b81600a5410158015610fbf5750600082115b610ffe576040517f08c379a0000000000000000000000000000000000000000000000000000000008152600401610ff590612a92565b60405180910390fd5b6000600d60008481526020019081526020016000209050806008015442111561105c576040517f08c379a000000000000000000000000000000000000000000000000000000000815260040161105390612b24565b60405180910390fd5b6000600b60003373ffffffffffffffffffffffffffffffffffffffff1673ffffffffffffffffffffffffffffffffffffffff1681526020019081526020016000205410156110df576040517f08c379a00000000000000000000000000000000000000000000000000000000081526004016110d690612bb6565b60405180910390fd5b6000600e600085815260200190815260200160002060003373ffffffffffffffffffffffffffffffffffffffff1673ffffffffffffffffffffffffffffffffffffffff1681526020019081526020016000209050600015158160000160009054906101000a900460ff1615151461118b576040517f08c379a000000000000000000000000000000000000000000000000000000000815260040161118290612c48565b60405180910390fd5b60018160000160006101000a81548160ff021916908315150217905550828160000160016101000a81548160ff0219169083151502179055506001816001018190555033600f600086815260200190815260200160002060008460050154815260200190815260200160002060006101000a81548173ffffffffffffffffffffffffffffffffffffffff021916908373ffffffffffffffffffffffffffffffffffffffff16021790555081600501600081548092919061124a90612709565b9190505550821561127a5761126d6001836002015461188990919063ffffffff16565b826002018190555061129b565b6112926001836003015461188990919063ffffffff16565b82600301819055505b80600e600086815260200190815260200160002060003373ffffffffffffffffffffffffffffffffffffffff1673ffffffffffffffffffffffffffffffffffffffff1681526020019081526020016000206000820160009054906101000a900460ff168160000160006101000a81548160ff0219169083151502179055506000820160019054906101000a900460ff168160000160016101000a81548160ff021916908315150217905550600182015481600101559050507fd356173ae8eeea8691aee4c1be712c314a975a3d43ebc48b08ca54d0dac9122833858560405161138693929190612c68565b60405180910390a150505050565b600a5481565b80600a54101580156113ac5750600081115b6113eb576040517f08c379a00000000000000000000000000000000000000000000000000000000081526004016113e290612d11565b60405180910390fd5b6000600d600083815260200190815260200160002090508060010160009054906101000a900473ffffffffffffffffffffffffffffffffffffffff1673ffffffffffffffffffffffffffffffffffffffff163373ffffffffffffffffffffffffffffffffffffffff1614611494576040517f08c379a000000000000000000000000000000000000000000000000000000000815260040161148b90612da3565b60405180910390fd5b806008015442106114da576040517f08c379a00000000000000000000000000000000000000000000000000000000081526004016114d190612e35565b60405180910390fd5b60006114e583610bbf565b9050600160038111156114fb576114fa611a85565b5b81600381111561150e5761150d611a85565b5b0361154e576040517f08c379a000000000000000000000000000000000000000000000000000000000815260040161154590612ec7565b60405180910390fd5b60018260040160006101000a81548160ff021916908315150217905550505050565b6115786118b5565b600e600084815260200190815260200160002060008373ffffffffffffffffffffffffffffffffffffffff1673ffffffffffffffffffffffffffffffffffffffff1681526020019081526020016000206040518060600160405290816000820160009054906101000a900460ff161515151581526020016000820160019054906101000a900460ff16151515158152602001600182015481525050905092915050565b60606000600d600084815260200190815260200160002060050154905060008167ffffffffffffffff81111561165457611653611c27565b5b60405190808252806020026020018201604052801561168d57816020015b61167a6118da565b8152602001906001900390816116725790505b50905060005b8281101561187e576040518060600160405280600f6000888152602001908152602001600020600084815260200190815260200160002060009054906101000a900473ffffffffffffffffffffffffffffffffffffffff1673ffffffffffffffffffffffffffffffffffffffff168152602001600e60008881526020019081526020016000206000600f60008a8152602001908152602001600020600086815260200190815260200160002060009054906101000a900473ffffffffffffffffffffffffffffffffffffffff1673ffffffffffffffffffffffffffffffffffffffff1673ffffffffffffffffffffffffffffffffffffffff16815260200190815260200160002060000160019054906101000a900460ff1615158152602001600e60008881526020019081526020016000206000600f60008a8152602001908152602001600020600086815260200190815260200160002060009054906101000a900473ffffffffffffffffffffffffffffffffffffffff1673ffffffffffffffffffffffffffffffffffffffff1673ffffffffffffffffffffffffffffffffffffffff168152602001908152602001600020600101548152508282815181106118605761185f612ee7565b5b6020026020010181905250808061187690612709565b915050611693565b508092505050919050565b60008082846118989190612751565b9050838110156118ab576118aa612f16565b5b8091505092915050565b6040518060600160405280600015158152602001600015158152602001600081525090565b6040518060600160405280600073ffffffffffffffffffffffffffffffffffffffff168152602001600015158152602001600081525090565b6000604051905090565b600080fd5b600080fd5b6000819050919050565b61193a81611927565b811461194557600080fd5b50565b60008135905061195781611931565b92915050565b6000602082840312156119735761197261191d565b5b600061198184828501611948565b91505092915050565b61199381611927565b82525050565b600073ffffffffffffffffffffffffffffffffffffffff82169050919050565b60006119c482611999565b9050919050565b6119d4816119b9565b82525050565b60008115159050919050565b6119ef816119da565b82525050565b600081519050919050565b600082825260208201905092915050565b60005b83811015611a2f578082015181840152602081019050611a14565b60008484015250505050565b6000601f19601f8301169050919050565b6000611a57826119f5565b611a618185611a00565b9350611a71818560208601611a11565b611a7a81611a3b565b840191505092915050565b7f4e487b7100000000000000000000000000000000000000000000000000000000600052602160045260246000fd5b60048110611ac557611ac4611a85565b5b50565b6000819050611ad682611ab4565b919050565b6000611ae682611ac8565b9050919050565b611af681611adb565b82525050565b600061018082019050611b12600083018f61198a565b611b1f602083018e6119cb565b611b2c604083018d61198a565b611b39606083018c61198a565b611b46608083018b6119e6565b611b5360a083018a6119e6565b611b6060c083018961198a565b81810360e0830152611b728188611a4c565b9050818103610100830152611b878187611a4c565b9050611b9761012083018661198a565b611ba56101408301856119cb565b611bb3610160830184611aed565b9d9c50505050505050505050505050565b60006020820190508181036000830152611bde8184611a4c565b905092915050565b600060ff82169050919050565b611bfc81611be6565b82525050565b6000602082019050611c176000830184611bf3565b92915050565b600080fd5b600080fd5b7f4e487b7100000000000000000000000000000000000000000000000000000000600052604160045260246000fd5b611c5f82611a3b565b810181811067ffffffffffffffff82111715611c7e57611c7d611c27565b5b80604052505050565b6000611c91611913565b9050611c9d8282611c56565b919050565b600067ffffffffffffffff821115611cbd57611cbc611c27565b5b611cc682611a3b565b9050602081019050919050565b82818337600083830152505050565b6000611cf5611cf084611ca2565b611c87565b905082815260208101848484011115611d1157611d10611c22565b5b611d1c848285611cd3565b509392505050565b600082601f830112611d3957611d38611c1d565b5b8135611d49848260208601611ce2565b91505092915050565b600080600060608486031215611d6b57611d6a61191d565b5b600084013567ffffffffffffffff811115611d8957611d88611922565b5b611d9586828701611d24565b935050602084013567ffffffffffffffff811115611db657611db5611922565b5b611dc286828701611d24565b9250506040611dd386828701611948565b9150509250925092565b6000602082019050611df260008301846119cb565b92915050565b6000602082019050611e0d6000830184611aed565b92915050565b611e1c816119da565b8114611e2757600080fd5b50565b600081359050611e3981611e13565b92915050565b60008060408385031215611e5657611e5561191d565b5b6000611e6485828601611948565b9250506020611e7585828601611e2a565b9150509250929050565b6000602082019050611e94600083018461198a565b92915050565b611ea3816119b9565b8114611eae57600080fd5b50565b600081359050611ec081611e9a565b92915050565b60008060408385031215611edd57611edc61191d565b5b6000611eeb85828601611948565b9250506020611efc85828601611eb1565b9150509250929050565b611f0f816119da565b82525050565b611f1e81611927565b82525050565b606082016000820151611f3a6000850182611f06565b506020820151611f4d6020850182611f06565b506040820151611f606040850182611f15565b50505050565b6000606082019050611f7b6000830184611f24565b92915050565b600081519050919050565b600082825260208201905092915050565b6000819050602082019050919050565b611fb6816119b9565b82525050565b606082016000820151611fd26000850182611fad565b506020820151611fe56020850182611f06565b506040820151611ff86040850182611f15565b50505050565b600061200a8383611fbc565b60608301905092915050565b6000602082019050919050565b600061202e82611f81565b6120388185611f8c565b935061204383611f9d565b8060005b8381101561207457815161205b8882611ffe565b975061206683612016565b925050600181019050612047565b5085935050505092915050565b6000602082019050818103600083015261209b8184612023565b905092915050565b7f4e487b7100000000000000000000000000000000000000000000000000000000600052602260045260246000fd5b600060028204905060018216806120ea57607f821691505b6020821081036120fd576120fc6120a3565b5b50919050565b60008151905061211281611e9a565b92915050565b600061212b61212684611ca2565b611c87565b90508281526020810184848401111561214757612146611c22565b5b612152848285611a11565b509392505050565b600082601f83011261216f5761216e611c1d565b5b815161217f848260208601612118565b91505092915050565b60008151905061219781611931565b92915050565b600080600080608085870312156121b7576121b661191d565b5b60006121c587828801612103565b945050602085015167ffffffffffffffff8111156121e6576121e5611922565b5b6121f28782880161215a565b935050604085015167ffffffffffffffff81111561221357612212611922565b5b61221f8782880161215a565b925050606061223087828801612188565b91505092959194509250565b60008190508160005260206000209050919050565b60006020601f8301049050919050565b600082821b905092915050565b60006008830261229e7fffffffffffffffffffffffffffffffffffffffffffffffffffffffffffffffff82612261565b6122a88683612261565b95508019841693508086168417925050509392505050565b6000819050919050565b60006122e56122e06122db84611927565b6122c0565b611927565b9050919050565b6000819050919050565b6122ff836122ca565b61231361230b826122ec565b84845461226e565b825550505050565b600090565b61232861231b565b6123338184846122f6565b505050565b5b818110156123575761234c600082612320565b600181019050612339565b5050565b601f82111561239c5761236d8161223c565b61237684612251565b81016020851015612385578190505b61239961239185612251565b830182612338565b50505b505050565b600082821c905092915050565b60006123bf600019846008026123a1565b1980831691505092915050565b60006123d883836123ae565b9150826002028217905092915050565b6123f1826119f5565b67ffffffffffffffff81111561240a57612409611c27565b5b61241482546120d2565b61241f82828561235b565b600060209050601f8311600181146124525760008415612440578287015190505b61244a85826123cc565b8655506124b2565b601f1984166124608661223c565b60005b8281101561248857848901518255600182019150602085019450602081019050612463565b868310156124a557848901516124a1601f8916826123ae565b8355505b6001600288020188555050505b505050505050565b7f4e487b7100000000000000000000000000000000000000000000000000000000600052601160045260246000fd5b60008160011c9050919050565b6000808291508390505b60018511156125405780860481111561251c5761251b6124ba565b5b600185161561252b5780820291505b8081029050612539856124e9565b9450612500565b94509492505050565b6000826125595760019050612615565b816125675760009050612615565b816001811461257d5760028114612587576125b6565b6001915050612615565b60ff841115612599576125986124ba565b5b8360020a9150848211156125b0576125af6124ba565b5b50612615565b5060208310610133831016604e8410600b84101617156125eb5782820a9050838111156125e6576125e56124ba565b5b612615565b6125f884848460016124f6565b9250905081840481111561260f5761260e6124ba565b5b81810290505b9392505050565b600061262782611927565b915061263283611be6565b925061265f7fffffffffffffffffffffffffffffffffffffffffffffffffffffffffffffffff8484612549565b905092915050565b600061267282611927565b915061267d83611927565b925082820261268b81611927565b915082820484148315176126a2576126a16124ba565b5b5092915050565b7f4e487b7100000000000000000000000000000000000000000000000000000000600052601260045260246000fd5b60006126e382611927565b91506126ee83611927565b9250826126fe576126fd6126a9565b5b828204905092915050565b600061271482611927565b91507fffffffffffffffffffffffffffffffffffffffffffffffffffffffffffffffff8203612746576127456124ba565b5b600182019050919050565b600061275c82611927565b915061276783611927565b925082820190508082111561277f5761277e6124ba565b5b92915050565b600060808201905061279a600083018761198a565b6127a760208301866119cb565b81810360408301526127b98185611a4c565b905081810360608301526127cd8184611a4c565b905095945050505050565b7f70726f706f73616c526573756c743a20696e76616c69642070726f706f73616c60008201527f2069640000000000000000000000000000000000000000000000000000000000602082015250565b6000612834602383611a00565b915061283f826127d8565b604082019050919050565b6000602082019050818103600083015261286381612827565b9050919050565b7f70726f706f73616c526573756c743a2050726f736f73616c2069732063616e6360008201527f656c656400000000000000000000000000000000000000000000000000000000602082015250565b60006128c6602483611a00565b91506128d18261286a565b604082019050919050565b600060208201905081810360008301526128f5816128b9565b9050919050565b7f70726f706f73616c526573756c743a20526573756c7420616c7265616479206160008201527f6e6e6f756e636564000000000000000000000000000000000000000000000000602082015250565b6000612958602883611a00565b9150612963826128fc565b604082019050919050565b600060208201905081810360008301526129878161294b565b9050919050565b7f73746174654f6654686550726f706f73616c3a20696e76616c69642070726f7060008201527f6f73616c20696400000000000000000000000000000000000000000000000000602082015250565b60006129ea602783611a00565b91506129f58261298e565b604082019050919050565b60006020820190508181036000830152612a19816129dd565b9050919050565b7f766f7465546f50726f706f73616c3a20696e76616c69642070726f706f73616c60008201527f2069640000000000000000000000000000000000000000000000000000000000602082015250565b6000612a7c602383611a00565b9150612a8782612a20565b604082019050919050565b60006020820190508181036000830152612aab81612a6f565b9050919050565b7f766f7465546f50726f706f73616c3a20566f74696e6720706572696f6420686160008201527f7320656e64656400000000000000000000000000000000000000000000000000602082015250565b6000612b0e602783611a00565b9150612b1982612ab2565b604082019050919050565b60006020820190508181036000830152612b3d81612b01565b9050919050565b7f766f7465546f50726f706f73616c3a205573657220646f65736e27742068617660008201527f652073756666696369656e7420746f6b656e20746f20766f7465000000000000602082015250565b6000612ba0603a83611a00565b9150612bab82612b44565b604082019050919050565b60006020820190508181036000830152612bcf81612b93565b9050919050565b7f766f7465546f50726f706f73616c3a20596f752063616e277420766f7465206160008201527f6761696e00000000000000000000000000000000000000000000000000000000602082015250565b6000612c32602483611a00565b9150612c3d82612bd6565b604082019050919050565b60006020820190508181036000830152612c6181612c25565b9050919050565b6000606082019050612c7d60008301866119cb565b612c8a602083018561198a565b612c9760408301846119e6565b949350505050565b7f63616e63656c50726f706f73616c3a2070726f706f73616c206964206973206960008201527f6e76616c69640000000000000000000000000000000000000000000000000000602082015250565b6000612cfb602683611a00565b9150612d0682612c9f565b604082019050919050565b60006020820190508181036000830152612d2a81612cee565b9050919050565b7f63616e63656c50726f706f73616c3a206f6e6c792061646d696e2063616e206360008201527f616e63656c207468652070726f706f73616c0000000000000000000000000000602082015250565b6000612d8d603283611a00565b9150612d9882612d31565b604082019050919050565b60006020820190508181036000830152612dbc81612d80565b9050919050565b7f63616e63656c50726f706f73616c3a206e6f742061626c6520746f2063616e6360008201527f656c2c20446561644c696e652063726f73736564000000000000000000000000602082015250565b6000612e1f603483611a00565b9150612e2a82612dc3565b604082019050919050565b60006020820190508181036000830152612e4e81612e12565b9050919050565b7f6465636c617265526573756c743a20416c726561647920696e2063616e63656c60008201527f2073746174650000000000000000000000000000000000000000000000000000602082015250565b6000612eb1602683611a00565b9150612ebc82612e55565b604082019050919050565b60006020820190508181036000830152612ee081612ea4565b9050919050565b7f4e487b7100000000000000000000000000000000000000000000000000000000600052603260045260246000fd5b7f4e487b7100000000000000000000000000000000000000000000000000000000600052600160045260246000fdfea264697066735822122052b17329ad8df034a5b0dbec355f272e35e32aa1b22221f6cb9d7c0e2007edd264736f6c63430008110033",
  "immutableReferences": {},
  "source": "// SPDX-License-Identifier: MIT\npragma solidity ^0.8.6;\nimport \"./CrowdFunding.sol\";\n\ncontract Dao{\n    CrowdFunding instance;\n    address public contractAddr;\n    string public name;\n    string public symbol;\n    uint8 public decimals = 18;\n    uint256 _totalSupply;\n    // minimum required NEO tokens to creating proposal\n    uint8 public toVotePercentage = 10;\n    uint8 public equityToVote = 5;\n    uint256 minReqTokenCreateProposal;\n    uint256 minReqTokenToVoteProposal;\n\n    uint256 tokenAssigned = 10 * 10 ** decimals;\n    uint256 public proposalCount;\n\n    mapping(address => uint256) balances;\n    mapping(address => mapping(address => uint256)) allowed;\n\n\n    using SafeMath for uint256;\n\n    constructor(address addr) {\n        instance = CrowdFunding(addr);\n    }\n\n    /// @notice Detailed feilds of proposal\n    struct Proposal {\n        //  proposal Id\n        uint256 id;\n        //  owner of the proposal\n        address proposer;\n        //  favor votes of the proposal\n        uint256 favorVotes;\n        //  against votes of the proposal\n        uint256 againstVotes;\n        //  canceled = true if the proposal if cancelled\n        bool canceled;\n        //  announced = true if the proposal if announced\n        bool announced;\n        // total No.of voters\n        uint256 voterCount;\n        // description  of the proposal\n        string description;\n        // title  of the proposal\n        string title;\n        // proposal created Date\n        // uint256 dateOfCreation;\n        // deadLine of the proposal for vote\n        uint256 deadLine;\n        // Contract address of the company\n        address proposalCreatedUnder;\n        // set the proposal is passed or rejected status by Enum        \n        ProposalState res;\n    }\n    /// @notice receipt record for a voters\n    struct VoteReceipt {\n        //  Whether Voted or Not\n        bool isVoted;\n        //  whether vote for favor or against\n        bool isSupport;\n        //  Vote Count\n        uint256 votes;\n    }\n\n     struct Vote {\n        address voterAddress;\n        bool support;\n        uint256 votes;\n    }\n\n    // The official record of all proposals ever proposed\n    mapping(uint256 => Proposal) public proposals;\n\n    // To store receipts of all voters on all proposals\n    // proposalId => (voterAddress => VoteReceipt)\n    mapping(uint256 => mapping(address => VoteReceipt)) voterReceipts;\n\n    // To store all voters on all proposals\n    // proposalId => (voterIndex => voterAddress)\n    mapping(uint256 => mapping(uint256 => address)) voters;\n\n    /// @notice Possible states that a proposal may be in\n    enum ProposalState {ACTIVE, CANCELED, ACCEPTED, REJECTED}\n\n    /// @notice An event emitted when a new proposal is created\n    event ProposalCreated( uint256 id, address proposer, string description, string title);\n\n    /// @notice An event emitted when a vote has been cast on a proposal\n    event VoteCast(address voter, uint256 proposalId, bool support);\n\n    function createProposal(string memory proposalTitle, string memory proposalDescription, uint256 campaignId) external{\n        \n        (contractAddr, \n        name, \n        symbol, \n        _totalSupply\n        ) = instance.companyDetailsByCampaignId(campaignId);\n        minReqTokenCreateProposal = _totalSupply * toVotePercentage / 100 * (10 ** decimals);\n        minReqTokenToVoteProposal = _totalSupply * equityToVote / 100 * ( 10 ** decimals); \n        \n        // require (balances[msg.sender] >= minReqTokenCreateProposal, \"10% stake need\");\n        \n        proposalCount++;\n        Proposal memory newProposal = Proposal({\n            id: proposalCount,\n            proposer: msg.sender,\n            favorVotes: 0,\n            againstVotes: 0,\n            canceled: false,\n            announced: false,\n            voterCount: 0,\n            description: proposalDescription,\n            title: proposalTitle,\n            // dateOfCreation: block.timestamp,\n            deadLine: block.timestamp + 3 minutes,\n            proposalCreatedUnder :contractAddr,\n            res: ProposalState.ACTIVE\n        });\n\n        proposals[newProposal.id] = newProposal;\n        emit ProposalCreated(\n            newProposal.id,\n            msg.sender,\n            proposalDescription,\n            proposalTitle\n            // newProposal.dateOfCreation\n        );\n    }\n\n    function getReceipt(uint256 proposalId, address voter) external view returns (VoteReceipt memory) {\n        return voterReceipts[proposalId][voter];\n    }\n\n    function stateOfTheProposal(uint256 proposalId) public returns (ProposalState) {\n        uint256 totalAmountOfPassVoters;\n        uint256 totalAmountOfRejectVoters;\n        require(\n            proposalCount >= proposalId && proposalId > 0,\n            \"stateOfTheProposal: invalid proposal id\"\n        );\n        Proposal storage proposal = proposals[proposalId];\n        if (proposal.canceled) {\n            return ProposalState.CANCELED;\n        } else if (proposal.announced) {\n            for (uint256 i = 0; i < proposal.voterCount; i++) {\n                VoteReceipt storage receipt = voterReceipts[proposalId][\n                    voters[proposalId][i]\n                ];\n                if (receipt.isSupport == true) {\n                    totalAmountOfPassVoters += balances[voters[proposalId][i]];\n                } else if (receipt.isSupport == false) {\n                    totalAmountOfRejectVoters += balances[voters[proposalId][i]];\n                }\n            }\n            if (totalAmountOfPassVoters > totalAmountOfRejectVoters) {\n                proposal.res = ProposalState.ACCEPTED;\n                return ProposalState.ACCEPTED;\n            } else {\n                proposal.res = ProposalState.REJECTED;\n                return ProposalState.REJECTED;\n            }\n        } else {\n            return ProposalState.ACTIVE;\n        }\n    }\n\n    function voteToProposal(uint256 proposalId, bool vote) external {\n        require(\n            proposalCount >= proposalId && proposalId > 0,\n            \"voteToProposal: invalid proposal id\"\n        );\n\n        // require(balances[msg.sender] >= minReqTokenToVoteProposal, \"5% stake need\");\n        Proposal storage proposal = proposals[proposalId];\n        require(\n            block.timestamp <= proposal.deadLine,\n            \"voteToProposal: Voting period has ended\"\n        );\n        require(\n            balances[msg.sender] >= 0,\n            \"voteToProposal: User doesn't have sufficient token to vote\"\n        );\n        VoteReceipt storage receipt = voterReceipts[proposalId][msg.sender];\n        require((receipt.isVoted == false), \"voteToProposal: You can't vote again\");\n\n        receipt.isVoted = true;\n        receipt.isSupport = vote;\n        receipt.votes = 1;\n        voters[proposalId][proposal.voterCount] = msg.sender;\n        proposal.voterCount++;\n        if (vote) {\n            proposal.favorVotes = proposal.favorVotes.add(1);\n        } else {\n            proposal.againstVotes = proposal.againstVotes.add(1);\n        }\n        voterReceipts[proposalId][msg.sender] = receipt;\n        emit VoteCast(msg.sender, proposalId, vote);\n    }\n\n    function proposalResult(uint256 proposalId) external{\n        require(proposalCount >= proposalId && proposalId > 0,\"proposalResult: invalid proposal id\");\n\n        Proposal storage proposal = proposals[proposalId];\n        // require(block.timestamp > proposal.deadLine,\"proposalResult: DeadLine has not yet passed\");\n\n        ProposalState _ProposalState = stateOfTheProposal(proposalId);\n        require(_ProposalState != ProposalState.CANCELED, \"proposalResult: Prososal is canceled\");\n        require(\n            _ProposalState != ProposalState.ACCEPTED &&_ProposalState != ProposalState.REJECTED,\n            \"proposalResult: Result already announced\"\n        );\n        proposal.announced = true;\n    }\n\n    function cancelProposal(uint256 proposalId) external {\n        require(proposalCount >= proposalId && proposalId > 0, \"cancelProposal: proposal id is invalid\");\n\n        Proposal storage proposal = proposals[proposalId];\n        require(msg.sender == proposal.proposer,\"cancelProposal: only admin can cancel the proposal\");\n        require(block.timestamp < proposal.deadLine,\n            \"cancelProposal: not able to cancel, DeadLine crossed\"\n        );\n        ProposalState _ProposalState = stateOfTheProposal(proposalId);\n        require(\n            _ProposalState != ProposalState.CANCELED,\n            \"declareResult: Already in cancel state\"\n        );\n        proposal.canceled = true;\n    }\n\n    function getVotes(uint256 proposalId) public view returns (Vote[] memory) {\n        uint256 voterCount = proposals[proposalId].voterCount;\n        Vote[] memory votes = new Vote[](voterCount);\n        for (uint256 i = 0; i < voterCount; i++) {\n            votes[i] = Vote(\n                voters[proposalId][i],\n                voterReceipts[proposalId][voters[proposalId][i]].isSupport,\n                voterReceipts[proposalId][voters[proposalId][i]].votes\n            );\n        }\n        return votes;\n    }\n}\n\nlibrary SafeMath {\n    function sub(uint256 a, uint256 b) internal pure returns (uint256) {\n        assert(b <= a);\n        return a - b;\n    }\n\n    function add(uint256 a, uint256 b) internal pure returns (uint256) {\n        uint256 c = a + b;\n        assert(c >= a);\n        return c;\n    }\n}",
  "sourcePath": "/home/neosoft/projects/solidity/crowdFunding/crowdfunding-dao-solidity/contracts/Dao.sol",
  "compiler": {
    "name": "solc",
    "version": "0.8.17+commit.8df45f5f.Emscripten.clang"
  },
  "schemaVersion": "3.4.11",
  "updatedAt": "2023-02-23T17:56:02.493Z",
  "networkType": "ethereum",
  "devdoc": {
    "kind": "dev",
    "methods": {},
    "version": 1
  },
  "userdoc": {
    "events": {
      "ProposalCreated(uint256,address,string,string)": {
        "notice": "An event emitted when a new proposal is created"
      },
      "VoteCast(address,uint256,bool)": {
        "notice": "An event emitted when a vote has been cast on a proposal"
      }
    },
    "kind": "user",
    "methods": {},
    "version": 1
  }
}