{
  "contractName": "ERC20Token",
  "abi": [
    {
      "inputs": [
        {
          "internalType": "string",
          "name": "_tokenName",
          "type": "string"
        },
        {
          "internalType": "string",
          "name": "_tokenSymbol",
          "type": "string"
        },
        {
          "internalType": "uint256",
          "name": "_totalSupply",
          "type": "uint256"
        },
        {
          "internalType": "address",
          "name": "admin",
          "type": "address"
        }
      ],
      "stateMutability": "nonpayable",
      "type": "constructor"
    },
    {
      "anonymous": false,
      "inputs": [
        {
          "indexed": true,
          "internalType": "address",
          "name": "owner",
          "type": "address"
        },
        {
          "indexed": true,
          "internalType": "address",
          "name": "spender",
          "type": "address"
        },
        {
          "indexed": false,
          "internalType": "uint256",
          "name": "value",
          "type": "uint256"
        }
      ],
      "name": "Approval",
      "type": "event"
    },
    {
      "anonymous": false,
      "inputs": [
        {
          "indexed": true,
          "internalType": "address",
          "name": "from",
          "type": "address"
        },
        {
          "indexed": true,
          "internalType": "address",
          "name": "to",
          "type": "address"
        },
        {
          "indexed": false,
          "internalType": "uint256",
          "name": "value",
          "type": "uint256"
        }
      ],
      "name": "Transfer",
      "type": "event"
    },
    {
      "inputs": [],
      "name": "ERC20Interface",
      "outputs": [
        {
          "internalType": "contract ERC20",
          "name": "",
          "type": "address"
        }
      ],
      "stateMutability": "view",
      "type": "function"
    },
    {
      "inputs": [
        {
          "internalType": "address",
          "name": "owner",
          "type": "address"
        },
        {
          "internalType": "address",
          "name": "spender",
          "type": "address"
        }
      ],
      "name": "allowance",
      "outputs": [
        {
          "internalType": "uint256",
          "name": "",
          "type": "uint256"
        }
      ],
      "stateMutability": "view",
      "type": "function"
    },
    {
      "inputs": [
        {
          "internalType": "address",
          "name": "spender",
          "type": "address"
        },
        {
          "internalType": "uint256",
          "name": "amount",
          "type": "uint256"
        }
      ],
      "name": "approve",
      "outputs": [
        {
          "internalType": "bool",
          "name": "",
          "type": "bool"
        }
      ],
      "stateMutability": "nonpayable",
      "type": "function"
    },
    {
      "inputs": [
        {
          "internalType": "address",
          "name": "account",
          "type": "address"
        }
      ],
      "name": "balanceOf",
      "outputs": [
        {
          "internalType": "uint256",
          "name": "",
          "type": "uint256"
        }
      ],
      "stateMutability": "view",
      "type": "function"
    },
    {
      "inputs": [],
      "name": "decimals",
      "outputs": [
        {
          "internalType": "uint8",
          "name": "",
          "type": "uint8"
        }
      ],
      "stateMutability": "view",
      "type": "function"
    },
    {
      "inputs": [
        {
          "internalType": "address",
          "name": "spender",
          "type": "address"
        },
        {
          "internalType": "uint256",
          "name": "subtractedValue",
          "type": "uint256"
        }
      ],
      "name": "decreaseAllowance",
      "outputs": [
        {
          "internalType": "bool",
          "name": "",
          "type": "bool"
        }
      ],
      "stateMutability": "nonpayable",
      "type": "function"
    },
    {
      "inputs": [
        {
          "internalType": "address",
          "name": "spender",
          "type": "address"
        },
        {
          "internalType": "uint256",
          "name": "addedValue",
          "type": "uint256"
        }
      ],
      "name": "increaseAllowance",
      "outputs": [
        {
          "internalType": "bool",
          "name": "",
          "type": "bool"
        }
      ],
      "stateMutability": "nonpayable",
      "type": "function"
    },
    {
      "inputs": [],
      "name": "name",
      "outputs": [
        {
          "internalType": "string",
          "name": "",
          "type": "string"
        }
      ],
      "stateMutability": "view",
      "type": "function"
    },
    {
      "inputs": [],
      "name": "symbol",
      "outputs": [
        {
          "internalType": "string",
          "name": "",
          "type": "string"
        }
      ],
      "stateMutability": "view",
      "type": "function"
    },
    {
      "inputs": [],
      "name": "totalSupply",
      "outputs": [
        {
          "internalType": "uint256",
          "name": "",
          "type": "uint256"
        }
      ],
      "stateMutability": "view",
      "type": "function"
    },
    {
      "inputs": [
        {
          "internalType": "address",
          "name": "from",
          "type": "address"
        },
        {
          "internalType": "address",
          "name": "to",
          "type": "address"
        },
        {
          "internalType": "uint256",
          "name": "amount",
          "type": "uint256"
        }
      ],
      "name": "transferFrom",
      "outputs": [
        {
          "internalType": "bool",
          "name": "",
          "type": "bool"
        }
      ],
      "stateMutability": "nonpayable",
      "type": "function"
    },
    {
      "inputs": [
        {
          "internalType": "address",
          "name": "_to",
          "type": "address"
        },
        {
          "internalType": "uint256",
          "name": "_amount",
          "type": "uint256"
        }
      ],
      "name": "mint",
      "outputs": [],
      "stateMutability": "nonpayable",
      "type": "function"
    },
    {
      "inputs": [
        {
          "internalType": "address",
          "name": "to",
          "type": "address"
        },
        {
          "internalType": "uint256",
          "name": "amount",
          "type": "uint256"
        }
      ],
      "name": "transfer",
      "outputs": [
        {
          "internalType": "bool",
          "name": "",
          "type": "bool"
        }
      ],
      "stateMutability": "nonpayable",
      "type": "function"
    },
    {
      "inputs": [
        {
          "internalType": "address",
          "name": "from",
          "type": "address"
        },
        {
          "internalType": "address",
          "name": "to",
          "type": "address"
        },
        {
          "internalType": "uint256",
          "name": "tokens",
          "type": "uint256"
        }
      ],
      "name": "transfer",
      "outputs": [],
      "stateMutability": "nonpayable",
      "type": "function"
    },
    {
      "inputs": [
        {
          "internalType": "address",
          "name": "receiver",
          "type": "address"
        },
        {
          "internalType": "uint256",
          "name": "_amount",
          "type": "uint256"
        }
      ],
      "name": "withDrawal",
      "outputs": [],
      "stateMutability": "nonpayable",
      "type": "function"
    }
  ],
  "bytecode": "0x60806040523480156200001157600080fd5b5060405162002320380380620023208339818101604052810190620000379190620004c6565b838381600390816200004a9190620007bd565b5080600490816200005c9190620007bd565b50505062000096816012600a62000074919062000a27565b8462000081919062000a78565b62000100640100000000026401000000009004565b620000af6200027f640100000000026401000000009004565b60068190555033600760006101000a81548173ffffffffffffffffffffffffffffffffffffffff021916908373ffffffffffffffffffffffffffffffffffffffff1602179055505050505062000baf565b600073ffffffffffffffffffffffffffffffffffffffff168273ffffffffffffffffffffffffffffffffffffffff160362000172576040517f08c379a0000000000000000000000000000000000000000000000000000000008152600401620001699062000b24565b60405180910390fd5b6200018f6000838362000289640100000000026401000000009004565b8060026000828254620001a3919062000b46565b92505081905550806000808473ffffffffffffffffffffffffffffffffffffffff1673ffffffffffffffffffffffffffffffffffffffff168152602001908152602001600020600082825401925050819055508173ffffffffffffffffffffffffffffffffffffffff16600073ffffffffffffffffffffffffffffffffffffffff167fddf252ad1be2c89b69c2b068fc378daa952ba7f163c4a11628f55a4df523b3ef8360405162000256919062000b92565b60405180910390a36200027b600083836200028e640100000000026401000000009004565b5050565b6000600254905090565b505050565b505050565b6000604051905090565b600080fd5b600080fd5b600080fd5b600080fd5b6000601f19601f8301169050919050565b7f4e487b7100000000000000000000000000000000000000000000000000000000600052604160045260246000fd5b620002fc82620002b1565b810181811067ffffffffffffffff821117156200031e576200031d620002c2565b5b80604052505050565b60006200033362000293565b9050620003418282620002f1565b919050565b600067ffffffffffffffff821115620003645762000363620002c2565b5b6200036f82620002b1565b9050602081019050919050565b60005b838110156200039c5780820151818401526020810190506200037f565b60008484015250505050565b6000620003bf620003b98462000346565b62000327565b905082815260208101848484011115620003de57620003dd620002ac565b5b620003eb8482856200037c565b509392505050565b600082601f8301126200040b576200040a620002a7565b5b81516200041d848260208601620003a8565b91505092915050565b6000819050919050565b6200043b8162000426565b81146200044757600080fd5b50565b6000815190506200045b8162000430565b92915050565b600073ffffffffffffffffffffffffffffffffffffffff82169050919050565b60006200048e8262000461565b9050919050565b620004a08162000481565b8114620004ac57600080fd5b50565b600081519050620004c08162000495565b92915050565b60008060008060808587031215620004e357620004e26200029d565b5b600085015167ffffffffffffffff811115620005045762000503620002a2565b5b6200051287828801620003f3565b945050602085015167ffffffffffffffff811115620005365762000535620002a2565b5b6200054487828801620003f3565b935050604062000557878288016200044a565b92505060606200056a87828801620004af565b91505092959194509250565b600081519050919050565b7f4e487b7100000000000000000000000000000000000000000000000000000000600052602260045260246000fd5b60006002820490506001821680620005c957607f821691505b602082108103620005df57620005de62000581565b5b50919050565b60008190508160005260206000209050919050565b60006020601f8301049050919050565b60008160020a8302905092915050565b6000600883026200064c7fffffffffffffffffffffffffffffffffffffffffffffffffffffffffffffffff826200060a565b6200065886836200060a565b95508019841693508086168417925050509392505050565b6000819050919050565b60006200069b620006956200068f8462000426565b62000670565b62000426565b9050919050565b6000819050919050565b620006b7836200067a565b620006cf620006c682620006a2565b8484546200061a565b825550505050565b600090565b620006e6620006d7565b620006f3818484620006ac565b505050565b5b818110156200071b576200070f600082620006dc565b600181019050620006f9565b5050565b601f8211156200076a576200073481620005e5565b6200073f84620005fa565b810160208510156200074f578190505b620007676200075e85620005fa565b830182620006f8565b50505b505050565b60008160020a8304905092915050565b600062000792600019846008026200076f565b1980831691505092915050565b6000620007ad83836200077f565b9150826002028217905092915050565b620007c88262000576565b67ffffffffffffffff811115620007e457620007e3620002c2565b5b620007f08254620005b0565b620007fd8282856200071f565b600060209050601f83116001811462000835576000841562000820578287015190505b6200082c85826200079f565b8655506200089c565b601f1984166200084586620005e5565b60005b828110156200086f5784890151825560018201915060208501945060208101905062000848565b868310156200088f57848901516200088b601f8916826200077f565b8355505b6001600288020188555050505b505050505050565b7f4e487b7100000000000000000000000000000000000000000000000000000000600052601160045260246000fd5b6000600282049050919050565b6000808291508390505b600185111562000932578086048111156200090a5762000909620008a4565b5b60018516156200091a5780820291505b80810290506200092a85620008d3565b9450620008ea565b94509492505050565b6000826200094d576001905062000a20565b816200095d576000905062000a20565b81600181146200097657600281146200098157620009b7565b600191505062000a20565b60ff841115620009965762000995620008a4565b5b8360020a915084821115620009b057620009af620008a4565b5b5062000a20565b5060208310610133831016604e8410600b8410161715620009f15782820a905083811115620009eb57620009ea620008a4565b5b62000a20565b62000a008484846001620008e0565b9250905081840481111562000a1a5762000a19620008a4565b5b81810290505b9392505050565b600062000a348262000426565b915062000a418362000426565b925062000a707fffffffffffffffffffffffffffffffffffffffffffffffffffffffffffffffff84846200093b565b905092915050565b600062000a858262000426565b915062000a928362000426565b925082820262000aa28162000426565b9150828204841483151762000abc5762000abb620008a4565b5b5092915050565b600082825260208201905092915050565b7f45524332303a206d696e7420746f20746865207a65726f206164647265737300600082015250565b600062000b0c601f8362000ac3565b915062000b198262000ad4565b602082019050919050565b6000602082019050818103600083015262000b3f8162000afd565b9050919050565b600062000b538262000426565b915062000b608362000426565b925082820190508082111562000b7b5762000b7a620008a4565b5b92915050565b62000b8c8162000426565b82525050565b600060208201905062000ba9600083018462000b81565b92915050565b6117618062000bbf6000396000f3fe608060405234801561001057600080fd5b5060043610610112576000357c01000000000000000000000000000000000000000000000000000000009004806340c10f19116100b4578063a457c2d711610083578063a457c2d7146102a5578063a9059cbb146102d5578063beabacc814610305578063dd62ed3e1461032157610112565b806340c10f191461021f5780635c1705081461023b57806370a082311461025757806395d89b411461028757610112565b80631bbc4b83116100f05780631bbc4b831461018357806323b872dd146101a1578063313ce567146101d157806339509351146101ef57610112565b806306fdde0314610117578063095ea7b31461013557806318160ddd14610165575b600080fd5b61011f610351565b60405161012c9190610eec565b60405180910390f35b61014f600480360381019061014a9190610fa7565b6103e3565b60405161015c9190611002565b60405180910390f35b61016d610406565b60405161017a919061102c565b60405180910390f35b61018b610410565b60405161019891906110a6565b60405180910390f35b6101bb60048036038101906101b691906110c1565b610436565b6040516101c89190611002565b60405180910390f35b6101d9610465565b6040516101e69190611130565b60405180910390f35b61020960048036038101906102049190610fa7565b61046e565b6040516102169190611002565b60405180910390f35b61023960048036038101906102349190610fa7565b6104a5565b005b61025560048036038101906102509190610fa7565b610543565b005b610271600480360381019061026c919061114b565b61061e565b60405161027e919061102c565b60405180910390f35b61028f610666565b60405161029c9190610eec565b60405180910390f35b6102bf60048036038101906102ba9190610fa7565b6106f8565b6040516102cc9190611002565b60405180910390f35b6102ef60048036038101906102ea9190610fa7565b61076f565b6040516102fc9190611002565b60405180910390f35b61031f600480360381019061031a91906110c1565b610792565b005b61033b60048036038101906103369190611178565b6107a2565b604051610348919061102c565b60405180910390f35b606060038054610360906111e7565b80601f016020809104026020016040519081016040528092919081815260200182805461038c906111e7565b80156103d95780601f106103ae576101008083540402835291602001916103d9565b820191906000526020600020905b8154815290600101906020018083116103bc57829003601f168201915b5050505050905090565b6000806103ee610829565b90506103fb818585610831565b600191505092915050565b6000600254905090565b600560009054906101000a900473ffffffffffffffffffffffffffffffffffffffff1681565b600080610441610829565b905061044e8582856109fa565b610459858585610a86565b60019150509392505050565b60006012905090565b600080610479610829565b905061049a81858561048b85896107a2565b6104959190611247565b610831565b600191505092915050565b600760009054906101000a900473ffffffffffffffffffffffffffffffffffffffff1673ffffffffffffffffffffffffffffffffffffffff163373ffffffffffffffffffffffffffffffffffffffff1614610535576040517f08c379a000000000000000000000000000000000000000000000000000000000815260040161052c906112c7565b60405180910390fd5b61053f8282610cfc565b5050565b600760009054906101000a900473ffffffffffffffffffffffffffffffffffffffff1673ffffffffffffffffffffffffffffffffffffffff163373ffffffffffffffffffffffffffffffffffffffff16146105d3576040517f08c379a00000000000000000000000000000000000000000000000000000000081526004016105ca906112c7565b60405180910390fd5b8173ffffffffffffffffffffffffffffffffffffffff166108fc829081150290604051600060405180830381858888f19350505050158015610619573d6000803e3d6000fd5b505050565b60008060008373ffffffffffffffffffffffffffffffffffffffff1673ffffffffffffffffffffffffffffffffffffffff168152602001908152602001600020549050919050565b606060048054610675906111e7565b80601f01602080910402602001604051908101604052809291908181526020018280546106a1906111e7565b80156106ee5780601f106106c3576101008083540402835291602001916106ee565b820191906000526020600020905b8154815290600101906020018083116106d157829003601f168201915b5050505050905090565b600080610703610829565b9050600061071182866107a2565b905083811015610756576040517f08c379a000000000000000000000000000000000000000000000000000000000815260040161074d90611359565b60405180910390fd5b6107638286868403610831565b60019250505092915050565b60008061077a610829565b9050610787818585610a86565b600191505092915050565b61079d838383610a86565b505050565b6000600160008473ffffffffffffffffffffffffffffffffffffffff1673ffffffffffffffffffffffffffffffffffffffff16815260200190815260200160002060008373ffffffffffffffffffffffffffffffffffffffff1673ffffffffffffffffffffffffffffffffffffffff16815260200190815260200160002054905092915050565b600033905090565b600073ffffffffffffffffffffffffffffffffffffffff168373ffffffffffffffffffffffffffffffffffffffff16036108a0576040517f08c379a0000000000000000000000000000000000000000000000000000000008152600401610897906113eb565b60405180910390fd5b600073ffffffffffffffffffffffffffffffffffffffff168273ffffffffffffffffffffffffffffffffffffffff160361090f576040517f08c379a00000000000000000000000000000000000000000000000000000000081526004016109069061147d565b60405180910390fd5b80600160008573ffffffffffffffffffffffffffffffffffffffff1673ffffffffffffffffffffffffffffffffffffffff16815260200190815260200160002060008473ffffffffffffffffffffffffffffffffffffffff1673ffffffffffffffffffffffffffffffffffffffff168152602001908152602001600020819055508173ffffffffffffffffffffffffffffffffffffffff168373ffffffffffffffffffffffffffffffffffffffff167f8c5be1e5ebec7d5bd14f71427d1e84f3dd0314c0f7b2291e5b200ac8c7c3b925836040516109ed919061102c565b60405180910390a3505050565b6000610a0684846107a2565b90507fffffffffffffffffffffffffffffffffffffffffffffffffffffffffffffffff8114610a805781811015610a72576040517f08c379a0000000000000000000000000000000000000000000000000000000008152600401610a69906114e9565b60405180910390fd5b610a7f8484848403610831565b5b50505050565b600073ffffffffffffffffffffffffffffffffffffffff168373ffffffffffffffffffffffffffffffffffffffff1603610af5576040517f08c379a0000000000000000000000000000000000000000000000000000000008152600401610aec9061157b565b60405180910390fd5b600073ffffffffffffffffffffffffffffffffffffffff168273ffffffffffffffffffffffffffffffffffffffff1603610b64576040517f08c379a0000000000000000000000000000000000000000000000000000000008152600401610b5b9061160d565b60405180910390fd5b610b6f838383610e52565b60008060008573ffffffffffffffffffffffffffffffffffffffff1673ffffffffffffffffffffffffffffffffffffffff16815260200190815260200160002054905081811015610bf5576040517f08c379a0000000000000000000000000000000000000000000000000000000008152600401610bec9061169f565b60405180910390fd5b8181036000808673ffffffffffffffffffffffffffffffffffffffff1673ffffffffffffffffffffffffffffffffffffffff16815260200190815260200160002081905550816000808573ffffffffffffffffffffffffffffffffffffffff1673ffffffffffffffffffffffffffffffffffffffff168152602001908152602001600020600082825401925050819055508273ffffffffffffffffffffffffffffffffffffffff168473ffffffffffffffffffffffffffffffffffffffff167fddf252ad1be2c89b69c2b068fc378daa952ba7f163c4a11628f55a4df523b3ef84604051610ce3919061102c565b60405180910390a3610cf6848484610e57565b50505050565b600073ffffffffffffffffffffffffffffffffffffffff168273ffffffffffffffffffffffffffffffffffffffff1603610d6b576040517f08c379a0000000000000000000000000000000000000000000000000000000008152600401610d629061170b565b60405180910390fd5b610d7760008383610e52565b8060026000828254610d899190611247565b92505081905550806000808473ffffffffffffffffffffffffffffffffffffffff1673ffffffffffffffffffffffffffffffffffffffff168152602001908152602001600020600082825401925050819055508173ffffffffffffffffffffffffffffffffffffffff16600073ffffffffffffffffffffffffffffffffffffffff167fddf252ad1be2c89b69c2b068fc378daa952ba7f163c4a11628f55a4df523b3ef83604051610e3a919061102c565b60405180910390a3610e4e60008383610e57565b5050565b505050565b505050565b600081519050919050565b600082825260208201905092915050565b60005b83811015610e96578082015181840152602081019050610e7b565b60008484015250505050565b6000601f19601f8301169050919050565b6000610ebe82610e5c565b610ec88185610e67565b9350610ed8818560208601610e78565b610ee181610ea2565b840191505092915050565b60006020820190508181036000830152610f068184610eb3565b905092915050565b600080fd5b600073ffffffffffffffffffffffffffffffffffffffff82169050919050565b6000610f3e82610f13565b9050919050565b610f4e81610f33565b8114610f5957600080fd5b50565b600081359050610f6b81610f45565b92915050565b6000819050919050565b610f8481610f71565b8114610f8f57600080fd5b50565b600081359050610fa181610f7b565b92915050565b60008060408385031215610fbe57610fbd610f0e565b5b6000610fcc85828601610f5c565b9250506020610fdd85828601610f92565b9150509250929050565b60008115159050919050565b610ffc81610fe7565b82525050565b60006020820190506110176000830184610ff3565b92915050565b61102681610f71565b82525050565b6000602082019050611041600083018461101d565b92915050565b6000819050919050565b600061106c61106761106284610f13565b611047565b610f13565b9050919050565b600061107e82611051565b9050919050565b600061109082611073565b9050919050565b6110a081611085565b82525050565b60006020820190506110bb6000830184611097565b92915050565b6000806000606084860312156110da576110d9610f0e565b5b60006110e886828701610f5c565b93505060206110f986828701610f5c565b925050604061110a86828701610f92565b9150509250925092565b600060ff82169050919050565b61112a81611114565b82525050565b60006020820190506111456000830184611121565b92915050565b60006020828403121561116157611160610f0e565b5b600061116f84828501610f5c565b91505092915050565b6000806040838503121561118f5761118e610f0e565b5b600061119d85828601610f5c565b92505060206111ae85828601610f5c565b9150509250929050565b7f4e487b7100000000000000000000000000000000000000000000000000000000600052602260045260246000fd5b600060028204905060018216806111ff57607f821691505b602082108103611212576112116111b8565b5b50919050565b7f4e487b7100000000000000000000000000000000000000000000000000000000600052601160045260246000fd5b600061125282610f71565b915061125d83610f71565b925082820190508082111561127557611274611218565b5b92915050565b7f4f6e6c79204f776e657200000000000000000000000000000000000000000000600082015250565b60006112b1600a83610e67565b91506112bc8261127b565b602082019050919050565b600060208201905081810360008301526112e0816112a4565b9050919050565b7f45524332303a2064656372656173656420616c6c6f77616e63652062656c6f7760008201527f207a65726f000000000000000000000000000000000000000000000000000000602082015250565b6000611343602583610e67565b915061134e826112e7565b604082019050919050565b6000602082019050818103600083015261137281611336565b9050919050565b7f45524332303a20617070726f76652066726f6d20746865207a65726f2061646460008201527f7265737300000000000000000000000000000000000000000000000000000000602082015250565b60006113d5602483610e67565b91506113e082611379565b604082019050919050565b60006020820190508181036000830152611404816113c8565b9050919050565b7f45524332303a20617070726f766520746f20746865207a65726f20616464726560008201527f7373000000000000000000000000000000000000000000000000000000000000602082015250565b6000611467602283610e67565b91506114728261140b565b604082019050919050565b600060208201905081810360008301526114968161145a565b9050919050565b7f45524332303a20696e73756666696369656e7420616c6c6f77616e6365000000600082015250565b60006114d3601d83610e67565b91506114de8261149d565b602082019050919050565b60006020820190508181036000830152611502816114c6565b9050919050565b7f45524332303a207472616e736665722066726f6d20746865207a65726f20616460008201527f6472657373000000000000000000000000000000000000000000000000000000602082015250565b6000611565602583610e67565b915061157082611509565b604082019050919050565b6000602082019050818103600083015261159481611558565b9050919050565b7f45524332303a207472616e7366657220746f20746865207a65726f206164647260008201527f6573730000000000000000000000000000000000000000000000000000000000602082015250565b60006115f7602383610e67565b91506116028261159b565b604082019050919050565b60006020820190508181036000830152611626816115ea565b9050919050565b7f45524332303a207472616e7366657220616d6f756e742065786365656473206260008201527f616c616e63650000000000000000000000000000000000000000000000000000602082015250565b6000611689602683610e67565b91506116948261162d565b604082019050919050565b600060208201905081810360008301526116b88161167c565b9050919050565b7f45524332303a206d696e7420746f20746865207a65726f206164647265737300600082015250565b60006116f5601f83610e67565b9150611700826116bf565b602082019050919050565b60006020820190508181036000830152611724816116e8565b905091905056fea2646970667358221220e947f55b1e69c8c5feae07fe6e6350530e59ebe9c2ccf8b51203595a7e35a74464736f6c63430008110033",
  "immutableReferences": {},
  "source": "// SPDX-License-Identifier: UNLICENSED\npragma solidity^0.8;\n\nimport \"@openzeppelin/contracts/token/ERC20/ERC20.sol\";\n\ncontract ERC20Token is ERC20 {\n\n    ERC20 public ERC20Interface;\n\n    uint256 private balance;\n    address private contracOwner;\n\n    constructor (string memory _tokenName, string memory _tokenSymbol, uint256 _totalSupply, address admin) ERC20(_tokenName, _tokenSymbol){\n        _mint(admin, _totalSupply * (10 ** uint256(18)));\n        balance = totalSupply();\n        contracOwner = msg.sender;\n    }\n\n    modifier onlyContract(){\n        require(msg.sender == contracOwner, \"Only Owner\");\n        _;\n    }\n\n    function mint(address _to, uint256 _amount) onlyContract public {\n       _mint(_to, _amount);\n    }\n\n    function transfer(address from, address to, uint256 tokens) public {\n        _transfer(from,to,tokens);\n    }\n\n    function withDrawal(address receiver,uint256 _amount)public onlyContract {\n       payable(receiver).transfer(_amount);\n   }\n}",
  "sourcePath": "/home/neosoft/projects/solidity/crowdFunding/crowdfunding-dao-solidity/contracts/ERC20.sol",
  "compiler": {
    "name": "solc",
    "version": "0.8.17+commit.8df45f5f.Emscripten.clang"
  },
  "schemaVersion": "3.4.11",
  "updatedAt": "2023-03-09T17:43:12.487Z",
  "devdoc": {
    "kind": "dev",
    "methods": {
      "allowance(address,address)": {
        "details": "See {IERC20-allowance}."
      },
      "approve(address,uint256)": {
        "details": "See {IERC20-approve}. NOTE: If `amount` is the maximum `uint256`, the allowance is not updated on `transferFrom`. This is semantically equivalent to an infinite approval. Requirements: - `spender` cannot be the zero address."
      },
      "balanceOf(address)": {
        "details": "See {IERC20-balanceOf}."
      },
      "decimals()": {
        "details": "Returns the number of decimals used to get its user representation. For example, if `decimals` equals `2`, a balance of `505` tokens should be displayed to a user as `5.05` (`505 / 10 ** 2`). Tokens usually opt for a value of 18, imitating the relationship between Ether and Wei. This is the value {ERC20} uses, unless this function is overridden; NOTE: This information is only used for _display_ purposes: it in no way affects any of the arithmetic of the contract, including {IERC20-balanceOf} and {IERC20-transfer}."
      },
      "decreaseAllowance(address,uint256)": {
        "details": "Atomically decreases the allowance granted to `spender` by the caller. This is an alternative to {approve} that can be used as a mitigation for problems described in {IERC20-approve}. Emits an {Approval} event indicating the updated allowance. Requirements: - `spender` cannot be the zero address. - `spender` must have allowance for the caller of at least `subtractedValue`."
      },
      "increaseAllowance(address,uint256)": {
        "details": "Atomically increases the allowance granted to `spender` by the caller. This is an alternative to {approve} that can be used as a mitigation for problems described in {IERC20-approve}. Emits an {Approval} event indicating the updated allowance. Requirements: - `spender` cannot be the zero address."
      },
      "name()": {
        "details": "Returns the name of the token."
      },
      "symbol()": {
        "details": "Returns the symbol of the token, usually a shorter version of the name."
      },
      "totalSupply()": {
        "details": "See {IERC20-totalSupply}."
      },
      "transfer(address,uint256)": {
        "details": "See {IERC20-transfer}. Requirements: - `to` cannot be the zero address. - the caller must have a balance of at least `amount`."
      },
      "transferFrom(address,address,uint256)": {
        "details": "See {IERC20-transferFrom}. Emits an {Approval} event indicating the updated allowance. This is not required by the EIP. See the note at the beginning of {ERC20}. NOTE: Does not update the allowance if the current allowance is the maximum `uint256`. Requirements: - `from` and `to` cannot be the zero address. - `from` must have a balance of at least `amount`. - the caller must have allowance for ``from``'s tokens of at least `amount`."
      }
    },
    "version": 1
  },
  "userdoc": {
    "kind": "user",
    "methods": {},
    "version": 1
  }
}