{
  "contractName": "ERC20Token",
  "abi": [
    {
      "inputs": [
        {
          "internalType": "string",
          "name": "_tokenName",
          "type": "string"
        },
        {
          "internalType": "string",
          "name": "_tokenSymbol",
          "type": "string"
        },
        {
          "internalType": "uint256",
          "name": "_totalSupply",
          "type": "uint256"
        },
        {
          "internalType": "address",
          "name": "admin",
          "type": "address"
        }
      ],
      "stateMutability": "nonpayable",
      "type": "constructor"
    },
    {
      "anonymous": false,
      "inputs": [
        {
          "indexed": true,
          "internalType": "address",
          "name": "owner",
          "type": "address"
        },
        {
          "indexed": true,
          "internalType": "address",
          "name": "spender",
          "type": "address"
        },
        {
          "indexed": false,
          "internalType": "uint256",
          "name": "value",
          "type": "uint256"
        }
      ],
      "name": "Approval",
      "type": "event"
    },
    {
      "anonymous": false,
      "inputs": [
        {
          "indexed": true,
          "internalType": "address",
          "name": "from",
          "type": "address"
        },
        {
          "indexed": true,
          "internalType": "address",
          "name": "to",
          "type": "address"
        },
        {
          "indexed": false,
          "internalType": "uint256",
          "name": "value",
          "type": "uint256"
        }
      ],
      "name": "Transfer",
      "type": "event"
    },
    {
      "inputs": [],
      "name": "ERC20Interface",
      "outputs": [
        {
          "internalType": "contract ERC20",
          "name": "",
          "type": "address"
        }
      ],
      "stateMutability": "view",
      "type": "function"
    },
    {
      "inputs": [
        {
          "internalType": "address",
          "name": "owner",
          "type": "address"
        },
        {
          "internalType": "address",
          "name": "spender",
          "type": "address"
        }
      ],
      "name": "allowance",
      "outputs": [
        {
          "internalType": "uint256",
          "name": "",
          "type": "uint256"
        }
      ],
      "stateMutability": "view",
      "type": "function"
    },
    {
      "inputs": [
        {
          "internalType": "address",
          "name": "spender",
          "type": "address"
        },
        {
          "internalType": "uint256",
          "name": "amount",
          "type": "uint256"
        }
      ],
      "name": "approve",
      "outputs": [
        {
          "internalType": "bool",
          "name": "",
          "type": "bool"
        }
      ],
      "stateMutability": "nonpayable",
      "type": "function"
    },
    {
      "inputs": [
        {
          "internalType": "address",
          "name": "account",
          "type": "address"
        }
      ],
      "name": "balanceOf",
      "outputs": [
        {
          "internalType": "uint256",
          "name": "",
          "type": "uint256"
        }
      ],
      "stateMutability": "view",
      "type": "function"
    },
    {
      "inputs": [],
      "name": "decimals",
      "outputs": [
        {
          "internalType": "uint8",
          "name": "",
          "type": "uint8"
        }
      ],
      "stateMutability": "view",
      "type": "function"
    },
    {
      "inputs": [
        {
          "internalType": "address",
          "name": "spender",
          "type": "address"
        },
        {
          "internalType": "uint256",
          "name": "subtractedValue",
          "type": "uint256"
        }
      ],
      "name": "decreaseAllowance",
      "outputs": [
        {
          "internalType": "bool",
          "name": "",
          "type": "bool"
        }
      ],
      "stateMutability": "nonpayable",
      "type": "function"
    },
    {
      "inputs": [
        {
          "internalType": "address",
          "name": "spender",
          "type": "address"
        },
        {
          "internalType": "uint256",
          "name": "addedValue",
          "type": "uint256"
        }
      ],
      "name": "increaseAllowance",
      "outputs": [
        {
          "internalType": "bool",
          "name": "",
          "type": "bool"
        }
      ],
      "stateMutability": "nonpayable",
      "type": "function"
    },
    {
      "inputs": [],
      "name": "name",
      "outputs": [
        {
          "internalType": "string",
          "name": "",
          "type": "string"
        }
      ],
      "stateMutability": "view",
      "type": "function"
    },
    {
      "inputs": [],
      "name": "symbol",
      "outputs": [
        {
          "internalType": "string",
          "name": "",
          "type": "string"
        }
      ],
      "stateMutability": "view",
      "type": "function"
    },
    {
      "inputs": [],
      "name": "totalSupply",
      "outputs": [
        {
          "internalType": "uint256",
          "name": "",
          "type": "uint256"
        }
      ],
      "stateMutability": "view",
      "type": "function"
    },
    {
      "inputs": [
        {
          "internalType": "address",
          "name": "from",
          "type": "address"
        },
        {
          "internalType": "address",
          "name": "to",
          "type": "address"
        },
        {
          "internalType": "uint256",
          "name": "amount",
          "type": "uint256"
        }
      ],
      "name": "transferFrom",
      "outputs": [
        {
          "internalType": "bool",
          "name": "",
          "type": "bool"
        }
      ],
      "stateMutability": "nonpayable",
      "type": "function"
    },
    {
      "inputs": [
        {
          "internalType": "address",
          "name": "to",
          "type": "address"
        },
        {
          "internalType": "uint256",
          "name": "amount",
          "type": "uint256"
        }
      ],
      "name": "transfer",
      "outputs": [
        {
          "internalType": "bool",
          "name": "",
          "type": "bool"
        }
      ],
      "stateMutability": "nonpayable",
      "type": "function"
    },
    {
      "inputs": [
        {
          "internalType": "address",
          "name": "from",
          "type": "address"
        },
        {
          "internalType": "address",
          "name": "to",
          "type": "address"
        },
        {
          "internalType": "uint256",
          "name": "tokens",
          "type": "uint256"
        }
      ],
      "name": "transfer",
      "outputs": [],
      "stateMutability": "nonpayable",
      "type": "function"
    }
  ],
  "bytecode": "0x60806040523480156200001157600080fd5b5060405162001f1b38038062001f1b8339818101604052810190620000379190620004c6565b838381600390816200004a9190620007bd565b5080600490816200005c9190620007bd565b50505062000096816012600a62000074919062000a27565b8462000081919062000a78565b62000100640100000000026401000000009004565b620000af6200027f640100000000026401000000009004565b60068190555033600760006101000a81548173ffffffffffffffffffffffffffffffffffffffff021916908373ffffffffffffffffffffffffffffffffffffffff1602179055505050505062000baf565b600073ffffffffffffffffffffffffffffffffffffffff168273ffffffffffffffffffffffffffffffffffffffff160362000172576040517f08c379a0000000000000000000000000000000000000000000000000000000008152600401620001699062000b24565b60405180910390fd5b6200018f6000838362000289640100000000026401000000009004565b8060026000828254620001a3919062000b46565b92505081905550806000808473ffffffffffffffffffffffffffffffffffffffff1673ffffffffffffffffffffffffffffffffffffffff168152602001908152602001600020600082825401925050819055508173ffffffffffffffffffffffffffffffffffffffff16600073ffffffffffffffffffffffffffffffffffffffff167fddf252ad1be2c89b69c2b068fc378daa952ba7f163c4a11628f55a4df523b3ef8360405162000256919062000b92565b60405180910390a36200027b600083836200028e640100000000026401000000009004565b5050565b6000600254905090565b505050565b505050565b6000604051905090565b600080fd5b600080fd5b600080fd5b600080fd5b6000601f19601f8301169050919050565b7f4e487b7100000000000000000000000000000000000000000000000000000000600052604160045260246000fd5b620002fc82620002b1565b810181811067ffffffffffffffff821117156200031e576200031d620002c2565b5b80604052505050565b60006200033362000293565b9050620003418282620002f1565b919050565b600067ffffffffffffffff821115620003645762000363620002c2565b5b6200036f82620002b1565b9050602081019050919050565b60005b838110156200039c5780820151818401526020810190506200037f565b60008484015250505050565b6000620003bf620003b98462000346565b62000327565b905082815260208101848484011115620003de57620003dd620002ac565b5b620003eb8482856200037c565b509392505050565b600082601f8301126200040b576200040a620002a7565b5b81516200041d848260208601620003a8565b91505092915050565b6000819050919050565b6200043b8162000426565b81146200044757600080fd5b50565b6000815190506200045b8162000430565b92915050565b600073ffffffffffffffffffffffffffffffffffffffff82169050919050565b60006200048e8262000461565b9050919050565b620004a08162000481565b8114620004ac57600080fd5b50565b600081519050620004c08162000495565b92915050565b60008060008060808587031215620004e357620004e26200029d565b5b600085015167ffffffffffffffff811115620005045762000503620002a2565b5b6200051287828801620003f3565b945050602085015167ffffffffffffffff811115620005365762000535620002a2565b5b6200054487828801620003f3565b935050604062000557878288016200044a565b92505060606200056a87828801620004af565b91505092959194509250565b600081519050919050565b7f4e487b7100000000000000000000000000000000000000000000000000000000600052602260045260246000fd5b60006002820490506001821680620005c957607f821691505b602082108103620005df57620005de62000581565b5b50919050565b60008190508160005260206000209050919050565b60006020601f8301049050919050565b60008160020a8302905092915050565b6000600883026200064c7fffffffffffffffffffffffffffffffffffffffffffffffffffffffffffffffff826200060a565b6200065886836200060a565b95508019841693508086168417925050509392505050565b6000819050919050565b60006200069b620006956200068f8462000426565b62000670565b62000426565b9050919050565b6000819050919050565b620006b7836200067a565b620006cf620006c682620006a2565b8484546200061a565b825550505050565b600090565b620006e6620006d7565b620006f3818484620006ac565b505050565b5b818110156200071b576200070f600082620006dc565b600181019050620006f9565b5050565b601f8211156200076a576200073481620005e5565b6200073f84620005fa565b810160208510156200074f578190505b620007676200075e85620005fa565b830182620006f8565b50505b505050565b60008160020a8304905092915050565b600062000792600019846008026200076f565b1980831691505092915050565b6000620007ad83836200077f565b9150826002028217905092915050565b620007c88262000576565b67ffffffffffffffff811115620007e457620007e3620002c2565b5b620007f08254620005b0565b620007fd8282856200071f565b600060209050601f83116001811462000835576000841562000820578287015190505b6200082c85826200079f565b8655506200089c565b601f1984166200084586620005e5565b60005b828110156200086f5784890151825560018201915060208501945060208101905062000848565b868310156200088f57848901516200088b601f8916826200077f565b8355505b6001600288020188555050505b505050505050565b7f4e487b7100000000000000000000000000000000000000000000000000000000600052601160045260246000fd5b6000600282049050919050565b6000808291508390505b600185111562000932578086048111156200090a5762000909620008a4565b5b60018516156200091a5780820291505b80810290506200092a85620008d3565b9450620008ea565b94509492505050565b6000826200094d576001905062000a20565b816200095d576000905062000a20565b81600181146200097657600281146200098157620009b7565b600191505062000a20565b60ff841115620009965762000995620008a4565b5b8360020a915084821115620009b057620009af620008a4565b5b5062000a20565b5060208310610133831016604e8410600b8410161715620009f15782820a905083811115620009eb57620009ea620008a4565b5b62000a20565b62000a008484846001620008e0565b9250905081840481111562000a1a5762000a19620008a4565b5b81810290505b9392505050565b600062000a348262000426565b915062000a418362000426565b925062000a707fffffffffffffffffffffffffffffffffffffffffffffffffffffffffffffffff84846200093b565b905092915050565b600062000a858262000426565b915062000a928362000426565b925082820262000aa28162000426565b9150828204841483151762000abc5762000abb620008a4565b5b5092915050565b600082825260208201905092915050565b7f45524332303a206d696e7420746f20746865207a65726f206164647265737300600082015250565b600062000b0c601f8362000ac3565b915062000b198262000ad4565b602082019050919050565b6000602082019050818103600083015262000b3f8162000afd565b9050919050565b600062000b538262000426565b915062000b608362000426565b925082820190508082111562000b7b5762000b7a620008a4565b5b92915050565b62000b8c8162000426565b82525050565b600060208201905062000ba9600083018462000b81565b92915050565b61135c8062000bbf6000396000f3fe608060405234801561001057600080fd5b50600436106100ec576000357c01000000000000000000000000000000000000000000000000000000009004806339509351116100a9578063a457c2d711610083578063a457c2d714610247578063a9059cbb14610277578063beabacc8146102a7578063dd62ed3e146102c3576100ec565b806339509351146101c957806370a08231146101f957806395d89b4114610229576100ec565b806306fdde03146100f1578063095ea7b31461010f57806318160ddd1461013f5780631bbc4b831461015d57806323b872dd1461017b578063313ce567146101ab575b600080fd5b6100f96102f3565b6040516101069190610bbf565b60405180910390f35b61012960048036038101906101249190610c7a565b610385565b6040516101369190610cd5565b60405180910390f35b6101476103a8565b6040516101549190610cff565b60405180910390f35b6101656103b2565b6040516101729190610d79565b60405180910390f35b61019560048036038101906101909190610d94565b6103d8565b6040516101a29190610cd5565b60405180910390f35b6101b3610407565b6040516101c09190610e03565b60405180910390f35b6101e360048036038101906101de9190610c7a565b610410565b6040516101f09190610cd5565b60405180910390f35b610213600480360381019061020e9190610e1e565b610447565b6040516102209190610cff565b60405180910390f35b61023161048f565b60405161023e9190610bbf565b60405180910390f35b610261600480360381019061025c9190610c7a565b610521565b60405161026e9190610cd5565b60405180910390f35b610291600480360381019061028c9190610c7a565b610598565b60405161029e9190610cd5565b60405180910390f35b6102c160048036038101906102bc9190610d94565b6105bb565b005b6102dd60048036038101906102d89190610e4b565b6105cb565b6040516102ea9190610cff565b60405180910390f35b60606003805461030290610eba565b80601f016020809104026020016040519081016040528092919081815260200182805461032e90610eba565b801561037b5780601f106103505761010080835404028352916020019161037b565b820191906000526020600020905b81548152906001019060200180831161035e57829003601f168201915b5050505050905090565b600080610390610652565b905061039d81858561065a565b600191505092915050565b6000600254905090565b600560009054906101000a900473ffffffffffffffffffffffffffffffffffffffff1681565b6000806103e3610652565b90506103f0858285610823565b6103fb8585856108af565b60019150509392505050565b60006012905090565b60008061041b610652565b905061043c81858561042d85896105cb565b6104379190610f1a565b61065a565b600191505092915050565b60008060008373ffffffffffffffffffffffffffffffffffffffff1673ffffffffffffffffffffffffffffffffffffffff168152602001908152602001600020549050919050565b60606004805461049e90610eba565b80601f01602080910402602001604051908101604052809291908181526020018280546104ca90610eba565b80156105175780601f106104ec57610100808354040283529160200191610517565b820191906000526020600020905b8154815290600101906020018083116104fa57829003601f168201915b5050505050905090565b60008061052c610652565b9050600061053a82866105cb565b90508381101561057f576040517f08c379a000000000000000000000000000000000000000000000000000000000815260040161057690610fc0565b60405180910390fd5b61058c828686840361065a565b60019250505092915050565b6000806105a3610652565b90506105b08185856108af565b600191505092915050565b6105c68383836108af565b505050565b6000600160008473ffffffffffffffffffffffffffffffffffffffff1673ffffffffffffffffffffffffffffffffffffffff16815260200190815260200160002060008373ffffffffffffffffffffffffffffffffffffffff1673ffffffffffffffffffffffffffffffffffffffff16815260200190815260200160002054905092915050565b600033905090565b600073ffffffffffffffffffffffffffffffffffffffff168373ffffffffffffffffffffffffffffffffffffffff16036106c9576040517f08c379a00000000000000000000000000000000000000000000000000000000081526004016106c090611052565b60405180910390fd5b600073ffffffffffffffffffffffffffffffffffffffff168273ffffffffffffffffffffffffffffffffffffffff1603610738576040517f08c379a000000000000000000000000000000000000000000000000000000000815260040161072f906110e4565b60405180910390fd5b80600160008573ffffffffffffffffffffffffffffffffffffffff1673ffffffffffffffffffffffffffffffffffffffff16815260200190815260200160002060008473ffffffffffffffffffffffffffffffffffffffff1673ffffffffffffffffffffffffffffffffffffffff168152602001908152602001600020819055508173ffffffffffffffffffffffffffffffffffffffff168373ffffffffffffffffffffffffffffffffffffffff167f8c5be1e5ebec7d5bd14f71427d1e84f3dd0314c0f7b2291e5b200ac8c7c3b925836040516108169190610cff565b60405180910390a3505050565b600061082f84846105cb565b90507fffffffffffffffffffffffffffffffffffffffffffffffffffffffffffffffff81146108a9578181101561089b576040517f08c379a000000000000000000000000000000000000000000000000000000000815260040161089290611150565b60405180910390fd5b6108a8848484840361065a565b5b50505050565b600073ffffffffffffffffffffffffffffffffffffffff168373ffffffffffffffffffffffffffffffffffffffff160361091e576040517f08c379a0000000000000000000000000000000000000000000000000000000008152600401610915906111e2565b60405180910390fd5b600073ffffffffffffffffffffffffffffffffffffffff168273ffffffffffffffffffffffffffffffffffffffff160361098d576040517f08c379a000000000000000000000000000000000000000000000000000000000815260040161098490611274565b60405180910390fd5b610998838383610b25565b60008060008573ffffffffffffffffffffffffffffffffffffffff1673ffffffffffffffffffffffffffffffffffffffff16815260200190815260200160002054905081811015610a1e576040517f08c379a0000000000000000000000000000000000000000000000000000000008152600401610a1590611306565b60405180910390fd5b8181036000808673ffffffffffffffffffffffffffffffffffffffff1673ffffffffffffffffffffffffffffffffffffffff16815260200190815260200160002081905550816000808573ffffffffffffffffffffffffffffffffffffffff1673ffffffffffffffffffffffffffffffffffffffff168152602001908152602001600020600082825401925050819055508273ffffffffffffffffffffffffffffffffffffffff168473ffffffffffffffffffffffffffffffffffffffff167fddf252ad1be2c89b69c2b068fc378daa952ba7f163c4a11628f55a4df523b3ef84604051610b0c9190610cff565b60405180910390a3610b1f848484610b2a565b50505050565b505050565b505050565b600081519050919050565b600082825260208201905092915050565b60005b83811015610b69578082015181840152602081019050610b4e565b60008484015250505050565b6000601f19601f8301169050919050565b6000610b9182610b2f565b610b9b8185610b3a565b9350610bab818560208601610b4b565b610bb481610b75565b840191505092915050565b60006020820190508181036000830152610bd98184610b86565b905092915050565b600080fd5b600073ffffffffffffffffffffffffffffffffffffffff82169050919050565b6000610c1182610be6565b9050919050565b610c2181610c06565b8114610c2c57600080fd5b50565b600081359050610c3e81610c18565b92915050565b6000819050919050565b610c5781610c44565b8114610c6257600080fd5b50565b600081359050610c7481610c4e565b92915050565b60008060408385031215610c9157610c90610be1565b5b6000610c9f85828601610c2f565b9250506020610cb085828601610c65565b9150509250929050565b60008115159050919050565b610ccf81610cba565b82525050565b6000602082019050610cea6000830184610cc6565b92915050565b610cf981610c44565b82525050565b6000602082019050610d146000830184610cf0565b92915050565b6000819050919050565b6000610d3f610d3a610d3584610be6565b610d1a565b610be6565b9050919050565b6000610d5182610d24565b9050919050565b6000610d6382610d46565b9050919050565b610d7381610d58565b82525050565b6000602082019050610d8e6000830184610d6a565b92915050565b600080600060608486031215610dad57610dac610be1565b5b6000610dbb86828701610c2f565b9350506020610dcc86828701610c2f565b9250506040610ddd86828701610c65565b9150509250925092565b600060ff82169050919050565b610dfd81610de7565b82525050565b6000602082019050610e186000830184610df4565b92915050565b600060208284031215610e3457610e33610be1565b5b6000610e4284828501610c2f565b91505092915050565b60008060408385031215610e6257610e61610be1565b5b6000610e7085828601610c2f565b9250506020610e8185828601610c2f565b9150509250929050565b7f4e487b7100000000000000000000000000000000000000000000000000000000600052602260045260246000fd5b60006002820490506001821680610ed257607f821691505b602082108103610ee557610ee4610e8b565b5b50919050565b7f4e487b7100000000000000000000000000000000000000000000000000000000600052601160045260246000fd5b6000610f2582610c44565b9150610f3083610c44565b9250828201905080821115610f4857610f47610eeb565b5b92915050565b7f45524332303a2064656372656173656420616c6c6f77616e63652062656c6f7760008201527f207a65726f000000000000000000000000000000000000000000000000000000602082015250565b6000610faa602583610b3a565b9150610fb582610f4e565b604082019050919050565b60006020820190508181036000830152610fd981610f9d565b9050919050565b7f45524332303a20617070726f76652066726f6d20746865207a65726f2061646460008201527f7265737300000000000000000000000000000000000000000000000000000000602082015250565b600061103c602483610b3a565b915061104782610fe0565b604082019050919050565b6000602082019050818103600083015261106b8161102f565b9050919050565b7f45524332303a20617070726f766520746f20746865207a65726f20616464726560008201527f7373000000000000000000000000000000000000000000000000000000000000602082015250565b60006110ce602283610b3a565b91506110d982611072565b604082019050919050565b600060208201905081810360008301526110fd816110c1565b9050919050565b7f45524332303a20696e73756666696369656e7420616c6c6f77616e6365000000600082015250565b600061113a601d83610b3a565b915061114582611104565b602082019050919050565b600060208201905081810360008301526111698161112d565b9050919050565b7f45524332303a207472616e736665722066726f6d20746865207a65726f20616460008201527f6472657373000000000000000000000000000000000000000000000000000000602082015250565b60006111cc602583610b3a565b91506111d782611170565b604082019050919050565b600060208201905081810360008301526111fb816111bf565b9050919050565b7f45524332303a207472616e7366657220746f20746865207a65726f206164647260008201527f6573730000000000000000000000000000000000000000000000000000000000602082015250565b600061125e602383610b3a565b915061126982611202565b604082019050919050565b6000602082019050818103600083015261128d81611251565b9050919050565b7f45524332303a207472616e7366657220616d6f756e742065786365656473206260008201527f616c616e63650000000000000000000000000000000000000000000000000000602082015250565b60006112f0602683610b3a565b91506112fb82611294565b604082019050919050565b6000602082019050818103600083015261131f816112e3565b905091905056fea264697066735822122008a25791c08c617f7169907f29d6322b8863485b9052bf2a90636e4736eedfbc64736f6c63430008110033",
  "immutableReferences": {},
  "source": "// SPDX-License-Identifier: UNLICENSED\npragma solidity ^0.8;\n\nimport \"@openzeppelin/contracts/token/ERC20/ERC20.sol\";\n\ncontract ERC20Token is ERC20 {\n    ERC20 public ERC20Interface;\n\n    uint256 private balance;\n    address private contracOwner;\n\n    constructor(\n        string memory _tokenName,\n        string memory _tokenSymbol,\n        uint256 _totalSupply,\n        address admin\n    ) ERC20(_tokenName, _tokenSymbol) {\n        _mint(admin, _totalSupply * (10 ** uint256(18)));\n        balance = totalSupply();\n        contracOwner = msg.sender;\n    }\n\n    modifier onlyContract() {\n        require(msg.sender == contracOwner, \"Only Owner\");\n        _;\n    }\n\n    function transfer(address from, address to, uint256 tokens) public {\n        _transfer(from, to, tokens);\n    }\n}\n",
  "sourcePath": "/home/neosoft/projects/solidity/crowdFunding/crowdfunding-dao-solidity/contracts/ERC20.sol",
  "compiler": {
    "name": "solc",
    "version": "0.8.17+commit.8df45f5f.Emscripten.clang"
  },
  "schemaVersion": "3.4.11",
  "updatedAt": "2023-03-22T11:53:56.329Z",
  "devdoc": {
    "kind": "dev",
    "methods": {
      "allowance(address,address)": {
        "details": "See {IERC20-allowance}."
      },
      "approve(address,uint256)": {
        "details": "See {IERC20-approve}. NOTE: If `amount` is the maximum `uint256`, the allowance is not updated on `transferFrom`. This is semantically equivalent to an infinite approval. Requirements: - `spender` cannot be the zero address."
      },
      "balanceOf(address)": {
        "details": "See {IERC20-balanceOf}."
      },
      "decimals()": {
        "details": "Returns the number of decimals used to get its user representation. For example, if `decimals` equals `2`, a balance of `505` tokens should be displayed to a user as `5.05` (`505 / 10 ** 2`). Tokens usually opt for a value of 18, imitating the relationship between Ether and Wei. This is the value {ERC20} uses, unless this function is overridden; NOTE: This information is only used for _display_ purposes: it in no way affects any of the arithmetic of the contract, including {IERC20-balanceOf} and {IERC20-transfer}."
      },
      "decreaseAllowance(address,uint256)": {
        "details": "Atomically decreases the allowance granted to `spender` by the caller. This is an alternative to {approve} that can be used as a mitigation for problems described in {IERC20-approve}. Emits an {Approval} event indicating the updated allowance. Requirements: - `spender` cannot be the zero address. - `spender` must have allowance for the caller of at least `subtractedValue`."
      },
      "increaseAllowance(address,uint256)": {
        "details": "Atomically increases the allowance granted to `spender` by the caller. This is an alternative to {approve} that can be used as a mitigation for problems described in {IERC20-approve}. Emits an {Approval} event indicating the updated allowance. Requirements: - `spender` cannot be the zero address."
      },
      "name()": {
        "details": "Returns the name of the token."
      },
      "symbol()": {
        "details": "Returns the symbol of the token, usually a shorter version of the name."
      },
      "totalSupply()": {
        "details": "See {IERC20-totalSupply}."
      },
      "transfer(address,uint256)": {
        "details": "See {IERC20-transfer}. Requirements: - `to` cannot be the zero address. - the caller must have a balance of at least `amount`."
      },
      "transferFrom(address,address,uint256)": {
        "details": "See {IERC20-transferFrom}. Emits an {Approval} event indicating the updated allowance. This is not required by the EIP. See the note at the beginning of {ERC20}. NOTE: Does not update the allowance if the current allowance is the maximum `uint256`. Requirements: - `from` and `to` cannot be the zero address. - `from` must have a balance of at least `amount`. - the caller must have allowance for ``from``'s tokens of at least `amount`."
      }
    },
    "version": 1
  },
  "userdoc": {
    "kind": "user",
    "methods": {},
    "version": 1
  }
}