{
  "contractName": "OwnableContract",
  "abi": [
    {
      "inputs": [],
      "stateMutability": "nonpayable",
      "type": "constructor"
    },
    {
      "anonymous": false,
      "inputs": [
        {
          "indexed": true,
          "internalType": "address",
          "name": "addedBy",
          "type": "address"
        },
        {
          "indexed": true,
          "internalType": "address",
          "name": "newAdmin",
          "type": "address"
        }
      ],
      "name": "AdminAdded",
      "type": "event"
    },
    {
      "anonymous": false,
      "inputs": [
        {
          "indexed": true,
          "internalType": "address",
          "name": "removedBy",
          "type": "address"
        },
        {
          "indexed": true,
          "internalType": "address",
          "name": "admin",
          "type": "address"
        }
      ],
      "name": "AdminRemoved",
      "type": "event"
    },
    {
      "anonymous": false,
      "inputs": [
        {
          "indexed": true,
          "internalType": "address",
          "name": "previousOwner",
          "type": "address"
        },
        {
          "indexed": true,
          "internalType": "address",
          "name": "newOwner",
          "type": "address"
        }
      ],
      "name": "OwnershipTransferred",
      "type": "event"
    },
    {
      "inputs": [],
      "name": "owner",
      "outputs": [
        {
          "internalType": "address",
          "name": "",
          "type": "address"
        }
      ],
      "stateMutability": "view",
      "type": "function",
      "constant": true
    },
    {
      "inputs": [
        {
          "internalType": "address",
          "name": "_address",
          "type": "address"
        }
      ],
      "name": "admin",
      "outputs": [
        {
          "internalType": "bool",
          "name": "",
          "type": "bool"
        }
      ],
      "stateMutability": "view",
      "type": "function",
      "constant": true
    },
    {
      "inputs": [
        {
          "internalType": "address",
          "name": "_whitelistAdmin",
          "type": "address"
        }
      ],
      "name": "addWhitelistedAdmin",
      "outputs": [
        {
          "internalType": "bool",
          "name": "",
          "type": "bool"
        }
      ],
      "stateMutability": "nonpayable",
      "type": "function"
    },
    {
      "inputs": [
        {
          "internalType": "address",
          "name": "_whitelistAdmin",
          "type": "address"
        }
      ],
      "name": "removeWhitelistedAdmin",
      "outputs": [
        {
          "internalType": "bool",
          "name": "",
          "type": "bool"
        }
      ],
      "stateMutability": "nonpayable",
      "type": "function"
    },
    {
      "inputs": [
        {
          "internalType": "address",
          "name": "_address",
          "type": "address"
        }
      ],
      "name": "checkAdmin",
      "outputs": [
        {
          "internalType": "bool",
          "name": "",
          "type": "bool"
        }
      ],
      "stateMutability": "view",
      "type": "function",
      "constant": true
    },
    {
      "inputs": [
        {
          "internalType": "address",
          "name": "_address",
          "type": "address"
        }
      ],
      "name": "checkOwner",
      "outputs": [
        {
          "internalType": "bool",
          "name": "",
          "type": "bool"
        }
      ],
      "stateMutability": "view",
      "type": "function",
      "constant": true
    },
    {
      "inputs": [
        {
          "internalType": "address",
          "name": "newOwner",
          "type": "address"
        }
      ],
      "name": "transferOwnership",
      "outputs": [],
      "stateMutability": "nonpayable",
      "type": "function"
    }
  ],
  "bytecode": "0x608060405234801561001057600080fd5b5061003f61002b6100b1640100000000026401000000009004565b6100b9640100000000026401000000009004565b600180600061005b6100b1640100000000026401000000009004565b73ffffffffffffffffffffffffffffffffffffffff1673ffffffffffffffffffffffffffffffffffffffff16815260200190815260200160002060006101000a81548160ff02191690831515021790555061017d565b600033905090565b60008060009054906101000a900473ffffffffffffffffffffffffffffffffffffffff169050816000806101000a81548173ffffffffffffffffffffffffffffffffffffffff021916908373ffffffffffffffffffffffffffffffffffffffff1602179055508173ffffffffffffffffffffffffffffffffffffffff168173ffffffffffffffffffffffffffffffffffffffff167f8be0079c531659141344cd1fd0a4f28419497f9722a3daafe3b4186f6b6457e060405160405180910390a35050565b610d668061018c6000396000f3fe608060405234801561001057600080fd5b506004361061009a576000357c010000000000000000000000000000000000000000000000000000000090048063bf2f297711610078578063bf2f29771461011d578063e0e3671c1461014d578063f2fde38b1461017d578063f441ecaa146101995761009a565b806363a846f81461009f5780638da5cb5b146100cf5780639026dee8146100ed575b600080fd5b6100b960048036038101906100b49190610998565b6101c9565b6040516100c691906109e0565b60405180910390f35b6100d761021f565b6040516100e49190610a0a565b60405180910390f35b61010760048036038101906101029190610998565b610248565b60405161011491906109e0565b60405180910390f35b61013760048036038101906101329190610998565b6102e1565b60405161014491906109e0565b60405180910390f35b61016760048036038101906101629190610998565b6104b8565b60405161017491906109e0565b60405180910390f35b61019760048036038101906101929190610998565b61053a565b005b6101b360048036038101906101ae9190610998565b61062c565b6040516101c091906109e0565b60405180910390f35b6000600160008373ffffffffffffffffffffffffffffffffffffffff1673ffffffffffffffffffffffffffffffffffffffff16815260200190815260200160002060009054906101000a900460ff169050919050565b60008060009054906101000a900473ffffffffffffffffffffffffffffffffffffffff16905090565b600081600160008273ffffffffffffffffffffffffffffffffffffffff1673ffffffffffffffffffffffffffffffffffffffff16815260200190815260200160002060009054906101000a900460ff166102d7576040517f08c379a00000000000000000000000000000000000000000000000000000000081526004016102ce90610aa8565b60405180910390fd5b6001915050919050565b600033600160008273ffffffffffffffffffffffffffffffffffffffff1673ffffffffffffffffffffffffffffffffffffffff16815260200190815260200160002060009054906101000a900460ff16610370576040517f08c379a000000000000000000000000000000000000000000000000000000000815260040161036790610aa8565b60405180910390fd5b600160008473ffffffffffffffffffffffffffffffffffffffff1673ffffffffffffffffffffffffffffffffffffffff16815260200190815260200160002060009054906101000a900460ff16156103fd576040517f08c379a00000000000000000000000000000000000000000000000000000000081526004016103f490610b3a565b60405180910390fd5b60018060008573ffffffffffffffffffffffffffffffffffffffff1673ffffffffffffffffffffffffffffffffffffffff16815260200190815260200160002060006101000a81548160ff0219169083151502179055508273ffffffffffffffffffffffffffffffffffffffff163373ffffffffffffffffffffffffffffffffffffffff167fbf3f493c772c8c283fd124432c2d0f539ab343faa04258fe88e52912d36b102b60405160405180910390a36001915050919050565b6000818073ffffffffffffffffffffffffffffffffffffffff166104da61021f565b73ffffffffffffffffffffffffffffffffffffffff1614610530576040517f08c379a000000000000000000000000000000000000000000000000000000000815260040161052790610ba6565b60405180910390fd5b6001915050919050565b338073ffffffffffffffffffffffffffffffffffffffff1661055a61021f565b73ffffffffffffffffffffffffffffffffffffffff16146105b0576040517f08c379a00000000000000000000000000000000000000000000000000000000081526004016105a790610ba6565b60405180910390fd5b600073ffffffffffffffffffffffffffffffffffffffff168273ffffffffffffffffffffffffffffffffffffffff160361061f576040517f08c379a000000000000000000000000000000000000000000000000000000000815260040161061690610c38565b60405180910390fd5b61062882610871565b5050565b600033600160008273ffffffffffffffffffffffffffffffffffffffff1673ffffffffffffffffffffffffffffffffffffffff16815260200190815260200160002060009054906101000a900460ff166106bb576040517f08c379a00000000000000000000000000000000000000000000000000000000081526004016106b290610aa8565b60405180910390fd5b600160008473ffffffffffffffffffffffffffffffffffffffff1673ffffffffffffffffffffffffffffffffffffffff16815260200190815260200160002060009054906101000a900460ff16610747576040517f08c379a000000000000000000000000000000000000000000000000000000000815260040161073e90610ca4565b60405180910390fd5b3373ffffffffffffffffffffffffffffffffffffffff168373ffffffffffffffffffffffffffffffffffffffff16036107b5576040517f08c379a00000000000000000000000000000000000000000000000000000000081526004016107ac90610d10565b60405180910390fd5b6000600160008573ffffffffffffffffffffffffffffffffffffffff1673ffffffffffffffffffffffffffffffffffffffff16815260200190815260200160002060006101000a81548160ff0219169083151502179055508273ffffffffffffffffffffffffffffffffffffffff163373ffffffffffffffffffffffffffffffffffffffff167fdb9d5d31320daf5bc7181d565b6da4d12e30f0f4d5aa324a992426c14a1d19ce60405160405180910390a36001915050919050565b60008060009054906101000a900473ffffffffffffffffffffffffffffffffffffffff169050816000806101000a81548173ffffffffffffffffffffffffffffffffffffffff021916908373ffffffffffffffffffffffffffffffffffffffff1602179055508173ffffffffffffffffffffffffffffffffffffffff168173ffffffffffffffffffffffffffffffffffffffff167f8be0079c531659141344cd1fd0a4f28419497f9722a3daafe3b4186f6b6457e060405160405180910390a35050565b600080fd5b600073ffffffffffffffffffffffffffffffffffffffff82169050919050565b60006109658261093a565b9050919050565b6109758161095a565b811461098057600080fd5b50565b6000813590506109928161096c565b92915050565b6000602082840312156109ae576109ad610935565b5b60006109bc84828501610983565b91505092915050565b60008115159050919050565b6109da816109c5565b82525050565b60006020820190506109f560008301846109d1565b92915050565b610a048161095a565b82525050565b6000602082019050610a1f60008301846109fb565b92915050565b600082825260208201905092915050565b7f4f776e61626c653a2063616c6c6572206973206e6f742074686520776869746560008201527f6c69737465642061646d696e0000000000000000000000000000000000000000602082015250565b6000610a92602c83610a25565b9150610a9d82610a36565b604082019050919050565b60006020820190508181036000830152610ac181610a85565b9050919050565b7f4f776e61626c653a20616c726561647920612077686974656c6973746564206160008201527f646d696e00000000000000000000000000000000000000000000000000000000602082015250565b6000610b24602483610a25565b9150610b2f82610ac8565b604082019050919050565b60006020820190508181036000830152610b5381610b17565b9050919050565b7f4f776e61626c653a2063616c6c6572206973206e6f7420746865206f776e6572600082015250565b6000610b90602083610a25565b9150610b9b82610b5a565b602082019050919050565b60006020820190508181036000830152610bbf81610b83565b9050919050565b7f4f776e61626c653a206e6577206f776e657220697320746865207a65726f206160008201527f6464726573730000000000000000000000000000000000000000000000000000602082015250565b6000610c22602683610a25565b9150610c2d82610bc6565b604082019050919050565b60006020820190508181036000830152610c5181610c15565b9050919050565b7f4f776e61626c653a206e6f7420612077686974656c69737465642061646d696e600082015250565b6000610c8e602083610a25565b9150610c9982610c58565b602082019050919050565b60006020820190508181036000830152610cbd81610c81565b9050919050565b7f4f776e61626c653a2073656c662d72656d6f7665206e6f7420616c6c6f776564600082015250565b6000610cfa602083610a25565b9150610d0582610cc4565b602082019050919050565b60006020820190508181036000830152610d2981610ced565b905091905056fea264697066735822122027cda4efb1cc6adf35c6cee2417ea8b37295ccd8cbacae9142d99ee130b683ce64736f6c63430008110033",
  "immutableReferences": {},
  "source": "// SPDX-License-Identifier: MIT\n\npragma solidity ^0.8.0;\n\nimport \"./Contexts.sol\";\n\n/**\n * @dev Contract module which provides a basic access control mechanism, where\n * there is an account (an owner) that can be granted exclusive access to\n * specific functions.\n *\n * By default, the owner account will be the one that deploys the contract. This\n * can later be changed with {transferOwnership}.\n */\ncontract OwnableContract is Contexts {\n    address private _owner;\n    mapping (address => bool) private _whitelistedAdmin;\n\n    event OwnershipTransferred(address indexed previousOwner, address indexed newOwner);\n    event AdminAdded(address indexed addedBy, address indexed newAdmin);\n    event AdminRemoved(address indexed removedBy, address indexed admin);\n\n    /**\n     * @dev Initializes the contract setting the deployer as the initial owner.\n     */\n    constructor() {\n        _transferOwnership(_msgSender());\n        _whitelistedAdmin[_msgSender()] = true;\n    }\n\n    /**\n     * @dev Throws if called by any account other than the owner.\n     */\n    modifier onlyOwner(address _address) {\n        require(owner() == _address, \"Ownable: caller is not the owner\");\n        _;\n    }\n\n    /**\n     * @dev Throws if called by any account other than the whitelistedAdmin.\n     */\n    modifier onlyWhitelistedAdmin(address _address){\n        require(_whitelistedAdmin[_address], \"Ownable: caller is not the whitelisted admin\");\n        _;\n    }\n\n    /**\n     * @dev Returns the address of the current owner.\n     */\n    function owner() public view virtual returns (address) {\n        return _owner;\n    }\n\n    /**\n     * @dev Return `true` if the @param _address is the whitelistedAdmin else `false`.\n     */\n    function admin(address _address) external view returns(bool){\n        return _whitelistedAdmin[_address];\n    }\n\n    /**\n     * @dev Add new Admin to _whitelistedAdmin mapping.\n     * Can only be called by the current owner and existing admin.\n     */\n    function addWhitelistedAdmin(address _whitelistAdmin)external onlyWhitelistedAdmin(msg.sender) returns(bool){\n        require(!_whitelistedAdmin[_whitelistAdmin], \"Ownable: already a whitelisted admin\");\n        _whitelistedAdmin[_whitelistAdmin] = true;\n        emit AdminAdded(msg.sender, _whitelistAdmin);\n        return true;\n    }\n\n    /**\n     * @dev Remove existing Admin from _whitelistedAdmin mapping.\n     * Can only be called by the current owner and existing admin.\n     * Existing admin will not able to remove him/her self form _whitelistedAdmin mapping.\n     */\n    function removeWhitelistedAdmin(address _whitelistAdmin)external onlyWhitelistedAdmin(msg.sender) returns(bool){\n        require(_whitelistedAdmin[_whitelistAdmin], \"Ownable: not a whitelisted admin\");\n        require(_whitelistAdmin != msg.sender, \"Ownable: self-remove not allowed\");\n        _whitelistedAdmin[_whitelistAdmin] = false;\n        emit AdminRemoved(msg.sender, _whitelistAdmin);\n        return true;\n    }\n\n    /**\n     * @dev Return `true` if the @param _address is the whitelistedAdmin else `revert`.\n     */\n    function checkAdmin(address _address) external view onlyWhitelistedAdmin(_address) returns(bool){\n        return true;\n    }\n\n    /**\n     * @dev Return `true` if the @param _address is the owner else `revert`.\n      */\n    function checkOwner(address _address) external view onlyOwner(_address) returns(bool){\n        return true;\n    }\n\n    /**\n     * @dev Transfers ownership of the contract to a new account (`newOwner`).\n     * Can only be called by the current owner.\n     */\n    function transferOwnership(address newOwner) public virtual onlyOwner(msg.sender) {\n        require(newOwner != address(0), \"Ownable: new owner is the zero address\");\n        _transferOwnership(newOwner);\n    }\n\n    /**\n     * @dev Transfers ownership of the contract to a new account (`newOwner`).\n     * Internal function without access restriction.\n     */\n    function _transferOwnership(address newOwner) internal virtual {\n        address oldOwner = _owner;\n        _owner = newOwner;\n        emit OwnershipTransferred(oldOwner, newOwner);\n    }\n}",
  "sourcePath": "/home/neosoft/projects/solidity/crowdFunding/crowdfunding-dao-solidity/contracts/ERC20/Ownable.sol",
  "compiler": {
    "name": "solc",
    "version": "0.8.17+commit.8df45f5f.Emscripten.clang"
  },
  "schemaVersion": "3.4.11",
  "updatedAt": "2023-05-10T11:44:56.197Z",
  "networkType": "ethereum",
  "devdoc": {
    "details": "Contract module which provides a basic access control mechanism, where there is an account (an owner) that can be granted exclusive access to specific functions. By default, the owner account will be the one that deploys the contract. This can later be changed with {transferOwnership}.",
    "kind": "dev",
    "methods": {
      "addWhitelistedAdmin(address)": {
        "details": "Add new Admin to _whitelistedAdmin mapping. Can only be called by the current owner and existing admin."
      },
      "admin(address)": {
        "details": "Return `true` if the @param _address is the whitelistedAdmin else `false`."
      },
      "checkAdmin(address)": {
        "details": "Return `true` if the @param _address is the whitelistedAdmin else `revert`."
      },
      "checkOwner(address)": {
        "details": "Return `true` if the @param _address is the owner else `revert`."
      },
      "constructor": {
        "details": "Initializes the contract setting the deployer as the initial owner."
      },
      "owner()": {
        "details": "Returns the address of the current owner."
      },
      "removeWhitelistedAdmin(address)": {
        "details": "Remove existing Admin from _whitelistedAdmin mapping. Can only be called by the current owner and existing admin. Existing admin will not able to remove him/her self form _whitelistedAdmin mapping."
      },
      "transferOwnership(address)": {
        "details": "Transfers ownership of the contract to a new account (`newOwner`). Can only be called by the current owner."
      }
    },
    "version": 1
  },
  "userdoc": {
    "kind": "user",
    "methods": {},
    "version": 1
  }
}