{
  "contractName": "States",
  "abi": [
    {
      "anonymous": false,
      "inputs": [
        {
          "indexed": true,
          "internalType": "uint256",
          "name": "campaignId",
          "type": "uint256"
        }
      ],
      "name": "approved",
      "type": "event"
    },
    {
      "anonymous": false,
      "inputs": [
        {
          "indexed": true,
          "internalType": "uint256",
          "name": "campaignId",
          "type": "uint256"
        },
        {
          "indexed": false,
          "internalType": "string",
          "name": "_companyName",
          "type": "string"
        },
        {
          "indexed": false,
          "internalType": "string",
          "name": "_title",
          "type": "string"
        },
        {
          "indexed": false,
          "internalType": "string",
          "name": "_description",
          "type": "string"
        },
        {
          "indexed": true,
          "internalType": "uint256",
          "name": "_pricePerToken",
          "type": "uint256"
        },
        {
          "indexed": false,
          "internalType": "string",
          "name": "_tokenName",
          "type": "string"
        },
        {
          "indexed": true,
          "internalType": "uint256",
          "name": "deadLine",
          "type": "uint256"
        },
        {
          "indexed": false,
          "internalType": "uint256",
          "name": "_target",
          "type": "uint256"
        },
        {
          "indexed": false,
          "internalType": "string",
          "name": "_tokenSymbol",
          "type": "string"
        },
        {
          "indexed": false,
          "internalType": "uint256",
          "name": "_totalSupply",
          "type": "uint256"
        }
      ],
      "name": "campaignCreated",
      "type": "event"
    },
    {
      "anonymous": false,
      "inputs": [
        {
          "indexed": true,
          "internalType": "uint256",
          "name": "campaignId",
          "type": "uint256"
        },
        {
          "indexed": true,
          "internalType": "uint256",
          "name": "contribution",
          "type": "uint256"
        },
        {
          "indexed": true,
          "internalType": "address",
          "name": "contributer",
          "type": "address"
        }
      ],
      "name": "contribution",
      "type": "event"
    },
    {
      "anonymous": false,
      "inputs": [
        {
          "indexed": true,
          "internalType": "uint256",
          "name": "campaignId",
          "type": "uint256"
        },
        {
          "indexed": true,
          "internalType": "uint256",
          "name": "contribution",
          "type": "uint256"
        },
        {
          "indexed": true,
          "internalType": "address",
          "name": "contributer",
          "type": "address"
        }
      ],
      "name": "refunded",
      "type": "event"
    },
    {
      "anonymous": false,
      "inputs": [
        {
          "indexed": true,
          "internalType": "uint256",
          "name": "campaignId",
          "type": "uint256"
        }
      ],
      "name": "rejected",
      "type": "event"
    },
    {
      "inputs": [],
      "name": "admin",
      "outputs": [
        {
          "internalType": "address",
          "name": "",
          "type": "address"
        }
      ],
      "stateMutability": "view",
      "type": "function"
    },
    {
      "inputs": [],
      "name": "campaignCount",
      "outputs": [
        {
          "internalType": "uint256",
          "name": "",
          "type": "uint256"
        }
      ],
      "stateMutability": "view",
      "type": "function"
    }
  ],
  "bytecode": "0x608060405234801561001057600080fd5b50610167806100206000396000f3fe608060405234801561001057600080fd5b50600436106100365760003560e01c80637274e30d1461003b578063f851a44014610059575b600080fd5b610043610077565b60405161005091906100ba565b60405180910390f35b61006161007d565b60405161006e9190610116565b60405180910390f35b60025481565b60008054906101000a900473ffffffffffffffffffffffffffffffffffffffff1681565b6000819050919050565b6100b4816100a1565b82525050565b60006020820190506100cf60008301846100ab565b92915050565b600073ffffffffffffffffffffffffffffffffffffffff82169050919050565b6000610100826100d5565b9050919050565b610110816100f5565b82525050565b600060208201905061012b6000830184610107565b9291505056fea26469706673582212209d4344a4e3b498db4dc3a4bcfd5973d054707328e03212d29cd2b84ad829f05764736f6c63430008110033",
  "immutableReferences": {},
  "source": "// SPDX-License-Identifier: UNLICENSED\npragma solidity ^0.8;\n\nimport \"./ERC20.sol\";\n\n/// @title CrowdFudndingDao\n/// @author\n/// @notice You can use this contract for mint a new ERC20 based INRtoken\n/// @dev All function calls are currently implemented without side effects\n\ncontract States {\n    //State Variables\n    address public admin;\n    ERC20Token private token;\n\n    modifier onlyAdmin() {\n        require(admin == msg.sender, \"\");\n        _;\n    }\n\n    // modifier isCampaignFound(uint256 campaignId) {\n    //     require(campaignCount >= campaignId && campaignId > 0,\"No campaign\");\n    //     _;\n    // }\n\n    uint256 public campaignCount;\n\n    struct Campaign {\n        // contract address\n        address contractAddress;\n        // Company Name\n        string companyName;\n        // Name of the token\n        string tokenName;\n        // Symbol of the token\n        string tokenSymbol;\n        // Id of the Campaign\n        uint campaignId;\n        // Creator of the campaign\n        address creator;\n        // Title of the campaign\n        string campaignTitle;\n        // Campaign Description\n        string campaignDescription;\n        // pricePer token fixed by the user\n        uint256 pricePerToken;\n        // required fund\n        uint256 target;\n        // total contribution received\n        uint256 contribution;\n        // totalHeld Balance\n        uint256 heldBalance;\n        // Campaign Start Date\n        uint256 startDate;\n        // Campaign End Date\n        uint256 endDate;\n        // Status of the campaign\n        campainStatus status;\n    }\n\n    struct Company {\n        // Name of the company\n        string companyName;\n        // Token symbol created by the company\n        string tokenSymbol;\n        // Token name created by the company\n        string tokenName;\n        // Contract address against the company's campaign\n        address contractAddress;\n        // Total supply\n        uint256 totalSupply;\n    }\n\n    struct ContributionReceipt {\n        // address of the contributer\n        address contributer;\n        // Id of the camapign\n        uint256 campaignId;\n        // Token of contribution\n        uint256 tokens;\n        // Eth value\n        uint256 receivedEth;\n    }\n\n    /**\n     * @notice event for campaign creation\n     * @dev This event is emitted when a crowdfunding campaign is made.\n     * @param campaignId id of the campaign\n     * @param _companyName name of the company going to create the campaign\n     * @param _title title of the camapaign\n     * @param _description detailed description of the campaign\n     * @param _pricePerToken price per token for eg : 10 NEO tokens == 100INR( here 1 neo is equal to 10 INR)\n     * @param _tokenName Name of the token launched by the user\n     * @param deadLine End date for the campaign to contribute,\n     * @param _target goal of the crowd funding\n     * @param _tokenSymbol symbol of the token launched by the user\n     * @param _totalSupply total supply\n     */\n\n    event campaignCreated(\n        uint256 indexed campaignId,\n        string _companyName,\n        string _title,\n        string _description,\n        uint256 indexed _pricePerToken,\n        string _tokenName,\n        uint256 indexed deadLine,\n        uint256 _target,\n        string _tokenSymbol,\n        uint256 _totalSupply\n    );\n\n    /**\n     * @notice approval of the campaign\n     * @dev this event is emitted when a campaign gets approve by the admin\n     * @param campaignId id of the campaign\n     */\n\n    event approved(uint256 indexed campaignId);\n\n    /**\n     * @notice rejection of the campaign\n     * @dev this event is emitted when a campaign gets reject by the admin\n     * @param campaignId id of the campaign\n     */\n\n    event rejected(uint256 indexed campaignId);\n\n    /**\n     * @notice event for contribution\n     * @dev this event will emit when the contribution was maded by the users\n     * @param campaignId Id of the campaign\n     * @param contribution amount of the contribution by the user\n     * @param contributer address of the contributer\n     */\n\n    event contribution(\n        uint256 indexed campaignId,\n        uint256 indexed contribution,\n        address indexed contributer\n    );\n\n    /**\n     * @notice refund request against the contribution\n     * @dev This event will emit when refund is made\n     * @param campaignId Id of the campaign\n     * @param contribution amount of the contribution by the user\n     * @param contributer address of the contributer\n     */\n\n    event refunded(\n        uint256 indexed campaignId,\n        uint256 indexed contribution,\n        address indexed contributer\n    );\n\n    enum campainStatus {\n        APPROVED,\n        REJECTED,\n        PENDING\n    }\n\n    // CAMPAIGNID => CAMPAINGS\n    mapping(uint256 => Campaign) campaigns;\n\n    //CONTRACT ADDRESS => COMPANY\n    mapping(address => Company) companies;\n\n    // CAMPAIGNID => CONTRIBUTER => RECEIPT\n    mapping(uint256 => mapping(address => ContributionReceipt)) receipts;\n\n    // USER => BALANCE\n    mapping(address => uint256) balance;\n}\n",
  "sourcePath": "/home/neosoft/projects/solidity/crowdFunding/crowdfunding-dao-solidity/contracts/States.sol",
  "compiler": {
    "name": "solc",
    "version": "0.8.17+commit.8df45f5f.Emscripten.clang"
  },
  "schemaVersion": "3.4.11",
  "updatedAt": "2023-03-02T17:43:45.341Z",
  "devdoc": {
    "author": "@notice You can use this contract for mint a new ERC20 based INRtoken",
    "details": "All function calls are currently implemented without side effects",
    "events": {
      "approved(uint256)": {
        "details": "this event is emitted when a campaign gets approve by the admin",
        "params": {
          "campaignId": "id of the campaign"
        }
      },
      "campaignCreated(uint256,string,string,string,uint256,string,uint256,uint256,string,uint256)": {
        "details": "This event is emitted when a crowdfunding campaign is made.",
        "params": {
          "_companyName": "name of the company going to create the campaign",
          "_description": "detailed description of the campaign",
          "_pricePerToken": "price per token for eg : 10 NEO tokens == 100INR( here 1 neo is equal to 10 INR)",
          "_target": "goal of the crowd funding",
          "_title": "title of the camapaign",
          "_tokenName": "Name of the token launched by the user",
          "_tokenSymbol": "symbol of the token launched by the user",
          "_totalSupply": "total supply",
          "campaignId": "id of the campaign",
          "deadLine": "End date for the campaign to contribute,"
        }
      },
      "contribution(uint256,uint256,address)": {
        "details": "this event will emit when the contribution was maded by the users",
        "params": {
          "campaignId": "Id of the campaign",
          "contributer": "address of the contributer",
          "contribution": "amount of the contribution by the user"
        }
      },
      "refunded(uint256,uint256,address)": {
        "details": "This event will emit when refund is made",
        "params": {
          "campaignId": "Id of the campaign",
          "contributer": "address of the contributer",
          "contribution": "amount of the contribution by the user"
        }
      },
      "rejected(uint256)": {
        "details": "this event is emitted when a campaign gets reject by the admin",
        "params": {
          "campaignId": "id of the campaign"
        }
      }
    },
    "kind": "dev",
    "methods": {},
    "title": "CrowdFudndingDao",
    "version": 1
  },
  "userdoc": {
    "events": {
      "approved(uint256)": {
        "notice": "approval of the campaign"
      },
      "campaignCreated(uint256,string,string,string,uint256,string,uint256,uint256,string,uint256)": {
        "notice": "event for campaign creation"
      },
      "contribution(uint256,uint256,address)": {
        "notice": "event for contribution"
      },
      "refunded(uint256,uint256,address)": {
        "notice": "refund request against the contribution"
      },
      "rejected(uint256)": {
        "notice": "rejection of the campaign"
      }
    },
    "kind": "user",
    "methods": {},
    "version": 1
  }
}